:100000000C943A020C945B020C945B020C945B021D
:100010000C945B020C945B020C945B020C945B02EC
:100020000C945B020C945B020C945B020C94042A0B
:100030000C945B020C945B020C945B020C945B02CC
:100040000C945B020C9455250C945B020C945B029F
:100050000C945B020C945B020C945B020C946D2478
:100060000C945B020C949A3A0C94E3380C945B0267
:100070000C945B020C945B020C945B020C945B028C
:100080000C945B020C945B020C945B020C94382978
:100090000C945B020C945B020C945B020C945B026C
:1000A0000C945B020C945B020C945B020C945B025C
:1000B0000C945B020C945B020C945B020C945B024C
:1000C0000C945B020C945B020C945B020C945B023C
:1000D0000C945B020C945B020C945B020C945B022C
:1000E0000C945B023804A904A90442044F045C0484
:1000F0006904A9046D04A9047B04A90485048F0480
:100100009904F815FE15011604160916111619168C
:10011000B716B716B7162616291632163B16B71697
:10012000B716B716B716B716B716471651165D1697
:100130006516681671167A168016B716B7168916E0
:1001400092169D16D43AD63A143B143B143B143BFA
:10015000143B143B143B143B143B143BE23AE43A8B
:10016000E63AE83AEA3AEC3AEE3AF03A143BF43A34
:10017000F63AF83AFA3AFC3AFE3A143B003B023BB4
:10018000084AD73B3BCE016E84BCBFFDC12F3D6CFE
:1001900074319ABD56833DDA3D00C77F11BED9E464
:1001A000BB4C3E916BAAAABE000000803F05A84C44
:1001B000CDB2D44EB93836A9020C50B99186880810
:1001C0003CA6AAAA2ABE000000803F000C94F63A82
:1001D0000C94D63A0C94F83A0C9429160C94801688
:1001E0000C949D160C9465160C94FE150C94143BFF
:1001F0000C9438040C9432160C94FC3A0C940416AB
:100200000C945C040C94EC3A0C9447160C94F03A61
:100210000C948F040C9492160C945D160C94D43AA2
:100220000C947A160C94F43A0C947B040C94003BD6
:100230000C94E83A0C94A9040C9485040C94E23ACA
:100240000C943B160C94E43A0C9411160C94091679
:100250000C9451160C9419160C94B7160C94FA3A87
:100260000C9471160C946D040C9469040C94420463
:100270000C9401160C9489160C94EA3A0C942616E8
:100280000C94EE3A0C94F8150C94E63A0C94FE3A61
:100290000C9468160C944F040C9499040C94023B33
:1002A000536C656570696E6700526573746F72692F
:1002B0006E67207370696E646C6500526573746F4D
:1002C00072696E672064656661756C74730050674F
:1002D0006D20456E6400436865636B204C696D69F1
:1002E000747300436865636B20446F6F72004469E8
:1002F0007361626C656400456E61626C65640043A5
:10030000617574696F6E3A20556E6C6F636B6564CE
:1003100000272448277C2724582720746F20756ED7
:100320006C6F636B00526573657420746F20636F2C
:100330006E74696E7565005B4D53473A000D0A4750
:1003400072626C20312E3168205B27242720666F73
:10035000722068656C705D0D0A00244E005B4F5082
:10036000543A003A005B4158533A005B5645523AC2
:10037000312E31682E32303138303731323A005B2D
:10038000544C4F3A005B4739323A00333000323830
:10039000005B4700204700204D002053002046000E
:1003A00020540033382E005B47433A47005B484CEB
:1003B000503A242420242320244720244920244E5A
:1003C0002024783D76616C20244E783D6C696E6502
:1003D00020244A3D6C696E652024534C50202443F0
:1003E000202458202448207E2021203F206374723E
:1003F0006C2D785D0D0A00414C41524D3A007C4114
:100400003A007C4F763A007C57434F3A007C506E5E
:100410003A007C46533A007C4C6E3A007C42663A85
:10042000007C57506F733A007C4D506F733A005305
:100430006C65657000446F6F723A00436865636B6A
:1004400000416C61726D00486F6D65004A6F670016
:10045000486F6C643A0052756E0049646C65000D1B
:100460000A005B5052423A006572726F723A006F36
:100470006B0D0A0011241FBECFEFD1E2DEBFCDBF4E
:1004800000E00CBF12E0A0E0B2E0E4E2F2E800E03D
:100490000BBF02C007900D92AE31B107D9F721E131
:1004A000AEE1B2E001C01D92A53DB207E1F70E94A6
:1004B00006110C9410410C9400002F923F924F9221
:1004C0005F926F927F928F929F92AF92BF92CF92E4
:1004D000DF92EF92FF920F931F93CF93DF93CDB7ED
:1004E000DEB7CC55D1090FB6F894DEBF0FBECDBF35
:1004F0008AE4EAE2F3E0DF011D928A95E9F78BE0F6
:10050000E2EDF2E0ABE2B3E001900D928A95E1F703
:100510008091D510843211F00C94E51081E0809325
:100520002B0310922C0383E08EA3B1E0BFA7212CF4
:10053000312C1CAE1BAE1DAA1FA21BA6EE24E394F9
:10054000F12CEAE08E2E912CF1E6AF2EF3E0BF2ED7
:100550008EA1E82FF0E0EB52FF4ED080DD2009F4B1
:1005600075C26FEBC62ECD0CE9E1EC1510F40C94BE
:10057000B4108F5F8EA3BE016E5D7F4FCE01869655
:100580000E948A3B882311F40C94B6104AA05BA009
:100590006CA07DA0C301B2010E9479400E94B73DCA
:1005A000162F70E080E090E00E94E83D9B01AC01D6
:1005B000C301B2010E943E3C20E030E048EC52E42E
:1005C0000E94963F0E9403400E94B73DCB01F7E492
:1005D000DF1629F02DE4D21609F4E8C036C118322E
:1005E00009F4C3C020F5143168F4113108F089C052
:1005F000143009F451C008F463C01A3009F444C03F
:100600000C94C4101C3109F43FC050F4163110F0A2
:100610000C94C41025E1211B20932D0306E0AAC0F1
:100620001E3191F1163209F44BC00C94C4101D33E5
:1006300009F495C0A0F4153379F140F41B3209F4A4
:1006400077C0113309F474C00C94C4101C3310F03B
:100650000C94C41016531093310309E08BC01C3561
:1006600038F41A3508F052C0103581F10C94C410DA
:100670001C3551F01F3510F00C94C4102EE5211BD1
:1006800020932C0305E076C0009731F43BA531118F
:100690000C94B81041E04BA710932A03212F2D7F13
:1006A0002C3119F01C3509F062C0009721F00A972F
:1006B00011F00C94C410610F60932A0300E05FC036
:1006C000ABA5A1110C94B810B2E0BBA710932B03FB
:1006D000163209F04EC08431910559F08E319105E2
:1006E00041F08832910529F08233910511F00C9484
:1006F000C410B4010E94AB40665760932B0301E025
:100700003EC0115110932F0302E034C0892B29F40D
:100710001A5510932E0303E032C06A30710511F0B0
:100720000C94C4101A3511F40C94C41004E027C0C2
:10073000EBA5E1110C94B810113331F41092300391
:1007400008E0F3E0FBA71BC00A9711F00C94C4105B
:1007500021E02093300308E033E03BA710C0892B51
:1007600011F00C94C4100AE00AC007E003C000E0D6
:1007700001C001E0892B19F087E10C94EC10C7014E
:10078000002E02C0880F991F0A94E2F72BAD3CADF2
:1007900028233923232B19F085E10C94EC10ABAD01
:1007A000BCADA82BB92BBCAFABAFD2CE892B21F7F8
:1007B000163018F4133058F016C0173010F40C949B
:1007C000C4101A30F0F01E3159F00C94C4101123EB
:1007D00019F0113021F104C0B3E0B09332031FC00F
:1007E000109332031CC0143021F0153031F080E139
:1007F00001C080E28093340302C0109234030CE005
:100800000FC0183021F0193031F080E801C080E4C9
:100810008093330302C0109233030DE001C00BE05C
:10082000C701002E02C0880F991F0A94E2F72BAD72
:100830003CAD28233923232B09F0AECFEBADFCAD23
:10084000E82BF92BFCAFEBAF83CE8D2D0D2C000CDC
:10085000990BAA0BBB0BFC01E654F109EF30F10533
:1008600008F077C08827EE58FF4F8F4F0C94E14077
:1008700040923603509237036092380370923903E6
:1008800000E0BFC040923A0350923B0360923C03A9
:1008900070923D03FDA9F160FDAB01E0B2C0409252
:1008A0003E0350923F0360924003709241032DA992
:1008B00022602DAB02E0A5C0409242035092430358
:1008C00060924403709245033DA934603DAB03E060
:1008D00098C010934E0304E094C0C301B2010E947B
:1008E000B03D60934F0370935003809351039093F6
:1008F000520305E086C04092530350925403609225
:1009000055037092560306E07CC040925703509204
:1009100058036092590370925A0307E072C04092E4
:100920005B0350925C0360925D0370925E0308E08B
:1009300068C020E030E04FE753E4C301B2010E94F9
:10094000563F181614F40C94BA1010935F0309E084
:1009500058C048E5D4120DC0409260035092610324
:1009600060926203709263038FA181608FA30AE09B
:100970003FC099E5D9120DC04092640350926503BF
:100980006092660370926703AFA1A260AFA30BE011
:100990002FC0BAE5DB120DC0409268035092690384
:1009A00060926A0370926B03EFA1E460EFA30CE026
:1009B0001FC0F1E4DF120DC040926C0350926D0332
:1009C00060926E0370926F032FA128602FA30DE039
:1009D0000FC032E4D3120CC04092700350927103E6
:1009E00060927203709273034FA140614FA30EE0B7
:1009F00088EA8D0D833028F081E08C1510F40C947A
:100A0000C4106701002E02C0CC0CDD1C0A94E2F772
:100A1000C60182219321892B11F00C94BC10C501D1
:100A2000002E02C0959587950A94E2F780FF0BC0CF
:100A300020E030E0A901C301B2010E94343D87FFEC
:100A400002C00C94BE102C283D2882CD9FA1992372
:100A500029F0ABA5A11102C0B2E0BBA725FE0FC0D3
:100A600080914F0390915003A0915103B091520394
:100A700081389649A849B10514F00C94C010FFA51F
:100A8000FF2329F020FC02C00C94CA1018C08091EA
:100A90002C03813071F42BA52230E1F580912B03DA
:100AA0008035C1F18823B1F120FC02C00C94CA103A
:100AB00031C08091D30281112DC020FE1BC08091D6
:100AC0002D03813039F523E333E34BEC51E460919E
:100AD00036037091370380913803909139030E9457
:100AE000963F609336037093370380933803909357
:100AF000390310C08091E1029091E202A091E302DB
:100B0000B091E4028093360390933703A0933803A7
:100B1000B093390330FC10C08091DD029091DE0269
:100B2000A091DF02B091E00280935B0390935C039D
:100B3000A0935D03B0935E0380912A03843039F45F
:100B400026FC03C08CE10C94EC10E89426F880910C
:100B50002F03882371F08130C1F02A961FAE2A97A7
:100B600082E026968FAF269791E024969FAF249738
:100B700017C032E02A963FAF2A9741E026964FAF42
:100B8000269724961FAE24970BC0A1E02A96AFAFFC
:100B90002A9726961FAE2697B2E02496BFAF2497D9
:100BA00080912D03813021F0EBA5E330B9F52DC004
:100BB0005AE2E52E53E0F52E00E010E0FFA1CF2E23
:100BC000D12CC601002E02C0959587950A94E2F7B4
:100BD00080FF12C023E333E34BEC51E4D701D696F8
:100BE0006D917D918D919C91D9970E94963FF701CF
:100BF00066AB77AB80AF91AF0F5F1F4FF4E0EF0EA6
:100C0000F11C03301105E9F6CFCF8091300381301C
:100C100029F42FA1243011F00C94C21084E1EEEFDE
:100C2000F2E0DE01119601900D928A95E1F78BAD0D
:100C30009CAD91FD09C090912A039BAB9A30C9F0FD
:100C40009C3509F4AFC016C180913103873018F08C
:100C50008DE10C94EC109091D802891761F3BE01DC
:100C60006F5F7F4F0E94AA38882311F40C94D8102C
:100C7000E2CFAFA1A11103C08AE10C94EC10C10135
:100C800080759927892B09F45DCF6091530370918A
:100C9000540380915503909156030E9479400E941D
:100CA000B73D6730A8F680914E03843141F0823021
:100CB00011F00C94C41027FE02C00C94C410BFEABB
:100CC0002B22662319F0615069AF03C0E091310314
:100CD000E9AF6AE373E089AD0E94AA38882311F472
:100CE0000C94D81090904E03409026035090270308
:100CF00060902803709029030AE213E04AEEC42EA4
:100D000042E0D42EE12CF12CFFA1AF2EB12CC50175
:100D10000E2C02C0959587950A94E2F780FF34C0A7
:100D200024E1921228C0D60198962D913D914D91C3
:100D30005C919B976D917D918D919C910E943E3C21
:100D4000F80126A937A940AD51AD0E943E3CD8011B
:100D500050966D937D938D939C935397B2E0EB12D5
:100D600013C0A30192010E943E3CF801608B718B7D
:100D7000828B938B09C0F80186A997A9A0ADB1AD6C
:100D8000808B918BA28BB38BFFEFEF1AFF0A0C5F66
:100D90001F4F24E0C20ED11C35E0E316F10409F028
:100DA000B6CF37C14FA1442309F466CF4090260344
:100DB0005090270360902803709029032AEEA22EFA
:100DC00022E0B22E8E010F5F1F4F3AE2E32E33E096
:100DD000F32EC12CD12C842E912CC4010C2C02C0DA
:100DE000959587950A94E2F780FF29C0D8012D9147
:100DF0003D914D915C91F50160817181828193817A
:100E00000E943E3CD701D6962D913D914D915C912B
:100E1000D9970E943E3CF70166AB77AB80AF91AFAC
:100E2000F2E0CF1216C0A30192010E943E3CD7010E
:100E3000D6966D937D938D939C93D9970AC0F501B7
:100E400080A591A5A2A5B3A5F70186AB97ABA0AFEE
:100E5000B1AFFFEFCF1ADF0A24E0A20EB11C0C5F86
:100E60001F4F34E0E30EF11C45E0C416D10409F035
:100E7000B4CFCEC08BA5833071F49BA99E3109F409
:100E80008FC0953309F4BEC09C3109F0C1C06AE33C
:100E900073E086E088C0AFA1AA2379F3B0912E0356
:100EA000B9AF4090260350902703609028037090BC
:100EB00029039AEEC92E92E0D92E0AE213E0FE0130
:100EC00031964F01E12CF12CAA2EB12CC5010E2C2C
:100ED00002C0959587950A94E2F780FD0BC0F60154
:100EE00080819181A281B381F80186AB97ABA0AFDD
:100EF000B1AF45C0FBA9F53309F441C029AD2111BB
:100F00002BC0D60198962D913D914D915C919B9768
:100F1000F40160817181828193810E943F3CD801FC
:100F2000D6962D913D914D915C91D9970E943F3C71
:100F3000F80166AB77AB80AF91AFF2E0EF121FC064
:100F4000A30192010E943F3CD801D6966D937D93F8
:100F50008D939C93D99713C0F601208131814281F2
:100F60005381D801D6966D917D918D919C91D997A1
:100F70000E943F3CF80166AB77AB80AF91AFFFEFCB
:100F8000EF1AFF0A24E0C20ED11C0C5F1F4F34E0A1
:100F9000830E911C45E0E416F10409F097CF6DCF64
:100FA0006AE373E087E00E94AA38882311F40C9466
:100FB000D8108FA1811103C019AE1BA62AC0A2EDC3
:100FC000B2E0EAE2F3E080E090E04FA1242F30E0CD
:100FD000A901082E02C0559547950A94E2F740FDF5
:100FE0000AC058964D915D916D917C915B97408BB5
:100FF000518B628B738B01961496349685309105D4
:1010000039F706C080912B03823010F00C94C61083
:1010100019AE80912B038BAB803529F49FA19111E0
:101020000C94C81092C2ABA5A23009F08EC2BBA925
:10103000B11105C0EFA1EE2309F486C286C220E0FB
:1010400030E0A90160913603709137038091380335
:10105000909139030E94343D882311F40C94CA10F6
:10106000FBA9FC3809F459C240F4F230A9F0F3307E
:10107000B1F0F13009F069C20AC02BA92E3809F489
:101080004CC208F447C22F3809F444C25EC23FA1E3
:10109000332309F459C259C24FA544604FA78FA109
:1010A000882309F4E9CD24969FAD2497092F10E0F9
:1010B0002696BFAD2697AB2FB0E02196BFAFAEAF5F
:1010C000219781E090E07C0124960FAC249702C028
:1010D000EE0CFF1C0A94E2F726960FAC269702C08E
:1010E000880F991F0A94E2F7E82AF92AEFA18E2FB8
:1010F00090E08E219F21892B11F40C94CC10F801E3
:10110000EE0FFF1FEE0FFF1FE65DFC4FD801AA0F89
:10111000BB1FAA0FBB1FA651BD4F2D913D914D91F5
:101120005C9166A977A980AD91AD0E943E3C2B01F0
:101130003C012196EEADFFAD2197EE0FFF1FEE0FA4
:10114000FF1FE65DFC4F2196AEADBFAD2197AA0F04
:10115000BB1FAA0FBB1FA651BD4F2D913D914D91B5
:101160005C9166A977A980AD91AD0E943E3C4B0190
:101170005C016101F0E8CF22DD2427FEF6C0E8948F
:1011800027F844E150E060E673E08AEE92E00E94C6
:101190000341892B19F481E20C94EC1080912D030A
:1011A0008130B1F423E333E34BEC51E46091570316
:1011B000709158038091590390915A030E94963F71
:1011C00060935703709358038093590390935A0385
:1011D0008091570390915803A0915903B0915A03FD
:1011E0008DAB9EABAFABB8AFA3019201C301B2010F
:1011F0000E94963F61966CAF7DAF8EAF9FAF6197B7
:10120000A5019401C501B4010E94963F65966CAF9B
:101210007DAF8EAF9FAF659720E030E040E850E4AF
:101220006DA97EA98FA998AD0E94963F2DA93EA9D0
:101230004FA958AD0E94963F61962CAD3DAD4EAD85
:101240005FAD61970E943E3C65962CAD3DAD4EADC5
:101250005FAD65970E943E3C6B017C0120E030E071
:10126000A9010E94343D87FD99C7C701B6010E94BC
:1012700035406B017C0165962CAD3DAD4EAD5FAD4B
:10128000659761966CAD7DAD8EAD9FAD61970E9407
:101290003F3C0E9435409B01AC01C701B60190580C
:1012A0000E943E3D6B017C019BA9933021F4F7FA2B
:1012B000F094F7F8F09420E030E0A9016DA97EA940
:1012C0008FA998AD0E94343D87FF11C0F7FAF094C2
:1012D000F7F8F0948DA99EA9AFA9B8ADB058809346
:1012E000570390935803A0935903B0935A03000FE8
:1012F000111F000F111F065C1C4FA7019601C501AD
:10130000B4010E94963F9B01AC01C301B2010E944F
:101310003E3C20E030E040E05FE30E94963FD80191
:101320006D937D938D939C93139721960EAD1FAD76
:101330002197000F111F000F111F065C1C4FA70102
:101340009601C301B2010E94963FA50194010E943B
:101350003F3C20E030E040E05FE30E94963FF80130
:101360006083718382839383F0C03DA9232F30E093
:101370003EAB2DABE222F322EF2809F411C741EF77
:10138000242280912D03813009F47CC0F801EE0FF6
:10139000FF1FEE0FFF1FE65CFC4FC080D180E28094
:1013A000F380A7019601C301B2010E943E3C2B01CC
:1013B0003C012196EEADFFAD2197EE0FFF1FEE0F22
:1013C000FF1FE65CFC4F80819181A281B3818DABD0
:1013D0009EABAFABB8AF9C01AD01C501B4010E949B
:1013E0003E3C4B015C01A3019201C301B2010E948A
:1013F000963F2B013C01A5019401C501B4010E9457
:10140000963F9B01AC01C301B2010E943F3C0E9488
:1014100035404B015C01A7019601C701B6010E944E
:10142000963F6B017C012DA93EA94FA958ADCA0179
:10143000B9010E94963F9B01AC01C701B6010E9411
:101440003F3C0E9435406B017C01609357037093D1
:1014500058038093590390935A039B01AC01C50133
:10146000B4010E943E3C4B015C01E894B7F82AE0CD
:1014700037ED43EA5BE3C501B4010E94563F1816FD
:1014800064F163C09AE2E92E93E0F92E8DA99EA93A
:101490000C2C02C0959587950A94E2F780FF12C044
:1014A00023E333E34BEC51E4D70150966D917D91EA
:1014B0008D919C9153970E94963FF701608B718BA1
:1014C000828B938BFFEFCF1ADF0A24E0E20EF11C30
:1014D00033E0C316D104D1F659CF20E030E040E02C
:1014E0005FE3C501B4010E94563F18160CF453CEB9
:1014F0002FE632E143E85AE3C701B6010E94963F66
:101500009B01AC01C501B4010E94563F18160CF4B2
:1015100042CE1BC04FA540614FA78BA98E58823089
:1015200018F48FA588608FA79FA1992309F4A4CBF5
:1015300044E150E060E673E08AEE92E00E940341ED
:10154000892B09F428CE01C01BA62FA52170AFA5B9
:10155000C101A0FF02C08E7D02C08E7D9C7FBBA515
:10156000B1119370892B09F01DC68E010B5E1F4FC0
:101570008DE0F80111928A95E9F7222309F457C00A
:101580008BAD9CAD867B892B09F00EC680912A031A
:10159000853311F0811108C68091DD029091DE0241
:1015A000A091DF02B091E002898F9A8FAB8FBC8F40
:1015B0009091DB028091DA02892B409136035091A1
:1015C000370360913803709139034D8B5E8B6F8BBD
:1015D000788F846089A380914F0390915003A091EC
:1015E0005103B09152038D8F9E8FAF8FB8A380911E
:1015F000C20285FF06C080E693E00E947429811133
:10160000D5C5B80180E693E00E94273B809148024F
:101610008111D0C50E94D431892B09F4CBC580E259
:10162000809348020E949D1C0E94D528C3C58091CA
:10163000C202F090DB0281FF26C08BA9815083306B
:1016400018F0FFA5F064FFA72FA1222339F03BA5D6
:10165000323021F44FA540684FA715C080E1F81241
:1016600012C08091D20281509FA59074833030F4D3
:10167000992349F09FA590629FA705C0911103C0CF
:10168000AFA5A062AFA780914F0390915003A091A6
:101690005103B09152038093E6029093E702A09326
:1016A000E802B093E9028D8F9E8FAF8FB8A380912F
:1016B0002C038093D302882311F088E089A38091C2
:1016C000360390913703A0913803B091390380938A
:1016D000E1029093E202A093E302B093E4028D8BC7
:1016E0009E8BAF8BB88F80905B0390905C03A09033
:1016F0005D03B0905E03A50194016091DD027091DD
:10170000DE028091DF029091E0020E94343DBFA58D
:10171000B074EB2E811103C0EFA5E5FF20C0FF20C0
:1017200071F0FFA5F7FD0BC0EE2021F040E050E086
:10173000BA0102C0B501A4018F2D0E941D3A80910B
:101740005B0390915C03A0915D03B0915E03809375
:10175000DD029093DE02A093DF02B093E002E1107D
:101760000CC08091DD029091DE02A091DF02B09169
:10177000E002898F9A8FAB8FBC8F80915F0380933B
:10178000E502809134039091DB02981751F0498D66
:101790005A8D6B8D7C8D0E941D3A8091340380930D
:1017A000DB0299A18091DB02892B89A3F09033039E
:1017B0008091DA028F15A9F080914802823029F0D9
:1017C0000E94D2388F2D0E942E39809133038111CF
:1017D00003C01092DA0205C09091DA02892B80933F
:1017E000DA0299A18091DA02892B89A380912A03D8
:1017F000843099F4C0905303D0905403E090550383
:10180000F090560380914802823039F00E94D2381D
:1018100040E0C701B6010E94FF3080912F03809302
:10182000D60280912D038093D4022BA5233071F52D
:10183000809130038093D702811108C01092680311
:101840001092690310926A0310926B03C0906803B0
:10185000D0906903E0906A03F0906B03A7019601B2
:1018600060912603709127038091280390912903AA
:101870000E94343D882351F0C0922603D092270362
:10188000E0922803F09229030E94EB298091310312
:101890009091D802981769F08093D80284E1FE01F4
:1018A0003196AEEFB2E001900D928A95E1F70E9479
:1018B000EB2980912E038093D50280912A038632F2
:1018C000F1F138F48C3109F18E31F9F08A3069F098
:1018D0004FC08C35D1F1863609F441C0883209F009
:1018E00047C06AEE72E087E02DC06AE373E089AD1D
:1018F0000E94B0368091D80239AD381339C084E1E6
:10190000EAE3F3E0AEEFB2E025C089A1816089A3EC
:101910004BA5442329F0B80180E693E00E94273BC1
:10192000B8018AE393E00E94273B84E1EAE3F3E015
:10193000AAEEB2E001900D928A95E1F719C06AEE25
:1019400072E086E00E94B03613C084E1E0E6F3E086
:10195000A2E1B3E001900D928A95E1F707C084E11E
:10196000E2E1F3E0DF011D928A95E9F70E94EB299D
:1019700080912B038093D202803509F4A7C3BBA5C5
:10198000B23009F0A3C3813021F4BE016B5E7F4FFA
:1019900006C0811109C089A1816089A3B80180E6D0
:1019A00093E00E94273B89C38250823008F01DC318
:1019B0008091570390915803A0915903B0915A0315
:1019C0008BA79CA7ADA7BEA72496AFAD249794E0A4
:1019D000A99F70011124F701E651FD4FFCABEBAB61
:1019E0009701265C3C4F3AAF29AFD9014D905D90ED
:1019F0006D907C902081318142815381C301B2017D
:101A00000E943F3C6BAF7CAF8DAF9EAF2696EFAD93
:101A10002697B4E0EB9F80011124980126513D4F99
:101A20003EAB2DABC801865C9C4F25969FAF8EAF19
:101A30002597DC018D909D90AD90BC90F90120819F
:101A4000318142815381C501B4010E943F3C2996F6
:101A50006CAF7DAF8EAF9FAF299777FA709477F810
:101A60007094D501C401B0588FA398A7A9A7BAA7AD
:101A7000F701E05AFC4F2BAD3CAD4DAD5EAD608142
:101A80007181828193810E943E3C6B017C01F8014F
:101A9000E05AFC4F29962CAD3DAD4EAD5FAD299778
:101AA00060817181828193810E943E3C4B015C0187
:101AB000A7019601C301B2010E94963F23966CAF25
:101AC0007DAF8EAF9FAF2397A50194016FA178A53D
:101AD00089A59AA50E94963F9B01AC0123966CAD07
:101AE0007DAD8EAD9FAD23970E943F3C23966CAF9A
:101AF0007DAF8EAF9FAF2397A5019401C301B201C3
:101B00000E94963F4B015C01A70196016FA178A549
:101B100089A59AA50E94963F9B01AC01C501B4011D
:101B20000E943E3C23962CAD3DAD4EAD5FAD23975C
:101B30000E94BE3C6B017C019FA592FF13C02DEB60
:101B400037E346E055EBC701B6010E94563F87FDDB
:101B50001DC02BED3FE049EC50E4C701B6010E94E7
:101B60003E3C12C02DEB37E346E055E3C701B6011A
:101B70000E94343D181654F02BED3FE049EC50E440
:101B8000C701B6010E943F3C6B017C018090B60208
:101B90009090B702A090B802B090B9022BA53CA5D6
:101BA0004DA55EA5CA01B9010E943F3CA501940163
:101BB0000E943E3CA50194010E94963F0E94354040
:101BC0004B015C0120E030E040E05FE3C701B6017B
:101BD0000E94963F2BA53CA54DA55EA50E94963F71
:101BE0009F77A50194010E943E3D0E94233E0E94E2
:101BF000B73D21967FAF6EAF2197DB01AB2B09F488
:101C0000C4CE19A14B01A12CB12C13FF12C0C501E8
:101C1000B4010E94E63D9B01AC016D897E898F89EC
:101C2000988D0E94963F6D8B7E8B8F8B988F177F40
:101C300019A3C501B4010E94E63D4B015C019B0163
:101C4000AC01C701B6010E943E3D6FA778AB89ABDE
:101C50009AAB2A96EFAD2A97B4E0EB9FC00111240E
:101C60008C0106511D4FFC01E05AFC4FD8012D910B
:101C70003D914D915C9160817181828193810E943F
:101C80003E3CA50194010E943E3D65966CAF7DAF40
:101C90008EAF9FAF65972091F6023091F702409189
:101CA000F8025091F90260916C0370916D0380917C
:101CB0006E0390916F030E943E3CA50194010E9427
:101CC0003E3D69966CAF7DAF8EAF9FAF6997209117
:101CD000FA023091FB024091FC025091FD026091AA
:101CE00070037091710380917203909173030E944D
:101CF0003E3CA50194010E943E3D6D966CAF7DAFC8
:101D00008EAF9FAF6D972FA538A949A95AA9CA01CF
:101D1000B9010E94963F9B01AC0160E070E080E059
:101D200090E40E943E3C6B017C012BEA3AEA4AE2D5
:101D30005EE36FA578A989A99AA90E94963F4B01F5
:101D40005C0120E030E040E850E4C701B6010E94A9
:101D50003F3C9B01AC01C501B4010E94963F2D960A
:101D60006CAF7DAF8EAF9FAF2D9720E030E040E0AD
:101D70005FE3C701B6010E94963F61966CAF7DAFED
:101D80008EAF9FAF61971BA622242394312C2196FE
:101D9000EEADFFAD2197E215F30509F4F6CDBBA535
:101DA000BC3008F048C02FA138A549A55AA56196B6
:101DB0006CAD7DAD8EAD9FAD61970E94963F6B017E
:101DC0007C01A30192012D966CAD7DAD8EAD9FADD2
:101DD0002D970E94963FA70196010E943F3C7B01F0
:101DE0006C01A301920161966CAD7DAD8EAD9FAD8E
:101DF00061970E94963F4B015C012FA138A549A530
:101E00005AA52D966CAD7DAD8EAD9FAD2D970E94E0
:101E1000963F9B01AC01C501B4010E943E3C2B01E1
:101E20003C01EBA5EF5FEBA7470156018FA298A6F7
:101E3000A9A6BAA667C0B10180E090E00E94E63D85
:101E40002FA538A949A95AA90E94963F6B017C0188
:101E50000E94393D6FA378A789A79AA7C701B60149
:101E60000E9427404B015C01A9ADBAADCD90DD9039
:101E7000ED90FC90F7FAF094F7F8F0942596AEAD5B
:101E8000BFAD25978D919D910D90BC91A02D8BA7F5
:101E90009CA7ADA7BEA7A70196016FA178A589A5AC
:101EA0009AA50E94963F2B013C012BA53CA54DA570
:101EB0005EA5C501B4010E94963F9B01AC01C30120
:101EC000B2010E943F3C2B013C01A7019601C501D4
:101ED000B4010E94963F6B017C012BA53CA54DA54A
:101EE0005EA56FA178A589A59AA50E94963F9B0142
:101EF000AC01C701B6010E943E3C6FA378A789A739
:101F00009AA71BA6A30192016BAD7CAD8DAD9EADD2
:101F10000E943F3CEBA9FCA9608371838283938379
:101F20002FA138A549A55AA529966CAD7DAD8EADDA
:101F30009FAD29970E943F3CADA9BEA96D937D93AB
:101F40008D939C93139765962CAD3DAD4EAD5FADD3
:101F50006597F80160817181828193810E943F3C85
:101F6000D8016D937D938D939C93139769962CADB7
:101F70003DAD4EAD5FAD69976091F6027091F7028D
:101F80008091F8029091F9020E943F3C6093F60222
:101F90007093F7028093F8029093F9026D962CAD3E
:101FA0003DAD4EAD5FAD6D976091FA027091FB0251
:101FB0008091FC029091FD020E943F3C6093FA02E6
:101FC0007093FB028093FC029093FD02BE016B5E56
:101FD0007F4F8AEE92E00E94273B80914902811157
:101FE0006CC0BFEF2B1A3B0AD2CE89A1846089A3B3
:101FF00080914802823009F460C00E94D2388091FA
:102000004902811163C0FFA5F071FF2E10924D02AD
:102010002FA523FB882780F90E94462A809106017C
:10202000807890911E02891749F084E00E945B2914
:102030000E94821B80E00E94462A48C0B80180E6C8
:1020400093E00E94273B81E08093470282E00E9458
:102050006B290E94821B80914902811137C08091B7
:1020600048028111F6CF80914702813081F4FF2030
:1020700051F084E1EFE1F2E0A3E3B2E001900D92D0
:102080008A95E1F707C085E00E945B2903C081E0E3
:1020900080934D021092470280E00E94462A0E94DF
:1020A000821B0E94EB240E94E4310E942E310E9488
:1020B000512D80914D0281118CC084E1E0E6F3E066
:1020C000AAEEB2E001900D928A95E1F78091320379
:1020D0008093D902882309F47FC00E94D23880916E
:1020E000D90290914802833041F49230D1F188E0D6
:1020F0000E946B290E94821B34C081E08093D2022F
:102100001092D6021092D5021092D3021092D802E9
:102110001092DB021092DA0284E6809353028093DD
:10212000540280935502923091F06EEF72E080E09D
:102130000E94AA388823E1F10E94EB2940E050E098
:10214000BA0180E00E94F43980E00E942E3987E3D2
:1021500093E00E94B12B8EEC92E00E94B12B0E9482
:102160004C2D1092D9022FC081E036C082E034C0DD
:1021700088E132C086E230C089E12EC084E02CC004
:102180008BE12AC085E228C084E126C08EE124C00C
:102190008FE122C086E120C080E21EC082E21CC026
:1021A00083E21AC084E218C080E116C08FE014C038
:1021B00087E012C084E1E0E6F3E0AAEEB2E001902D
:1021C0000D928A95E1F780E007C01EA21FA60C942D
:1021D00097020E94723A7ACFC45ADF4F0FB6F89432
:1021E000DEBF0FBECDBFDF91CF911F910F91FF904A
:1021F000EF90DF90CF90BF90AF909F908F907F90A7
:102200006F905F904F903F902F900895CF93DF9302
:10221000CDB7DEB769970FB6F894DEBF0FBECDBF5E
:102220008091C00082608093C0001092C50080E160
:102230008093C4008091C10088698093C10080E0D0
:1022400090E00E945E388A3009F0CCC545E750E046
:1022500061E070E08DE592E00E946638892B09F418
:10226000C1C5809A869A80910A01886080930A018C
:102270000C9A399A579A829A8091070181608093CB
:1022800007010A9A3F9A819A879A80910A0182608F
:1022900080930A010E9A3B9A809181008F7E8093F1
:1022A000810080918100886080938100809180000E
:1022B0008C7F80938000809180008F70809380005D
:1022C00080916E00887F80936E0014BC15BC809155
:1022D0006E00816080936E0080910701817E809303
:1022E0000701809108018E618093080180916D0043
:1022F0008E6180936D008091680084608093680097
:1023000084E1EFE1F2E0DF011D928A95E9F778942C
:10231000109248028091C20284FF03C081E0809342
:10232000480215E1312E02EDC02E02E0D02E809140
:102330004802E8E4F2E0232D11922A95E9F7809310
:10234000480284E68093530280935402809355029E
:1023500084E1A3E3B2E01D928A95E9F71092470267
:1023600010927E0510927F051092800510928105D3
:10237000809174038093750388E5F60111928A9524
:10238000E9F76EEF72E080E00E94AA38811103C085
:1023900087E00E94C42B0E943B3A249A809101015D
:1023A0008064809301010E9427390E94153080913A
:1023B00007018F77809307018091080180688093DF
:1023C000080180E00E94462A10929100109290002D
:1023D00080919100887F816080939100809191002D
:1023E000836080939100809171008E7F8093710053
:1023F0000E94E4310E94EB240E942E310E94723A26
:102400008DE393E00E94B12B8091C20283FF11C043
:102410000E947B2D882369F081E08093480287E346
:1024200093E00E94B12B86ED92E00E94B12B0E94B6
:102430004C2D809148028178A1F087E393E00E94BF
:10244000B12B81E193E00E94B12B0E944C2D81E0E1
:102450008093480200E010E0A2E0EA2EB4E02B2EC8
:1024600031C0109248020E94F02980FF07C080917D
:102470007E05806280937E050E94821B0E94D82B7D
:10248000E9CFE92FF0E0E153F14F80819F5F909316
:1024900075038F3FE9F08A3021F50E94821B8091FD
:1024A0004902811144CFE02FF0E0EB52FF4E108241
:1024B000F12FF170FF2E10FF18C08BE00E94C42B8B
:1024C00000E010E090917503809174039813D9CFC8
:1024D0000E94951C0E94821B80914902882391F3DF
:1024E00026CF8D3009F058C4D8CF8091D5108823DD
:1024F00009F44FC4843209F044C421E0298F80914B
:10250000D610833409F134F4882361F0843209F061
:1025100019C11AC08A3459F08835B1F0873409F0EE
:1025200011C112C08DEA93E00E94B12B28C48091A2
:1025300048028F7D09F010C48091D7108D3309F0C7
:1025400016C40E945D020EC49091D71091110FC461
:10255000833409F4BBC01CF4843239F010C48734CE
:1025600069F0883509F4D2C00AC4809148028871A4
:10257000F82E09F0F1C30E943A2C01C487EA93E0D7
:102580000E94B12B8091D2028C3838F083EA93E01C
:102590000E94B12B8091D2028A580E948B2B84E931
:1025A00093E00E94B12B8091D8028A5C0E948B2B11
:1025B00084E993E00E94B12B8091D6028F5E0E9445
:1025C0008B2B84E993E00E94B12B8091D402332DB0
:1025D000381B832F0E948B2B84E993E00E94B12B40
:1025E0008091D502865A0E948B2B84E993E00E9449
:1025F000B12B8091D3029EE5981B892F0E948B2BD3
:102600008091D902882399F087E993E00E94B12B49
:102610008091D902833029F08E3139F0823039F43B
:1026200004C080E30E940E3902C00E948B2B87E910
:1026300093E00E94B12B8091DB02803131F0803237
:1026400031F0811107C085E303C083E301C084E357
:102650000E940E3987E993E00E94B12B8091DA0243
:10266000882359F087FF03C087E30E940E398091C9
:10267000DA0286FF05C088E301C089E30E940E39B3
:1026800080EA93E00E94B12B8091E5020E948B2B9F
:102690008DE993E00E94B12B6091E1027091E2021A
:1026A0008091E3029091E4020E94F42A8AE993E087
:1026B0000E94B12B6091DD027091DE028091DF02F9
:1026C0009091E00240E00E94572A0EC0809148029B
:1026D000823069F40E94783A87E393E00E94B12B3C
:1026E0008EEE92E00E94B12B0E944C2D48C38111C6
:1026F00033C3E092480287E393E00E94B12B87EF57
:1027000092E00E94B12B0E944C2D45C0809148025E
:10271000813009F034C30E94F029A82FA170FA2E4D
:1027200080FF03C0FDE0FF2E2AC387E393E00E94F1
:10273000B12B8FEF92E00E94B12B0E944C2D109292
:1027400048021DC390914802923008F005C38934B5
:1027500009F4AAC034F4833271F0883409F45AC001
:102760006EC1823509F415C1833509F48BC08E34EE
:1027700009F065C13EC18091D7108111F8C210E007
:10278000BE016F5F7F4F812F0E94AA38811105C063
:1027900087E00E94C42BF12CF2C281E993E00E94F1
:1027A000B12B163029F0173041F48BE893E002C0CA
:1027B0008EE893E00E94B12B04C086E3810F0E9453
:1027C0008B2B8AE30E940E39CE0101960E94122BB8
:1027D0000E944C2D1F5F183099F685E893E00E9407
:1027E000B12B82E193E00E94122B0E944C2D8FE7C7
:1027F00093E00E94B12B6091260370912703809192
:102800002803909129030E94032B0E944C2D0E94C3
:10281000512DB5C28091C20284FF9BC20E94F02953
:1028200080FD80CF209248028091D71081119FC2F5
:1028300088E00E94DB2D80E10E94DB2D81E00E9478
:10284000DB2D82E00E94DB2D84E00E94DB2D0E94C4
:10285000821B80914902811106C00E94723A0E9437
:102860002E310E94153080914902811188C2109248
:1028700048020E94A5248091D710811180C20E9435
:10288000D82B89CF8091D7108C3409F070C28091F9
:10289000D810803509F06BC28091D910811167C2C0
:1028A00080E80E946B296BC2E98E8091D71081115C
:1028B00052C040E051E06EEA73E085ED90E10E9485
:1028C0006638892B51F41092D51040E051E065ED47
:1028D00070E18EEA93E00E9466368BE693E00E94F8
:1028E000B12B0E9405290E944C2D85E693E00E94A1
:1028F000B12B85E00E948B2B83E693E00E94B12BE5
:1029000088E50E940E3989E50E940E398AE50E9409
:102910000E3981E40E940E3982E40E940E390E9431
:102920004C2D8DE593E00E94B12B86E50E940E3977
:102930008EE40E940E398DE40E940E398CE20E94D2
:102940000E3983E20E948B2B8CE20E940E398FEFAE
:102950000E948B2BC9CEB3E0B98F8D3309F007C22B
:1029600083E0282F30E0F901EB52FF4E9081D9012E
:10297000AE52BF4E9C938F5F90819111F2CF898FA1
:1029800040E051E065ED70E18EEA93E00E9466362A
:10299000F6C18091D710833509F0E9C18091D81034
:1029A000843509F0E4C18091D9108D3309F0DFC17D
:1029B0008091DB108111DBC18091DA10843239F013
:1029C0008A3239F0833209F0D2C182E003C081E05B
:1029D00001C08FEF0E94C43687E393E00E94B12BC1
:1029E0008BEB92E00E94B12B0E944C2D0E94783A12
:1029F000C6C1E98E8091D71081111DC010E0812FD2
:102A00000E941229811104C087E00E94C42B0EC0CD
:102A10008AE593E00E94B12B812F0E948B2B8DE3DE
:102A20000E940E390E9405290E94C02B1F5F1230A0
:102A300009F4A5C1E4CF91118FC111E001C010E0EC
:102A4000BE016B5E7F4FCE0149960E948A3B811189
:102A500003C0E2E0FE2E93C1E98D81E08E0F898FE5
:102A6000F0E0EB52FF4E90819D3309F080C11123BD
:102A7000B9F1482F50E0282F30E0F901EB52FF4E1A
:102A80009081241B350BD901AB52BF4E9C938F5FB5
:102A900090819111F0CF898F813508F060C10E943B
:102AA0005D0281115FC16D897E898F89988D0E9439
:102AB00079402B013C010E94D238C301B2010E942F
:102AC000B73DE1E0F1E06E9FC0016F9F900D1124D2
:102AD00040E051E065ED70E19D5F0E9466365BCE9F
:102AE000BE016F5F7F4FCE0149960E948A3B8823CB
:102AF00009F4AFCFE98DF0E0EB52FF4E80818111F8
:102B000036C18D889E88AF88B88C20E030E04FE7D2
:102B100053E4C501B4010E94563F18160CF427C1B6
:102B200049805A806B807C80C501B4010E94B73D0A
:102B3000062F20E030E0A901C301B2010E94343D1C
:102B400087FD12C1043608F441C0045680E0053008
:102B5000A0F510E0000F111F000F111F823079F057
:102B6000F801833019F1813019F0E35AFD4F02C0AA
:102B7000EF58FD4F4082518262827382E7C00B574B
:102B80001D4F20E030E040E752E4C301B2010E9453
:102B9000963F20E030E040E752E40E94963FD801A3
:102BA0006D937D938D939C931397D0C0E756FD4F03
:102BB00077FA709477F87094DDCF8F5F0A3008F45D
:102BC000D6C0843009F4D3C00A50C1CFC301B201CA
:102BD0000E9479400E94B73D10E00132110508F0D3
:102BE000C6C0F8018827EF57FF4F8F4F0C94E14084
:102BF000633008F4BFC06093AD02A8C06093B00218
:102C0000A5C06093AE0202C06093AF020E9422246E
:102C10009DC08091C202662311F0846095C08B7FB5
:102C200093C08091C202662311F080648DC08F7BB7
:102C30008BC08091C202662311F0806801C08F773B
:102C40008093C20280E00E94462A80C06093B10255
:102C50007DC04092B2025092B3026092B402709270
:102C6000B50274C04092B6025092B7026092B802A8
:102C70007092B9026BC08091C202662311F081602C
:102C800001C08E7F8093C2020E94EB295FC08091B9
:102C9000C202662321F084FF70C0806255C08F7D20
:102CA00053C08091C202662311F0886001C0877F03
:102CB0008093C2020E94153049C08091C2026623EF
:102CC00011F0806141C08F7C3FC06093C3023EC061
:102CD0004092C4025092C5026092C6027092C7022E
:102CE00035C04092C8025092C9026092CA027092E6
:102CF000CB022CC070E07093CD026093CC0226C052
:102D00004092CE025092CF026092D0027092D102D5
:102D10001DC04092BA025092BB026092BC027092F7
:102D2000BD0208C04092BE025092BF026092C00233
:102D30007092C1020E943B3A09C08091C202662390
:102D400011F0826001C08D7F8093C2020E94A33681
:102D500016C065E0F62E13C058E0F52E10C04EE008
:102D6000F42E0DC0F82E0BC034E0F32E08C023E083
:102D7000F22E05C096E0F92E02C08AE0F82E8F2DC3
:102D800008C080914802817211F089E097CB0E94BF
:102D90005D020E94D02B94CB112329F0893209F0D7
:102DA00091CB1D7F8FCB813208F48CCB8F3209F40D
:102DB00089CB883289F08B3389F00F3F89F0202F3F
:102DC00030E00F5F9FE9980FF901EB52FF4E9A3107
:102DD00008F48052808376CB12E074CB14E072CB7F
:102DE00011E070CB87E00E94C42B8FEF0E94C436A5
:102DF0000E943A2C36CA3F924F925F926F927F9216
:102E00008F929F92AF92BF92CF92DF92EF92FF92FA
:102E10000F931F93CF93DF93CDB7DEB7EC970FB629
:102E2000F894DEBF0FBECDBF10917F05112391F145
:102E300081E08093480287EF93E00E94B12B812FBD
:102E40000E948B2B0E94C02B85EF91E0019739F0F7
:102E5000EFE9FFE03197F1F700C00000F7CF115024
:102E6000123030F08FB7F89410927F058FBF12C0E8
:102E700087E393E00E94B12B85E293E00E94B12B9F
:102E80000E944C2D80E10E94612980917E0584FF83
:102E9000FCCFE8CF10917E05112309F407C314FF7E
:102EA00004C081E08093490215C410FF0BC284E185
:102EB000EFE1F2E0DE01999601900D928A95E1F73B
:102EC000BE01675D7F4FCE0145960E94AF298CE31E
:102ED0000E940E39809148028830E1F058F4813028
:102EE00099F1A8F0823099F1843009F043C087E469
:102EF00094E03EC0803229F118F4803171F03AC07C
:102F0000803441F18038B1F58FE294E031C08AE538
:102F100094E02EC086E594E02BC080914A0287FDA4
:102F200010C080E594E00E94B12B80914A0280FF9E
:102F300006C080E31AC082FF17C085FFFACF81E385
:102F400014C08CE494E014C081E494E011C08BE3DD
:102F500094E00EC085E394E00E94B12B80914A0278
:102F600083FFE9CF83E301C082E30E940E3902C0F0
:102F70000E94B12B8091B102F82FF170BF2E80FF1B
:102F800007C080915802882319F088E294E053C06A
:102F900040902603509027036090280370902903E7
:102FA0004EEF842E42E0942E9E012F5F3F4F790119
:102FB000CE0145966C0101E0F4016191719181911E
:102FC00091914F0120893189428953890E943F3C68
:102FD000F7016083718382839383033099F4A301A3
:102FE00092010E943F3CF701608371838283938347
:102FF000BB2051F094E0E90EF11C0F5FE4E0CE0E2F
:10300000D11CDACFB11011C0F7012081318142818A
:103010005381F60160817181828193810E943E3CDF
:10302000F6016083718382839383053019F7B110B1
:10303000ACCF81E294E00E94B12BCE0145960E9474
:10304000122B8091B10281FF21C08CE194E00E949B
:10305000B12B9091CE0E80918505981710F08D5D63
:1030600001C08150891B0E948B2B8CE20E940E397B
:103070008091750390917403981720F0981B892F05
:10308000809502C08150891B0E948B2B0E94D431F5
:103090000097F9F0FC01C68CD78CE0A0F1A0C11418
:1030A000D104E104F104A9F087E194E00E94B12B7E
:1030B000F7FE0BC08DE20E940E3966277727CB0101
:1030C0006C197D098E099F0902C0C701B6010E94D3
:1030D0002B2B82E194E00E94B12B809148028C77E7
:1030E00049F060918D0370918E0380918F039091D0
:1030F000900303C060E070E0CB010E94F42A8CE2F0
:103100000E940E396091590270915A0280915B02BF
:1031100090915C0240E00E94572A0E947B2D082F6C
:103120000E94F029F82E80910601982F90788091C6
:103130001E02E92EE826802F8F298E29D1F18DE0FD
:1031400094E00E94B12BEE2019F080E50E940E3928
:103150000023C9F000FF03C088E50E940E3901FF7B
:1031600003C089E50E940E3902FF03C08AE50E9470
:103170000E3903FF03C081E40E940E3904FF03C02F
:1031800082E40E940E39FF20A1F0F0FE03C084E427
:103190000E940E39F1FE03C082E50E940E39F2FE54
:1031A00003C088E40E940E39F3FE03C083E50E9449
:1031B0000E3980915802882321F081508093580263
:1031C00018C0809148028C7711F08DE101C089E030
:1031D0008093580280915702811103C081E080934F
:1031E000570287E094E00E94B12BCE0101960E9425
:1031F000122B80915702882321F08150809357022F
:1032000059C0809148028C7711F083E101C089E0B8
:103210008093570282E094E00E94B12B8091530288
:103220000E948B2B8CE20E940E39809154020E94E6
:103230008B2B8CE20E940E39809155020E948B2BC1
:1032400084B3082F007285FF0BC08091A000082F67
:10325000087083FF05C0739B02C002E001C001E05B
:1032600085B1FF24F394982F907184FFF12C809105
:10327000020186FF04C0FF2DF260FF2E04C0011181
:1032800002C09923B9F08EEF93E00E94B12B002386
:1032900039F0013011F483E501C083E40E940E3956
:1032A000F0FE03C086E40E940E39F1FE03C08DE4F7
:1032B0000E940E398EE30E940E390E94C02B81E0DD
:1032C0000E946129812F887E09F467C0809148029D
:1032D000982F937009F050C08872A1F080914A0233
:1032E000807C81F40E94FE2382E080934C028091D6
:1032F0004802803239F417FDEBC180914A028068A0
:1033000080934A0280914802811103C091E090931A
:103310004A0216FF07C085FD05C090914A029064DD
:1033200090934A0213FF05C0807E19F480E18093D8
:10333000480215FF21C087E393E00E94B12B83EE82
:1033400092E00E94B12B0E944C2D80914A0287FD91
:103350000EC090914802903439F483FFB5C1837E4A
:10336000826080934A02B0C1903809F0ADC180916B
:103370004A02806280934A0217FF0CC08091480283
:10338000813029F480914A02856080934A0280E866
:103390008093480288EE0E94612911FF44C0812F6A
:1033A0008876F1F580914802803471F480914A0268
:1033B00085FD0AC084FF03C01092480205C082FF49
:1033C00003C0886080934A0280914802882381F07C
:1033D00084FF26C090914A0290FF22C0803141F4C0
:1033E00080915602882321F088608093560218C08D
:1033F00010924C020E94D431892B71F080914A02C4
:1034000086FD0AC010924A0288E0809348020E941A
:103410009D1C0E94D52804C010924A0210924802B6
:1034200082E00E94612912FF41C080914802807DA4
:1034300090914A028823D9F080914B02811117C0E4
:1034400097FD15C00E94FE2380918505809383051A
:103450000E94F53180914C0281FF05C090914A0293
:10346000916090934A02897F80934C021CC097FF21
:103470000AC010924C020E94E4310E94EB240E9488
:10348000723A0E942E3180914A0285FF08C08F77E0
:10349000816080934A0280E48093480204C01092C5
:1034A0004A021092480284E00E94612990918005AE
:1034B000992309F4ABC08FB7F894109280058FBFA1
:1034C0004091530290FD02C0842F01C084E691FD1B
:1034D000865F92FD8A5093FD8F5F94FD8150893CF9
:1034E00008F088EC8A3008F48AE03091540295FDA7
:1034F00002C0232F01C024E696FD22E397FD29E1B7
:10350000481303C0231709F481C08093530220930A
:10351000540210925702109185053090CE0E89E921
:10352000D82E96E7E92E26E9F22E0EE732E4432E56
:10353000131509F457C0812E912C489CC001499C59
:10354000900D11249C012A573A4F5901C9010E943C
:103550006131562E672E782EC92E2D2D3E2D4F2DE2
:10356000502F0E94563F18164CF42D2D3E2D4F2DF6
:10357000502F6D2D7E2D8F2D902F08C0252D362D8F
:10358000472D5C2D652D762D872D9C2D0E94963F15
:10359000F50166A377A380A791A7489CC001499C29
:1035A000900D11249C012A573A4F7901F90182A804
:1035B00093A8A4A8B5A8A501940166A177A180A5A8
:1035C00091A50E94563F18162CF4F70186A297A2E7
:1035D000A0A6B1A61F5F143209F410E0D52C730128
:1035E0000C2DA6CF8D2D9E2DAF2DB02F80937A055B
:1035F00090937B05A0937C05B0937D050E94FE23EC
:1036000080918505809383050E94F5319091810515
:10361000992309F452C08FB7F894109281058FBF97
:103620002091550290FD02C0822F01C084E691FDD9
:10363000865F92FD8A5093FD8F5F94FD8150893C97
:1036400008F088EC8A3008F48AE0281749F02091C5
:103650004C02286020934C0280935502109257022E
:103660008091480295FF0DC0803159F42091560297
:10367000211102C022E003C020FF03C02460209378
:103680005602292F207CC9F0882311F08871A9F0F7
:103690001091DA0297FF05C017FF02C01F7701C023
:1036A000106896FF05C016FF02C01F7B01C01064A2
:1036B000812F0E942E391093DA02809148028C7F6C
:1036C00049F00E949D1C06C080E4809348024FCEC2
:1036D00080E21FCEEC960FB6F894DEBF0FBECDBFD2
:1036E000DF91CF911F910F91FF90EF90DF90CF90DE
:1036F000BF90AF909F908F907F906F905F904F9012
:103700003F900895CF92DF92EF92FF921F93CF9355
:10371000DF930E94FB1680914A02882309F4FDC0C2
:103720000E94D431009771F4C091DB028091DA02DB
:10373000C82BC090DD02D090DE02E090DF02F09056
:10374000E00207C0FC01C58DFE96C080D180E280FA
:10375000F3808091C20281FF03C080E20E94492968
:10376000DC2FD07311E0C07480914A02882309F4E1
:10377000D4C0909149029111D0C080FFCBC09091EC
:103780004802292F207C09F47AC082FD12C01092D1
:10379000560240E050E0BA0180E00E94F43980E037
:1037A0000E942E3980914A028D7F846080934A0264
:1037B000B1C09038E1F487E393E00E94B12B80EA36
:1037C00092E00E94B12B0E944C2D40E050E0BA01E3
:1037D00080E00E94F43980E00E942E390E94A524E6
:1037E00080914902811199C00E94FB16F9CF903453
:1037F00049F40E94F02980FD05C080914A028F7D26
:1038000080934A0280914A0283FF84C09091DB0238
:103810009923C1F081FD16C08091C20281FF06C0CC
:1038200080914C02886080934C020CC0B701A601C5
:103830008D2F0E94F43941E060E070E080E890E470
:103840000E94FF308091DA02882371F080914A0251
:1038500081FD0AC08C2F0E942E3941E060E070E0AB
:1038600080E89FE30E94FF3080914A0281FD52C0B0
:10387000806180934A0282E00E946B294BC0809154
:1038800056028823C9F181FF0DC08091DB02882395
:10389000B1F040E050E0BA0180E00E94F4391093AA
:1038A000560238C08C70B1F18091DB0281110AC0E0
:1038B0008091560283FF03C082E00E946B29109220
:1038C000560228C087E393E00E94B12B89EA92E078
:1038D0000E94B12B0E944C2D8091C20281FF06C034
:1038E00080914C02886080934C02E2CFB701A60120
:1038F0008D2F0E94F439DCCF80914C0283FF0AC0E7
:10390000B701A6018D2F0E94F43980914C02877F68
:1039100080934C020E94FB1627CFDF91CF911F911D
:10392000FF90EF90DF90CF9008950E94D431892BC3
:1039300019F082E00C946B2908952F923F924F92D8
:103940005F926F927F928F929F92AF92BF92CF922F
:10395000DF92EF92FF920F931F93CF93DF93CDB738
:10396000DEB7ED970FB6F894DEBF0FBECDBF8091E6
:103970004C0280FD2AC79091ED038091EE039817C9
:1039800009F423C78091500590915105892B09F0C6
:1039900017C310914C0212FF09C08091CE0E22E491
:1039A000289FC00111248A579A4F02C00E94D43127
:1039B000909351058093500520905005309051050B
:1039C0002114310409F401C700917703802F81701D
:1039D00000FF03C010927703F6C0909176039F5FBB
:1039E000993009F0892F80937603E82EF12C4EE16F
:1039F0004E9D90014F9D300D11242E5B3B4F309317
:103A0000410420934004F10178965EE1859FC00156
:103A100011248E5B9B4F20E030E04191DC01A20F2E
:103A2000B31F58964C932F5F3F4F25303105A9F7B0
:103A3000F10120E030E04191519161917191DC01FF
:103A4000A20FB31F689412F8440F551F661F771F0B
:103A50001694D1F74D935D936D937C9313972C5FE0
:103A60003F4F2431310539F78EE18E9DF0018F9D56
:103A7000F00D11249F012E5B3B4FF1018489958944
:103A8000A689B78943E0880F991FAA1FBB1F4A95D3
:103A9000D1F7F901848B958BA68BB78BD101549606
:103AA0006D917D918D919C9157970E94E63D609319
:103AB0007C0370937D0380937E0390937F03F101D9
:103AC00026A537A540A951A90E943E3D9B01AC0106
:103AD00060938003709381038093820390938303A8
:103AE00060E070E080EA9FE30E943E3D60938403C3
:103AF00070938503809386039093870310927803D5
:103B00001092790310927A0310927B0311FD02C088
:103B100003FF1FC0609195037091960380919703F6
:103B20009091980360938D0370938E0380938F031D
:103B3000909390039B01AC010E94963FD101929615
:103B40006D937D938D939C939597077F0093770357
:103B50000FC0F10162A173A184A195A10E9435401B
:103B600060938D0370938E0380938F0390939003E3
:103B7000FEE1FE9DC001FF9D900D11249C012E5B76
:103B80003B4F7901D9015D961C928091C20281FF61
:103B90001AC0F101858D85FF16C022AD33AD44AD4D
:103BA00055AD60E070E080E89FE30E943E3D609389
:103BB000A1037093A2038093A3039093A403E1E075
:103BC000D7015D96EC931092890310928A031092AC
:103BD0008B0310928C03D1019A962D913D914D91BA
:103BE0005C919D9729833A834B835C8360E070E00E
:103BF00080E09FE30E943E3D6D837E838F839887A4
:103C0000F10146A457A460A871A882A093A0A4A023
:103C1000B5A011FF44C0F2E0F0938803A501940120
:103C20000E94963F9B01AC01C301B2010E943E3C41
:103C30006B017C0120E030E0A9010E94343D87FF48
:103C40001DC029813A814B815C81CA01B9010E9462
:103C50003F3CA30192010E94963F9B01AC01C5012C
:103C6000B4010E943E3C0E943540609395037093DE
:103C7000960380939703909398039FC1C092890302
:103C8000D0928A03E0928B03F0928C0310929503FA
:103C90001092960310929703109298038EC110927F
:103CA00088034092990350929A0360929B0370920A
:103CB0009C0312FF0CC01092950310929603109271
:103CC000970310929803C12CD12C760124C0E09167
:103CD0008505EF5FE43209F4E0E08091CE0E8E17A7
:103CE00059F022E42E9FF0011124EA57FA4FC2A0A6
:103CF000D3A0E4A0F5A003C0C12CD12C7601C7014C
:103D0000B6010E94354060939503709396038093AB
:103D1000970390939803C1010E946131698B7A8B5C
:103D20008B8B9C8B9B01AC010E94963F69877A87A5
:103D30008B879C87A50194010E94343D87FF6CC04E
:103D400029853A854B855C85C501B4010E943E3CBE
:103D50002D813E814F8158850E94963F9B01AC0189
:103D6000C301B2010E943E3C6093990370939A0391
:103D700080939B0390939C0320E030E0A9010E9474
:103D8000343D18162CF132E03093880329813A81B2
:103D90004B815C81CA01B9010E943F3CA3019201A1
:103DA0000E94963F9B01AC01C501B4010E943E3CBC
:103DB0000E94354060939503709396038093970318
:103DC0009093980380917703886080937703F5C080
:103DD000A701960169857A858B859C850E943E3C6A
:103DE0002D813E814F8158850E94963F60939D03AF
:103DF00070939E0380939F039093A00389899A896F
:103E0000AB89BC898093910390939203A093930311
:103E1000B093940393E0B6C0A7019601C501B40125
:103E20000E943E3C2D813E814F8158850E94963FE5
:103E3000A30192010E943F3C20E030E040E05FE3BC
:103E40000E94963F6D877E878F87988B20E030E0B9
:103E5000A9010E94563F18160CF097C02D853E858B
:103E60004F855889C301B2010E94563F18160CF0C5
:103E700088C0A701960169857A858B859C850E94FB
:103E80003E3C2D813E814F8158850E94963F9B018B
:103E9000AC0160939D0370939E0380939F03909366
:103EA000A0036D857E858F8598890E94563F1816E0
:103EB000BCF529893A894B895C8920939103309319
:103EC00092034093930350939403A5019401698551
:103ED0007A858B859C850E94343D811104C031E038
:103EE000309388036AC0A501940169857A858B8522
:103EF0009C850E943E3C2D813E814F8158850E94C9
:103F0000963F9B01AC01C301B2010E943E3C60930D
:103F1000990370939A0380939B0390939C034DC0E5
:103F20008D859E85AF85B8898093990390939A0378
:103F3000A0939B03B0939C0380939D0390939E0357
:103F4000A0939F03B093A00329813A814B815C81A8
:103F5000CA01B9010E943F3C2D853E854F85588995
:103F60000E94963FA70196010E943F3C0E94354067
:103F700060939103709392038093930390939403BF
:103F80001CC092E09093880318C01092990310927D
:103F90009A0310929B0310929C0380919503909139
:103FA0009603A0919703B091980380939103909307
:103FB0009203A0939303B0939403186010934C0260
:103FC000E0913F04F8E0EF9FD0011124BE8BAD8B50
:103FD000FD01E151FC4F80917603848320915005CF
:103FE000309151053DAF2CAFD9019E96BC91BBA33A
:103FF000F901F7A5FCA3D901D096BC91BDA3F901A5
:10400000F1A9FEA32091840330918503409186039A
:10401000509187036BA17CA18B2F9F2F0E943E3C68
:104020006FA778AB89AB9AAB20E030E0A9010E9482
:10403000343D87FF04C01FA618AA19AA1AAA209106
:1040400091032F8B30919203388F40919303498FC6
:10405000509194035A8F809199038B8F90919A037A
:104060009C8FA0919B03AD8FB0919C03BE8FE0917C
:104070008803E98BF0919D03FFA320919E0328A75D
:1040800030919F0339A74091A0034AA750918D0317
:10409000598380918E038D8390918F039987A0918E
:1040A0009003AD87B0918903BBA7E0918A03ECA789
:1040B000F0918B03FDA720918C032EA730919503DF
:1040C0003CAB409196034DAB509197035EAB809112
:1040D00098038FAB2FA138A549A55AA56B8D7C8D70
:1040E0008D8D9E8D0E94343D811103C092E09BAB6B
:1040F00002C0A1E0ABAB2BA03CA00DA11EA18EE3A2
:10410000C82E83ECD82E8EE2E82E89E3F82E412CBF
:10411000512C3201CF8ED8A2E9A2FAA239893130CE
:1041200009F4E8C0ACADBDAD313008F477C0333030
:1041300009F012C19A962D913D914D915C919D97F8
:10414000C701B6010E94963F4B015C012F89388D53
:10415000498D5A8D69817D8189859D850E943E3C6E
:104160009B01AC01C501B4010E94563F87FD31C0DF
:104170002B8D3C8D4D8D5E8D6BA17CA18DA19EA163
:104180000E943E3C9B01AC010E943F3C6B017C01C4
:1041900029813D8149855D856F89788D898D9A8DCD
:1041A0000E943F3C9B01AC01C701B6010E943E3D0D
:1041B0006B017C01BF89B983E88DED83F98DF987A7
:1041C0002A8D2D872B8C3C8C0D8D1E8D31E0398BEB
:1041D0003DC120E030E040E05FE3C501B4010E9452
:1041E000963F9B01AC0169817D8189859D850E94F7
:1041F0003E3CA70196010E94963F9B01AC01B10194
:10420000C8010E943E3C1B018C01A50194016981FB
:104210007D8189859D850E943E3C67C09A962D913F
:104220003D914D915C919D97C701B6010E94963FCB
:104230004B015C0120E030E040E05FE30E94963FEC
:1042400029813D8149855D850E943F3CA7019601FA
:104250000E94963F9B01AC01B101C8010E943E3C07
:104260001B018C019B01AC016B8D7C8D8D8D9E8D16
:104270000E94563F18168CF52B8D3C8D4D8D5E8D12
:104280006BA17CA18DA19EA10E943E3C9B01AC0133
:104290000E943F3C6B017C0129813D8149855D8500
:1042A0006F89788D898D9A8D0E943F3C9B01AC016E
:1042B000C701B6010E943E3D6B017C01BF89B983F5
:1042C000E88DED83F98DF9872A8D2D873BA9398BF0
:1042D0002B8C3C8C0D8D1E8DB9C0A501940169817C
:1042E0007D8189859D850E943F3C69837D83898787
:1042F0009D87ACC02F89388D498D5A8DC701B60175
:104300000E94963F9B01AC01B101C8010E943E3C56
:104310005B014C019B01AC016FA178A589A59AA511
:104320000E94563F18160CF08FC02FA138A549A542
:104330005AA5B101C8010E943E3C2F89388D498D94
:104340005A8D0E943E3D6B017C012FA038A409A527
:104350001AA542E0498B7AC09A962D913D914D91D4
:104360005C919D97C701B6010E94963F4B015C018D
:1043700029813D8149855D850E94343D87FF37C095
:1043800020E030E040E05FE3C501B4010E94963FC9
:104390009B01AC0169817D8189859D850E943E3CA0
:1043A000A70196010E94963F9B01AC01B101C80193
:1043B0000E943E3C68AF79AF8AAF9BAF2BA53CA56E
:1043C0004DA55EA50E94563F18168CF4A5019401D8
:1043D00069817D8189859D850E943E3C69837D83BD
:1043E00089879D8728AC39AC0AAD1BAD2FC02BA5A2
:1043F0003CA54DA55EA5B101C8010E943E3C9B01B4
:10440000AC010E943F3C6B017C0129813D814985C3
:104410005D856CA97DA98EA99FA90E943F3C9B0147
:10442000AC01C701B6010E943E3D6B017C01BCA9F5
:10443000B983EDA9ED83FEA9F9872FA92D872BA4B8
:104440003CA40DA51EA502C015018401A70196017B
:10445000C301B2010E943F3C2B013C012F8D38A1CA
:1044600049A15AA10E94343D87FF07C0A3019201D0
:104470006F8D78A189A19AA11AC02FA538A949A941
:104480005AA9B101C8010E94563F181614F52EE32F
:1044900033EC4EE259E36F8D78A189A19AA10E9475
:1044A0003F3C6F8F78A389A39AA3A30192010E9436
:1044B0003E3C6B017C019101A8016BA57CA58DA5FB
:1044C0009EA50E94343D87FD29CE3989309388030B
:1044D00003C049894093880389819D81A985BD8551
:1044E00080938D0390938E03A0938F03B0939003DA
:1044F000E0914004F0914104958D911104C08091A8
:104500004C0283FF43C0ACADBDAD5D968C915D9711
:10451000807359F1FD01FE96C080D180E280F38066
:104520009923D1F02091A1033091A2034091A303DC
:104530005091A40360918D0370918E0380918F033D
:10454000909190030E94963F9B01AC01C701B60178
:104550000E94963F6B017C01C701B6010E9443395E
:104560009093A6038093A5030CC010925902109259
:104570005A0210925B0210925C021092A6031092F3
:10458000A50380914C02877F80934C028091A50304
:104590009091A603ED89FE89E151FC4FFA87E987E6
:1045A0009783868320918003309181034091820319
:1045B00050918303B101C8010E94963F69837A83B9
:1045C0008B839C830E941D3D6B017C0160917C0369
:1045D00070917D0380917E0390917F030E941D3D29
:1045E0004B015C01A70196010E943E3C0E94B73D31
:1045F0006D837E838F839887ED81FE81A985BA853F
:10460000ED93FC93EF2B41F480914C0281FF04C0A9
:10461000816080934C02D9C0209178033091790356
:1046200040917A0350917B03C301B2010E943F3C49
:104630002B013C0129813A814B815C81C501B40188
:104640000E943E3C9B01AC01C301B2010E943E3D71
:104650004B015C0120EC31EE44E65EE40E94963FA3
:104660000E941D3D0E94B73DED89FE89E151FC4F3E
:10467000603D37E073078105910510F4158230C065
:10468000603A4FE074078105910518F451E05583B5
:104690000BC06034AFE17A078105910518F4B2E0F0
:1046A000B58302C023E02583ED89FE89E151FC4FEB
:1046B0002581022E04C096958795779567950A9473
:1046C000D2F74D815E8102C0440F551F2A95E2F753
:1046D000518340836115710551E08507910538F4D8
:1046E000ED89FE89E151FC4F7383628304C08FEF33
:1046F0009FEF938382838091EE0380933F048F5FCB
:104700008A3019F08093EE0302C01092EE03E0911C
:104710005005F0915105C101D80186A797A7A0AB1C
:10472000B1ABC0927C03D0927D03E0927E03F09205
:104730007F0329813A814B815C81C701B6010E94C8
:104740003E3CA50194010E94963F609378037093CC
:10475000790380937A0390937B03209189033091AE
:104760008A0340918B0350918C03B101C8010E94D0
:10477000343D811100C920E030E0A901B101C80138
:104780000E94563F90914C02181614F092FF04C0FC
:10479000916090934C0219C01092510510925005EF
:1047A000909185058091CE0E891709F4E4C881E0C7
:1047B000890F843209F480E020918305921302C0AE
:1047C0008093830580938505D6C8ED960FB6F8943F
:1047D000DEBF0FBECDBFDF91CF911F910F91FF9034
:1047E000EF90DF90CF90BF90AF909F908F907F9091
:1047F0006F905F904F903F902F900895CF93DF93ED
:10480000C0915005D09151052097C9F08091770350
:1048100081608093770360918D0370918E03809106
:104820008F03909190039B01AC010E94963F6AA375
:104830007BA38CA39DA31092510510925005DF918C
:10484000CF910895CF93DF934091AE0250E06091F5
:10485000AF0270E0ACEAB3E0E7EAF3E080E090E0BA
:10486000282FEA01082E02C0D595C7950A94E2F7D1
:10487000C0FF12C0882341F0813041F0833041F005
:10488000843041F038E007C031E005C030E403C0B7
:1048900030E101C032E03083EB0102C0D595C7950D
:1048A0002A95E2F7C0FF10C0882331F0813031F043
:1048B000833031F0843031F022E005C020E803C0BD
:1048C00020E401C028E02C930196119631968530A2
:1048D000910531F6DF91CF9108951F920F920FB697
:1048E0000F9211240BB60F928F939F93AF93BF93A8
:1048F000EF93FF9381B38E7FE7EAF3E09081892BFA
:1049000081BB81B38F7B9181892B81BBABE0B1E00F
:104910008C91877F9281892B8C9382B18F7E93813A
:10492000892B82B988B18D7F9481892B88B915BC78
:10493000FF91EF91BF91AF919F918F910F900BBE1F
:104940000F900FBE0F901F90189580916F008D7F74
:1049500080936F0080918100887F816080938100C7
:104960001092B1038091B002909148028F3F39F4C8
:1049700020917F05211103C0903881F402C094304A
:1049800069F090E0009741F0EFE9FFE03197F1F72F
:1049900000C000000197F6CF81E001C080E0909157
:1049A000C20292FF02C091E08927882351F05F9AEA
:1049B0008A9A80910801816080930801129A479A2F
:1049C00008955F988A98809108018E7F80930801EE
:1049D0001298479808950E94A52481E3E6E7F3E042
:1049E000DF011D928A95E9F78BE3E2EBF3E0DF014B
:1049F0001D928A95E9F71092510510925005109278
:104A0000ED0310923F0481E08093EE031092B10316
:104A10000E942224ECEAF3E0ADECB3E081918D93A7
:104A200083E0E13BF807D1F781B38E7F9091A70334
:104A3000892B81BB81B38D7F9091AC03892B81BB86
:104A400081B38F7B9091A803892B81BB81B38F7732
:104A50009091AD03892B81BB80910B01877F909151
:104A6000A903892B80930B0180910B018D7F90917D
:104A7000AE03892B80930B0182B18F7E9091AA03A4
:104A8000892B82B982B18F7B9091AF03892B82B938
:104A900088B18D7F9091AB03892B88B988B1877FCE
:104AA0009091B003892B88B908951F920F920FB689
:104AB0000F9211240BB60F920F931F932F933F93D6
:104AC0004F935F936F937F938F939F93AF93BF9316
:104AD000CF93DF93EF93FF938091B10381114EC386
:104AE00081B38D7F9091CD03892B81BB81B38F776B
:104AF0009091CE03892B81BB80910B018D7F90918A
:104B0000CF03892B80930B0182B18F7B9091D003CF
:104B1000892B82B988B1877F9091D103892B88B97D
:104B200081B38E7F9091C803892B81BB81B38F7B2A
:104B30009091C903892B81BB80910B01877F909154
:104B4000CA03892B80930B0182B18F7E9091CB0396
:104B5000892B82B988B18D7F9091CC03892B88B93C
:104B60008091C70386BD82E085BD81E08093B1035B
:104B700078948091EB039091EC03892B09F0FFC0AE
:104B80008091ED0390913F04981709F4E2C0809161
:104B9000ED0328E0829FC0011124FC01E151FC4F8C
:104BA000F093EC03E093EB0322813381309389008F
:104BB00020938800208131813093E7032093E6031E
:104BC000E4812091E8032E17E1F1E093E803CEE1C0
:104BD000EC9FF0011124EE5BFB4FF093EA03E093AE
:104BE000E90344895589668977897695679557954C
:104BF00047954093C2035093C3036093C4037093DB
:104C0000C5034093BE035093BF036093C0037093EA
:104C1000C1034093BA035093BB036093BC037093EA
:104C2000BD034093B6035093B7036093B8037093EA
:104C3000B9034093B2035093B3036093B4037093EA
:104C4000B503E091E903F091EA03DF0158964CEADD
:104C500053E00DEC13E0BF01635E7F4F3D91EA012D
:104C60002991AE012327E80129938E01A617B707E2
:104C7000A9F7DC01A151BC4F15969C911597408175
:104C8000518162817381092E04C07695679557958D
:104C900047950A94D2F74093D2035093D30360937D
:104CA000D4037093D5034481558166817781092EA1
:104CB00004C076956795579547950A94D2F7409327
:104CC000D6035093D7036093D8037093D9034085DC
:104CD000518562857385092E04C076956795579531
:104CE00047950A94D2F74093DA035093DB0360931D
:104CF000DC037093DD034485558566857785092E31
:104D000004C076956795579547950A94D2F74093D6
:104D1000DE035093DF036093E0037093E103408967
:104D200051896289738904C076956795579547952F
:104D30009A95D2F74093E2035093E3036093E40320
:104D40007093E50316968D919C9117970E94E43914
:104D500016C00E94A524E091E903F091EA03858D35
:104D6000882349F01092AD001092AC008091A00011
:104D7000877F8093A00084E00E946B29FFC180910F
:104D800047028130B9F480910601807890911E022B
:104D9000891781F01092470284E1EFE1F2E0A3E38A
:104DA000B2E001900D928A95E1F780917E058064D2
:104DB00080937E051092C8031092C9031092CA0313
:104DC0001092CB031092CC034091B2035091B303E5
:104DD0006091B4037091B5038091D2039091D30395
:104DE000A091D403B091D503840F951FA61FB71FC0
:104DF0008093B2039093B303A093B403B093B5032D
:104E0000E091E903F091EA0344895589668977893D
:104E1000481759076A077B0768F521E02093C80304
:104E20004489558966897789841B950BA60BB70B36
:104E30008093B2039093B303A093B403B093B503EC
:104E4000208D80911F0290912002A0912102B091AB
:104E5000220221FF04C00197A109B10903C00196F4
:104E6000A11DB11D80931F0290932002A0932102E7
:104E7000B09322024091B6035091B7036091B803FA
:104E80007091B9038091D6039091D703A091D80374
:104E9000B091D903840F951FA61FB71F8093B60347
:104EA0009093B703A093B803B093B903448955898D
:104EB00066897789481759076A077B0768F520E4F0
:104EC0002093C9034489558966897789841B950B8A
:104ED000A60BB70B8093B6039093B703A093B803C8
:104EE000B093B903218D8091230290912402A09167
:104EF0002502B091260227FF04C00197A109B1093C
:104F000003C00196A11DB11D80932302909324023A
:104F1000A0932502B09326024091BA035091BB039F
:104F20006091BC037091BD038091DA039091DB0323
:104F3000A091DC03B091DD03840F951FA61FB71F5E
:104F40008093BA039093BB03A093BC03B093BD03BB
:104F50004489558966897789481759076A077B0705
:104F600068F528E02093CA034489558966897789C2
:104F7000841B950BA60BB70B8093BA039093BB03CE
:104F8000A093BC03B093BD03228D80912702909122
:104F90002802A0912902B0912A0221FF04C00197A2
:104FA000A109B10903C00196A11DB11D809327027B
:104FB00090932802A0932902B0932A024091BE0345
:104FC0005091BF036091C0037091C1038091DE03D3
:104FD0009091DF03A091E003B091E103840F951F4E
:104FE000A61FB71F8093BE039093BF03A093C00377
:104FF000B093C10344895589668977894817590751
:105000006A077B0768F520E12093CB034489558923
:1050100066897789841B950BA60BB70B8093BE031B
:105020009093BF03A093C003B093C103238D8091DD
:105030002B0290912C02A0912D02B0912E0226FFFE
:1050400004C00197A109B10903C00196A11DB11DBA
:1050500080932B0290932C02A0932D02B0932E02EA
:105060004091C2035091C3036091C4037091C50382
:105070008091E2039091E303A091E403B091E503F2
:10508000840F951FA61FB71F8093C2039093C3037D
:10509000A093C403B093C503448955896689778971
:1050A000481759076A077B0768F522E02093CC036D
:1050B0004489558966897789841B950BA60BB70BA4
:1050C0008093C2039093C303A093C403B093C5031A
:1050D000248D80912F0290913002A0913102B091E5
:1050E000320223FF04C00197A109B10903C0019650
:1050F000A11DB11D80932F0290933002A093310225
:10510000B093320290914802E2EBF3E0A8E4B2E0FF
:1051100027EB33E0943031F4468916968C9116973C
:105120008423868B319611962E173F0799F780912D
:10513000E6039091E70301979093E7038093E603DA
:10514000892B69F41092EC031092EB038091ED032C
:105150008F5F8093ED038A3011F41092ED03A7EA7C
:10516000B3E0E8ECF3E02DEC33E08D9190818927FA
:1051700081932E173F07C9F71092B103FF91EF916A
:10518000DF91CF91BF91AF919F918F917F916F915F
:105190005F914F913F912F911F910F910F900BBEF7
:1051A0000F900FBE0F901F9018958091C20282FF42
:1051B00010C05F9A8A9A80910801816080930801EB
:1051C000129A479AE7EAF3E0A8ECB3E08CEA93E09E
:1051D0000AC05F988A98809108018E7F80930801A9
:1051E00012984798EFCF21912D938E179F07D9F7EB
:1051F0008091AD02880F845081958093C703809180
:105200006F00826080936F000895CF93DF93C5EDA8
:10521000D0E18991882319F00E940E39FACFDF91ED
:10522000CF910895CF93DF9321E031E0482F429F43
:10523000C001439F900D1124EC01DD5F40E051E07F
:10524000BE0185ED90E10E946638892B69F41092C9
:10525000D5100E94D23840E051E065ED70E1CE01FA
:105260000E94663680E001C081E0DF91CF91089511
:105270001F920F920FB60F9211248F938091820587
:105280008F5F809382058F910F900FBE0F901F90BC
:1052900018959FB7F89420918105822B8093810502
:1052A0009FBF08959FB7F89420918005822B80932B
:1052B00080059FBF08959FB7F89480937F059FBF97
:1052C00008952FB7F89490917E0580958923809357
:1052D0007E052FBF08959FB7F89420917E05822BFD
:1052E00080937E059FBF0895AF92BF92CF92DF92C9
:1052F000EF92FF920F931F93CF93DF93EC0109E995
:1053000012E05C0184E1A80EB11CC990D990E9902B
:10531000F99020E030E0A901C701B6010E94563F94
:1053200018168CF0F80121913191419151918F0122
:10533000C701B6010E94343D87FD05C0CA15DB05D3
:1053400021F780E001C081E0DF91CF911F910F91A3
:10535000FF90EF90DF90CF90BF90AF9008958F9225
:105360009F92AF92BF92CF92DF92EF92FF920F93F4
:105370001F93CF93DF93EB012DE5E22E22E0F22E77
:105380008C016B0184E1C80ED11C699179918991DE
:105390009991F70181909190A190B1907F010E9425
:1053A000E83DA50194010E943E3DF801619371938F
:1053B000819391938F01CC15DD0539F7DF91CF9162
:1053C0001F910F91FF90EF90DF90CF90BF90AF9023
:1053D0009F908F9008950E94D2381092580208959D
:1053E00020910601822F8E7169F024FB882780F9B5
:1053F00091E0892721FF826022FF846023FD03C0A2
:105400008860089580E008951F920F920FB60F9262
:1054100011240BB60F922F933F934F935F936F938B
:105420007F938F939F93AF93BF93EF93FF930E94CC
:10543000F0298823C1F081FF03C00E94783A13C08D
:1054400083FF04C080917E0582600BC082FF04C090
:1054500080917E05886005C080FF05C080917E0533
:10546000806280937E05FF91EF91BF91AF919F91F4
:105470008F917F916F915F914F913F912F910F90FD
:105480000BBE0F900FBE0F901F90189510921E022A
:105490009091C20297FD03C090E890931E0288236A
:1054A00029F080911E02805880931E0208958F92E9
:1054B0009F92AF92BF92CF92DF92EF92FF920F93A3
:1054C0001F93CF93DF93CDB7DEB72D970FB6F89428
:1054D000DEBF0FBECDBF6B017C01042F20E030E0AA
:1054E000A9010E94343D87FF07C08DE20E940E395A
:1054F000F7FAF094F7F8F094102F123060F020E0F3
:1055000030E048EC52E4C701B6010E94963F6B01BF
:105510007C011250F2CF00FF0AC020E030E040E2F0
:1055200051E4C701B6010E94963F6B017C0120E067
:1055300030E040E05FE3C701B6010E943F3C0E94BB
:10554000B03D10E03AE0832E912CA12CB12C6115D6
:1055500071058105910591F0EE24E394F12CEC0E98
:10556000FD1EE10EF11CA50194010E94BF40605D8B
:10557000F7016083B901CA011F5FE9CF80E310170B
:1055800048F4E1E0F0E0EC0FFD1FE10FF11D808336
:105590001F5FF5CF101313C0FE01E10FF11D80E373
:1055A00081831F5F0CC0101303C08EE20E940E396E
:1055B000FE01E10FF11D80810E940E391150111181
:1055C000F2CF2D960FB6F894DEBF0FBECDBFDF91A0
:1055D000CF911F910F91FF90EF90DF90CF90BF90F0
:1055E000AF909F908F9008952091C20220FF08C035
:1055F0002BE832E441E25DE30E94963F41E001C0C6
:1056000040E00C94572A2091C20220FF08C02BE8EA
:1056100032E441E25DE30E94963F44E001C043E092
:105620000C94572A0F931F93CF938C01C0E0F8017D
:1056300061917191819191918F010E94032BC430EE
:1056400019F08CE20E940E39CF5FC53081F7CF91FF
:105650001F910F9108958F929F92AF92BF92EF92F8
:10566000FF921F93CF93DF93CDB7DEB72A970FB684
:10567000F894DEBF0FBECDBF6115710581059105A0
:1056800091F480E32A960FB6F894DEBF0FBECDBF2B
:10569000DF91CF911F91FF90EF90BF90AF909F90BF
:1056A0008F900C940E3920E04AE0842E912CA12C8E
:1056B000B12C11E0120FEE24E394F12CEC0EFD1E40
:1056C000E20EF11CA50194010E94BF40F701608326
:1056D000B901CA01212F611571058105910549F7AD
:1056E000112349F0FE01E10FF11D8081805D0E94D0
:1056F0000E391150F5CF2A960FB6F894DEBF0FBEC3
:10570000CDBFDF91CF911F91FF90EF90BF90AF90F1
:105710009F908F900895CF93DF93843630F06AE0A6
:105720000E949F40C0E3C90F03C0C0E08A3030F040
:105730006AE00E949F40D0E3D90F01C0D0E0805DB5
:105740000E940E39DD2319F08D2F0E940E39CC23D3
:1057500029F08C2FDF91CF910C940E39DF91CF91EE
:105760000895CF93DF93FC018491EF012196882364
:1057700021F00E940E39FE01F7CFDF91CF910895FD
:105780008FE594E00C94B12BCF93C82F88E694E07A
:105790000E94B12B8C2F0E948B2BCF910C94C02B8D
:1057A000811104C08FE694E00C94B12B0C94C42BAF
:1057B000CF93DF93C0E08C2F0E94122981110EC07D
:1057C0001092D5108EE30E940E390E9405298AE3BB
:1057D0000E940E3987E00E94C42B12C08091D51020
:1057E000882371F00E945D02D82F8EE30E940E394B
:1057F0000E9405298AE30E940E398D2F0E94D02B2A
:10580000CF5FC230C1F6DF91CF910895CF92DF9282
:10581000EF92FF92CF93DF93D82F6A017B01C22FC3
:1058200084E20E940E398D2F0E948B2B8DE30E9403
:105830000E394C2FC701B6010E94572ADF91CF9134
:10584000FF90EF90DF90CF900C94C02BCF93DF931D
:10585000D82FC62F84E20E940E398D2F0E948B2BE9
:105860008DE30E940E398C2F0E948B2BDF91CF91FC
:105870000C94C02BEF92FF920F931F93CF93DF9363
:105880006091AD0270E080E00E94262C6091B00231
:1058900070E081E00E94262C6091AE0270E082E010
:1058A0000E94262C6091AF0270E083E00E94262CBB
:1058B0006091C20262FB662760F970E084E00E949A
:1058C000262C6091C20266FB662760F970E085E0D5
:1058D0000E94262C8091C202082E000C990B692F81
:1058E000661F6627661F70E086E00E94262C609186
:1058F000B10270E08AE00E94262C4091B2025091E1
:10590000B3026091B4027091B50223E08BE00E9473
:10591000062C4091B6025091B7026091B802709186
:10592000B90223E08CE00E94062C6091C2026170F3
:1059300070E08DE00E94262C6091C20265FB662714
:1059400060F970E084E10E94262C6091C20263FB42
:10595000662760F970E085E10E94262C6091C20202
:105960006295617070E086E10E94262C6091C3020E
:1059700070E087E10E94262C4091C4025091C5023C
:105980006091C6027091C70223E088E10E94062C54
:105990004091C8025091C9026091CA027091CB0235
:1059A00023E089E10E94062C6091CC027091CD0227
:1059B0008AE10E94262C4091CE025091CF02609144
:1059C000D0027091D10223E08BE10E94062C40911D
:1059D000BA025091BB026091BC027091BD0220E0FE
:1059E0008EE10E94062C4091BE025091BF02609150
:1059F000C0027091C10220E08FE10E94062C6091EC
:105A0000C2026695617070E080E20E94262CD4E6A6
:105A1000F12C0DE512E085E0E82EED0ECD2F82E0B1
:105A2000F81691F0E3E0FE16E9F0F1E0FF1631F030
:105A3000F80140815181628173811AC0F801448963
:105A400055896689778914C020E030E041E655E445
:105A5000F80160A571A582A593A50E943E3DAB010A
:105A6000BC0106C0F80144AD55AD66AD77AD7058C8
:105A700023E08C2F0E94062C0C5F1F4FCF5FEC128F
:105A8000CECFD65FF394DC3821F6DF91CF911F9112
:105A90000F91FF90EF9008958DE50E940E390C94C0
:105AA000C02BCF93DF93CDB7DEB764970FB6F894D2
:105AB000DEBF0FBECDBF82E694E00E94B12B63E350
:105AC00072E0CE0101960E94AF29CE0101960E949C
:105AD000122B8AE30E940E3980914D020E948B2B7B
