:100000000C943E010C9450010C9450010C94473018
:100010000C94F82C0C9450010C9450010C94500149
:100020000C9450010C9450010C9450010C94462DEA
:100030000C9450010C9450010C9450010C945001FC
:100040000C94302D0C9450010C947D2F0C941D3089
:100050000C9450010C9450010C9450010C945001DC
:100060000C9450010C945001084AD73B3BCE016ED2
:1000700084BCBFFDC12F3D6C74319ABD56833DDAFF
:100080003D00C77F11BED9E4BB4C3E916BAAAABE0E
:10009000000000803F05A84CCDB2D44EB93836A937
:1000A000020C50B9918688083CA6AAAA2ABE000074
:1000B00000803F000D0A4772626C20312E316620AD
:1000C0005B27242720666F722068656C705D0D0ABF
:1000D00000244E005B4F50543A005B5645523A3173
:1000E0002E31662E32303137303330323A005B54A5
:1000F0004C4F3A005B4739323A0033300032380017
:100100005B4700204700204D002053002046002080
:10011000540033382E005B47433A47005B484C504D
:100120003A242420242320244720244920244E201C
:1001300024783D76616C20244E783D6C696E652094
:10014000244A3D6C696E652024534C502024432082
:100150002458202448207E2021203F206374726C84
:100160002D785D0D0A00414C41524D3A007C413AD8
:10017000007C4F763A007C57434F3A007C506E3AF1
:10018000007C46533A007C42663A007C57506F73BD
:100190003A007C4D506F733A00536C6565700044B3
:1001A0006F6F723A00436865636B00416C61726DFA
:1001B00000486F6D65004A6F6700486F6C643A00D5
:1001C00052756E0049646C65000D0A005B50524226
:1001D0003A006572726F723A006F6B0D0A00536CD1
:1001E000656570696E6700526573746F72696E67DA
:1001F000207370696E646C6500526573746F726908
:100200006E672064656661756C74730050676D205D
:10021000456E6400436865636B204C696D69747357
:1002200000436865636B20446F6F720044697361BB
:10023000626C656400456E61626C65640043617563
:1002400074696F6E3A20556E6C6F636B656400273E
:100250002448277C2724582720746F20756E6C6FE4
:10026000636B00526573657420746F20636F6E74E6
:10027000696E7565005B4D53473A000011241FBE3F
:10028000CFEFD8E0DEBFCDBF27E0A0E0B1E001C0F6
:100290001D92A136B207E1F70E9476300C94BA3A6B
:1002A0000C9400008F929F92AF92BF92CF92DF92F8
:1002B000EF92FF920F931F93CF93DF937C016B011B
:1002C000DC01EC91F0E0EF5EF84F8081EF018D32C0
:1002D00029F52296818101E0912CF0E010E020E0E8
:1002E00030E0A9015E01E0EDE80FEA3018F5FF5FAC
:1002F000F930E0F491101150A5E0B0E00E94933A7B
:100300009B01AC01220F331F441F551F2E0F311DBF
:10031000411D511D2196D5018C91E4CF8B3219F0EE
:10032000219600E0D9CF22968181FBCF9110F2CFA8
:100330001F5FF0CFEE3F29F4911003C099249394EE
:10034000E9CFFF23F9F0CA01B9010E9492374B01AE
:100350005C0120E030E0A9010E94E03681112BC051
:10036000002309F445C0B7FAB094B7F8B094F60189
:1003700080829182A282B382C151D740C150F701DD
:10038000C083F1E08F2FDF91CF911F910F91FF90EC
:10039000EF90DF90CF90BF90AF909F908F90089597
:1003A0002AE037ED43E25CE3C501B4010E94423923
:1003B0004B015C011E5F1F3F9CF31F3F59F42DEC66
:1003C0003CEC4CEC5DE3C501B4010E9442394B01A9
:1003D0005C01C6CF112321F220E030E040E251E47D
:1003E000C501B4010E9442394B015C011150F2CFAA
:1003F000D6018D929D92AD92BC921397BDCF2FB72F
:10040000F89490911606892B809316062FBF0895B5
:100410002FB7F89490911506892B809315062FBF5E
:1004200008959FB7F894809314069FBF08959FB7CF
:10043000F8942091130680958223809313069FBF22
:1004400008952FB7F89490911306892B8093130683
:100450002FBF08958F929F92AF92BF92EF92FF921B
:100460000F931F93CF93DF93EC0106E616E07C0118
:100470008CE0E80EF11C89909990A990B99020E049
:1004800030E0A901C501B4010E94E03687FD1CC01F
:10049000F80121913191419151918F015058C5013D
:1004A000B4010E94023918167CF0CE15DF0519F749
:1004B00080E0DF91CF911F910F91FF90EF90BF905F
:1004C000AF909F908F90089581E0F3CF8F929F928D
:1004D000AF92BF92CF92DF92EF92FF920F931F9352
:1004E000CF93DF93EB0122E4E22E26E0F22E8C0183
:1004F0006B018CE0C80ED11C699179918991999119
:10050000F70181909190A190B1907F010E94943762
:10051000A50194010E94EA36F801619371938193D9
:1005200091938F01CC15DD0539F7DF91CF911F91A4
:100530000F91FF90EF90DF90CF90BF90AF909F9082
:100540008F90089596B1892F877039F0892F809503
:10055000817091FF826092FF84600895CF93DF9352
:10056000C0911106D09112062097C9F08091E20542
:1005700081608093E2056091F8057091F9058091A2
:10058000FA059091FB059B01AC010E9442396A8BF0
:100590007B8B8C8B9D8B1092120610921106DF9133
:1005A000CF91089590917306492F80917406282F5A
:1005B00090FF11C090E280FF10C084E041FD906484
:1005C00021FD886042FD906822FD806190930F02BA
:1005D00080931002089590E0EECF80E0EFCF8091FD
:1005E000870682FF13C0289A80910F028093200211
:1005F000809172068250990B880F819580931F021B
:1006000080916F00826080936F0008952898ECCFEE
:100610008093B300811106C08091B0008F778093E2
:10062000B00008958091B0008068F9CFCF93DF9338
:10063000239AC0EBD0E083E0888387E08093B10009
:10064000259A209183063091840640918506509129
:10065000860660917F067091800680918106909158
:1006600082060E94EA359B01AC0160E070E088EFF1
:1006700091E40E94EA3660930B0270930C0280931F
:100680000D0290930E0288818F778883DF91CF913E
:100690000895E0911D0191E09E0F993609F490E0D4
:1006A00020918701291761F0F0E0E25EFE4F808320
:1006B00090931D018091C10080628093C10004C0AD
:1006C0002091130624FFECCF0895CF93DF93C1E16F
:1006D000D7E08991811103C0DF91CF9108950E94E5
:1006E0004903F7CF109217069091870697FD03C034
:1006F00090E290931706882331F08091170690E2DC
:1007000089278093170608958F929F92AF92BF9288
:10071000CF92DF92EF92FF920F931F93CF93DF93CD
:10072000CDB7DEB72D970FB6F894DEBF0FBECDBFA5
:100730006B017C01042F20E030E0A9010E94E0362B
:1007400087FF07C08DE20E944903F7FAF094F7F89B
:10075000F094102F123008F054C000FF0AC020E0BF
:1007600030E040E251E4C701B6010E9442396B011A
:100770007C0120E030E040E05FE3C701B6010E9469
:10078000EB350E945C3710E03AE0832E912CA12CCF
:10079000B12CE12FF0E06115710581059105E9F5B6
:1007A00081E090E08C0F9D1FE80FF91F80E3101788
:1007B00008F445C0101309C0E1E0F0E0EC0FFD1FA4
:1007C000E10FF11D80E380831F5FEE24E394F12CA1
:1007D000EC0EFD1EE10EF11C111134C02D960FB66A
:1007E000F894DEBF0FBECDBFDF91CF911F910F9167
:1007F000FF90EF90DF90CF90BF90AF909F908F9041
:10080000089520E030E048EC52E4C701B6010E94B0
:1008100042396B017C0112509DCFEE24E394F12C00
:10082000EC0EFD1EEE0EFF1EA50194010E946B3A18
:10083000605DF7016083B901CA011F5FAACF1F5F26
:100840008193B5CF101303C08EE20E944903F701D4
:1008500082917F010E9449031150BECF20918706EB
:1008600040E020FF07C02BE832E441E25DE30E9454
:10087000423941E00C9484032091870643E020FF35
:1008800007C02BE832E441E25DE30E94423944E0D4
:100890000C9484030F931F93CF938C01C0E0F80155
:1008A00061917191819191918F010E943C04C230BC
:1008B00019F08CE20E944903CF5FC33081F7CF91DA
:1008C0001F910F910895CF93DF93843658F06AE01B
:1008D0000E944B3AC0E3C90F6AE00E944B3AD0E352
:1008E000D90F04C0C0E0D0E08A30B0F7805D0E942C
:1008F0004903DD2319F08D2F0E944903CC2329F0F1
:100900008C2FDF91CF910C944903DF91CF91089503
:10091000CF93DF93EC01FE0184912196811103C0F6
:10092000DF91CF9108950E944903F5CF89EC91E0C2
:100930000C948804CF93C82F82ED91E00E94880424
:100940008C2F0E946304CF910C949604811104C0F3
:1009500089ED91E00C9488040C949A04CF92DF9274
:10096000EF92FF92CF93DF93D82F6A017B01C22FC2
:1009700084E20E9449038D2F0E9463048DE30E944C
:1009800049034C2FC701B6010E948403DF91CF9128
:10099000FF90EF90DF90CF900C949604CF93DF936D
:1009A000D82FC62F84E20E9449038D2F0E94630432
:1009B0008DE30E9449038C2F0E946304DF91CF9145
:1009C0000C949604EF92FF920F931F93CF93DF93B3
:1009D0006091720670E080E00E94CE04609175061E
:1009E00070E081E00E94CE046091730670E082E0C6
:1009F0000E94CE046091740670E083E00E94CE04F1
:100A00006091870662FB662760F970E084E00E94CF
:100A1000CE046091870666FB662760F970E085E08A
:100A20000E94CE0480918706082E000C990B692F36
:100A3000661F6627661F70E086E00E94CE04609104
:100A4000760670E08AE00E94CE04409177065091CD
:100A500078066091790670917A0623E08BE00E9417
:100A6000AE0440917B0650917C0660917D067091AA
:100A70007E0623E08CE00E94AE04609187066170E0
:100A800070E08DE00E94CE046091870665FB6627CA
:100A900060F970E084E10E94CE046091870663FBF8
:100AA000662760F970E085E10E94CE0460918706B8
:100AB0006295617070E086E10E94CE0460918806C4
:100AC00070E087E10E94CE044091890650918A0629
:100AD00060918B0670918C0623E088E10E94AE0441
:100AE00040918D0650918E0660918F067091900610
:100AF00023E089E10E94AE04609191067091920614
:100B00008AE10E94CE044091930650919406609130
:100B100095067091960623E08BE10E94AE04409109
:100B20007F0650918006609181067091820620E0D8
:100B30008EE10E94AE04409183065091840660913C
:100B400085067091860620E08FE10E94AE046091D8
:100B500087066695617070E080E20E94CE0484E6AC
:100B6000F82E10E0C2E4D6E000E0E02EEF0C1230E8
:100B700011F1133069F11130C9F0488159816A814E
:100B80007B8123E08E2D0E94AE040F5F24960330FC
:100B900061F78AE0F80E1F5F8CE8F812E3CFDF916F
:100BA000CF911F910F91FF90EF9008954C855D8537
:100BB0006E857F85E6CF20E030E041E655E4688D24
:100BC000798D8A8D9B8D0E94EA36AB01BC01D9CF0D
:100BD0004CA15DA16EA17FA17058D3CF8DE50E947D
:100BE00049030C949604CF93DF93CDB7DEB72C97CF
:100BF0000FB6F894DEBF0FBECDBF8CEC91E00E9423
:100C0000880464E276E0CE0101960E946602CE017D
:100C100001960E944A048AE30E94490380913606A5
:100C20000E9463040E94EE052C960FB6F894DEBF76
:100C30000FBECDBFDF91CF910895E1E0F1E0A8E1D3
:100C4000B6E04D915D916D917C91139740835183F6
:100C50006283738314964D915D916D917C9117978A
:100C6000448355836683778318968D919D910D906B
:100C7000BC91A02D80879187A287B3870895BF92EA
:100C8000CF92DF92EF92FF920F931F93CF93DF9358
:100C90007C01FC0102A513A5D4A5C5A5818980FF0F
:100CA00033C06091390670E090E080E00E94943794
:100CB0002AE037ED43E25CE30E9442399B01AC013C
:100CC000B8018D2F9C2F0E9442398B01D82FC92F3C
:100CD00020E030E040E85FE3B8018D2F9C2F0E94B8
:100CE0000239181624F000E010E0D0E8CFE3B80194
:100CF0008D2F9C2FDF91CF911F910F91FF90EF903F
:100D0000DF90CF90BF90089582FD17C060913806A4
:100D100070E090E080E00E9494372AE037ED43E2F3
:100D20005CE30E9442399B01AC01B8018D2F9C2FDE
:100D30000E9442398B01D82FC92FF701B6A0C7A056
:100D4000D0A4F1A498014D2F5C2F6B2D7C2D8D2DFF
:100D50009F2D0E94E03687FFBBCF0B2D1C2DDD2D74
:100D6000CF2DB6CF8091360290915705981739F064
:100D700022E3829FC0011124895C9D4F089590E079
:100D800080E008950E94B206892B19F082E00C944D
:100D9000210208952F923F924F925F926F927F921D
:100DA0008F929F92AF92BF92CF92DF92EF92FF927B
:100DB0000F931F93CF93DF9300D000D0CDB7DEB752
:100DC00000915705002309F486C009833981315009
:100DD000398310913502131709F466C0C32ED12C44
:100DE000E2E33E9FC00111249C01295C3D4F790143
:100DF000F90176888788908CA18C628D738D848DA3
:100E0000958D9B01AC010E94EB35F701268D378D46
:100E100040A151A10E944239B62EE72EF82E9B83A5
:100E2000262F372F482F592F672D782D892D9A2D52
:100E30000E94E03687FF03C0B72C7401AB8282E3C7
:100E40008C9DF0018D9DF00D1124E95CFD4F8B2DE3
:100E50009E2DAF2DBB81828B938BA48BB58BF9819B
:100E60008F2FF11101C080E1FF24FA94F80E309029
:100E700036021F1133C0131102C00E94AE02E2E31A
:100E80001E9FC0011124895C9D4F9A83898333245E
:100E90003394310EF0E13F1201C0312C82E3282E51
:100EA000031185C0109335020F900F900F900F9093
:100EB000DF91CF911F910F91FF90EF90DF90CF9036
:100EC000BF90AF909F908F907F906F905F904F906A
:100ED0003F902F90089520E1298378CF298182E3E4
:100EE000289F90011124295C3D4F3C832B8322E3F2
:100EF000E22E8F2C912CFE9CC0011124FC01E95C98
:100F0000FD4FFA83E983F11002C090E1F92EFA94C3
:100F1000F31002C00E94AE02E89CC001E99C900D53
:100F200011249C01295C3D4F6901F90146885788CD
:100F3000608C718CA301920162897389848995897F
:100F40000E94E036882339F1F601628D738D848D1D
:100F5000958D9B01AC010E94EB35F601268D378DF6
:100F600040A151A10E944239EB81FC812289338941
:100F7000448955890E94EB354B015C01AC019B0112
:100F8000C301B2010E940239F60118165CF4828A8C
:100F9000938AA48AB58A29813A813C832B831F11C5
:100FA000A8CF6DCF428A538A648A758AF4CFC32C46
:100FB000D12C329CC00111249C01295C3D4F790148
:100FC000E981FA814288538864887588F9018288AA
:100FD0009388A488B588A5019401C301B2010E9439
:100FE000E03687FF26C0E981FA81628D738D848D9A
:100FF000958D9B01AC010E94EB35E981FA81268D2C
:10100000378D40A151A10E944239A30192010E9453
:10101000EB352B013C01AC019B01C501B4010E94E1
:101020000239181634F4F701428A538A648A758AA1
:10103000132D2C9CF0012D9CF00D1124E95CFD4F2B
:1010400026893789408D518D628973898489958974
:101050000E94E036811101C0132D3394F0E13F125C
:1010600001C0312CFA82E9821BCF6F927F928F925E
:101070009F92AF92BF92CF92DF92EF92FF920F9327
:101080001F93CF93DF93EB018C015B018CE0A80EE3
:10109000B11C89E9682E96E7792E26E9822E3EE773
:1010A000932EC990D990E990F99020E030E0A90101
:1010B000C701B6010E94E0368823B9F0A701960166
:1010C000F80160817181828193810E94EA366B010F
:1010D0007C01E894F7F89301A401C701B6010E94CE
:1010E0000239181614F0360147010C5F1F4FCA155C
:1010F000DB05B9F6B301C401DF91CF911F910F91C8
:10110000FF90EF90DF90CF90BF90AF909F908F9027
:101110007F906F90089593B18091870686FF0BC0F2
:10112000967159F091FB882780F992FD8260907149
:1011300029F0846008959095F3CF80E00895EBE660
:10114000F0E08081897E8083E8E6F0E080818E7F18
:101150008083089584B1897E84B985B1866185B91B
:101160008091870683FF0BC080916B00866180931E
:101170006B008091680081608093680008950C94F2
:101180009F0868E176E08FEA96E00C946602F89496
:10119000F999FECF92BD81BD81E08FBB20B5862F2E
:1011A0008227082E000C990B50E086239523892B6B
:1011B00049F084E16F3F11F060BD84E08FBBF99A84
:1011C000789408952617E1F360BD84E2F7CF9F92EB
:1011D000AF92BF92CF92DF92EF92FF920F931F9345
:1011E000CF93DF935C018A017B01E40EF51EEB01D6
:1011F000912C6C01C61AD70ACE018C0D9D1D21E0E1
:10120000911007C0292D990C330B232F221F222761
:10121000221F6991962E920E0E94C708CE15DF05F7
:1012200059F7692DC501800F911FDF91CF911F9153
:101230000F91FF90EF90DF90CF90BF90AF909F9075
:101240000C94C7086AE090E080E00E94C70845E57A
:1012500050E062E476E081E090E00C94E708F999D0
:10126000FECF92BD81BD81E08FBB80B508959F9276
:10127000AF92BF92CF92DF92EF92FF920F931F93A4
:10128000CF93DF935B018A017C01E40EF51EEC0134
:10129000912C6B01C81AD90AC6018C0F9D1F0E94A0
:1012A0002F0921E0911007C0292D990C330B232F12
:1012B000221F2227221F982E920E8993CE15DF051A
:1012C00059F7C501800F911F0E942F0921E030E0DE
:1012D000891511F030E020E0C901DF91CF911F9115
:1012E0000F91FF90EF90DF90CF90BF90AF909F90C5
:1012F000089590913206911105C0811104C0439860
:1013000010923C06089586FFFBCF439AF9CFE1E0A7
:10131000F1E08CE1DF011D928A95E9F71092360227
:101320001092570581E080930001109235020895D4
:101330004F925F926F927F92AF92BF92CF92DF9265
:10134000EF92FF920F931F93CF93DF93EC015C0119
:101350002CE0A20EB11C8C01C12CD12C7601F8011D
:1013600041905190619071908F0120E030E0A9018F
:10137000C301B2010E94E036882371F0A3019201FB
:10138000C301B2010E9442399B01AC01C701B60101
:101390000E94EB356B017C010A151B0501F7C701A3
:1013A000B6010E94E1396B017C01AC019B0160E058
:1013B00070E080E89FE30E94EA362B013C016991CE
:1013C0007991899199915E01F4E0AF1AB108A30176
:1013D00092010E944239F501608371838283938375
:1013E000C017D10761F7C701B601DF91CF911F91F7
:1013F0000F91FF90EF90DF90CF90BF90AF907F90D4
:101400006F905F904F9008954F925F926F927F928E
:101410008F929F92AF92BF92CF92DF92EF92FF9204
:101420006B017C018090830690908406A0908506D5
:10143000B090860640907F065090800660908106AE
:1014400070908206A3019201C501B4010E94023985
:1014500087FF08C0A7019601C301B2010E94E036D0
:101460001816B4F040923E0650923F066092400635
:101470007092410686E2FF90EF90DF90CF90BF9090
:10148000AF909F908F907F906F905F904F90089556
:10149000A7019601C501B4010E94023987FD11C060
:1014A00020E030E0A901C701B6010E94E036809239
:1014B0003E0690923F06A0924006B092410687E019
:1014C000DACFC0923E06D0923F06E0924006F092FC
:1014D0004106A5019401C701B6010E94EA35209199
:1014E0000B0230910C0240910D0250910E020E94AD
:1014F00042390E94CF3720E030E040EE50E40E94B5
:10150000EB350E946337862FB6CF9091320691114A
:1015100016C0811115C080E090E0A0EEB0E4809389
:101520003E0690933F06A0934006B0934106BC014F
:10153000CD010E94040A0E94080310923C060895FF
:10154000803169F42D989091870691FF05C0803213
:1015500019F440E050E0BA01CB01BA01EACF2D9A6C
:10156000F2CF2F923F924F925F926F927F928F9223
:101570009F92AF92BF92CF92DF92EF92FF920F9322
:101580001F93CF93DF93CDB7DEB7C054D1090FB609
:10159000F894DEBF0FBECDBF8091350680FD79C2C5
:1015A0009091580580915905981709F472C280915D
:1015B000110690911206892B09F07EC01091350614
:1015C00012FF81C28091570522E3829FC00111243E
:1015D000895C9D4F909312068093110640911106ED
:1015E000509112065A874987452B09F452C200913F
:1015F000E20500FF6BC21092E2051092F405109212
:10160000F5051092F6051092F705A985BA855A9648
:101610002D913D914D915C915D9729833A834B8348
:101620005C8360E070E080E09FE30E94EA366D83B7
:101630007E838F839887E985FA85468C578C60A0D6
:1016400071A082889388A488B58811FF2CC3F2E02A
:10165000F093F305A50194010E9442399B01AC016E
:10166000C301B2010E94EA356B017C0120E030E049
:10167000A9010E94E03687FF05C329813A814B8189
:101680005C81CA01B9010E94EB35A30192010E945D
:1016900042399B01AC01C501B4010E94EA350E94A8
:1016A000E1396093000670930106809302069093DF
:1016B000030618601093350680918405682E712CFE
:1016C000A7E0A69DF001A79DF00D1124E65AFA4F60
:1016D0008091E1058483E0911106F0911206FA836E
:1016E000E983F68DFEA3A981BA815F96BC91BFA361
:1016F000E981FA81F0A1F8A7A981BA819196BC91FC
:10170000B9A72091EF053091F0054091F105509176
:10171000F2056EA17FA18F2F9B2F0E94EA356AAB45
:101720007BAB8CAB9DAB20E030E0A9010E94E036A2
:1017300087FF04C01AAA1BAA1CAA1DAAE0910406CE
:10174000EE8BF0910506FF8B20910606288F3091D5
:101750000706398F4091FC054E8F5091FD055F8F34
:101760008091FE0588A39091FF0599A3A09108069A
:10177000AAA7B0910906BBA7E0910A06ECA7F091D1
:101780000B06FDA73090F8052090F9054090FA056A
:101790005090FB052091F3052D833091F4053EA771
:1017A0004091F5054FA75091F60558AB8091F7058C
:1017B00089AB909100069BAFA0910106ACAFB091B0
:1017C0000206BDAFE0910306EEAF2AA53BA54CA5EE
:1017D0005F2F6E897F89888D998D0E94E0368111F7
:1017E000F1C3F2E0FEAB3EA139874FA14D8758A56A
:1017F000598B89A58D8B8EE3C82E83ECD82E8EE273
:10180000E82E89E3F82E1A8E1B8E1C8E1D8EA701E2
:1018100096012AA33BA34CA35DA35D81513009F43B
:101820004AC4A981BA81513008F4D8C3533009F0B1
:101830007CC45A962D913D914D915C915D97C70165
:10184000B6010E9442394B015C0120E030E040E0EB
:101850005FE30E9442399B01AC01632D722DC201EE
:101860000E94EA35A70196010E9442396FAB78AF1A
:1018700089AF9AAF9B01AC0169857D8589899D8976
:101880000E94EA358B0121968FAF21979FAF2E8959
:101890003F89488D598D0E94E03687FD0CC020E0BD
:1018A00030E0A9016FA978AD89AD9AAD0E94E0360C
:1018B00018160CF477C42E893F89488D598D6EA176
:1018C0007FA188A599A50E94EA359B01AC010E94E1
:1018D000EB356B017C012E8D3F8D48A159A1632D05
:1018E000722DC2010E94EB359B01AC01C701B6010C
:1018F0000E94EA366B017C013E8C2F8C48A059A0D7
:101900000E891F89B88D2196BFAF2197E98DEFAF62
:10191000F1E0FD83A70196016A8D7B8D8C8D9D8DF5
:101920000E94EB356A8F7B8F8C8F9D8F2AA13BA104
:101930004CA15DA10E94E03687FF6AC42A8D3B8DD1
:101940004C8D5D8D6AA17BA18CA19DA10E94EA3581
:101950006B017C01980121964FAD21975FAD6EA57B
:101960007FA588A999A90E94E03687FD2EC3832D03
:10197000922DD2018093F8059093F905A093FA0572
:10198000B093FB05FD81F093F305E0918505F0919F
:1019900086058189811104C09091350693FF30C07E
:1019A000A981BA8151969C915197907309F45FC4B3
:1019B0009E96CD90DD90ED90FC90D1978823A9F074
:1019C00020910C0630910D0640910E0650910F06A5
:1019D000632D722DC2010E9442399B01AC01C701E7
:1019E000B6010E9442396B017C01C701B6010E9419
:1019F000040A8093100680913506877F8093350610
:101A0000B7E0B69DC001B79D900D1124FC01E65AC8
:101A1000FA4FFE83ED838091100686832091EB05BB
:101A20003091EC054091ED055091EE05B8012196FD
:101A30008FAD21979FAD0E9442391B012C010E945E
:101A4000C9366B017C016091E7057091E8058091D2
:101A5000E9059091EA050E94C9364B015C01A70196
:101A600096010E94EA350E94633769837A838B83EB
:101A70009C83E981FA81AD81BE81ED93FC93EF2BCC
:101A800009F000C48091350681FFFCC3816080931A
:101A90003506C05CDF4F0FB6F894DEBF0FBECDBF7A
:101AA000DF91CF911F910F91FF90EF90DF90CF903A
:101AB000BF90AF909F908F907F906F905F904F906E
:101AC0003F902F9008950E94B20684CD8091E10549
:101AD0008F5F853009F480E08093E105282F30E0A6
:101AE00052E1859FC0011124DC01A957BA4F7D0145
:101AF000B0938605A0938505E985FA85808950967F
:101B00008C9390E080E04191519161917191D70166
:101B1000A80FB91F689412F8440F551F661F771F4E
:101B20001694D1F74D935D936D937C931397049620
:101B30008C30910541F7A985BA851C966D917D91F0
:101B40008D919C911F97B2E1B29FA001B39F500D60
:101B50001124FA01E957FA4F4B015C0123E0880C8C
:101B6000991CAA1CBB1C2A95D1F784869586A6864B
:101B7000B7860E9492376093E7057093E8058093DB
:101B8000E9059093EA05E985FA85268D378D40A110
:101B900051A10E94EA369B01AC012093EB053093E2
:101BA000EC054093ED055093EE0560E070E080EAAF
:101BB0009FE30E94EA366093EF057093F0058093EF
:101BC000F1059093F2051092E3051092E40510924E
:101BD000E5051092E60511FD02C003FF42C06091C9
:101BE00000067091010680910206909103066093B1
:101BF000F8057093F9058093FA059093FB059B0116
:101C0000AC010E944239A985BA8552966D937D93A5
:101C10008D939C935597077F0093E205D7015196CA
:101C20001C928091870681FFE8CCE985FA8581893D
:101C300085FFE3CC22A533A544A555A560E070E05F
:101C400080E89FE30E94EA3660930C0670930D06CD
:101C500080930E0690930F06E1E0D7015196EC9326
:101C6000CCCCE985FA8562897389848995890E943B
:101C7000E1396093F8057093F9058093FA05909324
:101C8000FB05CCCFC092F405D092F505E092F605A5
:101C9000F092F705109200061092010610920206CB
:101CA0001092030606CD1092F3054092040650925E
:101CB0000506609206067092070612FF6AC010922F
:101CC0000006109201061092020610920306C12C23
:101CD000D12C760189859A850E943F06698B7A8B83
:101CE0008B8B9C8B9B01AC010E94423969877A8760
:101CF0008B879C87A50194010E94E03687FF93C0E3
:101D000029853A854B855C85C501B4010E94EA3579
:101D10002D813E814F8158850E9442399B01AC0143
:101D2000C301B2010E94EA35609304067093050670
:101D3000809306069093070620E030E0A9010E94F8
:101D4000E03618160CF449C032E03093F3052981CF
:101D50003A814B815C81CA01B9010E94EB35A30134
:101D600092010E9442399B01AC01C501B4010E945D
:101D7000EA350E94E1396093000670930106809372
:101D80000206909303068091E20588608093E20545
:101D900090CCE0913602EF5FE03109F4E0E0809111
:101DA0005705C12CD12C76018E1751F022E32E9FBE
:101DB000F0011124E95CFD4FC288D388E488F588DE
:101DC000C701B6010E94E1396093000670930106D5
:101DD00080930206909303067DCFA7019601698543
:101DE0007A858B859C850E94EA352D813E814F81C5
:101DF00058850E94423960930806709309068093C3
:101E00000A0690930B0689899A89AB89BC898093CD
:101E1000FC059093FD05A093FE05B093FF0593E0AC
:101E20009093F30546CCA7019601C501B4010E9429
:101E3000EA352D813E814F8158850E944239A301A8
:101E400092010E94EB3520E030E040E05FE30E9429
:101E500042396D877E878F87988B20E030E0A9011B
:101E60000E94023918160CF094C0A30192016D85EE
:101E70007E858F8598890E94E03687FF88C0A701FC
:101E8000960169857A858B859C850E94EA352D812E
:101E90003E814F8158850E9442399B01AC012093BD
:101EA00008063093090640930A0650930B066D8589
:101EB0007E858F8598890E9402391816BCF529897C
:101EC0003A894B895C892093FC053093FD0540934A
:101ED000FE055093FF05A501940169857A858B85E0
:101EE0009C850E94E036811104C031E03093F305F7
:101EF000E0CBA501940169857A858B859C850E943C
:101F0000EA352D813E814F8158850E9442399B01DF
:101F1000AC01C301B2010E94EA35609304067093DC
:101F200005068093060690930706C3CB8D859E8594
:101F3000AF85B8898093040690930506A0930606A2
:101F4000B09307068093080690930906A0930A06AB
:101F5000B0930B0629813A814B815C81CA01B9019A
:101F60000E94EB352D853E854F8558890E94423968
:101F7000A70196010E94EB350E94E1396093FC05B0
:101F80007093FD058093FE059093FF0592CB92E040
:101F900047CF8091000690910106A0910206B09172
:101FA000030610920406109205061092060610927F
:101FB00007068093FC059093FD05A093FE05B09362
:101FC000FF0577CB21E02EAB0ECC09871D8721962C
:101FD0003FAD2197398B4FAD4D8B1FCC5A962D912C
:101FE0003D914D915C915D97C701B6010E944239C8
:101FF0004B015C0120E030E040E05FE30E944239A9
:10200000232D322DA2010E94EB35A70196010E94DB
:1020100042399B01AC0169857D8589899D890E9432
:10202000EA358B0121968FAF21979FAF9B01AC01C1
:102030006E897F89888D998D0E940239181684F5E2
:102040002E893F89488D598D6EA17FA188A599A5BC
:102050000E94EA359B01AC010E94EB356B017C01CB
:102060002E8D3F8D48A159A1632D722DC2010E9472
:10207000EB359B01AC01C701B6010E94EA366B014A
:102080007C01BEA9BD833E8C2F8C48A059A00E892F
:102090001F89E88D2196EFAF2197F98DFFAF3ACCDC
:1020A000A5019401632D722DC2010E94EB35362EDD
:1020B000272E2C012FCC2E8D3F8D48A159A1C70171
:1020C000B6010E9442399B01AC0169857D858989F1
:1020D0009D890E94EA358B0121968FAF21979FAF92
:1020E0002AA53BA54CA55DA50E94E03687FF12CC32
:1020F0002AA53BA54CA55DA569857D8589899D8916
:102100000E94EA352E8D3F8D48A159A10E94EA36E2
:102110006B017C010AA51BA52CA521962FAF219749
:102120003DA53FAF42E04D83F5CB5A962D913D91B1
:102130004D915C915D97C701B6010E9442394B01F8
:102140005C01AC019B01632D722DC2010E9402391A
:10215000181684F520E030E040E05FE3C501B401EB
:102160000E9442399B01AC01632D722DC2010E9475
:10217000EA35A70196010E9442399B01AC016985AD
:102180007D8589899D890E94EA358B0121968FAFD3
:1021900021979FAF2EA53FA548A959A90E940239B2
:1021A000181644F4A5019401632D722DC2010E94FA
:1021B000EA357DCF2EA53FA548A959A969857D851A
:1021C00089899D890E94EA359B01AC010E94EB350B
:1021D0006B017C012BAD3CAD4DAD5EAD632D722D21
:1021E000C2010E94EB359B01AC01C701B6010E9400
:1021F000EA366B017C013BAC2CAC4DAC5EAC0EA561
:102200001FA5B8A92196BFAF2197E9A9EFAF82CB4F
:102210002AA93BA94CA95DA9B80121968FAD2197A8
:102220009FAD0E94023918169CF42EE333EC4EE267
:1022300059E36AA17BA18CA19DA10E94EB356AA301
:102240007BA38CA39DA32A8D3B8D4C8D5D8D7ECB76
:10225000832D922DD2018093F8059093F905A093D8
:10226000FA05B093FB052D812093F3058ECB1092D8
:102270003E0610923F0610924006109241061092C0
:102280001006B9CB2091E3053091E4054091E505B6
:102290005091E6056A8D7B8D8C8D9D8D0E94EB356E
:1022A0006D837E838F839887A2019101C501B4015C
:1022B0000E94EA359B01AC016D817E818F819885FA
:1022C0000E94EA364B015C0120EC31EE44E65EE40C
:1022D0000E9442390E94C9360E946337603D37E050
:1022E00073078105910508F066C047E0469DF0013F
:1022F000479DF00D1124E65AFA4F1582A7E0A69DDE
:10230000F001A79DF00D1124E65AFA4F7383628302
:1023100080915905809384058F5F863009F49DC0B4
:1023200080935905E0911106F0911206C80121969B
:10233000AFAD2197BFAD868F978FA0A3B1A3C092F9
:10234000E705D092E805E092E905F092EA05A201DE
:102350009101C701B6010E94EA35A50194010E94CE
:1023600042396093E3057093E4058093E50590930B
:10237000E6052091F4053091F5054091F605509160
:10238000F705B80121968FAD21979FAD0E94E036E9
:10239000811106C9F090350620E030E0A901B801AE
:1023A00021968FAD21979FAD0E94023918160CF02F
:1023B00057C08F2D6BCB603A5FE0750781059105A3
:1023C00080F5A7E0A69DF001A79DF00D1124E65A27
:1023D000FA4FB1E0B583A7E0A69DF001A79DF00DEF
:1023E0001124E65AFA4F2581022E04C0969587954E
:1023F000779567950A94D2F749815A8102C0440FB4
:10240000551F2A95E2F7518340836115710551E00C
:102410008507910508F472CF2FEF3FEF33832283B6
:1024200077CF6034EFE17E078105910558F427E00E
:10243000269DF001279DF00D1124E65AFA4F32E057
:102440003583C9CF47E0469DF001479DF00D11242B
:10245000E65AFA4F53E05583BECF1092590562CF2A
:10246000F2FCA7CF1092120610921106909136023C
:1024700080915705891709F493C881E0890F80314D
:1024800009F480E020913502921302C08093350256
:102490008093360285C880916F008D7F80936F0096
:1024A00080918100887F8160809381001092110269
:1024B00080917506909131068F3FA1F4209114060A
:1024C000211110C0903881F490E0019778F481E0F8
:1024D0009091870692FF02C091E08927882369F0D6
:1024E000289A0895943081F780E0F2CFEFE9FFE079
:1024F0003197F1F700C00000E8CF28980895CF93F6
:10250000DF930E944B12E1EEF5E080E3DF011D92C4
:102510008A95E9F7C2E1D2E083E2FE0111928A9541
:10252000E9F71092120610921106109258051092B7
:10253000840581E080935905109211020E94D20215
:10254000809110028F878BB18F7190910F02892B30
:102550008BB98BB1837E90911002892B8BB9DF915F
:10256000CF9108958091130684FD1FC080E10E94E1
:1025700021028091B0008F778093B00043989091B2
:102580003106892F8C7221F480913506867069F0AE
:10259000943049F480911406811103C086E00E94B2
:1025A00011020C944B1283E0FACF08952F923F92C0
:1025B0004F925F926F927F928F929F92AF92BF9253
:1025C000CF92DF92EF92FF920F931F93CF93DF93FF
:1025D000CDB7DEB7A4970FB6F894DEBF0FBECDBF60
:1025E00010911406112349F181E08093310686E6AB
:1025F00091E00E948804812F0E9463040E94960447
:1026000085EF91E00197E1F51150123088F485E7EC
:1026100092E00E94880483E692E00E9488040E946F
:10262000EE0580E10E9417028091130684FFFCCF23
:102630008FB7F894109214068FBF109113061123D0
:1026400009F4A9C214FF23C081E080933206A49646
:102650000FB6F894DEBF0FBECDBFDF91CF911F91B3
:102660000F91FF90EF90DF90CF90BF90AF909F9031
:102670008F907F906F905F904F903F902F90089534
:10268000EFE9FFE03197F1F700C00000BBCF10FF8A
:10269000CDC08CE0E8E1F6E0DE01599601900D92A4
:1026A0008A95E1F7BE01675E7F4FCE010D960E94CD
:1026B00066028CE30E94490380913106883009F458
:1026C0002FC108F00AC1813009F433C108F423C1D5
:1026D000823009F431C1843009F428C18091760632
:1026E000F82FF1709F2E80FF3CC180913D0688231A
:1026F00009F437C182E991E00E948804CE010D9669
:102700000E944A048091760681FF1DC086E891E010
:102710000E9488049091570580913602981708F41A
:102720006FC1815F891B0E9463048CE20E94490390
:102730008091090290910A02981708F463C18058A9
:10274000891B0E94630481E891E00E9488048091C3
:1027500031068C7709F458C16091F8057091F9053C
:102760008091FA059091FB050E942E048CE20E9454
:10277000490360913E0670913F068091400690911A
:10278000410640E00E9484030E948B08E82E0E94CC
:10279000A202F82E06B100728091170608278E2D2E
:1027A0008F29802B59F18CE791E00E948804002347
:1027B00019F080E50E944903EE2079F0E0FE03C0A5
:1027C00088E50E944903E1FE03C089E50E944903B0
:1027D000E2FE03C08AE50E944903FF2079F0F0FE83
:1027E00003C082E50E944903F1FE03C088E40E9411
:1027F0004903F2FE03C083E50E94490380913D0630
:10280000882309F405C1815080933D0600913C0660
:10281000002309F416C1015000933C068EE30E9488
:1028200049030E94960481E00E941702812F887E4E
:1028300009F461C180913106982F937009F04AC163
:102840008872A9F080913306807C89F40E94AE02E0
:1028500082E08093350680913106803241F480E237
:1028600017FD0CC0809133068068809333068091F9
:102870003106811103C091E09093330616FF07C023
:1028800085FD05C09091330690649093330613FF45
:1028900005C0807E19F480E18093310615FF1AC1CE
:1028A00085E792E00E94880481E292E00E94880419
:1028B0000E94EE058091330687FD07C19091310695
:1028C000903409F0FFC083FF04C0837E8260809350
:1028D000330680E480933106F8C0803221F198F409
:1028E000803109F0FBCE8091330687FD1CC08AEB56
:1028F00091E00E9488048091330680FF2EC080E31F
:102900000E944903EBCE8034D1F0803809F0E6CE46
:1029100089E991E002C084EC91E00E948804DECE57
:1029200080EC91E0FACF86EB91E0F7CF81EB91E07C
:10293000F4CF8BEA91E0F1CF85EA91E0EECF8FE919
:1029400091E00E9488048091330683FF02C083E3F4
:10295000D7CF82FF04C085FFD2CF81E3D1CF82E3FE
:10296000CFCF4090D3065090D4066090D50670909B
:10297000D6066BEBA62E66E0B62E9E012F5F3F4F6C
:102980006901CE010D967C0100E0F5016191719124
:10299000819191915F0120853185428553850E9407
:1029A000EB35F60161937193819391936F0102303E
:1029B00041F4A30192010E94EB3569877A878B87E6
:1029C0009C87911012C0F601349720813181428199
:1029D0005381F70160817181828193810E94EA3580
:1029E000F70160837183828393830F5FF4E0EF0EBE
:1029F000F11C033051F691107DCE8BE891E07CCE36
:102A0000815090CE81509CCE60E070E0CB01ACCE86
:102A1000809131068C7799F08DE180933D0680910D
:102A20003C06811103C081E080933C0686E791E07B
:102A30000E948804CE0101960E944A04E7CE89E0F4
:102A4000ECCF809131068C77C1F183E180933C0615
:102A500081E791E00E948804809138060E94630417
:102A60008CE20E944903809139060E9463048CE243
:102A70000E94490380913A060E9463048091B0004D
:102A8000F12C87FF04C02D9B1AC052E0F52E439B0A
:102A9000BCC101E08DE691E00E948804FF2031F086
:102AA00021E083E5F21283E40E944903002309F444
:102AB000B5CE86E40E944903B1CE89E0C7CFFF249A
:102AC000F394E5CF903809F004CF8091330680620B
:102AD0008093330617FF0CC080913106813029F4B2
:102AE0008091330685608093330680E880933106B9
:102AF00088EE0E94170211FF28C0812F887611F5F9
:102B000080913106803441F48091330685FD04C004
:102B100084FFDFC01092310680913106882309F4CA
:102B2000DEC084FF0FC09091330690FF0BC0803150
:102B300009F0D5C080913B06882309F4D0C0886095
:102B400080933B0682E00E94170212FF24C09091FE
:102B5000330680913106807D09F4DAC08091340615
:102B60008111D6C097FDD6C00E94AE028091360278
:102B7000809335020E94CA068091350681FF05C008
:102B800090913306916090933306897F8093350648
:102B900084E00E94170290911506992309F44CC015
:102BA0008FB7F894109215068FBF40913806842F86
:102BB00090FD84E691FD865F92FD8A5093FD8F5FC4
:102BC00094FD8150893C08F088EC8A3008F48AE052
:102BD00030913906232F95FD24E696FD22E397FDDB
:102BE00029E1481302C0231739F180933806209356
:102BF000390610923C067090360260905705172DEA
:102C000089E9282E96E7392E26E9422E3EE7532EF3
:102C100042E3842E161199C0C101D201809319019B
:102C200090931A01A0931B01B0931C010E94AE0265
:102C3000709235020E94CA0690911606992309F4F3
:102C400040C08FB7F894109216068FBF20913A06B5
:102C5000822F90FD84E691FD865F92FD8A5093FD60
:102C60008F5F94FD8150893C08F088EC8A3008F42D
:102C70008AE0281749F02091350628602093350610
:102C800080933A0610923C068091310695FF09C068
:102C9000803139F420913B062111B1C022E020930C
:102CA0003B06907C71F0882311F0887151F01091EF
:102CB0009F0616FFA8C01F7B812F0E9479091093E1
:102CC0009F06809131068C7F09F4C1CC0E94B10A25
:102CD000BECC82FF21CF8860809333061DCF109237
:102CE00035060E94B206892B71F08091330686FD6D
:102CF0000AC01092330688E0809331060E94B10A20
:102D00000E94EF021FCF10923306109231061ACFA5
:102D100097FF0AC0109235060E9487090E947F1211
:102D20000E94C1080E941D068091330685FF08C0DD
:102D30008F7781608093330680E48093310628CFBB
:102D4000109233061092310623CFA12EB12C189D7C
:102D5000C0011124895C9D4F0E943F06962EC72E0C
:102D6000D82E092F9101A2010E9402398A9C70017C
:102D70008B9CF00C11241816ACF5C701895C9D4F93
:102D80007C019101A201B101C2010E944239F70107
:102D9000668B778B808F918F8A9CC0018B9C900D66
:102DA00011249C01295C3D4F7901F90122A033A037
:102DB00044A055A0A201910166897789808D918DEB
:102DC0000E94023918162CF4F701268A378A408EA1
:102DD000518E1F5F103109F410E0292C3C2C4D2C32
:102DE000502E18CF9701295C3D4F7901292D3C2D9C
:102DF0004D2D502F692D7C2D8D2D902FC6CF20FF6E
:102E000050CF24604CCF106457CFFF2009F406CD7B
:102E100041CE1F93CF93DF93142F20E030E040EAA0
:102E200051E40E9442390E94C9360E946337EB0187
:102E30002097C9F080913206811115C011110DC083
:102E40000E9437172FEF80E792E02150804090409A
:102E5000E1F700C000002197EBCF0E94D6128091CD
:102E6000330681FFEFCFDF91CF911F910895CF926D
:102E7000DF92EF92FF921F93CF93DF930E94D612BF
:102E800080913306882309F466C00E94B206009739
:102E900009F03FC0C091A00680919F06C82BC0904A
:102EA000A206D090A306E090A406F090A50680911B
:102EB000870681FF03C080E20E94FF01DC2FD073F0
:102EC00011E0C07480913306882309F444C09091C6
:102ED0003206911140C080FF19C090913106292F10
:102EE000207C09F485C082FD1BC010923B0640E0A7
:102EF00050E0BA0180E00E94850A80E00E947909D2
:102F0000809133068D7F8460809333060E94D612B1
:102F1000D9CFFC01C189C6A4D7A4E0A8F1A8C7CF26
:102F2000903821F585E792E00E9488048EED91E0CB
:102F30000E9488040E94EE0540E050E0BA0180E063
:102F40000E94850A80E00E9479090E944B128091BC
:102F50003206882341F0DF91CF911F91FF90EF90CF
:102F6000DF90CF9008950E94D612F1CF903419F4DB
:102F70008F7D809333068091330683FFC7CF909176
:102F8000A006992359F081FD09C08091870681FF31
:102F900022C08091350688608093350680919F0617
:102FA000882371F08091330681FD0AC08C2F0E9426
:102FB000790941E060E070E080E89FE30E94091732
:102FC0008091330681FDA2CF80618093330682E039
:102FD0000E9421029BCFB701A6018D2F0E94850A76
:102FE00041E060E070E080E890E40E940917D6CFED
:102FF00080913B068823C9F181FF0DC08091A00616
:10300000882351F140E050E0BA0180E00E94850A37
:1030100010933B067BCF8C7009F478CF8091A0068B
:10302000882399F085E792E00E94880487EE91E07A
:103030000E9488040E94EE058091870681FF0FC0E0
:103040008091350688608093350680913B0683FF2A
:1030500003C082E00E94210210923B0657CFB701C5
:10306000A6018D2F0E94850AF0CF8091350683FF3F
:103070004DCFB701A6018D2F0E94850A809135069C
:10308000877F8093350642CF0E94C2060E94371781
:1030900080913206811108C00E94B206892BB1F7D7
:1030A00080913106883091F30895CF93DF9391E5B5
:1030B000899FE0011124DD5F40E550E0BE0181E120
:1030C00097E00E943709892B79F4109211070E942A
:1030D000441840E550E061E177E0CE010E94E70846
:1030E00080E0DF91CF91089581E0FBCF0E944418EA
:1030F00010923D060895CF92DF92EF92FF92CF9308
:1031000090913106923079F06A017B01C82F0E94BC
:103110004418B701A6018C2FCF91FF90EF90DF905C
:10312000CF900C94850ACF91FF90EF90DF90CF90D5
:1031300008950F931F93CF93C82F8B010E944418BB
:103140002DE0C29FC00111244CE050E0B8019E5F09
:10315000CF911F910F910C94E7081F93CF93DF93AA
:10316000182FEB018DE0189FB00111247E5F4CE019
:1031700050E0CE010E943709892B71F48CE0FE01EA
:1031800011928A95E9F7BE01812F0E94991880E07B
:10319000DF91CF911F91089581E0FACFEF92FF92D6
:1031A0000F931F93CF93DF93CDB7DEB72C970FB656
:1031B000F894DEBF0FBECDBF182F80FFD5C08AE0C8
:1031C0008093720689E180937506109273061092BF
:1031D000740681E0809376068AE097EDA3E2BCE373
:1031E0008093770690937806A0937906B0937A0639
:1031F0008FE692E1A3E0BBE380937B0690937C068D
:10320000A0937D06B0937E0680E090E0AAE7B4E448
:1032100080937F0690938006A0938106B0938206E8
:1032200010928306109284061092850610928606EC
:103230001092880680E090E0A8ECB1E480938906C3
:1032400090938A06A0938B06B0938C0680E090E062
:10325000AAEFB3E480938D0690938E06A0938F0619
:10326000B09390062AEF30E03093920620939106B7
:1032700040E050E060E87FE340939306509394066B
:1032800060939506709396061092870640E050E092
:103290006AE773E440934206509343066093440602
:1032A0007093450640934606509347066093480640
:1032B0007093490640934A0650934B0660934C0620
:1032C00070934D0680934E0690934F06A093500640
:1032D000B09351068093520690935306A0935406E0
:1032E000B09355068093560690935706A0935806C0
:1032F000B093590680E090EAACE0B7E480935A06B8
:1033000090935B06A0935C06B0935D0680935E0687
:1033100090935F06A0936006B09361068093620667
:1033200090936306A0936406B093650680E090E0F6
:10333000A8E4B3EC8093660690936706A0936806B2
:10334000B093690680936A0690936B06A0936C060F
:10335000B0936D0680936E0690936F06A0937006EF
:10336000B09371060E94220911FF10C0CE01019690
:103370007C018CE0F70111928A95E9F700E0B70132
:10338000802F0E9499180F5F0830C9F712FF14C0F0
:1033900060E080E093E00E94C70860E081E093E095
:1033A0000E94C70860E081E593E00E94C70860E0E2
:1033B00082E593E00E94C70813FF0AC060E08EEA2E
:1033C00093E00E94C70860E08FEA93E00E94C7087C
:1033D0002C960FB6F894DEBF0FBECDBFDF91CF9114
:1033E0001F910F91FF90EF9008952F923F924F926F
:1033F0005F926F927F928F929F92AF92BF92CF9285
:10340000DF92EF92FF920F931F93CF93DF93CDB78D
:10341000DEB7C254D1090FB6F894DEBF0FBECDBFE0
:103420003B0100915705202E312C22E3029FA00181
:103430001124BA01695C7D4F7CAB6BABFB0111922F
:103440002A95E9F7F3012085FB01218BF3014481E3
:10345000558166817781EBA9FCA946A757A760AB88
:1034600071AB21FFF0C02CE0E8E1F6E0DE015996F7
:1034700001900D922A95E1F789AB9AAB22E436E0F0
:1034800021963FAF2EAF2197BE01635F7F4F7EAF86
:103490006DAFCE0149969CAF8BAFEBA9FCA9FAAFFB
:1034A000E9AF9E012B5D3F4F3EAB2DAB38AF2FAB4D
:1034B00010E082E3829D2001839D500C1124B20113
:1034C000695C7D4F2B01CB010C9623969FAF8EAF8D
:1034D000239790E1490E511CE9A9FAA961917191D4
:1034E00081919191FAABE9AB2196EEADFFAD2197B9
:1034F00081909190A190B1902196FFAFEEAF21976E
:10350000A50194010E9442390E940F39EDADFEAD34
:103510006193719381939193FEAFEDAFEBADFCADF1
:10352000C190D190E190F190FCAFEBAF6C197D09A7
:103530008E099F099B01AC0197FF07C02227332703
:10354000A901261B370B480B590BE9ADFAAD2193A6
:10355000319341935193FAAFE9AF2396EEADFFADAE
:103560002397C080D180E280F380C216D306E406A0
:10357000F50610F469017A012396EEADFFAD2397AD
:10358000C082D182E282F3820E949437A501940125
:103590000E94EA36EFA9F8AD6193719381939193FC
:1035A000F8AFEFAB20E030E0A9010E94E03687FFE2
:1035B0000BC094E0112321F090E1113009F498E060
:1035C000F2018081892B80831F5F133009F084CF43
:1035D00080E0CD28CE28CF2809F4CBC0CE01859637
:1035E0000E9498094B015C0122E3229DC001239DAA
:1035F000900D11249C01295C3D4F7901F901868EC3
:10360000978EA0A2B1A2BE016B5D7F4F8AE596E0C6
:103610000E943508F701628F738F848F958FBE01EA
:103620006B5D7F4F8EE496E00E943508F70166A33C
:1036300077A380A791A7118910FF09C062A773A77C
:1036400084A795A710C02CE0E1E0F1E00FCFF301D3
:10365000208131814281538113FDA5C0F70122A74A
:1036600033A744A755A780913602081711F011FF20
:10367000A0C082E3829DF001839DF00D1124E95CDE
:10368000FD4F128A138A148A158A12A213A214A259
:1036900015A282E3829D8001839D100D1124095C97
:1036A0001D4FF801818981FD63C08BA99CA90E94EF
:1036B0003F066B017C018090190190901A01A09047
:1036C0001B01B0901C01AC019B01C501B4010E941B
:1036D000E03687FF36C1A5019401C501B4010E94FF
:1036E0004239F801668B778B808F918F82E3829DC0
:1036F0008001839D100D1124095C1D4FF80182A0EB
:1037000093A0A4A0B5A0A501940166897789808DB6
:10371000918D0E94023918162CF4F801868A978A36
:10372000A08EB18EC0921901D0921A01E0921B01B5
:10373000F0921C018CE0FE01B596ADE0B1E0019085
:103740000D928A95E1F78CE0FE013D96A1E0B1E093
:1037500001900D928A95E1F78091000180935705C1
:103760008F5F803109F480E0809300010E94CA06D7
:1037700081E0CE5BDF4F0FB6F894DEBF0FBECDBF4A
:10378000DF91CF911F910F91FF90EF90DF90CF903D
:10379000BF90AF909F908F907F906F905F904F9071
:1037A0003F902F900895C501B4010E944239F7015E
:1037B00045CF2DE031E03AAB29AB8E010F5F1F4FB3
:1037C0006DA97EA9645F7F4F7CAF6BAFC12CD12CFC
:1037D00076010FAB19AFE9A9FAA981909190A19058
:1037E000B190FAABE9ABEDA9FEA94190519061907F
:1037F0007190FEABEDABA3019201C501B4010E9433
:1038000042399B01AC01C701B6010E94EA356B0148
:103810007C01A5019401C301B2010E94EA35F801BF
:1038200061937193819391938F012BAD3CAD6DA901
:103830007EA92617370779F62FEE3FEF4FE75FE3B4
:10384000C701B6010E94023918164CF482E3829D2A
:10385000F001839DF00D1124E95CFD4F16CF2FEE92
:103860003FEF4FE75FEBC701B6010E94E03687FFED
:1038700011C082E3829DF001839DF00D1124E95C6B
:10388000FD4F89E996E7A6E9BEE782A393A3A4A327
:10389000B5A3FFCE8FA999AD0E9498096FA979AD04
:1038A0008AE596E00E9435084B015C01A70196016C
:1038B00060E070E080E89FE30E94EA3520E030E0BD
:1038C00040E05FE30E9442390E94E1396B017C01D4
:1038D00020917706309178064091790650917A06CA
:1038E000C501B4010E944239A70196010E944239E4
:1038F0004B015C01A701960160E070E080E89FE366
:103900000E94EA359B01AC01C501B4010E94EA3670
:103910006B017C0120E030E0A9010E94E03687FFC6
:1039200003C0C12CD12C760182E3829DF001839DDE
:10393000F00D1124E95CFD4FC2A2D3A2E4A2F5A2CE
:10394000A8CEA7019601C701B601C9CEFF920F9379
:103950001F93CF93DF938C01EB018091870685FF46
:1039600023C0F090310680E2F81611F1C8010E94E0
:103970002A028823C9F081E08093340688E0F81297
:103980000CC00E9421020E943717809132068111DB
:103990000BC0809131068111F6CF0E94B21282E0F5
:1039A0000E9411020E94371780913106823041F146
:1039B0000E94371780913206811122C09091360201
:1039C00080910001981303C00E94C206F1CFBE018E
:1039D000C8010E94F519811113C08091870681FFEB
:1039E0000FC0888584FF0CC04C815D816E817F8112
:1039F00080E1DF91CF911F910F91FF900C947B1884
:103A0000DF91CF911F910F91FF9008952F923F92D8
:103A10004F925F926F927F928F929F92AF92BF92DE
:103A2000CF92DF92EF92FF920F931F93CF93DF938A
:103A3000CDB7DEB7CC54D1090FB6F894DEBF0FBEB8
:103A4000CDBFE7EDF6E08AE3DF011D928A95E9F745
:103A50008BE0E7E9F6E0A8EDB6E001900D928A95DB
:103A6000E1F7809111078432A1F01A8E1BA2312C4C
:103A7000212C1EA61DA610E01B8E1F8EEE24E394A3
:103A8000F12CAAE0AA2EB12CB1E68B2EB3E09B2E2E
:103A90004EC181E08093D8061092D90683E08A8FC8
:103AA000B1E0BBA3E4CF9FEB9D0D9A3110F00C94D5
:103AB0009A2A8F5F8A8FBE016A5E7F4FCE014A9637
:103AC0000E945201882311F40C949D2A4E885F882D
:103AD000688C798CC301B2010E94253A0E94633739
:103AE000062F70E090E080E00E9494379B01AC01CB
:103AF000C301B2010E94EA3520E030E048EC52E414
:103B00000E9442390E94AF390E946337CB01E7E43B
:103B1000DE1629F1FDE4DF1609F465C1EAEBED0DCF
:103B2000E53108F02CC00E2E000CFF0BE656F24ECD
:103B30000C948D3A3A1FBF1DBF1D671F721F7D1F5A
:103B4000881FBF1D8C1FBF1D9A1FBF1DA41FAE1F46
:103B5000B81FBF1DBF1DBF1DC81FD51FE21F0832E4
:103B600009F4DDC030F5043160F4013108F098C08B
:103B7000043009F474C0B0F00A3009F468C084E17C
:103B800096C00C3109F463C040F40631C0F725E15A
:103B9000201B2093DA0626E087C00E3109F457C0B7
:103BA000063269F74F8D41110C94A02AA2E0AF8F25
:103BB00028C00D3309F4AEC0E0F4053309F44FC05A
:103BC00088F40B3211F00133D1F6BF8DB1110C9492
:103BD000A02A013309F095C01092DD06E3E0EF8FD3
:103BE00028E04FC00C3358F606530093DE0629E058
:103BF0005BC00C3508F50A3508F073C0003509F0D4
:103C0000BECF0093D80621E0063209F04DC08431C2
:103C1000910551F08E31910539F08832910521F0EE
:103C20008233910509F0ABCFB5010E94573A665730
:103C30006093D80621E025C00C3549F00F3508F017
:103C40009ECF2EE5201B2093D90625E02DC000979E
:103C500031F42F8D21110C94A02A31E03F8F009375
:103C6000D706202F2D7F2C3119F020E00C35E1F400
:103C7000009719F00A9709F082CF600F6093D7067A
:103C800020E0C70102C0880F991F2A95E2F72DA5F1
:103C90003EA528233923232B09F443C085E107C01F
:103CA00001510093DC0622E0892B59F387E1C45BC4
:103CB000DF4F0FB6F894DEBF0FBECDBFDF91CF91BF
:103CC0001F910F91FF90EF90DF90CF90BF90AF903A
:103CD0009F908F907F906F905F904F903F902F902C
:103CE0000895892B29F40A550093DB0623E0C9CFF8
:103CF0006A30710509F043CF0A3509F440CF24E05A
:103D0000C0CF0A9709F03BCFF1E0F093DD0623E046
:103D10002F8F66CF892B09F032CF2AE0B2CF27E070
:103D2000C3CFADA5BEA5A82BB92BBEA7ADA78A8DC5
:103D3000E82FF0E0EF5EF84FD080D110B4CEBB8D0D
:103D4000BB2329F0EF8DE11102C0F2E0FF8F25FEC9
:103D50000FC08091F4069091F506A091F606B091FF
:103D6000F70681389649A849B10514F00C94AC2A9D
:103D70003BA1332309F433C120FE43C18091DA060D
:103D80008130B1F423E333E34BEC51E46091E3067B
:103D90007091E4068091E5069091E6060E94423912
:103DA0006093E3067093E4068093E5069093E6063D
:103DB00030FC10C08091A2069091A306A091A406A9
:103DC000B091A5068093000790930107A093020786
:103DD000B09303078091D706843009F02DC126FCEB
:103DE00029C18CE164CF892B09F060CF063050F4F3
:103DF000033098F00430D9F080E10530C9F4109216
:103E0000E10618C0083008F4BACE0A3048F10E3185
:103E100009F0B5CE0093DF0604C0002321F0013085
:103E2000C9F78BE008C0B3E0B093DF06FACF80E2B9
:103E30008093E1068CE0F70102C0EE0FFF1F8A9528
:103E4000E2F7CF012DA53EA52E233923232B09F020
:103E500025CF2DA53EA52E2B392B3EA72DA767CF0D
:103E6000093029F080E48093E0068DE0E4CF1092E1
:103E7000E006FBCF4092E3065092E4066092E5062E
:103E80007092E60680E06701082E02C0CC0CDD1CB3
:103E90000A94E2F7960122213321232B11F00C948E
:103EA000A62AD40102C0B595A7958A95E2F7A0FF8E
:103EB0000BC020E030E0A901C301B2010E94E0364E
:103EC00087FF02C00C94A92A2C283D2830CF4092AD
:103ED000E7065092E8066092E9067092EA061160E1
:103EE00081E0D1CF4092EB065092EC066092ED0655
:103EF0007092EE06126082E0C6CF4092EF065092BA
:103F0000F0066092F1067092F206146083E0BBCF77
:103F10000093F30684E0B7CFC301B2010E945C377F
:103F20006093F4067093F5068093F6069093F70677
:103F300085E0A9CF4092F8065092F9066092FA0601
:103F40007092FB0686E09FCF4092FC065092FD06E1
:103F50006092FE067092FF0687E095CF40920007C0
:103F600050920107609202077092030788E08BCF9E
:103F700020E030E04FE753E4C301B2010E94023970
:103F8000181614F40C94A32A0093040789E07BCF3D
:103F90004092050750920607609207077092080743
:103FA0003B8D31603B8F8AE06ECF40920907509283
:103FB0000A0760920B0770920C074B8D42604B8F83
:103FC0008BE061CF40920D0750920E0760920F0771
:103FD000709210078B8D84608B8F8CE054CF809112
:103FE000D906813081F44F8D423009F0E1CE8091C5
:103FF000D806803509F4DCCE882309F4D9CE20FC1C
:10400000D7CE86E154CE809198068111D1CE20FC86
:10401000B5CE8091A6069091A706A091A806B09172
:10402000A9068093E3069093E406A093E506B09377
:10403000E606BECEE89426F88091DC06882359F087
:10404000813009F4BBC022961FAE2297A2E0ABAF2D
:10405000B1E0B9AF07C082E022968FAF229791E01E
:104060009BAF19AE8091DA06813071F5E7EDCE2E67
:10407000E6E0DE2EF12CE12C2B8DA22EB12CC50119
:104080000E2C02C0959587950A94E2F780FF12C026
:1040900023E333E34BEC51E4D6019E966D917D9181
:1040A0008D919C91D1970E944239F60166A777A71E
:1040B00080AB91ABFFEFEF1AFF0A24E0C20ED11CD8
:1040C00033E0E316F104D9F64F8D433049F4809183
:1040D000DD06813029F48B8D843011F00C94AF2AE9
:1040E0008CE0EBEBF6E0DE01119601900D928A95E3
:1040F000E1F7ADA5BEA5B1FD69C00091D7060A30B4
:1041000009F478C00C3509F419C19F8D933009F476
:104110003FC0AB8DAA23E1F1B091DB06BFA3809134
:10412000D3069091D406A091D506B091D60689A762
:104130009AA7ABA7BCA797E9A92E96E0B92E27EDC1
:10414000C22E26E0D22EF12CE12C9B8D892E912CB3
:10415000C4010E2C02C0959587950A94E2F780FD64
:104160005DC1F501808D918DA28DB38DF60186A77D
:1041700097A7A0ABB1ABFFEFEF1AFF0A24E0A20EA6
:10418000B11C34E0C30ED11C43E0E416F10401F786
:104190000E3109F494C1053309F4B8C167EE76E035
:1041A00086E00C3109F02DC10E94AD18882301F181
:1041B0008B8D811188C119A61F8EA9C0E1E02296BE
:1041C000EFAF22971BAEF2E0F9AF4CCF8091DE0645
:1041D000873010F08DE16BCD90919D06891709F421
:1041E0008CCFBE016F5F7F4F0E94AD18811185CFCC
:1041F00087E05DCDBB8DB11102C08AE158CDC10110
:1042000080759927892B09F4ECCD6091F80670919F
:10421000F9068091FA069091FB060E94253A0E94C9
:1042200063376730B8F68091F306843129F0823025
:1042300009F0A5CC27FCA3CC662309F474C0615017
:1042400069A767EE76E089A50E94AD18882381F200
:104250000091F3064090D3065090D4066090D506A6
:104260007090D60677EDC72E76E0D72EF12CE12C94
:104270003B8D232F30E038A72FA38FA198A50E2CBC
:1042800002C0959587950A94E2F780FF33C0D60166
:104290009E968D909D90AD90BC90D197043109F081
:1042A00046C0F701EE0FFF1FEE0FFF1FE956F94F53
:1042B00020A931A942A953A9608D718D828D938D5A
:1042C0000E94EA35A50194010E94EA35F601608B4F
:1042D000718B828B938BF2E0EF120CC0A3019201E1
:1042E0000E94EA356093EF067093F0068093F10622
:1042F0009093F206BFEFEB1AFB0AE4E0CE0ED11C5E
:10430000F3E0EF16F10409F0B8CF2FEA22228091F2
:10431000D8068FA3803509F000C19B8D992309F43D
:1043200006C18FE1C4CCE091DE06E9A78ACF5096A2
:104330008D929D92AD92BC925397DCCF3B8D3323EF
:1043400009F45BCF4090D3065090D4066090D50618
:104350007090D60647E9842E46E0942ECE01019651
:104360007C0157EDA52E56E0B52ED12CC12CA32FE4
:10437000B0E0B8A7AFA38FA198A50C2C02C095956B
:1043800087950A94E2F780FF3EC0F70120813181D2
:1043900042815381D40158966D917D918D919C916C
:1043A0005B970E94EA35F50126A537A540A951A9DA
:1043B0000E94EA35D5019E966D937D938D939C93D3
:1043C000D197B2E0CB120CC0A30192010E94EA3552
:1043D00060930D0770930E0780930F07909310075B
:1043E000FFEFCF1ADF0A24E0820E911C34E0E30EC7
:1043F000F11C44E0A40EB11C83E0C816D10409F0FE
:10440000BACF19A684CFF40180A991A9A2A9B3A912
:10441000F50186A797A7A0ABB1ABE2CF053309F4AE
:10442000AACED6019E964D905D906D907C90D197CE
:10443000BFA1B11133C0F701EE0FFF1FEE0FFF1F39
:1044400021E030E02C0F3D1FE20FF31FD501D09685
:104450002D913D914D915C91D397608171818281C5
:1044600093810E94EB35A30192010E94EB35F60186
:1044700066A777A780AB91ABF2E0EF127CCE29A5BF
:104480003AA54BA55CA50E94EB3560930D07709390
:104490000E0780930F07909310076DCEA301920132
:1044A000D50158966D917D918D919C915B970E945D
:1044B000EB35F60166A777A780AB91AB5CCE67EED4
:1044C00076E087E071CEA7E9B6E0E7EDF6E090E0B0
:1044D00080E04B8D242F30E0A901082E02C05595B5
:1044E00047950A94E2F740FD0AC058964D915D91B8
:1044F0006D917C915B97408B518B628B738B019696
:10450000149634968330910539F77BCF8091D80685
:10451000823008F476CF8EE1CACBAF8DA23039F469
:10452000BFA1B11173C0EB8DEE2309F48DC02BA197
:104530002170EBA1C101E0FFD8C28E7DFF8DF1118A
:10454000937E892B11F00C94B82A8E01035F1F4FC4
:1045500089E0D8011D928A95E9F7222309F4C8C29F
:104560008DA59EA5867B892B11F00C94BB2A80918A
:10457000D706853319F081110C94BB2A8091A206CD
:104580009091A306A091A406B091A506898B9A8B61
:10459000AB8BBC8B8091A00690919F06892B40919C
:1045A000E3065091E4066091E5067091E6064D87BA
:1045B0005E876F87788B84608D8B8091870685FFFF
:1045C00006C085E097E00E942A028111D7C7B80192
:1045D00085E097E00E94A61C8091310681110BC0F6
:1045E0000E94B206892B39F080E2809331060E9446
:1045F000B10A0E94EF028CE0E5E0F7E0AFEAB6E036
:1046000001900D928A95E1F780E051CB20E030E0F7
:10461000A9016091E3067091E4068091E50690910E
:10462000E6060E94E036882309F4EBCCFFA1FC38B3
:10463000B9F060F4F23059F1F33061F1F13009F082
:1046400076CF3B8D311173CF1F8E71CF2FA12E38B6
:1046500039F018F02F3809F06ACF9BA190619BA325
:104660008FA18E58823018F4ABA1A860ABA3BB8D8C
:10467000BB2309F4C2CD4CE050E065E077E08FEA5F
:1046800096E00E94AD3A892B09F051CF6DC04BA145
:1046900044604BA38B8D882309F4AFCDB9ADAB2F0C
:1046A000B0E0BAABA9ABFBADEF2FF0E0FEABEDABEA
:1046B00081E090E07C0109AC02C0EE0CFF1C0A9482
:1046C000E2F70BAC02C0880F991F0A94E2F7E82AC0
:1046D000F92A2B8D822F90E08E219F21892B09F4BE
:1046E00041C7FD01EE0FFF1FEE0FFF1FE952F94F0B
:1046F000AA0FBB1FAA0FBB1FA155B94F2D913D910A
:104700004D915C9166A577A580A991A90E94EA3593
:104710002B013C01EDA9FEA9EE0FFF1FEE0FFF1FBD
:10472000E952F94FADA9BEA9AA0FBB1FAA0FBB1F23
:10473000A155B94F2D913D914D915C9166A577A5FD
:1047400080A991A90E94EA354B015C0127FEFFC0B8
:10475000E89427F84CE050E065E077E08FEA96E0D7
:104760000E94AD3A892B11F481E2A1CA6091FC0646
:104770007091FD068091FE069091FF062091DA0669
:10478000213071F423E333E34BEC51E40E944239CE
:104790006093FC067093FD068093FE069093FF06DF
:1047A0008091FC069091FD06A091FE06B091FF0657
:1047B00021968CAF9DAFAEAFBFAF2197A301920101
:1047C000C301B2010E94423929966CAF7DAF8EAF12
:1047D0009FAF2997A5019401C501B4010E944239F8
:1047E0002D966CAF7DAF8EAF9FAF2D9720E030E060
:1047F00040E850E421966CAD7DAD8EAD9FAD219724
:104800000E94423921962CAD3DAD4EAD5FAD219752
:104810000E94423929962CAD3DAD4EAD5FAD299732
:104820000E94EA352D962CAD3DAD4EAD5FAD2D9776
:104830000E94EA356B017C0120E030E0A9010E9472
:10484000E03687FD92C6C701B6010E94E1396B01CF
:104850007C012D962CAD3DAD4EAD5FAD2D972996CB
:104860006CAD7DAD8EAD9FAD29970E94EB350E945A
:10487000E1399B01AC01C701B60190580E94EA36AC
:104880006B017C019FA1933021F4F7FAF094F7F8C3
:10489000F09420E030E0A90121966CAD7DAD8EADA5
:1048A0009FAD21970E94E03687FF13C0F7FAF0947E
:1048B000F7F8F09421968CAD9DADAEADBFAD2197CC
:1048C000B0588093FC069093FD06A093FE06B0932B
:1048D000FF0609A91AA9000F111F000F111F095186
:1048E000194FA7019601C501B4010E9442399B01ED
:1048F000AC01C301B2010E94EA3520E030E040E0A3
:104900005FE30E944239D8016D937D938D939C9310
:1049100013970DA91EA9000F111F000F111F095198
:10492000194FA7019601C301B2010E944239A501A6
:1049300094010E94EB3520E030E040E05FE30E940C
:104940004239F8016083718382839383F0CDC12E55
:10495000D12CE122FD2083E2EF2809F4A8C9F1EF70
:104960002F228091DA06813041F507ED16E0F12C17
:10497000E12CC6010E2C02C0959587950A94E2F7AA
:1049800080FF12C023E333E34BEC51E4D80150968F
:104990006D917D918D919C9153970E944239F801C0
:1049A000608B718B828B938BFFEFEF1AFF0A0C5F8A
:1049B0001F4F23E0E216F104E1F6E9A9FAA9EE0F90
:1049C000FF1FEE0FFF1FE951F94FC080D180E28039
:1049D000F380A7019601C301B2010E94EA352B01C1
:1049E0003C01EDA9FEA9EE0FFF1FEE0FFF1FE951DD
:1049F000F94F80819181A281B38189AB9AABABAB36
:104A0000BCAB9C01AD01C501B4010E94EA354B016C
:104A10005C01A3019201C301B2010E9442392B0142
:104A20003C01A5019401C501B4010E9442399B01DA
:104A3000AC01C301B2010E94EB350E94E1394B0188
:104A40005C01A7019601C701B6010E9442396B01C2
:104A50007C0129A93AA94BA95CA9CA01B9010E9404
:104A600042399B01AC01C701B6010E94EB350E949F
:104A7000E1396B017C01C092FC06D092FD06E09208
:104A8000FE06F092FF06AC019B01C501B4010E9435
:104A9000EA354B015C01E894B7F82AE037ED43EAC8
:104AA0005BE3C501B4010E94023918160CF03FCD3A
:104AB00020E030E040E05FE3C501B4010E9402392C
:104AC00018160CF451CE2FE632E143E85AE3C70141
:104AD000B6010E9442399B01AC01C501B4010E949C
:104AE000023918160CF023CD3FCE8E7D9C7F26CD4B
:104AF00080918706F090A00681FF12C08FA181509F
:104B0000833018F0BBA1B064BBA3EB8DEE2309F496
:104B100045C1FF8DF23009F041C12BA120682BA3C4
:104B20008091F4069091F506A091F606B091F706F3
:104B30008093AB069093AC06A093AD06B093AE06FF
:104B40008091D90680939806882311F088E08D8B98
:104B50008091E3069091E406A091E506B091E60607
:104B60008093A6069093A706A093A806B093A906E3
:104B70008D879E87AF87B88B809000079090010744
:104B8000A0900207B0900307A50194016091A206CE
:104B90007091A3068091A4069091A5060E94E0362C
:104BA0009BA19074E92E811103C0ABA1A5FF1FC08A
:104BB000FF2069F0BBA1B7FD0AC040E050E0BA0198
:104BC000E11002C0B501A4018F2D0E947B188091D5
:104BD000000790910107A0910207B091030780930D
:104BE000A2069093A306A093A406B093A506E11095
:104BF0000CC08091A2069091A306A091A406B0914A
:104C0000A506898B9A8BAB8BBC8B80910407809314
:104C1000AA068091E1069091A006981751F0498963
:104C20005A896B897C890E947B188091E106809368
:104C3000A0068D899091A006892B8D8BF090E006BF
:104C400080919F068F1579F080913106823029F08E
:104C50000E9444188F2D0E9479099091E0069111CD
:104C6000B4C010929F068D8990919F06892B8D8BE1
:104C70008091D706843099F480913106823079F0A2
:104C8000C090F806D090F906E090FA06F090FB0686
:104C90000E94441840E0C701B6010E9409178091A4
:104CA000DC0680939B068091DA0680939906EF8D4F
:104CB000E33071F58091DD0680939C06811108C078
:104CC00010920D0710920E0710920F071092100706
:104CD000C0900D07D0900E07E0900F07F0901007DE
:104CE000A70196016091D3067091D4068091D506F4
:104CF0009091D6060E94E036882351F0C092D306E8
:104D0000D092D406E092D506F092D6060E9476188C
:104D10008091DE0690919D06981769F080939D061C
:104D20008CE0FE013196ABEBB6E001900D928A95D6
:104D3000E1F70E9476188091DB0680939A068091B5
:104D4000D706863209F484C008F045C08C3109F4D6
:104D500065C08E3109F462C08A3009F449C080917F
:104D6000D80680939706803509F44FC3BF8DB230C3
:104D700009F04BC3813009F07FC0BE01635F7F4FF4
:104D800085E097E00E94A61C8CE0E5E0F7E0AFEA42
:104D9000B6E001900D928A95E1F737C330E1F31246
:104DA000BFCE9BA19074809197068150833038F4D8
:104DB000992309F4B5CE4BA140624BA3B1CE91111A
:104DC000AFCE8BA180628BA3ABCE80919F06892B47
:104DD00080939F0648CF8C3509F440C0863609F48D
:104DE00043C0883209F0BBCF6FEA76E087E033C07A
:104DF00067EE76E089A50E94991880919D06F9A535
:104E0000F813ADCF8CE0E7EEF6E0ABEBB6E0019047
:104E10000D928A95E1F70E947618A1CF8D89816065
:104E20008D8B2F8D222329F0B80185E097E00E9419
:104E3000A61CB80187EE96E00E94A61C8CE0E7EE67
:104E4000F6E0AFEAB6E001900D928A95E1F787CFE0
:104E50006FEA76E086E00E94991881CF8CE0E5E069
:104E6000F7E0A7ECB6E0D3CFE7ECF6E08CE0DF01AB
:104E70001D928A95E9F7CFCF811105C08D89816098
:104E80008D8BB8017DCF8250823008F097C280911F
:104E9000FC069091FD06A091FE06B091FF068F8F53
:104EA00098A3A9A3BAA3A9AD94E0A99F7001112466
:104EB000F701E155F94FF8A7EFA397012951394FB1
:104EC0003AA729A7D9014D905D906D907C902081E3
:104ED000318142815381C301B2010E94EB356DA73C
:104EE0007EA78FA798ABEBADB4E0EB9F80011124B8
:104EF00098012155394F3AAF29AFC8018951994FCF
:104F00009CAF8BAFDC018D909D90AD90BC90F90172
:104F10002081318142815381C501B4010E94EB356A
:104F200069AB7AAB8BAB9CAB77FA709477F87094E3
:104F3000D501C401B0588B8F9C8FAD8FBE8FF70108
:104F4000EB5FF84F2DA53EA54FA558A96081718153
:104F5000828193810E94EA356B017C01F801EB5F4D
:104F6000F84F29A93AA94BA95CA960817181828176
:104F700093810E94EA354B015C01A7019601C301B0
:104F8000B2010E9442396DAB7EAB8FAB98AFA501E9
:104F900094016B8D7C8D8D8D9E8D0E9442399B017D
:104FA000AC016DA97EA98FA998AD0E94EB356DABC0
:104FB0007EAB8FAB98AFA5019401C301B2010E94F3
:104FC00042394B015C01A70196016B8D7C8D8D8D63
:104FD0009E8D0E9442399B01AC01C501B4010E9423
:104FE000EA352DA93EA94FA958AD0E946A366B013A
:104FF0007C019BA192FF68C12DEB37E346E055EBA6
:10500000C701B6010E94023987FD0AC02BED3FE0BF
:1050100049EC50E4C701B6010E94EA356B017C01FE
:1050200080907B0690907C06A0907D06B0907E06D6
:105030002F8D38A149A15AA1CA01B9010E94EB35AF
:10504000A50194010E94EA35A50194010E9442390C
:105050000E94E1394B015C0120E030E040E05FE379
:10506000C701B6010E9442392F8D38A149A15AA12A
:105070000E9442399F77A50194010E94EA360E945E
:10508000CF370E9463377EAB6DABDB01AB2B09F4EE
:1050900074CE1D8990E080E00E9492374B015C0144
:1050A00013FF0EC0AC019B016D857E858F859889AD
:1050B0000E9442396D877E878F87988B177F1D8B63
:1050C000A5019401C701B6010E94EA366BA37CA337
:1050D0008DA39EA32296EFAD2297B4E0EB9FC00173
:1050E00011248C010155194F8B5F984FD8012D91D8
:1050F0003D914D915C91FC01608171818281938130
:105100000E94EA35A50194010E94EA3629966CAF07
:105110007DAF8EAF9FAF29972BA13CA14DA15EA182
:10512000CA01B9010E9442399B01AC0160E070E004
:1051300080E090E40E94EA356B017C012BEA3AEAB8
:105140004AE25EE36BA17CA18DA19EA10E9442393F
:105150004B015C0120E030E040E850E4C701B601BB
:105160000E94EB359B01AC01C501B4010E9442399C
:1051700021966CAF7DAF8EAF9FAF219720E030E0DE
:1051800040E05FE3C701B6010E94423925966CAF4B
:105190007DAF8EAF9FAF25971F8E22242394312C95
:1051A000EDA9FEA9E215F30509F4E7CDFF8DFC306A
:1051B00008F09EC0A301920121966CAD7DAD8EAD2D
:1051C0009FAD21970E9442396B017C012B8D3C8D54
:1051D0004D8D5E8D25966CAD7DAD8EAD9FAD2597C9
:1051E0000E9442399B01AC01C701B6010E94EB3518
:1051F0007B016C01A301920125966CAD7DAD8EAD56
:105200009FAD25970E9442394B015C012B8D3C8D4F
:105210004D8D5E8D21966CAD7DAD8EAD9FAD219790
:105220000E9442399B01AC01C501B4010E94EA35DC
:105230002B013C012F8D2F5F2F8F470156018B8E45
:105240009C8EAD8EBE8EA30192016DA57EA58FA50D
:1052500098A90E94EB35EFA1F8A560837183828342
:1052600093832B8D3C8D4D8D5E8D69A97AA98BA979
:105270009CA90E94EB35A9ADBAAD6D937D938D933A
:105280009C93139729962CAD3DAD4EAD5FAD2997FC
:10529000F80160817181828193810E94EB35D80190
:1052A0006D937D938D939C931397BE01635F7F4FA6
:1052B0008FEA96E00E94A61C80913206811164CD8F
:1052C000BFEF2B1A3B0A6CCF2DEB37E346E055E3DB
:1052D000C701B6010E94E03618160CF4A1CE2BEDE2
:1052E0003FE049EC50E4C701B6010E94EB3596CE91
:1052F000B10190E080E00E9492372BA13CA14DA12A
:105300005EA10E9442396B017C010E94E5366B8FE1
:105310007C8F8D8F9E8FC701B6010E94D3394B01C0
:105320005C01A9A5BAA5CD90DD90ED90FC90F7FAAF
:10533000F094F7F8F094ABADBCAD8D919D910D90CC
:10534000BC91A02D8F8F98A3A9A3BAA3A701960102
:105350006B8D7C8D8D8D9E8D0E9442392B013C0181
:105360002F8D38A149A15AA1C501B4010E9442392B
:105370009B01AC01C301B2010E94EB352B013C0142
:10538000A7019601C501B4010E9442396B017C015D
:105390002F8D38A149A15AA16B8D7C8D8D8D9E8D4D
:1053A0000E9442399B01AC01C701B6010E94EA3557
:1053B0006B8F7C8F8D8F9E8F1F8E45CF8D898460E4
:1053C0008D8B80913106823009F4DECC0E94441826
:1053D00080913206811119C0FBA1F071FF2E10924D
:1053E00036062BA123FB882780F90E94720386B121
:1053F000807290911706891719F184E00E941102BA
:105400000E94371780E00E9472038091DF0680932C
:105410009E06882311F40C94571E0E944418809114
:105420009E0690913106833009F04DC0923029F0EC
:1054300088E00E9421020E94371710929E06E4C85D
:10544000B80185E097E00E94A61C81E080933006B9
:1054500082E00E9421020E9437178091320681115A
:10546000D4CF809131068111F6CF80913006813002
:1054700031F5FF2001F18CE0E8E1F6E0A4E2B6E0CE
:1054800001900D928A95E1F71092300680E00E941B
:1054900072030E9437170E947F120E9487090E94A0
:1054A0001D060E94F30580913606882309F46CCC12
:1054B0000E94C108AACF85E00E941102E5CF81E0D9
:1054C00080933606E1CF81E08093970610929B0689
:1054D00010929A061092980610929D061092A006BD
:1054E00010929F0684E68093380680933906809355
:1054F0003A069230A1F06BEB76E080E00E94AD18A6
:10550000882311F40C94F8200E94761840E050E0B3
:10551000BA0180E00E94850A80E00E94790985E74F
:1055200092E00E9488048CE092E00E9488040E942D
:10553000EE0583CF81E00C94571E82E00C94571E39
:1055400088E10C94571E86E20C94571E89E10C9456
:10555000571E84E00C94571E8BE10C94571E85E275
:105560000C94571E80E20C94571E82E20C94571E36
:1055700084E20C94571E80E10C94571E8FE00C942B
:10558000571ECF93DF93C0E08C2F0E9455188111D6
:1055900014C0109211078EE30E9449030E94650314
:1055A0008AE30E94490387E00E949A04C13019F4FB
:1055B000DF91CF910895C1E0E7CF80911107882353
:1055C000A9F30E94061DD82F8EE30E9449030E9472
:1055D00065038AE30E9449038D2F0E94A604E6CF4B
:1055E0002F923F924F925F926F927F928F929F92F3
:1055F000AF92BF92CF92DF92EF92FF920F931F93E1
:10560000CF93DF93CDB7DEB7A2970FB6F894DEBF86
:105610000FBECDBF9091320691111AC188A39E0191
:10562000235F3F4F3A8F298F89E0D9011D928A95D8
:10563000E9F786E08D8BE2E4F6E0FC8FEB8F5F010B
:10564000275F3F4F490110E000E0C12CD12C7601CB
:1056500098A1892F90E09E8F8D8F802F90E200235C
:1056600021F090E8013009F490E4D4019D934D01BC
:10567000ED8DFE8D02C0F595E7958A95E2F7E0FF86
:105680001BC020E030E040EC5FEBD50194966D91BB
:105690007D918D919C9197970E944239362E472E8D
:1056A000582E692EA70196010E94E03687FD04C09E
:1056B000C32CD42CE52CF62C0F5F1F4FB4E0AB0E9F
:1056C000B11C0330110549F680908D0690908E062E
:1056D000A0908F06B0909006E4E0EF8F01E068E1C3
:1056E00076E0CE0101960E94660280918806682EBF
:1056F000712CFE01319688E1282E86E0382E3AA2E0
:1057000029A2512C10E030E020E0B701A60170582A
:105710008D8D9E8D022E02C0959587950A94E2F795
:1057200080FF27C05394A9A1BAA11D921D921D927A
:105730001C921397C301022E02C0959587950A9477
:10574000E2F780FF07C0002339F040835183628372
:10575000738306C00023C9F3C082D182E282F38240
:1057600086E190E08C0F9D1F820F931FDC018C91CE
:10577000182B2F5F3F4F349689A19AA104969AA3C4
:1057800089A32330310521F6652D70E090E080E09B
:105790000E9492370E94E13910933706A5019401C7
:1057A0000E9442396D877E878F87988BBE01635F29
:1057B0007F4FCE0101960E94F51994E09093350633
:1057C0000E94B10A0E94EF020023E9F00E948B08B8
:1057D000FE01769630E020E090E06191462F412373
:1057E00059F0AC01022E02C0559547950A94E2F794
:1057F00040FF02C0609516232F5F3F4F23303105D5
:1058000061F7109337060E94B10A809113068473E2
:1058100009F4B4C01091130614FF03C086E00E947F
:10582000110215FF03C087E00E9411020111C3C0DD
:105830000E948B08A8A18A2319F088E00E94110217
:10584000809114068823E9F00E94B2120E94371753
:10585000A2960FB6F894DEBF0FBECDBFDF91CF91F9
:105860001F910F91FF90EF90DF90CF90BF90AF907E
:105870009F908F907F906F905F904F903F902F9070
:10588000089584E00E9417020E947F128091910681
:1058900090919206019708F076C021E002271091BE
:1058A00093065090940640909506709096060023BB
:1058B00009F470C020E030E040EA50E4612F752D1B
:1058C000842D972D0E9442396B017C0180908906BE
:1058D00090908A06A0908B06B0908C063F8D315038
:1058E0003F8F3111FCCEC0908806D12CF12CE12CD9
:1058F0008D8D9E8D0E2C02C0959587950A94E2F7AA
:1059000080FF28C0C6010E2C02C0959587950A9489
:10591000E2F780FD4CC0AB8DBC8D94966D917D916E
:105920008D919C9197979058212F352D442D572D6F
:105930000E94EA35EB8DFC8D2081318142815381BB
:105940000E9442390E940F39D1016D937D938D934E
:105950009C931397BFEFEB1AFB0AE4E02E0E311C69
:105960002B8D3C8D2C5F3F4F3C8F2B8F33E0E3160C
:10597000F10409F0BDCF109235066ACF812F807EE9
:1059800009F022CF81CFEFE9FFE03197F1F700C0B6
:10599000000080CF80908D0690908E06A0908F069C
:1059A000B0909006C12ED52CE42CF72C97CF60E058
:1059B00070E0CB01C9CF12FF43CF89E03FCFCF9337
:1059C000C82F0E949F088C2FC11101C083E00E9444
:1059D000F02A0E94371780913206811107C00E9479
:1059E000C1080E941D06CF910C94AA08CF9108957A
:1059F0001F920F920FB60F9211242F933F934F9344
:105A00005F936F937F938F939F93AF93BF93EF9326
:105A1000FF930E94A202882321F080FF13C00E94FE
:105A2000B212FF91EF91BF91AF919F918F917F91B2
:105A30006F915F914F913F912F910F900FBE0F90FB
:105A40001F90189582FF06C0809113068260809394
:105A50001306E7CF81FFE5CF809113068860F7CF6B
:105A60001F920F920FB60F9211248F939F939BB1A9
:105A700080910F02807E9F71892B8BB915BC9F91FD
:105A80008F910F900FBE0F901F9018951F920F923D
:105A90000FB60F9211240F931F932F933F934F93A1
:105AA0005F936F937F938F939F93AF93BF93EF9386
:105AB000FF9380911102811101C29BB1809121025B
:105AC0008C71937E892B8BB98BB18F719091200251
:105AD000892B8BB980911F0286BD82E085BD81E054
