:100000000C941E040C9430040C9430040C945C0486
:100010000C9432100C9430040C9430040C94300482
:100020000C9430040C9430040C9430040C940E1A8C
:100030000C9430040C9430040C9430040C94300470
:100040000C94A1190C9430040C949F1D0C94FD1D6C
:100050000C9430040C9430040C9430040C94300450
:100060000C9430040C943004882F8E2F912F942FF1
:10007000992FA12FA92F1A301A301A30B12FB42F6F
:10008000BD2FC62F1A301A301A301A301A301A30D3
:10009000CE2FD82FE42FEE2FF12FFA2F0330093077
:1000A0005407580F580F5E076B0778078507580FDE
:1000B0008907580F9707580FA107AB07D607580FA6
:1000C000580F580FB507C007CB07220E330E520E3C
:1000D000330E560E690E5C0E620E7F0E850E940E68
:1000E000A70EC00ECA0ED50EDF0EA91FAC1FB11F82
:1000F000B41FB71FBA1FBD1FC01FC31FC61FC91F14
:10010000D51FD51FD51FD51FD51FD51FD51FD51F4F
:10011000CF1FCC1FD21F084AD73B3BCE016E84BCF9
:10012000BFFDC12F3D6C74319ABD56833DDA3D0051
:10013000C77F11BED9E4BB4C3E916BAAAABE00009A
:1001400000803F05A84CCDB2D44EB93836A9020C78
:1001500050B9918688083CA6AAAA2ABE0000008051
:100160003F000D0A4772626C20302E3969205B27F0
:10017000242720666F722068656C705D0D0A000D83
:100180000A003D00244E005D0D0A005B302E3969E7
:100190002E32303135303632303A005D0D0A005B98
:1001A000544C4F3A005D0D0A002C005B4739323A3F
:1001B000005D0D0A002C003A003330003238005B3D
:1001C00047005D0D0A002053002046002054002007
:1001D0004D3800204D3900204D3500204D34002091
:1001E0004D3300204D3200204D3100204D30002095
:1001F0004739340020473933002047393100204740
:10020000393000204732300020473231002047315A
:100210003900204731380020473137002047004758
:1002200033382E004738300047330047320047311B
:10023000004730005B00242420287669657720473A
:1002400072626C2073657474696E6773290D0A2479
:1002500023202876696577202320706172616D659F
:1002600074657273290D0A24472028766965772002
:10027000706172736572207374617465290D0A244C
:1002800049202876696577206275696C6420696EFB
:10029000666F290D0A244E202876696577207374CD
:1002A000617274757020626C6F636B73290D0A2420
:1002B000783D76616C75652028736176652047729C
:1002C000626C2073657474696E67290D0A244E7818
:1002D0003D6C696E65202873617665207374617268
:1002E00074757020626C6F636B290D0A244320289B
:1002F000636865636B2067636F6465206D6F646519
:10030000290D0A245820286B696C6C20616C61727D
:100310006D206C6F636B290D0A2448202872756E5E
:1003200020686F6D696E67206379636C65290D0ABB
:100330007E20286379636C65207374617274290D63
:100340000A2120286665656420686F6C64290D0A9F
:100350003F202863757272656E74207374617475C2
:1003600073290D0A6374726C2D7820287265736589
:1003700074204772626C290D0A005D0D0A005265F7
:1003800073746F72696E672064656661756C7473EF
:100390000050676D20456E6400436865636B2044C0
:1003A0006F6F720044697361626C656400456E61D1
:1003B000626C65640043617574696F6E3A20556EB6
:1003C0006C6F636B656400272448277C27245827BB
:1003D00020746F20756E6C6F636B0052657365746B
:1003E00020746F20636F6E74696E7565005B006FBB
:1003F0006B0D0A000D0A00486F6D696E672066611B
:10040000696C0050726F6265206661696C004162C0
:100410006F727420647572696E67206379636C65AE
:1004200000536F6674206C696D6974004861726472
:10043000206C696D697400414C41524D3A20003E78
:100440000D0A002C4C696D3A002C52583A002C428F
:1004500075663A002C002C57506F733A002C002C14
:100460004D506F733A003C446F6F72003C436865B7
:10047000636B003C416C61726D003C486F6D6500C0
:100480003C486F6C64003C52756E003C49646C657E
:1004900000290D0A00206D61782074726176656C08
:1004A0002C206D6D0020616363656C2C206D6D2FB9
:1004B0007365635E3200206D617820726174652C13
:1004C000206D6D2F6D696E002C20737465702F6D1B
:1004D0006D007A00790078002028003D002400207B
:1004E00028686F6D696E672070756C6C2D6F66661D
:1004F0002C206D6D290D0A002028686F6D696E67CC
:10050000206465626F756E63652C206D7365632969
:100510000D0A2432373D002028686F6D696E672010
:100520007365656B2C206D6D2F6D696E290D0A2426
:1005300032363D002028686F6D696E6720666565FC
:10054000642C206D6D2F6D696E290D0A2432353DA6
:1005500000290D0A2432343D002028686F6D696E31
:10056000672064697220696E76657274206D6173AC
:100570006B3A002028686F6D696E67206379636C41
:10058000652C20626F6F6C290D0A2432333D0020E8
:100590002868617264206C696D6974732C20626FC5
:1005A0006F6C290D0A2432323D002028736F667467
:1005B000206C696D6974732C20626F6F6C290D0A51
:1005C0002432313D0020287265706F727420696E8C
:1005D000636865732C20626F6F6C290D0A243230BA
:1005E0003D00202861726320746F6C6572616E63D8
:1005F000652C206D6D290D0A2431333D0020286AB9
:10060000756E6374696F6E20646576696174696F75
:100610006E2C206D6D290D0A2431323D00290D0A02
:100620002431313D00202873746174757320726524
:10063000706F7274206D61736B3A00202870726F56
:1006400062652070696E20696E766572742C206216
:100650006F6F6C290D0A2431303D0020286C696DC4
:1006600069742070696E7320696E766572742C20CF
:10067000626F6F6C290D0A24363D00202873746563
:100680007020656E61626C6520696E766572742C8F
:1006900020626F6F6C290D0A24353D00290D0A2454
:1006A000343D00202864697220706F727420696E76
:1006B00076657274206D61736B3A00290D0A2433DC
:1006C0003D0020287374657020706F727420696E0D
:1006D00076657274206D61736B3A002028737465BF
:1006E000702069646C652064656C61792C206D7381
:1006F0006563290D0A24323D00202873746570203B
:1007000070756C73652C2075736563290D0A24312F
:100710003D0024303D005D0D0A003A002C005B5086
:1007200052423A000D0A00496E76616C6964206796
:10073000636F64652049443A00556E646566696E6E
:1007400065642066656564207261746500556E732A
:100750007570706F7274656420636F6D6D616E6427
:10076000004D6F64616C2067726F75702076696FE1
:100770006C6174696F6E004C696E65206F7665728E
:10078000666C6F7700486F6D696E67206E6F7420BE
:10079000656E61626C656400416C61726D206C6FA6
:1007A000636B004E6F742069646C65004545505260
:1007B0004F4D2072656164206661696C2E2055730F
:1007C000696E672064656661756C74730056616C50
:1007D0007565203C20332075736563005365747420
:1007E000696E672064697361626C65640056616C50
:1007F0007565203C203000496E76616C6964207319
:10080000746174656D656E7400426164206E756D0F
:1008100062657220666F726D617400457870656301
:1008200074656420636F6D6D616E64206C657474B3
:100830006572006572726F723A20000011241FBE4B
:10084000CFEFD8E0DEBFCDBF26E0A0E0B1E001C031
:100850001D92AB3CB207E1F70E9493290C94DF395B
:100860000C940000EBE6F0E08081897E8083E8E66E
:10087000F0E080818E7F8083089584B1897E84B981
:1008800085B1866185B98091220683FF0BC0809176
:100890006B00866180936B0080916800816080931B
:1008A000680008950C943204F999FECF92BD81BD81
:1008B00081E08FBB80B508951F920F920FB60F9203
:1008C00011242F933F934F935F936F937F938F9355
:1008D0009F93AF93BF93EF93FF9380913406813042
:1008E00071F08091370681110AC00E94B3289FB72A
:1008F000F894809137068360809337069FBFFF91FD
:10090000EF91BF91AF919F918F917F916F915F9187
:100910004F913F912F910F900FBE0F901F90189500
:1009200093B196718091220686FD02C086E19827D8
:10093000992349F091FB882780F992FD826090719C
:1009400019F08460089580E008959F92AF92BF925D
:10095000CF92DF92EF92FF920F931F93CF93DF938B
:100960005B018A017C01E40EF51EEC01912C6B0108
:10097000C81AD90AC6018C0F9D1FCE15DF0589F054
:100980000E945404911008C0292D990C330B232F79
:10099000221F2227221F01C021E0982E920E899348
:1009A000E9CFC501800F911F0E94540421E030E07F
:1009B000981611F020E030E0C901DF91CF911F912E
:1009C0000F91FF90EF90DF90CF90BF90AF909F90EE
:1009D0000895F894F999FECF92BD81BD81E08FBB57
:1009E00080B58627482F082E000C550B262F30E0A7
:1009F00024233523232B39F06F3F19F060BD84E0A9
:100A000006C084E104C0882321F060BD84E28FBB6E
:100A1000F99A789408959F92AF92BF92CF92DF9205
:100A2000EF92FF920F931F93CF93DF935C018A01A4
:100A30007B01E40EF51EEB01912C6C01C61AD70A5E
:100A4000CE018C0D9D1DCE15DF0589F0911008C0DB
:100A5000292D990C330B232F221F2227221F01C07F
:100A600021E06991922E960E0E94E904E9CF692D4A
:100A7000C501800F911FDF91CF911F910F91FF90C2
:100A8000EF90DF90CF90BF90AF909F900C94E904CF
:100A9000439808952F923F924F925F926F927F9268
:100AA0008F929F92AF92BF92CF92DF92EF92FF927E
:100AB0000F931F93CF93DF93CDB7DEB7E5970FB6B4
:100AC000F894DEBF0FBECDBF89E3E3E5F6E0DF01BA
:100AD0001D928A95E9F78AE0ECE8F6E0A4E5B6E035
:100AE00001900D928A95E1F71D8E212C312CA12CBD
:100AF000B12C19A200E01E8E44244394512C37E0FF
:100B0000632E772473948D8DE82FF0E0EB56FA4F27
:100B10009080992009F46DC29FEB990D9A3110F0E5
:100B20000C944A0F8F5F8D8FBE01675E7F4FCE01A1
:100B30004D960E94DF28882311F40C944C0FC98C29
:100B4000DA8CEB8CFC8CC701B6010E946B390E94D9
:100B5000A936162F70E080E090E00E94DA369B0103
:100B6000AC01C701B6010E94303520E030E048EC0E
:100B700052E40E9488380E94F5380E94A936B7E4F2
:100B80009B1629F0EDE49E1609F435C17CC118329C
:100B900009F406C1E8F4143160F4113108F0ABC077
:100BA000143009F44BC008F461C01A30D9F10C9428
:100BB000580F1C31B9F128F4163108F4CBC00C944D
:100BC000580F1E3179F1163209F450C00C94580FA9
:100BD0001D3309F4DFC0A8F4153309F444C040F410
:100BE0001B3209F4C0C0113309F4BDC00C94580F76
:100BF0001C3310F00C94580F165310935A0689E0CA
:100C0000D2C01C3540F41A3508F084C0103509F400
:100C10006EC00C94580F1C3529F01F3508F491C094
:100C20000C94580F6115710511F00C946A0FFE8D2C
:100C3000FF2311F40C94770F0C944E0F709253060F
:100C40000AC01F3150F41A3009F0B1C021E02E8FD4
:100C500082E08093530680E0A6C0153311F00C9417
:100C60008F0FF1E0FE8F60925306F5CF9E8D9111AC
:100C70000C944E0FA2E0AE8F123089F028F41123AD
:100C800059F0113081F08EC0163281F0103579F1B3
:100C9000133009F087C007C01092540683C0BE8D80
:100CA000B09354067FC0109354067CC06E3171051A
:100CB000A9F048F46431710511F00C94580FE4E088
:100CC000E093540612C06832710561F06233710519
:100CD00011F00C94580F6092540607C0F5E0F093A1
:100CE000540603C026E02093540681E074C038E027
:100CF0003093540657C0123129F0133139F0109255
:100D0000580602C07092580682E04DC082E080937F
:100D1000580649C06115710549F41A3519F4109245
:100D2000570602C07092570683E055C06A307105BD
:100D300011F00C94580F1A3511F40C94580F84E0EC
:100D40004AC01D3519F47092550602C0109255061E
:100D500085E029C0143119F47092560602C0109231
:100D6000560686E020C08E8D81110C944E0F1133F3
:100D700031F41092590688E093E09E8F2CC06A30BF
:100D8000710511F00C94580F7092590688E0A3E099
:100D9000AE8F21C0672B11F00C94580F8AE01BC056
:100DA00087E001C081E0672BB1F00C94750F1C3116
:100DB00011F00C949F0F31E03E8F6115710511F415
:100DC0000C948D0F6A30710511F00C94580F94E05B
:100DD0009093530680E0F20102C0EE0FFF1F8A9548
:100DE000E2F7CF019F012A213B21232B09F448C0C0
:100DF00085E10C94BD0F672B11F00C94750F163024
:100E000018F4133058F017C0183010F40C94580F21
:100E10001A3000F11E3159F00C94580F123039F08D
:100E20001E3129F0111120C070925B061DC082E0B6
:100E300080935B0619C0143029F0153039F0709298
:100E40005D0606C082E080935D0602C010925D06DA
:100E50008CE00BC0193021F082E080935C0602C068
:100E600010925C068DE001C08BE0920102C0220F5F
:100E7000331F8A95E2F7C901950128233923B5CF9D
:100E8000A82AB92A40CE892D990C990BAA0BBB0B25
:100E9000FC01E654F109E531F10510F00C94580F0E
:100EA000E05BFF4F0C94BF39C0925E06D0925F06A4
:100EB000E0926006F092610680E079C0C09262061E
:100EC000D0926306E0926406F092650639A1316023
:100ED00039A381E06CC0C0926606D0926706E092AA
:100EE0006806F092690689A1826089A382E05FC0EA
:100EF000C0926A06D0926B06E0926C06F0926D0684
:100F000099A1946099A383E052C010936E0684E087
:100F10004EC0C701B6010E94A23660936F0670935F
:100F20007006809371069093720685E040C0C0926F
:100F30007306D0927406E0927506F092760686E00B
:100F400036C0C0927706D0927806E0927906F09289
:100F50007A0687E02CC0C0927B06D0927C06E09295
:100F60007D06F0927E0688E022C0C0928006D09274
:100F70008106E0928206F092830601608AE017C043
:100F8000C0928406D0928506E0928606F09287068B
:100F900002608BE00CC0C0928806D0928906E09275
:100FA0008A06F0928B0604608CE001C089E0420161
:100FB000082E02C0880C991C0A94E2F794012221A1
:100FC0003321232B09F06CC7A1E6B3E002C0B5952D
:100FD000A7958A95E2F7A0FF09C020E030E0A901BB
:100FE000C701B6010E94263687FD5CC7282839282C
:100FF0008ACD002329F0BE8DB11102C0E2E0EE8F50
:1010000025FE0EC080916F0690917006A09171062A
:10101000B091720680389649A849B1050CF044C7D2
:1010200080915506813031F42E8D2230A1F520FEBD
:1010300045C731C080918D0681112DC020FE1BC097
:1010400080915606813039F523E333E34BEC51E4CC
:1010500060915E0670915F068091600690916106D6
:101060000E94883860935E0670935F0680936006E6
:101070009093610610C080919A0690919B06A09172
:101080009C06B0919D0680935E0690935F06A093A8
:101090006006B093610630FC10C080919606909176
:1010A0009706A0919806B091990680937B0690933D
:1010B0007C06A0937D06B0937E0680915306813016
:1010C00031F426FC02C08CE158C7E89426F88091E0
:1010D0005806882371F0813031F431E03DA718A61D
:1010E00082E08FA30BC01DA692E098A7A1E0AFA35A
:1010F00005C0B2E0BDA7E1E0E8A71FA280915606B7
:10110000813021F0FE8DF330B1F52EC093E5C92E6C
:1011100096E0D92EE12CF12C802E912CC4010E2CBE
:1011200002C0959587950A94E2F780FF12C023E3E9
:1011300033E34BEC51E4D6019D966D917D918D91F9
:101140009C91D0970E948838F60165A776A787A75B
:1011500090ABFFEFEF1AFF0A24E0C20ED11C33E080
:10116000E316F104D9F6CECF80915906813019F4F7
:10117000043009F09BC68CE0EFEAF6E0DE011D9634
:1011800001900D928A95E1F7B1FC08C010915306C9
:101190001230B9F0183009F4B4C01FC180915A065A
:1011A000873010F08DE1E9C690919206891771F3AE
:1011B000BE01635F7F4F0E947A1C882309F488C6B2
:1011C000E5CF011102C08AE1D8C6C1018075992717
:1011D000892B09F478CF6091730670917406809121
:1011E0007506909176060E946B390E94A936673089
:1011F000C8F680916E06843129F0823009F058C615
:1012000027FC56C68FEA2822662319F061506F8F9B
:1012100003C090915A069F8FBE016F5F7F4F8F8DE5
:101220000E947A1C882309F453C610916E064090E0
:10123000C7065090C8066090C9067090CA06B3E50C
:10124000AB2EB6E0BB2EDE0111967D018CE8882E18
:1012500086E0982EC12CD12CE02FF0E0FEA3EDA368
:101260008DA19EA10C2C02C0959587950A94E2F75A
:1012700080FF35C0143149F5D4019F962D913D91E1
:101280004D915C91D29757966D917D918D919C91E6
:101290005A970E943035F50125A536A547A550A9D6
:1012A0000E943035D7016D937D938D939C93139756
:1012B000B2E0CB1214C0A30192010E943035F701B5
:1012C00060837183828393830AC0F50185A596A507
:1012D000A7A5B0A9F70180839183A283B383FFEF11
:1012E000CF1ADF0A24E0A20EB11C34E0E30EF11C99
:1012F00084E0880E911C93E0C916D10409F0B0CFA8
:1013000021C1002309F45FCF4090C7065090C80662
:101310006090C9067090CA06FCE8AF2EF6E0BF2EBA
:101320004E01ADE08A0E911CA3E5EA2EA6E0FA2E4E
:10133000C12CD12CE02FF0E0F8A3EF8F8F8D98A176
:101340000C2C02C0959587950A94E2F780FF29C07E
:10135000D4012D913D914D915C91F5016789708D7E
:10136000818D928D0E943035D7019D962D913D91B2
:101370004D915C91D0970E943035F70165A776A713
:1013800087A790ABF2E0CF1216C0A30192010E9492
:101390003035D7019D966D937D938D939C93D09717
:1013A0000AC0F50187A590A9A1A9B2A9F70185A74F
:1013B00096A7A7A7B0ABFFEFCF1ADF0A24E0A20ED3
:1013C000B11C34E0830E911C84E0E80EF11C93E024
:1013D000C916D10409F0B2CFB4C0AE8DA33009F460
:1013E0008BC0002309F4A3C0B0915706BF8F409073
:1013F000C7065090C8066090C9067090CA067CE87F
:10140000A72E76E0B72EE3E5EE2EE6E0FE2E4E01A7
:10141000EDE08E0E911CC12CD12C202F30E03EA38C
:101420002DA38DA19EA10C2C02C0959587950A94A1
:10143000E2F780FD0BC0F5018789908DA18DB28DFB
:10144000F70185A796A7A7A7B0AB44C0173009F44A
:1014500041C0FF8DF1112BC0D5019F962D913D917B
:101460004D915C91D297F401608171818281938169
:101470000E943135D7019D962D913D914D915C9102
:10148000D0970E943135F70165A776A787A790AB63
:10149000F2E0CF121FC0A30192010E943135D701A3
:1014A0009D966D937D938D939C93D09713C0F5017A
:1014B0002789308D418D528DD7019D966D917D91FB
:1014C0008D919C91D0970E943135F70165A776A741
:1014D00087A790ABFFEFCF1ADF0A24E0A20EB11C62
:1014E00034E0E30EF11C84E0880E911C93E0C916F1
:1014F000D10409F096CF37C5153061F01730E1F00F
:101500001330F9F4011101C01E8EBE016F5F7F4FD1
:1015100086E007C0011101C01E8EBE016F5F7F4FC4
:1015200087E00E947A1C882309F4D2C40AC01530CF
:1015300099F3173009F013C580915406823008F0F2
:10154000B9C41F8EA0915406ADA3A83041F4002366
:1015500009F443C2BE8DB13009F0AEC446C2EE8D6F
:10156000E23009F03AC2FDA1FF23E9F020E030E0CB
:10157000A90160915E0670915F068091600690916E
:1015800061060E942636882309F498C42DA12430D0
:1015900028F4223060F4213031F027C23DA13830E8
:1015A00008F413C222C2002309F41AC21EC2002387
:1015B00009F409CE9FA1892F90E09FA78EA7B8A517
:1015C000AB2FB0E0B9ABA8AB81E090E07C010FA0FD
:1015D00002C0EE0CFF1C0A94E2F708A402C0880FB8
:1015E000991F0A94E2F7E82AF92A10E00E211F2138
:1015F000012B09F465C48EA59FA5880F991F880F3C
:10160000991FFC01ED5AF94FDC01A457B94F5796C9
:101610002D913D914D915C915A9765A576A587A531
:1016200090A90E9430354B015C0188A999A9880FC7
:10163000991F880F991FFC01ED5AF94FDC01A4573F
:10164000B94F57962D913D914D915C915A9765A553
:1016500076A587A590A90E94303569A77AA78BA7A0
:101660009CA781010078112727FEDEC0E89427F8A7
:101670000E947C31882311F081E27FC4809156065C
:101680008130B1F423E333E34BEC51E4609177060E
:10169000709178068091790690917A060E94883838
:1016A00060937706709378068093790690937A0614
:1016B00040907706509078066090790670907A0690
:1016C000A5019401C501B4010E94883869A37AA3D9
:1016D0008BA39CA329A53AA54BA55CA5CA01B9017A
:1016E0000E9488386AAB7BAB8CAB9DAB20E030E0CE
:1016F00040E850E4C301B2010E948838A30192017E
:101700000E94883829A13AA14BA15CA10E943035E2
:101710002AA93BA94CA95DA90E9430356B017C0127
:1017200020E030E0A9010E94263687FDCBC3C70127
:10173000B6010E9427396B017C012AA93BA94CA95B
:101740005DA969A17AA18BA19CA10E9431350E945B
:1017500027399B01AC01C701B60190580E94303671
:101760006B017C01EDA1E33021F4F7FAF094F7F876
:10177000F09420E030E0A901C301B2010E942636B6
:1017800087FF0FC0F7FAF094F7F8F094D301C20185
:10179000B0588093770690937806A0937906B0931B
:1017A0007A060EA51FA5000F111F000F111F095A61
:1017B000194FA701960169A57AA58BA59CA50E9442
:1017C00088389B01AC01C501B4010E94303520E08E
:1017D00030E040E05FE30E948838D8011B966D93AB
:1017E0007D938D939C931E9708A919A9000F111F33
:1017F000000F111F095A194FA7019601C501B40125
:101800000E94883829A53AA54BA55CA50E943135D0
:1018100020E030E040E05FE30E948838F801638711
:10182000748785879687E1C0F9A1CF2ED12CEC2053
:10183000FD20EF2809F448C321EF222280915606AB
:10184000813009F47DC0EEA5FFA5EE0FFF1FEE0F5E
:10185000FF1FE95AF94FC384D484E584F684A701B5
:101860009601C501B4010E9430352B013C01E8A965
:10187000F9A9EE0FFF1FEE0FFF1FE95AF94F8385FD
:101880009485A585B68589A39AA3ABA3BCA39C0127
:10189000AD0169A57AA58BA59CA50E9430354B01A9
:1018A0005C01A3019201C301B2010E9488382B019F
:1018B0003C01A5019401C501B4010E9488389B0137
:1018C000AC01C301B2010E9431350E9427394B019E
:1018D0005C01A7019601C701B6010E9488386B011F
:1018E0007C0129A13AA14BA15CA1CA01B9010E94C6
:1018F00088389B01AC01C701B6010E9431350E94B6
:1019000027396B017C01609377067093780680938A
:10191000790690937A069B01AC01C501B4010E943F
:1019200030354B015C01E894B7F82AE037ED43EA23
:101930005BE3C501B4010E94483818164CF155C04C
:1019400083E5E82E86E0F82EC601002E02C09595AC
:1019500087950A94E2F780FF12C023E333E34BEC50
:1019600051E4D7011F966D917D918D919C91529775
:101970000E948838F7016787708B818B928B0F5F8D
:101980001F4FF4E0EF0EF11C03301105E9F65BCFB9
:1019900020E030E040E05FE3C501B4010E94483838
:1019A00018160CF469CE2FE632E143E85AE3C7017A
:1019B000B6010E9488389B01AC01C501B4010E94A8
:1019C000483818160CF458CE10C0002309F4FBCB8D
:1019D0000E947C31811150CE08C02E8D211105C08E
:1019E000C1018E7D9C7F1E8E03C0C1018E7D907EC5
:1019F000892B09F06BC280916F0690917006A091BF
:101A00007106B091720680939F069093A006A093F2
:101A1000A106B093A2068091550680938D06809111
:101A20005E0690915F06A0916006B091610680937A
:101A30009A0690939B06A0939C06B0939D06C09037
:101A40007B06D0907C06E0907D06F0907E06A70194
:101A500096016091960670919706809198069091F4
:101A600099060E9426368823C1F080919506882326
:101A700021F0B701A6010E94673080917B0690910A
:101A80007C06A0917D06B0917E0680939606909389
:101A90009706A0939806B093990680917F0680934D
:101AA0009E0680915D0690919506981771F0409181
:101AB00096065091970660919806709199060E943B
:101AC000673080915D068093950610915C06809149
:101AD0009406811781F080913406823041F00E9493
:101AE000C230123011F4439A02C00E94480580911E
:101AF0005C068093940680915306813069F0809152
:101B00005806809390068091560680938E063E8DEF
:101B1000333009F074C054C080913406823079F3B8
:101B20008090730690907406A0907506B09076062B
:101B300020E030E040EA51E4C501B4010E94883859
:101B40000E9415370E94A9366B017C010E94C230A9
:101B500020E030E04AE754E4C501B4010E9488382F
:101B60004B015C0182E38C9DB0018D9D700D1124B1
:101B700080E090E00E94D8369B01AC01C501B40121
:101B80000E9430350E9415370E94A936CB010E9471
:101B9000A828C114D10409F4B2CF0E94932181E096
:101BA000C81AD108809133068111A9CF9FEFA0E711
:101BB000B2E09150A040B040E1F700C00000E9CF92
:101BC0008091590680939106813089F4809188062E
:101BD00090918906A0918A06B0918B068093C706E2
:101BE0009093C806A093C906B093CA0608C0109285
:101BF000C7061092C8061092C9061092CA068091B4
:101C00005A0690919206981759F0809392068CE0AC
:101C1000FE013D96AFEAB6E001900D928A95E1F79C
:101C20008091570680938F06E09153068E2F90E0A7
:101C3000FC013297E830F10508F04BC0EB59FF4F3B
:101C40000C94BF39BE016F5F7F4F8F8D0E94711C56
:101C500080919206EF8DE8133CC08CE0FE01319636
:101C6000AFEAB6E01AC0FE8DFF2349F020E040E065
:101C700050E060E87FEB80E896E00E94DF3020E0F3
:101C800040E050E060E87FEBCE0101960E94DF303B
:101C90008CE0FE013196A3EAB6E001900D928A95A0
:101CA000E1F717C063EA76E086E003C063EA76E016
:101CB00087E00E94711C0DC08CE0E0E8F6E0ABEB21
:101CC000B6E0EBCF8CE0EBEBF6E0DF011D928A95FE
:101CD000E9F7E0915406E0938C06E83009F486C0F9
:101CE000BE8DB23009F082C08E2F90E08830910511
:101CF00008F073C0FC01E359FF4F0C94BF3920E09A
:101D000040E050E060E87FEB0AC040919A065091B5
:101D10009B0660919C0670919D0620918D0680E83F
:101D200096E00E94DF3059C020919A0630919B06C0
:101D300040919C0650919D066091770670917806BF
:101D40008091790690917A068824839411C020911D
:101D50009A0630919B0640919C0650919D06609199
:101D60007706709178068091790690917A06812C99
:101D7000ADA4C8A4EFA000918D060E9453322DC0DF
:101D800060919A0670919B0680919C0690919D06A9
:101D900000E009C060919A0670919B0680919C06B4
:101DA00090919D0601E020E014C060919A06709128
:101DB0009B0680919C0690919D0600E009C0609171
:101DC0009A0670919B0680919C0690919D0601E079
:101DD00021E040918D060E94BD318CE0E0E8F6E004
:101DE000A3EAB6E001900D928A95E1F780915B0637
:101DF00080939306882309F4C0C00E94C23090915A
:101E0000930680913406913071F4823009F43EC01B
:101E10009FB7F894809136068860809336069FBFFE
:101E20000E94932133C091E090938C06109290060B
:101E300010928F0610928D061092920610929506BF
:101E4000109294068230B1F0BE01635F7F4F80E054
:101E50000E947A1C8823E1F18CE0FE013D96AFEAF6
:101E6000B6E001900D928A95E1F78FE08093B30080
:101E70000E9448058DEE93E00E94891F81E993E05E
:101E80000E94891F8AE793E00E94891F109293069F
:101E900080E073C081E071C082E06FC088E16DC0F6
:101EA00089E16BC084E069C08BE167C085E265C0F1
:101EB00084E163C08EE161C08FE15FC086E15DC0F7
:101EC00080E25BC082E259C083E257C084E255C021
:101ED00087E053C01E3189F0D8F51A3011F40C9404
:101EE00028061C3111F40C94DD0687E146C01E3132
:101EF00011F00C942106A1E0AE8F6115710541F03F
:101F00006A307105A9F6E6E0E09353060C94EA0600
:101F1000B5E0B09353060C94EA0683E00CC01C3580
:101F200071F421E02E8F6115710569F06A30710539
:101F300009F0BECF89E0809353060C94EA06B1E025
:101F4000BE8F0C94EA0638E0309353060C94EA06F0
:101F5000153311F40C9433061C3529F3C6CF133016
:101F600009F0EFCAD1CA153009F4D7CA173009F4FD
:101F7000E3CA133009F0E5CAC8CAE5960FB6F8946B
:101F8000DEBF0FBECDBFDF91CF911F910F91FF90AC
:101F9000EF90DF90CF90BF90AF909F908F907F9009
:101FA0006F905F904F903F902F900895CF93DF9365
:101FB00021E5829FC0011124EC01DD5F40E550E086
:101FC000BE0185E995E00E94A504892B59F4109281
:101FD000950540E550E065E975E0CE010E940B05EE
:101FE00080E001C081E0DF91CF9108958F929F92B0
:101FF000AF92BF92CF92DF92EF92FF920F931F9317
:10200000CF93DF93EB0125EEE22E25E0F22E8C013B
:102010006B018CE0C80ED11C6991799189919991DD
:10202000F70181909190A190B1907F010E94DA36E2
:10203000A50194010E943036F80161937193819358
:1020400091938F01CC15DD0539F7DF91CF911F9169
:102050000F91FF90EF90DF90CF90BF90AF909F9047
:102060008F9008951F920F920FB60F9211242F9305
:102070003F934F935F936F937F938F939F93AF9310
:10208000BF93EF93FF9386B18095877099F080FF9F
:1020900003C00E94B3280EC0982F947021F0809145
:1020A0003606826005C081FF05C0809136068860D3
:1020B00080933606FF91EF91BF91AF919F918F91E1
:1020C0007F916F915F914F913F912F910F900FBE34
:1020D0000F901F901895CF93DF93C0914B05D0912F
:1020E0004C052097B9F081E080934E05609164051E
:1020F0007091650580916605909167059B01AC0123
:102100000E948838698B7A8B8B8B9C8B10924C0544
:1021100010924B05DF91CF9108952F923F924F92ED
:102120005F926F927F928F929F92AF92BF92CF9267
:10213000DF92EF92FF920F931F93CF93DF93CDB770
:10214000DEB7CD54D1090FB6F894DEBF0FBECDBFB8
:1021500080913406807723968FAF2397882389F068
:1021600020E030E0A90160916405709165058091DF
:102170006605909167050E942636882311F40C9419
:102180006C19209164052F8B30916505388F409133
:102190006605498F509167055A8F809174058B832E
:1021A000909175059D83A0917605AE83B0917705DA
:1021B000BC830091600510916105E0916205E9879B
:1021C000F0916305FD8720915305309154054091AE
:1021D0005505509156052DA33EA34FA358A7309106
:1021E0004F053DAF409150054EAF509151055FAF47
:1021F0008091520521968FAF219720915B053091F8
:102200005C0540915D0550915E052DAB3EAB4FAB3B
:1022100058AF3091F50422963FAF22974091D004F9
:102220004BA75091660424965FAF24978091650474
:102230008B8F9091820125969FAF2597A0914B059A
:10224000B0914C05BA8BA98B209157053091580558
:102250004091590550915A0529AF3AAF4BAF5CAF49
:1022600030916C053B8B40916D054C8B50916E0508
:102270005D8B80916F058E8B909168059C8FA091EE
:102280006905AD8FB0916A05BE8FE0916B05EF8F48
:102290003090700520907105F0917205F9832091BE
:1022A00073052A838091CF045BA5851709F4F5C6D1
:1022B00049895A89452B09F033C224965FAD24978A
:1022C0008B8D581709F479C7A82EB12CA9E2AA9DC5
:1022D000C001AB9D900D1124FC01ED57FE4FFA8B10
:1022E000E98B80914E05882319F010924E05BCC0F1
:1022F00080914D058F5F853019F080934D0502C0A8
:1023000010924D05E0914D0521E12E9FF001112421
:10231000EA50FB4F89E28A9DA0018B9D500D11244C
:102320004D575E4F7A01DA018C91808311964D9161
:102330005D916D917C911497DB01CA0123E0880FB8
:10234000991FAA1FBB1F2A95D1F781839283A3836C
:10235000B483D70115964D915D916D917C9118973D
:10236000DB01CA0133E0880F991FAA1FBB1F3A95F2
:10237000D1F785839683A783B087D70119964D91AE
:102380005D916D917C911C97DB01CA0143E0880F40
:10239000991FAA1FBB1F4A95D1F781879287A387F0
:1023A000B487D7011D966D917D918D919C91509729
:1023B0008B019C0153E0000F111F221F331F5A9500
:1023C000D1F7058716872787308B0E94D8366DAFE7
:1023D0007EAF8FAF21969FAF2197F70125A136A140
:1023E00047A150A50E9430366DA37EA38FA398A766
:1023F0009B01AC0160E070E080EA9FE30E94303610
:1024000069AF7AAF8BAF9CAF2396FFAD2397FF23C5
:10241000D1F02B893C894D895E896B897C898D89B6
:102420009E890E948838D70151966D937D938D9334
:102430009C935497BB89BF8BEC89E88FFD89F98FFA
:102440002E892A8F0DC0D70151966D917D918D9166
:102450009C9154970E9427396F8B788F898F9A8F20
:102460001DAA1EAA1FAA18AE29E22A9DF0012B9DC3
:10247000F00D1124ED57FE4FFE87ED87C1A0D2A0CD
:10248000E3A0F4A0A701960160E070E080E09FE384
:102490000E94303669877A878B879C8723963FAD69
:1024A00023973323F1F142E040935F05AD85BE856C
:1024B00095964D905D906D907C90989751968D90EB
:1024C0009D90AD90BC905497A50194010E948838CE
:1024D0009B01AC01C301B2010E9430358B01898799
:1024E0009D8720E030E0A9010E94263687FF1BC1AE
:1024F000A7019601C701B6010E943135A3019201DF
:102500000E9488389B01AC01C501B4010E9430359E
:102510000E9427396B8B7C8B8D8B9E8B3F8228860C
:1025200015C110925F05ED85FE85F5A1FF83AD8590
:10253000BE859696BC91B887ED85FE8507A110A54E
:10254000EB8DEF5FE23109F4E0E02496FFAD2497D4
:10255000EF1789F029E22E9FF0011124ED57FE4F6D
:1025600061897289838994890E9427396B8B7C8B5E
:102570008D8B9E8B04C01B8A1C8A1D8A1E8A2B8908
:102580003C894D895E896B897C898D899E890E94F1
:1025900088382B013C0189E28A9DA0018B9D500D5A
:1025A00011244D575E4F5AA349A3DA0151962D913C
:1025B0003D914D915C9154972D873E874F87588B65
:1025C000A30192016D857E858F8598890E943035A3
:1025D00029853A854B855C850E9488382F8138850E
:1025E000A8010E94313520E030E040E05FE30E9426
:1025F0008838362E272E89839A8320E030E0A9017F
:102600000E94483818160CF095C0232D322D4981B0
:102610005A816F817885C8010E94483818160CF0DD
:1026200071C0E9A1FAA1858C968CA78CB0A0A301FA
:102630009201C501B4010E94303529853A854B8548
:102640005C850E9488386B837D838E839C839B018D
:10265000AC01632D722D89819A810E944838181629
:1026600094F5C501B4010E9427396C8F7D8F8E8F40
:102670009F8FA50194016D857E858F8598890E9425
:102680002636811106C0F1E0F0935F0509831A83B5
:102690005DC02D853E854F855889C501B4010E94D6
:1026A000303529853A854B855C850E9488389B01A9
:1026B000AC016F817885C8010E9430356F837887BF
:1026C00089839A8343C0A7019601C701B6010E947E
:1026D0003135232D322D49815A810E948838A3013A
:1026E00092010E9431350E9427396C8F7D8F8E8F29
:1026F0009F8F3F8228863B822D8229812E833A81BB
:102700003C8324C042E040935F0509831A835F89BC
:102710005C8F888D8D8F998D9E8FAA8DAF8F16C0FF
:102720003F82288617C03F8228861B8A1C8A1D8A02
:102730001E8A10C0BB89BC8FEC89ED8FFD89FE8F8E
:102740002E892F8F1F82188619821A8200E010E0CE
:1027500019861D8622965FAD2297452F50E05AA715
:1027600049A786E0849FF001859FF00D1124EF5268
:10277000FB4F80914D058283A989BA899596BC91BA
:10278000B8ABE989FA89F6A1F9ABA989BA89979614
:10279000BC912696BFAF2697E989FA89F0A52796BE
:1027A000FFAF279729AD3AAD4BAD5CAD68A979A9CC
:1027B0008B2F9F2F0E9430356CA77DA78EA79FA7D8
:1027C00020E030E0A9010E94263687FF04C01CA645
:1027D0001DA61EA61FA620915F0528A32B813D8163
:1027E0004E815C816F81788589819A810E9426362D
:1027F000811105C032E028963FAF289704C041E020
:1028000028964FAF289728A859A92E965FAF2E97E4
:1028100026968FAD26972D968FAF2D9727963FAC96
:1028200027978EE3C82E83ECD82E8EE2E82E89E31C
:10283000F82E412C512C3201C9A2DAA2EBA2FCA243
:1028400038A1332321F0313009F485C0C5C0A989EE
:10285000BA8991962D913D914D915C919497C701C4
:10286000B6010E9488384B015C0120E030E040E076
:102870005FE30E9488382F89388D498D5A8D0E94D8
:102880003135A70196010E9488389B01AC01622D69
:102890002E967FAD2E972D968FAD2D97932D0E945E
:1028A0003035262E2E967FAF2E972D968FAF2D97F3
:1028B000392E2F81388549815A810E94263687FF1B
:1028C0003DC02F81388549815A8168A979A926960A
:1028D0008FAD269727969FAD27970E9430359B0195
:1028E000AC010E9431356B017C012C8D3D8D4E8DEC
:1028F0005F8D6F89788D898D9A8D0E9431359B010E
:10290000AC01C701B6010E9430366B017C012896EC
:10291000BFAD2897B8A3EC8DEF8BFD8DF88F2E8D72
:10292000298F3F8D3A8F2F8048852E964FAF2E9757
:1029300059812D965FAF2D973A80EBC0A501940188
:102940006F89788D898D9A8D0E9431356F8B788F44
:10295000898F9A8FDEC02C8D3D8D4E8D5F8DC70186
:10296000B6010E9488389B01AC01622D2E967FAD86
:102970002E972D968FAD2D97932D0E9430354B01BC
:102980005C012B813D814E815C810E94263687FF50
:10299000B8C02B813D814E815C81622D2E967FAD2A
:1029A0002E972D968FAD2D97932D0E9430352C8D1F
:1029B0003D8D4E8D5F8D0E9430366B017C012B80EA
:1029C0008D812E968FAF2E979E812D969FAF2D973E
:1029D0003C80A2E0A8A39DC0E989FA8921A132A187
:1029E00043A154A1C701B6010E9488384B015C0184
:1029F0002F89388D498D5A8D0E94263687FF52C007
:102A000020E030E040E05FE3C501B4010E94883877
:102A10009B01AC016F89788D898D9A8D0E9430352C
:102A2000A70196010E9488389B01AC01622D2E9669
:102A30007FAD2E972D968FAD2D97932D0E9430351B
:102A400029966FAF29972A967FAF2A972B968FAF3B
:102A50002B972C969FAF2C97980149855D850E94F6
:102A600048381816FCF4A50194016F89788D898D7A
:102A70009A8D0E9430356F8B788F898F9A8F299627
:102A80002FAC29972A96FFAD2A972E96FFAF2E9747
:102A90002B962FAD2B972D962FAF2D972C963FACC5
:102AA0002C9737C0980149855D85622D2E967FADA4
:102AB0002E972D968FAD2D97932D0E9430359B012B
:102AC000AC010E9431356B017C012B893C894D8919
:102AD0005E896F89788D898D9A8D0E9431359B0131
:102AE000AC01C701B6010E9430366B017C01202E7B
:102AF0002E961FAF2E9739852D963FAF2D973D848B
:102B000008C0282C2E969FAE2E972D96AFAE2D97EF
:102B10003B2CA7019601C301B2010E9431352B0164
:102B20003C0129A13AA14BA15CA10E94263687FF56
:102B300007C0A301920169A17AA18BA19CA120C029
:102B40002CA53DA54EA55FA5622D2E967FAD2E9797
:102B50002D968FAD2D97932D0E944838181644F569
:102B60002EE333EC4EE259E369A17AA18BA19CA13B
:102B70000E94313569A37AA38BA39CA3A301920180
:102B80000E9430356B017C01980149855D85622D7D
:102B90002E967FAD2E972D968FAD2D97932D0E945B
:102BA000483818160CF44CCE48A140935F0503C07A
:102BB00058A150935F052DA13EA14FA158A5622DAC
:102BC0002E967FAD2E972D968FAD2D97932D0E942B
:102BD000883868A379A38CA798AB0E940F366B0145
:102BE0007C016DAD7EAD8FAD21969FAD21970E948A
:102BF0000F364B015C01A70196010E9430350E94FF
:102C0000A93669AB7AAB8BAB9CABA6E089A59AA53C
:102C1000A89FF001A99FF00D1124EF52FB4F29A9A5
:102C20003AA931832083232B09F087C023965FAD17
:102C30002397552309F481C0C801A985BD858093D8
:102C4000600590936105A0936205B09363058B893D
:102C50009C89AD89BE8980936C0590936D05A09386
:102C60006E05B0936F058C8D9D8DAE8DBF8D80935D
:102C7000680590936905A0936A05B0936B058B81F5
:102C80009D81AE81BC818093740590937505A0935E
:102C90007605B09377058F819885A981BA81809355
:102CA000700590937105A0937205B09373052296F9
:102CB0008FAD22978093F504A989BA89B0934C050A
:102CC000A0934B0529AD3AAD4BAD5CAD20935705B4
:102CD000309358054093590550935A053B8D3093D6
:102CE00065048DA19EA1AFA1B8A5809353059093D3
:102CF0005405A0935505B09356059BA59093D00419
:102D00001092640510926505109266051092670591
:102D100010925B0510925C0510925D0510925E05A5
:102D2000C0924F05D0925005E0925105F0925205A5
:102D30002DA13EA14FA158A565C12DA93EA94FA91E
:102D400058ADC301B2010E9431352B013C0128A1CD
:102D500039A14CA558A9C501B4010E9430359B0189
:102D6000AC01C301B2010E9430364B015C0128A1C5
:102D700039A14CA558A9C701B6010E943035A5015B
:102D800094010E9488386DAB7EAB8FAB98AF20EC7E
:102D900031EE44E65EE4C501B4010E9488380E9429
:102DA0000F360E94A936603DE7E07E078105910558
:102DB00060F446E029A53AA5429FF001439FF00D3B
:102DC0001124EF52FB4F158253C0603A5FE0750744
:102DD0008105910560F426E0A9A5BAA52A9FF00116
:102DE0002B9FF00D1124EF52FB4F31E011C06034E6
:102DF0004FE174078105910568F426E0A9A5BAA5FD
:102E00002A9FF0012B9FF00D1124EF52FB4F32E06F
:102E100035830CC0A6E049A55AA5A49FF001A59F43
:102E2000F00D1124EF52FB4FB3E0B58346E029A526
:102E30003AA5429FF001439FF00D1124EF52FB4F42
:102E40002581022E04C096958795779567950A94FB
:102E5000D2F7A9A9BAA902C0AA0FBB1F2A95E2F707
:102E6000B183A08361157105B1E08B07910568F40A
:102E700046E029A53AA5429FF001439FF00D112499
:102E8000EF52FB4F7483638304C08FEF9FEF9483F3
:102E90008383BBA4B39496E0B91201C0B12C98010E
:102EA00049855D85622D2E967FAD2E972D968FAD2F
:102EB0002D97932D0E9448381816CCF4822D2E960B
:102EC0009FAD2E972D96AFAD2D97B32DE989FA8939
:102ED00085A396A3A7A3B0A7F8A1FDAF29A12EAF04
:102EE0003CA53FAF48A921964FAF2197CEC020E027
:102EF00030E0A901622D2E967FAD2E972D968FADD5
:102F00002D97932D0E94483818160CF0A7C0C801C1
:102F1000A985BD858093600590936105A0936205A6
:102F2000B09363058B899C89AD89BE8980936C05BC
:102F300090936D05A0936E05B0936F058C8D9D8D5C
:102F4000AE8DBF8D8093680590936905A0936A0547
:102F5000B0936B058B819D81AE81BC81809374059C
:102F600090937505A0937605B09377058F8198852A
:102F7000A981BA818093700590937105A093720521
:102F8000B09373055BA55093F50489899A89909352
:102F90004C0580934B0529AD3AAD4BAD5CAD20930C
:102FA0005705309358054093590550935A053B8D6A
:102FB000309365048DA19EA1AFA1B8A58093530560
:102FC00090935405A0935505B0935605B092D00444
:102FD00010926405109265051092660510926705BF
:102FE00010925B0510925C0510925D0510925E05D3
:102FF000C0924F05D0925005E0925105F0925205D3
:103000009C01AD01C701B6010E943036A989BA8979
:1030100095966D937D938D939C9398970E946B10DA
:10302000BB8DB0938201C35BDF4F0FB6F894DEBF58
:103030000FBECDBFDF91CF911F910F91FF90EF9009
:10304000DF90CF90BF90AF909F908F907F906F90C8
:103050005F904F903F902F900C941B242496EFADDF
:103060002497FB8DEF1779F08F2F8F5F823109F452
:1030700080E02B8D25963FAD2597231303C0259621
:103080008FAF25978B8F1A8A198A3F8028844BA58A
:1030900022964FAF2297BBA605C9C801A985BD8559
:1030A0008093600590936105A0936205B0936305DA
:1030B0008B899C89AD89BE8980936C0590936D0541
:1030C000A0936E05B0936F058F89988DA98DBA8DE9
:1030D0008093640590936505A0936605B09367059A
:1030E0008C8D9D8DAE8DBF8D809368059093690505
:1030F000A0936A05B0936B058B819D81AE81BC81E5
:103100008093740590937505A0937605B093770529
:10311000832D922DA981BA818093700590937105BA
:10312000A0937205B093730522968FAD229780937A
:10313000F504A989BA89B0934C05A0934B0529AD34
:103140003AAD4BAD5CAD2093570530935805409395
:10315000590550935A053B8D309365048DAD9EAD56
:10316000AFAD2196BFAD219780934F059093500549
:10317000A0935105B09352058DA19EA1AFA1B8A512
:103180008093530590935405A0935505B09356052D
:103190002DA93EA94FA958AD20935B0530935C053E
:1031A00040935D0550935E053BA53093D004259672
:1031B0004FAD2597409382018FC0C801A985BD8579
:1031C0008093600590936105A0936205B0936305B9
:1031D0008B899C89AD89BE8980936C0590936D0520
:1031E000A0936E05B0936F058F89988DA98DBA8DC8
:1031F0008093640590936505A0936605B093670579
:103200008C8D9D8DAE8DBF8D8093680590936905E3
:10321000A0936A05B0936B058B819D81AE81BC81C3
:103220008093740590937505A0937605B093770508
:10323000832D922DA981BA81809370059093710599
:10324000A0937205B093730522965FAD22975093B9
:10325000F50410924C0510924B0589AD9AADABADBB
:10326000BCAD8093570590935805A0935905B09332
:103270005A0524969FAD2497909365048DAD9EAD1D
:10328000AFAD2196BFAD219780934F059093500528
:10329000A0935105B09352052DA13EA14FA158A571
:1032A000209353053093540540935505509356058C
:1032B0008DA99EA9AFA9B8AD80935B0590935C05DD
:1032C000A0935D05B0935E059BA59093D0042596D1
:1032D000AFAD2597A0938201C35BDF4F0FB6F89483
:1032E000DEBF0FBECDBFDF91CF911F910F91FF9039
:1032F000EF90DF90CF90BF90AF909F908F907F9096
:103300006F905F904F903F902F9008958091160698
:10331000682F20911706422F982F917080FD94E01E
:10332000822F817020FD80E261FD986041FD806404
:1033300062FD906142FD80689093AA048093A90485
:1033400008951F920F920FB60F9211248F939F939F
:103350008BB19091AA049C71837E892B8BB915BC8B
:103360009F918F910F900FBE0F901F901895809195
:103370006F008D7F80936F0080918100887F8160D6
:10338000809381001092AB04809118068F3F21F446
:1033900090913706992349F090913406943029F0A2
:1033A00090E00E94A82881E001C080E09091220670
:1033B00092FF02C091E08927882311F0289A08958E
:1033C000289808950E94B7198BE2EDE4F5E0DF013B
:1033D0001D928A95E9F783E2ECEAF4E0DF011D92A1
:1033E0008A95E9F710924C0510924B051092CF0484
:1033F0001092F50481E08093D0041092AB040E94F7
:1034000086198BB1837E9091AA04892B8BB98BB1DD
:103410008F719091A904892B8BB908951F920F92F7
:103420000FB60F9211242F933F934F935F936F9397
:103430007F938F939F93AF93BF93EF93FF9380916D
:10344000AB04811110C28BB19091BB04907E8F713F
:10345000892B8BB98BB1837E9091BA04892B8BB960
:103460008091B90486BD82E085BD81E08093AB0484
:1034700078948091CD049091CE04892B09F0ADC051
:103480008091CF049091F504981709F49BC0E091C6
:10349000CF042E2F30E086E0E89FF0011124EF5298
:1034A000FB4FF093CE04E093CD04838194819093FD
:1034B000890080938800808191819093C9048093D2
:1034C000C804E2818091CA048E1761F1E093CA04B6
:1034D00081E1E89FF0011124EA50FB4FF093CC0406
:1034E000E093CB0485859685A785B089B695A79589
:1034F000979587958093B4049093B504A093B604F0
:10350000B093B7048093B0049093B104A093B20435
:10351000B093B3048093AC049093AD04A093AE0435
:10352000B093AF04E091CB04F091CC0490818091F2
:10353000A90489278093BB0486E0829FD001839FE2
:10354000B00D1124AF52BB4F15962C918181928101
:10355000A381B481022E04C0B695A795979587954F
:103560000A94D2F78093BC049093BD04A093BE0448
:10357000B093BF0485819681A781B085022E04C0D7
:10358000B695A795979587950A94D2F78093C0042E
:103590009093C104A093C204B093C3048185928523
:1035A000A385B48504C0B695A795979587952A9568
:1035B000D2F78093C4049093C504A093C604B0933B
:1035C000C7040BC00E94B7199FB7F89480913606C4
:1035D0008460809336069FBF46C180914506813046
:1035E000B1F486B1807290913206891781F0109201
:1035F00045068CE0E8E3F6E0A6E4B6E001900D9223
:103600008A95E1F7809136068064809336061092A1
:10361000BA044091AC045091AD046091AE04709135
:10362000AF048091BC049091BD04A091BE04B09100
:10363000BF04840F951FA61FB71F8093AC049093FF
:10364000AD04A093AE04B093AF04E091CB04F0912D
:10365000CC044585568567857089481759076A07E0
:103660007B0768F524E02093BA0445855685678575
:103670007089841B950BA60BB70B8093AC049093B9
:10368000AD04A093AE04B093AF04208180913806BE
:1036900090913906A0913A06B0913B0625FF04C0EF
:1036A0000197A109B10903C00196A11DB11D809325
:1036B000380690933906A0933A06B0933B064091A2
:1036C000B0045091B1046091B2047091B304809140
:1036D000C0049091C104A091C204B091C304840FAE
:1036E000951FA61FB71F8093B0049093B104A093B9
:1036F000B204B093B3044585568567857089481731
:1037000059076A077B0778F52091BA04286020934F
:10371000BA044585568567857089841B950BA60B71
:10372000B70B8093B0049093B104A093B204B0930C
:10373000B304208180913C0690913D06A0913E0605
:10374000B0913F0626FF04C00197A109B10903C04B
:103750000196A11DB11D80933C0690933D06A09358
:103760003E06B0933F064091B4045091B504609179
:10377000B6047091B7048091C4049091C504A091DF
:10378000C604B091C704840F951FA61FB71F80936E
:10379000B4049093B504A093B604B093B7044585E0
:1037A000568567857089481759076A077B0778F53A
:1037B0002091BA0420612093BA0445855685678517
:1037C0007089841B950BA60BB70B8093B404909360
:1037D000B504A093B604B093B7042081809140064D
:1037E00090914106A0914206B091430627FF04C084
:1037F0000197A109B10903C00196A11DB11D8093D4
:10380000400690934106A0934206B09343068091F0
:103810003406843039F49091BA04809144068923A7
:103820008093BA048091C8049091C9040197909341
:10383000C9048093C804892B69F41092CE041092B5
:10384000CD048091CF048F5F8093CF04863011F434
:103850001092CF049091BA048091AA048927809392
:10386000BA041092AB04FF91EF91BF91AF919F9179
:103870008F917F916F915F914F913F912F910F9019
:103880000FBE0F901F9018958091220682FF02C0F4
:10389000289A01C02898809134068C70A1F08091FC
:1038A000A9048093BB048091AA048093BA048091F8
:1038B0001506880F845081958093B90480916F001C
:1038C000826080936F00089569E080E090E00E943C
:1038D000E9044DE450E065EE75E081E090E00C9481
:1038E0000B052DE0829FC00111244CE050E09E5F4B
:1038F0000C940B051F93CF93DF93182FEB018DE0F2
:10390000189FB00111247E5F4CE050E0CE010E9470
:10391000A504892B59F48CE0FE0111928A95E9F7F0
:10392000BE01812F0E94711C80E001C081E0DF9107
:10393000CF911F910895EF92FF920F931F93CF9312
:10394000DF93CDB7DEB72C970FB6F894DEBF0FBE6E
:10395000CDBF182F80FFC1C08AE08093150689E192
:1039600080931806109216061092170683E0809333
:1039700019068AE097EDA3E2BCE380931A069093C0
:103980001B06A0931C06B0931D068FE692E1A3E0F0
:10399000BBE380931E0690931F06A0932006B0936E
:1039A00021061092230680E090E0A8ECB1E4809319
:1039B000240690932506A0932606B093270680E060
:1039C00090E0AAEFB3E48093280690932906A09391
:1039D0002A06B0932B062AEF30E030932D06209371
:1039E0002C0640E050E060E87FE340932E065093C1
:1039F0002F0660933006709331061092220640E045
:103A000050E06AE773E44093E5055093E605609360
:103A1000E7057093E8054093E9055093EA05609344
:103A2000EB057093EC054093ED055093EE05609324
:103A3000EF057093F0058093F1059093F205A09344
:103A4000F305B093F4058093F5059093F605A093E4
:103A5000F705B093F8058093F9059093FA05A093C4
:103A6000FB05B093FC0580E090EAACE0B7E48093FE
:103A7000FD059093FE05A093FF05B093000680938B
:103A8000010690930206A0930306B0930406809368
:103A9000050690930606A0930706B093080680E0FB
:103AA00090E0A8E4B3EC8093090690930A06A093F3
:103AB0000B06B0930C0680930D0690930E06A09310
:103AC0000F06B09310068093110690931206A093F0
:103AD0001306B09314060E94641C11FF10C0CE019F
:103AE00001967C018CE0F70111928A95E9F700E0DC
:103AF000B701802F0E94711C0F5F0830C9F712FFB9
:103B00000AC060E080E093E00E94E90460E081E5A3
:103B100093E00E94E90413FF05C060E08EEA93E0A1
:103B20000E94E9042C960FB6F894DEBF0FBECDBFFD
:103B3000DF91CF911F910F91FF90EF9008951F9209
:103B40000F920FB60F9211242F933F934F935F93D1
:103B50006F937F938F939F93AF93BF93EF93FF9355
:103B60008091C6008F33A9F050F4883109F1813279
:103B700011F59FB7F89480913606886015C080349F
:103B800071F08E37C1F49FB7F89480913606826049
:103B90000BC09FB7F89480913606816005C09FB72F
:103BA000F894809136068062809336069FBF14C0D9
:103BB0000E94B32811C0E091810191E09E0F9038DE
:103BC00009F490E020918001921731F0F0E0E0508C
:103BD000FF4F808390938101FF91EF91BF91AF914F
:103BE0009F918F917F916F915F914F913F912F9115
:103BF0000F900FBE0F901F9018951F920F920FB647
:103C00000F9211248F939F93EF93FF938091A804B9
:103C1000E82FF0E0E859FB4F90819093C6008F5F4A
:103C2000803409F480E08093A8049091670489139C
:103C300005C08091C1008F7D8093C100FF91EF91FD
:103C40009F918F910F900FBE0F901F901895E0914C
:103C5000670491E09E0F903431F490E004C020910D
:103C6000360624FD0FC02091A8042917C1F3F0E007
:103C7000E859FB4F8083909367048091C100806274
:103C80008093C1000895CF93DF93C5E9D5E0899172
:103C9000882319F00E94271EFACFDF91CF91089553
:103CA000CF93C0E08C2F0E94D60F811104C087E013
:103CB0000E94981F0AC080919505882331F00E94C8
:103CC000431E0E944A050E948B21CF5FC23051F7EC
:103CD000CF9108958F929F92AF92BF92CF92DF9231
:103CE000EF92FF920F931F93CF93DF93CDB7DEB781
:103CF0002A970FB6F894DEBF0FBECDBF6B017C01D3
:103D0000042F20E030E0A9010E94263687FF07C07B
:103D10008DE20E94271EF7FAF094F7F8F094102F26
:103D2000123060F020E030E048EC52E4C701B60108
:103D30000E9488386B017C011250F2CF00FF0AC04C
:103D400020E030E040E251E4C701B6010E9488382B
:103D50006B017C0120E030E040E05FE3C701B60189
:103D60000E9431350E94A236E1E0F0E0EC0FFD1F29
:103D7000E00FF11D2EE2208310E03AE0832E912C1B
:103D8000A12CB12C6115710581059105A9F01013C5
:103D900001C01F5FEE24E394F12CEC0EFD1EE10E3A
:103DA000F11CA50194010E949D39605DF7016083BB
:103DB000B901CA011F5FE6CF80E3101748F4E1E0C4
:103DC000F0E0EC0FFD1FE10FF11D80831F5FF5CFC9
:103DD00010130BC081E0810FE1E0F0E0EC0FFD1F5C
:103DE000E80FF11D1E5F80E38083112341F0FE0187
:103DF000E10FF11D80810E94271E1150F6CF2A96F7
:103E00000FB6F894DEBF0FBECDBFDF91CF911F91EB
:103E10000F91FF90EF90DF90CF90BF90AF909F9069
:103E20008F90089543E00C946A1ECF92DF92EF9238
:103E3000FF921F93CF93DF93CDB7DEB7362F142FAA
:103E4000CDB6DEB64DB75EB7411B51090FB6F8943B
:103E50005EBF0FBE4DBF4F5F5F4F7A01242FFA0147
:103E60009E2F921B911728F4632F0E9491399193F2
:103E7000F7CF112351F0F701E10FF11D3197808148
:103E8000805D0E94271E1150F4CF0FB6F894DEBE5D
:103E90000FBECDBEDF91CF911F91FF90EF90DF90CD
:103EA000CF90089548E062E00C94151F9FB7F894F6
:103EB000E3E3F6E08381826083839FBF08952091CE
:103EC000220620FF08C02BE832E441E25DE30E94B5
:103ED000883841E001C040E00C946A1E209122061F
:103EE00020FF08C02BE832E441E25DE30E948838FD
:103EF00044E001C043E00C946A1E8A3020F084360E
:103F000020F043E003C041E001C042E06AE00C94CD
:103F1000151FCF93DF93FC018491EF012196882335
:103F200021F00E94271EFE01F7CFDF91CF91089567
:103F3000CF93C82F83E398E00E94891F8C2F90E0D5
:103F4000FC013197E631F10580F5EB58FF4F0C94F9
:103F5000BF398BE198E002C089E098E00E94891F98
:103F60002BC087EF97E0FACF8DEE97E0F7CF8CED7F
:103F700097E0F4CF8DEC97E0F1CF8CEA97E0EECFAD
:103F800083EA97E0EBCF88E997E0E8CF85E897E010
:103F9000E5CF87E797E0E2CF81E697E0DFCF8DE4DA
:103FA00097E0DCCF89E397E0D9CF87E297E00E94E2
:103FB000891F8C2F0E947D1F84E297E0CF910C9483
:103FC000891F8F929F92AF92BF92EF92FF920F93B1
:103FD0001F93CF938EE197E00E94891F86E4E82E1D
:103FE00086E0F82E05EE15E0C0E0F70161917191D1
:103FF000819191917F01F80181909190A190B19070
:104000008F010E94DA36A50194010E9430360E9489
:104010006E1FC23021F08CE197E00E94891FCF5FB4
:10402000C33019F78AE197E00E94891F80915206F8
:104030000E947D1F86E197E0CF911F910F91FF9025
:10404000EF90BF90AF909F908F900C94891FFF923C
:104050000F931F93CF93DF9382E197E00E94891F14
:10406000809115060E947D1F89EF96E00E94891FAE
:10407000809118060E947D1F8BED96E00E94891F9B
:10408000809116060E947D1F82EC96E00E94891F97
:10409000809116060E94521F8BEB96E00E94891FAA
:1040A000809117060E947D1F83EA96E00E94891F77
:1040B000809117060E94521F8CE996E00E94891F8A
:1040C0008091220682FB882780F90E947D1F8BE762
:1040D00096E00E94891F8091220686FB882780F93E
:1040E0000E947D1F8BE596E00E94891F8091220629
:1040F000881F8827881F0E947D1F8BE396E00E94FF
:10410000891F809119060E947D1F85E296E00E941A
:10411000891F809119060E94521F8DE196E00E942E
:10412000891F60911A0670911B0680911C06909160
:104130001D060E94121F8DEF95E00E94891F60915D
:104140001E0670911F0680912006909121060E9404
:10415000121F82EE95E00E94891F809122068170D5
:104160000E947D1F85EC95E00E94891F80912206A8
:1041700085FB882780F90E947D1F8AEA95E00E94CE
:10418000891F8091220683FB882780F90E947D1F6A
:104190008FE895E00E94891F8091220682958170A8
:1041A0000E947D1F83E795E00E94891F809123066E
:1041B0000E947D1F89E595E00E94891F809123065A
:1041C0000E94521F81E595E00E94891F609124069C
:1041D0007091250680912606909127060E94121F55
:1041E00084E395E00E94891F60912806709129065A
:1041F00080912A0690912B060E94121F87E195E07C
:104200000E94891F80912C060E947D1F88EF94E0F8
:104210000E94891F60912E0670912F0680913006B2
:10422000909131060E94121F8FED94E00E94891F29
:1042300084E6F82EC0E005EE15E0D0E08DED94E0C8
:104240000E94891F8D2F8F0D0E947D1F8BED94E0A2
:104250000E94891FC23079F0F801C330C1F0C1302B
:1042600029F0608171818281938118C06485758590
:104270008685978513C020E030E041E655E4F801DB
:10428000608D718D828D938D0E94303607C084A120
:1042900095A1A6A1B7A1BC01CD0190580E94121F03
:1042A00088ED94E00E94891FD13029F0D23031F09E
:1042B00086ED94E005C084ED94E002C082ED94E0C8
:1042C0000E94891FC23051F0C33059F0C13019F03B
:1042D00088EC94E008C086EB94E005C085EA94E0A1
:1042E00002C085E994E00E94891F81E994E00E9460
:1042F000891FDF5F0C5F1F4FD33009F09FCFFAE0BB
:10430000FF0ECF5F8CE8F81296CFDF91CF911F910F
:104310000F91FF900895811104C08FEE93E00C94EB
:10432000891F0C94981F2F923F924F925F926F9229
:104330007F928F929F92AF92BF92CF92DF92EF9235
:10434000FF920F931F93CF93DF93CDB7DEB768979C
:104350000FB6F894DEBF0FBECDBF01E09FE0392E4F
:1043600029E2A22E38E0732E40E2642E50E1B52EF1
:1043700060E4562E72E0472E10913706112309F49F
:104380005BC00093340611FF07C087E394E00E94EE
:10439000891F8CE294E023C012FF07C087E394E0FA
:1043A0000E94891F81E294E01AC013FF07C087E3CF
:1043B00094E00E94891F8EE094E011C014FF07C0B2
:1043C00087E394E00E94891F83E094E008C015FF12
:1043D00010C087E394E00E94891F87EF93E00E945A
:1043E000891F84EF93E00E94891F84EF91E00E946F
:1043F000A82810FD08C08FB7F89490913706109246
:1044000037068FBF19C08DEE93E00E94891F8BED98
:1044100093E00E94891F8AE793E00E94891F9FB75B
:10442000F894809136068F7E809336069FBF8091E8
:10443000360684FFFCCFDFCF10913606112309F436
:10444000AEC114FF04C081E080933306B9C110FFF0
:10445000F0C08CE0E8E3F6E0DE011D9601900D92DD
:104460008A95E1F7809134068430E9F040F4813098
:10447000E9F080F0823009F58CE694E01CC08031D0
:1044800079F018F4883049F018C0803291F0803407
:1044900021F013C08BE894E00EC086E894E00BC0D6
:1044A00080E894E008C08AE794E005C083E794E0E0
:1044B00002C086E694E00E94891F809119068370ED
:1044C00039F0BE01635F7F4FCE0101960E94F60F67
:1044D0008091190680FD05C08091190681FF6BC08F
:1044E0001CC08FE594E00E94891FCE0101967C01DB
:1044F000D12CF70161917191819191917F010E947D
:104500006E1FF2E0DF1621F08DE594E00E94891F16
:10451000D39423E0D212EDCFDFCF86E594E00E9462
:10452000891F8FEAC82E86E0D82ECE0101967C0125
:10453000212C4701F60161917191819191916F0157
:1045400020853185428553850E9431359B01AC0120
:10455000F70160817181828193810E943035F7017A
:104560006083718382839383F2E02F120FC02091C6
:10457000C7063091C8064091C9065091CA060E94EC
:104580003035F7016083718382839383F4E0EF0E0B
:10459000F11CF40160817181828193810E946E1F00
:1045A000F2E02F1621F084E594E00E94891F239405
:1045B00023E02212BECF8091190682FF0EC08EE446
:1045C00094E00E94891F8091660490916504891788
:1045D00008F48E5E891B0E947D1F8091190683FF5F
:1045E0000EC089E494E00E94891F9091800180911F
:1045F0008101891708F48058891B0E947D1F8091D2
:10460000190684FF0AC083E494E00E94891F0E9477
:10461000900443E062E00E94151F8FE394E00E9443
:10462000891F9FB7F894809136068E7F8093360657
:104630009FBF812F887609F444C080913406882377
:1046400049F0982F9C77A9F1883021F40E946B10D3
:104650000093350680913406811102C040923506E0
:1046600016FF09C0883011F4509234068091350647
:1046700088608093350613FF05C08091340685FF5E
:10468000B092340615FF15C08DEE93E00E94891F8D
:1046900089E993E00E94891F8AE793E00E94891FBD
:1046A0008091350681FD14608460809335066092A8
:1046B00034069FB7F8948091360687798093360642
:1046C0009FBF11FF4CC0812F887609F040C08091B8
:1046D0003406882331F08075D1F18091350681FF51
:1046E00036C08091350682FF16C0809195068823DA
:1046F00021F080EA9FE00E94A828809194068823F8
:1047000051F0823011F4439A02C00E94480588EEAD
:1047100093E00E94A8288091650490916604981700
:1047200091F0A89EC00111248D579E4F892B59F0FE
:104730008091350683FD07C0709234060E948D106B
:104740000E94441C02C010923406109235069FB796
:10475000F894809136068D7F809336069FBF12FFB6
:104760001EC080913406807371F08091350682FFFF
:1047700004C03092B3000E944805809135068260E3
:104780008093350604C010923506109234069FB708
:10479000F894809136068B7F809336069FBF809178
:1047A00034068C7711F00E948D1090913406809120
:1047B0003506903219F481FDB09234068111DCCDBA
:1047C00068960FB6F894DEBF0FBECDBFDF91CF91D4
:1047D0001F910F91FF90EF90DF90CF90BF90AF901F
:1047E0009F908F907F906F905F904F903F902F9011
:1047F0000895A8E3B6E0E8E7F5E04D915D916D918D
:104800007D91419351936193719385E0E438F8076A
:10481000A1F708958CE1E8E7F5E0DF011D928A95A4
:10482000E9F7109265041092660481E08093940584
:104830001092820108952F923F924F925F926F9251
:104840007F928F929F92AF92BF92CF92DF92EF9220
:10485000FF920F931F93CF93DF93C0916604C11112
:1048600001C0C2E1C150D0918201DC1709F41DC121
:10487000EC2EF12C29E2C29F800111240D571E4F0E
:10488000F801A588B688C788D08C61A172A183A1E0
:1048900094A19B01AC010E943135F80125A136A1FC
:1048A00047A150A50E9488384B018C019B01AC01A7
:1048B000B501C6010E94263687FD02C05401680179
:1048C00089E28E9DF0018F9DF00D1124ED57FE4F72
:1048D000C501D601818B928BA38BB48BC11101C012
:1048E000C2E1C150DC1761F029E22E9DC0012F9D6D
:1048F000900D11249C012D573E4F7901D9E233C010
:1049000080916504D81360C00E946B105DC0AC2E0E
:10491000B12CDA9DC001DB9D900D1124FC01ED57F7
:10492000FE4F6F01C11101C0C2E1C1508091650409
:104930008C1302C00E946B10DA9D8001DB9D100D6C
:1049400011240D571E4FF80185889688A788B08CD2
:10495000A501940161897289838994890E94263610
:10496000811106C0760180918201C813D0CF2CC07E
:10497000F80161A172A183A194A19B01AC010E94E5
:104980003135F80125A136A147A150A50E948838EC
:10499000F70121893289438954890E9431352B01DD
:1049A0003C019B01AC01C501B4010E944838F801EB
:1049B00018162CF4418A528A638A748AD3CF818A6A
:1049C000928AA38AB48ACECFD0918201F9E2DF9F86
:1049D000800111240D571E4FC1E0CD0FC23109F4E3
:1049E000C0E02090660489E2382EC21509F45BC04D
:1049F000CC2ED12C3C9CC0013D9C900D11249C01DF
:104A00002D573E4F7901F801418852886388748898
:104A1000F90181889288A388B488A5019401C30113
:104A2000B2010E94263687FF24C0F80161A172A15D
:104A300083A194A19B01AC010E943135F80125A10D
:104A400036A147A150A50E948838A30192010E9477
:104A500031352B013C019B01AC01C501B4010E9421
:104A60004838181634F4F701418A528A638A748AE6
:104A7000DC2F3C9CF0013D9CF00D1124ED57FE4FC6
:104A8000258936894789508D6189728983899489FE
:104A90000E942636811101C0DC2FCF5FC23109F49C
:104AA000C0E08701A2CFD0938201DF91CF911F9107
:104AB0000F91FF90EF90DF90CF90BF90AF909F90BD
:104AC0008F907F906F905F904F903F902F900895C0
:104AD0002F923F924F925F926F927F928F929F920E
:104AE000AF92BF92CF92DF92EF92FF920F931F93FC
:104AF000CF93DF93CDB7DEB7E5970FB6F894DEBF5F
:104B00000FBECDBF4B8F5C8F6D8F072F2DAB2091CC
:104B100066042EA3422F50E05BA34AA339E2239FF1
:104B2000F0011124ED57FE4F158616861786108A60
:104B300015A216A217A210A6108249E956E766E947
:104B40007EE741A352A363A374A31C0145EE55E085
:104B500058A74FA3CE0101969AAB89AB28E735E061
:104B60003EA72DA74EA139E2439FC00111249C010D
:104B70002C573E4F3AA729A7AE01435F5F4F5DA375
:104B80004CA359A348A388E795E098AB8FA725EEDF
:104B900035E03F8F2E8F10E03F01AF01435F5F4F45
:104BA0005CAB4BAB2F0155E2450E511CF1016191FD
:104BB0007191819191911F01EE8DFF8D8190919066
:104BC000A190B190FF8FEE8FA50194010E948838CB
:104BD0000E945538E9A9FAA9619371938193919341
:104BE000FAABE9ABEFA5F8A9C190D190E190F190B3
:104BF000F8ABEFA76C197D098E099F099B01AC01E9
:104C000097FF07C022273327A901261B370B480B24
:104C1000590BE9A5FAA52193319341935193FAA732
:104C2000E9A7EBA9FCA9C080D180E280F380C2167D
:104C3000D306E406F50610F469017A01EBA9FCA994
:104C4000C082D182E282F3820E94DA36A501940109
:104C50000E9430364B015C01E8A1F9A16193719388
:104C600081939193F9A3E8A320E030E0A9010E9489
:104C7000263687FF0DC0112321F0113021F080E886
:104C800003C080E201C080E4F3019081892B80831E
:104C9000A5019401C501B4010E948838F201208168
:104CA0003181428153810E943135F20160837183E9
:104CB000828393831F5F133009F078CF0E942739D6
:104CC0004B015C01F2016083718382839383CD2861
:104CD000CE28CF2809F423C220E030E0A9016B8D53
:104CE0007C8D8D8D902F0E94263687FD21C0FDA9D9
:104CF000FF2361F0A50194016B8D7C8D8D8D902F2C
:104D00000E9488386B8F7C8F8D8F092F20E030E0D8
:104D100040E85FE36B8D7C8D8D8D902F0E94263651
:104D200087FF0DC01B8E1C8E20E82D8F0FE307C060
:104D300039E93B8F46E74C8F56E95D8F0EE7A501B9
:104D4000940160E070E080E89FE30E94303669A73C
:104D50007AA78BA79CA7CE0149969A8F898FC12CE1
:104D6000D12C760129E2EAA1FBA12E9FC0012F9F41
:104D7000900D11249C012C553E4F39A328A3ECA182
:104D8000FDA180809180A280B38020E030E0A90165
:104D9000C501B4010E942636882309F472C0A5011A
:104DA000940169A57AA58BA59CA50E9488382B0142
:104DB0003C01ECA1FDA160837183828393839B01FD
:104DC000AC0160E070E080E89FE30E9430364B0168
:104DD0005C01E894B7F8EFA1F8A5248535854685F0
:104DE0005785C501B4010E9488381B018E8F192F89
:104DF0002B8D3C8D4D8D502F0E94483818162CF06D
:104E00002B8E3C8EFE8DFD8F012FE8A1F9A1F08144
:104E1000FE8FE8A1F9A1118122803380EFA1F8A5CE
:104E2000208D318D428D538DC501B4010E9488388B
:104E30005B014C019B01AC016E8D712FC1010E9481
:104E4000263687FD03C0AE8E1B2D14018E8D912F4B
:104E5000D101E8A1F9A180839183A283B383EDA559
:104E6000FEA52485358546855785C301B2010E947C
:104E700088389B01AC01C701B6010E9430356B0137
:104E80007C012CA13DA12C5F3F4F3DA32CA34DA540
:104E90005EA54C5F5F4F5EA74DA78FA198A50496B6
:104EA00098A78FA3E98DFA8DE217F30709F067CF72
:104EB00080916504FEA1F8130FC089E22AA13BA1ED
:104EC000829FF001839FF00D1124ED57FE4F118A50
:104ED000128A138A148A14C024EA30E74DE75FE38C
:104EE000C701B6010E94483818167CF489E24AA12D
:104EF0005BA1849FF001859FF00D1124ED57FE4FBB
:104F0000118E128E138E148E6AC024EA30E74DE79C
:104F10005FEBC701B6010E944838181644F084EAD6
:104F2000C82E80E7D82E8DE7E82E8FEBF82EA7014C
:104F3000960160E070E080E89FE30E94303520E059
:104F400030E040E05FE30E9488380E9427396B011F
:104F50007C0189E22AA13BA1829FF001839FF00D91
:104F60001124ED57FE4F20911A0630911B064091F7
:104F70001C0650911D0661A172A183A194A10E94FB
:104F80008838A70196010E9488384B015C01A7016F
:104F9000960160E070E080E89FE30E9430359B015D
:104FA000AC01C501B4010E9430366B017C0120E0E8
:104FB00030E0A9010E94263687FF03C0C12CD12C06
:104FC000760189E24AA15BA1849FF001859FF00DE3
:104FD0001124ED57FE4FC18ED28EE38EF48E2B8DB1
:104FE0003C8D4D8D502F6B8D7C8D8D8D902F0E9423
:104FF00088387B018C0189E22AA13BA1829FF001C4
:10500000839FF00D1124ED57FE4FC701D801858F06
:10501000968FA78FB0A3A18CB28CC38CD48C6090D8
:105020009005709091058090920590909305930162
:10503000A401B701C8010E94263687FD05C0B62D20
:10504000A72DF82DE92D04C0BE2DAF2DF02FE12F97
:105050009501A6016B2F7A2F8F2F9E2F0E94483823
:1050600018166CF09301A401B701C8010E942636FE
:1050700087FD03C05301640102C05701680189E242
:105080004AA15BA1849FF001859FF00D1124ED578B
:10509000FE4FC501D601858B968BA78BB08F8CE018
:1050A000FE013D96A4E8B5E001900D928A95E1F7E6
:1050B000C701D8018093900590939105A093920524
:1050C000B09393058CE0FE013196A8E7B5E001901E
:1050D0000D928A95E1F780919405809366048F5F25
:1050E000823109F480E080939405E5960FB6F89438
:1050F000DEBF0FBECDBFDF91CF911F910F91FF900B
:10510000EF90DF90CF90BF90AF909F908F907F9067
:105110006F905F904F903F902F900C941B24E596DA
:105120000FB6F894DEBF0FBECDBFDF91CF911F91B8
:105130000F91FF90EF90DF90CF90BF90AF909F9036
:105140008F907F906F905F904F903F902F90089539
:10515000009741F0EFE9FFE03197F1F700C0000060
:105160000197F6CF08958091360684FD27C09FB73A
:10517000F894809136068061809336069FBF8FE059
:105180008093B3000E94480580913406982F9C704C
:1051900021F490913506913089F49FB7843029F439
:1051A000F89480913706806204C0F89480913706A5
:1051B0008860809337069FBF0C94B71908958F922B
:1051C0009F92AF92BF92CF92DF92EF92FF920F9396
:1051D0001F93CF93DF937C016B01DC01CC91D0E076
:1051E000FE01EB56FA4F80818D3229F4EF012296B1
:1051F000818101E009C08B3219F0CA56DA4F03C031
:10520000EF012296818100E0912CF0E010E020E097
:1052100030E0A9015E01E0EDE80FEA30D0F4FF5F75
:10522000F93098F491101150A5E0B0E00E94C53912
:10523000DC01CB01880F991FAA1FBB1F9C01AD0188
:105240002E0F311D411D511D0AC0911008C01F5F56
:1052500006C0EE3F41F4911006C099249394219624
:10526000D5018C91D7CFFF2309F44FC0CA01B901F2
:105270000E94D8364B015C0120E030E0A9010E9479
:105280002636882349F11F3F64F42AE037ED43E2D4
:105290005CE3C501B4010E9488384B015C011E5FCC
:1052A000F2CF1F3F59F42DEC3CEC4CEC5DE3C50113
:1052B000B4010E9488384B015C010EC0112361F0DB
:1052C00020E030E040E251E4C501B4010E9488389A
:1052D0004B015C011150F2CF002351F0B7FAB094AA
:1052E000B7F8B094F60180829182A282B38206C0A0
:1052F000D6018D929D92AD92BC921397C559D5401F
:10530000C150F701C08381E001C080E0DF91CF91FF
:105310001F910F91FF90EF90DF90CF90BF90AF90D3
:105320009F908F900895CF93DF93CDB7DEB76A97A4
:105330000FB6F894DEBF0FBECDBF8091C000826073
:105340008093C0001092C50080E18093C4008091DA
:10535000C10080618093C1008091C100886080930A
:10536000C1008091C10080688093C10080E090E01E
:105370000E945404893009F09CC64DE450E061E07D
:1053800070E085EE95E00E94A504892B09F491C692
:105390008AB18C618AB9209A8AB1806E8AB980916B
:1053A00081008F7E8093810080918100886080934E
:1053B0008100809180008C7F8093800080918000AC
:1053C0008F708093800080916E00887F80936E0044
:1053D00014BC15BC80916E00816080936E0087B113
:1053E000887F87B988B1876088B980916C008760B1
:1053F00080936C008091680082608093680080E2F6
:10540000E3E3F6E0DF011D928A95E9F781E08093FE
:10541000330678949091220694FD8093340680910F
:105420008101809380018FE3ECE8F6E011928A9588
:10543000E9F76FEA76E080E00E947A1C811103C0F0
:1054400087E00E94981F239A259A8FE08093B300EB
:105450003B9A0E9448050E943D043D98459A0E944F
:105460000A240E94E2190E94F92368E376E083EAA5
:1054700096E00E94F60F10923306109236061092B4
:1054800037061092350682E691E00E94891F8091CE
:105490003406813089F48DEE93E00E94891F87ECF9
:1054A00093E00E94891F8AE793E00E94891F10E021
:1054B00000E072E0A72E28C0109234060E94501E11
:1054C000F6CFE92FF0E0E050FF4F80819F5F9038EA
:1054D00009F490E0909380018F3FE1F08A3019F554
:1054E000E12FF0E0EB56FA4F10820E9493211091C9
:1054F00033061111A7C580919505811118C08FEE53
:1055000093E00E94891F00E09091800180918101C9
:105510009813D7CF0E94561F0E9493218091330683
:10552000882391F37CCF8D3009F099C5D9CF84328F
:1055300009F08AC5F1E0F98B80919605833481F0FA
:1055400034F4882351F0843209F018C109C087343B
:1055500039F0883509F012C103C086E392E0D5C066
:1055600090919705911166C5833409F4D1C01CF45C
:10557000843239F064C5873469F0883509F4EAC0AB
:105580005EC510913406187111F018E058C50E94DC
:10559000272055C584E392E00E94891F80918C06E4
:1055A000823091F038F4882361F08130A9F48EE2E2
:1055B00092E00CC0833069F0883071F484E292E0AC
:1055C00005C081E392E002C08BE292E00E94891F55
:1055D0000CC088E292E0FACF8FE192E00E94891F2E
:1055E00080918C0686500E947D1F8CE192E00E9483
:1055F000891F809192068A5C0E947D1F809190068F
:10560000813049F028F0823051F48DE092E005C0FD
:1056100087E192E002C082E192E00E94891F8091BE
:105620008E06811103C088E092E002C083E092E020
:105630000E94891F80918F06811103C08EEF91E037
:1056400002C089EF91E00E94891F80918D06813010
:1056500019F484EF91E002C08FEE91E00E94891F5F
:1056600080919306813049F028F0823051F483EE26
:1056700091E005C08BEE91E002C087EE91E00E94C0
:10568000891F80919506813031F040F0823051F4CD
:105690008BED91E005C08FED91E002C087ED91E0C8
:1056A0000E94891F80919406882329F0823039F462
:1056B0008FEC91E002C083ED91E00E94891F8CEC99
:1056C00091E00E94891F80919E060E947D1F89ECB7
:1056D00091E00E94891F60919A0670919B068091CB
:1056E0009C0690919D060E945F1F86EC91E00E94AF
:1056F000891F609196067091970680919806909107
:1057000099060E945F1F82EC91E00E94891F97C456
:1057100080913406823069F40E94B3288DEE93E0C4
:105720000E94891F84EA93E00E94891F8AE793E020
:10573000ECCF81112ACFA09234068DEE93E00E9427
:10574000891F8DEA93E00E94891F8AE793E00E94F7
:10575000891F3BC080913406813009F070C48DEE02
:1057600093E00E94891F85EB93E00E94891F8AE7DE
:1057700093E00E94891F1092340661C49091340610
:10578000923008F002CF893409F44CC234F48332E9
:1057900059F0883409F484C0E7C28E3409F4BBC2DE
:1057A000823509F47FC2E0C2A98A809197058111F0
:1057B00041C400E0BE016F5F7F4F802F0E947A1CC2
:1057C000811105C087E00E94981F10E038C48FEB5C
:1057D00091E00E94891F063029F0073041F489EBDF
:1057E00091E002C08CEB91E00E94891F04C086E327
:1057F000800F0E947D1F87EB91E00E94891F9E0110
:105800002F5F3F4F7901D12CD7016D917D918D9103
:105810009D917D010E946E1FB2E0DB1619F085EBB1
:1058200091E002C081EB91E00E94891FD394E3E0F4
:10583000DE12EACF0F5F083009F0BCCF8BEA91E0AF
:105840000E94891F6BEBE62E66E0F62E00E0D70182
:105850006D917D918D919D917D010E946E1F023011
:1058600019F089EA91E002C085EA91E00E94891F5F
:105870000F5F033061F78FE991E00E94891F60910B
:10588000C7067091C8068091C9069091CA060E9409
:105890006E1F8BE991E00E94891F0E94E11FCFC318
:1058A0008091220684FFC0C3B4E0B09334060E9406
:1058B00032048091330681119CC1E4E0ED8720E041
:1058C00030E040EC5FEB6091090670910A06809130
:1058D0000B0690910C060E9488386B017C0120E039
:1058E00030E0A9010E94263687FF03C0C12CD12CCD
:1058F0007601F8E0FE8720E030E040EC5FEB60915D
:105900000D0670910E0680910F06909110060E9470
:105910008838762E872EB82E092FA70196010E946F
:10592000263687FD04C0C72CD82CEB2CF02E80E146
:105930008F87409028065090290660902A06709024
:105940002B0624E02A8BBB24B39468E376E0CE01D7
:1059500001960E94F60F80912306A82FB0E0B88F21
:10596000AF8BFE01319653E3252E56E0352E3A8E4D
:10597000298ECE010D964C0180E090E000E01E8A59
:10598000B701A601705823E030E0082E02C035951B
:1059900027950A94E2F720FF26C0AE89AF5FAE8B51
:1059A000A98DBA8D15961D921D921D921C92189765
:1059B0002F89388D082E02C0359527950A94E2F775
:1059C00020FF03C0BB2019F007C0BB2029F0C08214
:1059D000D182E282F38204C0408351836283738365
:1059E000D4012C91022B0196BFEF8B1A9B0A34969F
:1059F000298D3A8D2C5F3F4F3A8F298F8330910547
:105A000011F63E89632F70E080E090E00E94D83666
:105A10000E942739A30192010E9488386B017C0102
:105A2000009344060E94F92320E0B701A601CE01AD
:105A300001960E9468250E948D100E94441CBB2084
:105A4000E9F00E949004FE013D9620E030E090E0F5
:105A50006191462F402359F0AC01022E02C05595AA
:105A600047950A94E2F740FF02C0609506232F5F36
:105A70003F4F2330310561F7009344060E948D109B
:105A8000809136068473C1F080913606807329F0C8
:105A90000E94B3280E949321ACC0B11013C30E948E
:105AA00090048370A9F79FB7F894809136068B7F96
:105AB000809336069FBF04C0802F8C7109F0BFCF42
:105AC0000E94E2190E940A2480912C0690912D06D2
:105AD0000E94A82881E0B826C9F020E030E040EA22
