:100000000C943A020C945B020C945B020C945B021D
:100010000C945B020C945B020C945B020C945B02EC
:100020000C945B020C945B020C945B020C94DF1F3B
:100030000C945B020C945B020C945B020C945B02CC
:100040000C945B020C9475370C945B020C945B026D
:100050000C945B020C945B020C945B020C946B2F6F
:100060000C945B020C94F43C0C943D3B0C945B02AE
:100070000C945B020C945B020C945B020C945B028C
:100080000C945B020C945B020C945B020C94061FB4
:100090000C945B020C945B020C945B020C945B026C
:1000A0000C945B020C945B020C945B020C945B025C
:1000B0000C945B020C945B020C945B020C945B024C
:1000C0000C945B020C945B020C945B020C945B023C
:1000D0000C945B020C945B020C945B020C945B022C
:1000E0000C945B022E049F049F04380445045204C0
:1000F0005F049F0463049F0471049F047B048504D0
:100100008F042E18341837183A183F1847184F180C
:10011000ED18ED18ED185C185F1868187118ED18D7
:10012000ED18ED18ED18ED18ED187D1887189318D7
:100130009B189E18A718B018B618ED18ED18BF1820
:10014000C818D3182E3D303D6E3D6E3D6E3D6E3D60
:100150006E3D6E3D6E3D6E3D6E3D6E3D3C3D3E3DA9
:10016000403D423D443D463D483D4A3D6E3D4E3D4D
:10017000503D523D543D563D583D6E3D5A3D5C3DCF
:10018000084AD73B3BCE016E84BCBFFDC12F3D6CFE
:1001900074319ABD56833DDA3D00C77F11BED9E464
:1001A000BB4C3E916BAAAABE000000803F05A84C44
:1001B000CDB2D44EB93836A9020C50B99186880810
:1001C0003CA6AAAA2ABE000000803F000C9452045C
:1001D0000C94563D0C945C3D0C9468180C94931848
:1001E0000C943A180C94A7180C949B180C9487182C
:1001F0000C94403D0C944A3D0C9463040C94D31829
:100200000C9438040C94B6180C94B0180C944F1835
:100210000C948F040C947D180C9447180C94463D54
:100220000C946E3D0C949E180C947B040C94450425
:100230000C9434180C94ED180C94483D0C945F18F1
:100240000C9485040C94303D0C943E3D0C943F1866
:100250000C9437180C9471180C94523D0C94503D2A
:100260000C94423D0C945A3D0C945F040C94710420
:100270000C942E3D0C943C3D0C944E3D0C949F04EC
:100280000C94443D0C94BF180C942E180C94543DBF
:100290000C945C180C942E040C94C8180C94583DC3
:1002A000536C656570696E6700526573746F72692F
:1002B0006E67207370696E646C6500526573746F4D
:1002C00072696E672064656661756C74730050674F
:1002D0006D20456E6400436865636B204C696D69F1
:1002E000747300436865636B20446F6F72004469E8
:1002F0007361626C656400456E61626C65640043A5
:10030000617574696F6E3A20556E6C6F636B6564CE
:1003100000272448277C2724582720746F20756ED7
:100320006C6F636B00526573657420746F20636F2C
:100330006E74696E7565005B4D53473A000D0A4750
:1003400072626C20312E316C205B27242720666F6F
:10035000722068656C705D0D0A00244E005B4F5082
:10036000543A003A005B4158533A005B5645523AC2
:10037000312E316C2E32303139303630353A005B27
:10038000544C4F3A005B4739323A00333000323830
:10039000005B4700204700204D002053002046000E
:1003A00020540033382E005B47433A47005B484CEB
:1003B000503A242420242320244720244920244E5A
:1003C0002024783D76616C20244E783D6C696E6502
:1003D00020244A3D6C696E652024534C50202443F0
:1003E000202458202448207E2021203F206374723E
:1003F0006C2D785D0D0A00414C41524D3A007C4114
:100400003A007C4F763A007C57434F3A007C506E5E
:100410003A007C46533A007C4C6E3A007C42663A85
:10042000007C57506F733A007C4D506F733A005305
:100430006C65657000446F6F723A00436865636B6A
:1004400000416C61726D00486F6D65004A6F670016
:10045000486F6C643A0052756E0049646C65000D1B
:100460000A005B5052423A006572726F723A006F36
:100470006B0D0A0011241FBECFEFD1E2DEBFCDBF4E
:1004800000E00CBF12E0A0E0B2E0E8EDF6E800E02A
:100490000BBF02C007900D92AE31B107D9F721E131
:1004A000AEE1B2E001C01D92AF3DB207E1F70E949C
:1004B0000D130C946A430C9400002F923F924F92BC
:1004C0005F926F927F928F929F92AF92BF92CF92E4
:1004D000DF92EF92FF920F931F93CF93DF93CDB7ED
:1004E000DEB7C156D1090FB6F894DEBF0FBECDBF3F
:1004F0008AE4EAE2F3E0DF011D928A95E9F78BE0F6
:10050000E2EDF2E0ABE2B3E001900D928A95E1F703
:100510008091DF10843211F00C94EC1281E0809312
:100520002B0310922C0383E08EA3B1E0BFA71BA680
:100530001CA61DA61EA61BAE1CAE1DAE1EAE1BAA83
:10054000412C512C3201312C812C912C540183945B
:100550008EA1E82FF0E0E152FF4E30813FA333231C
:1005600009F480C22FA0EFEB2E0EF9E1F21510F482
:100570000C94BB128F5F8EA3BE016E5D7F4FCE01C8
:1005800086960E94E43D882311F40C94BD12CAA003
:10059000DBA0ECA0FDA0C701B6010E94D3420E94DF
:1005A0001140162F70E080E090E00E9442409B01D5
:1005B000AC01C701B6010E94983E20E030E048EC53
:1005C00052E40E94F0410E945D420E941140CB0122
:1005D0002FA1273421F02D3409F4CCC02CC11832BE
:1005E00009F4BEC020F5143168F4113108F088C058
:1005F000143009F450C008F462C01A3009F444C041
:100600000C94CB121C3109F43FC050F4163110F099
:100610000C94CB1225E1211B20932D0306E0A5C0ED
:100620001E3191F1163209F44AC00C94CB121D33DD
:1006300009F490C0A0F4153371F140F41B3209F4B1
:1006400076C0113309F473C00C94CB121C3310F034
:100650000C94CB1216531093310309E086C01C355D
:1006600038F41A3508F051C0103571F10C94CB12E2
:100670001C3551F01F3510F00C94CB122EE5211BC8
:1006800020932C0305E071C0009729F431100C94DD
:10069000BF123324339410932A03212F2D7F2C3142
:1006A00019F01C3509F05EC0009721F00A9711F08F
:1006B0000C94CB12610F60932A0300E069C03110E3
:1006C0000C94BF1232E0332E10932B03163209F034
:1006D0004BC08431910559F08E31910541F088323B
:1006E000910529F08233910511F00C94CB126AE048
:1006F00070E00E940543665760932B0301E048C0F9
:10070000115110932F0302E030C0892B29F41A55A0
:1007100010932E0303E03CC06A30710511F00C9475
:10072000CB121A3511F40C94CB1204E031C0311005
:100730000C94BF12113319F41092300307C00A97BA
:1007400011F00C94CB1281E08093300308E023E099
:10075000322E1EC0892B11F00C94CB120AE018C067
:1007600007E003C000E001C001E0892B89F087E1C8
:100770000C94F312892BD9F71630D8F4133018F1F2
:10078000143069F1153069F180E1809334030CE095
:100790008BAD9CADADADBEAD002E04C0B695A7959A
:1007A000979587950A94D2F780FF2EC085E10C9427
:1007B000F312173010F40C94CB121A30A8F01E313B
:1007C00059F00C94CB12112319F01130D9F004C058
:1007D00083E08093320316C01093320313C080E28B
:1007E000D4CF10923403D3CF183021F0193031F028
:1007F00080E801C080E48093330302C01092330389
:100800000DE0C6CF0BE0C4CFD501C401002E04C05B
:10081000880F991FAA1FBB1F0A94D2F72BAD3CADBE
:100820004DAD5EAD282B392B4A2B5B2B2BAF3CAF4C
:100830004DAF5EAF8DCE3FA1832F330F990BAA0B27
:10084000BB0BFC01E654F109EF30F10508F077C06D
:100850008827EE58FF4F8F4F0C943B43C0923603CE
:10086000D0923703E0923803F092390300E0BAC027
:10087000C0923A03D0923B03E0923C03F0923D03D6
:100880004BA941604BAB01E0ADC0C0923E03D0929A
:100890003F03E0924003F09241035BA952605BABDF
:1008A00002E0A0C0C0924203D0924303E09244030E
:1008B000F09245038BA984608BAB03E093C0109347
:1008C0004E0304E08FC0C701B6010E940A40609346
:1008D0004F0370935003809351039093520305E0AC
:1008E00081C0C0925303D0925403E0925503F0921A
:1008F000560306E077C0C0925703D0925803E092A7
:100900005903F0925A0307E06DC0C0925B03D09286
:100910005C03E0925D03F0925E0308E063C020E0B8
:1009200030E04FE753E4C701B6010E94B04118160A
:1009300014F40C94C11210935F0309E053C09FA1FB
:10094000983561F4C0926003D0926103E092620333
:10095000F0926303689440F80AE03BC0AFA1A93568
:1009600061F4C0926403D0926503E0926603F09252
:100970006703689441F80BE02CC0BFA1BA3561F45D
:10098000C0926803D0926903E0926A03F0926B030D
:10099000689442F80CE01DC0EFA1E13461F4C0920C
:1009A0006C03D0926D03E0926E03F0926F03689433
:1009B00043F80DE00EC0FFA1F23459F4C092700369
:1009C000D0927103E0927203F0927303689444F83A
:1009D0000EE08FA18855833028F021E0221510F415
:1009E0000C94CB12102F8BA59CA5ADA5BEA5002EF7
:1009F00004C0B695A795979587950A94D2F780FF7E
:100A000002C00C94C31281E693E0A0E0B0E0002E97
:100A100004C0B695A795979587950A94D2F780FF5D
:100A20000BC020E030E0A901C701B6010E948E3F53
:100A300087FF02C00C94C512D501C40104C0880F01
:100A4000991FAA1FBB1F1A95D2F72BA53CA54DA530
:100A50005EA5282B392B4A2B5B2B2BA73CA74DA738
:100A60005EA776CD411451046104710421F0311068
:100A700002C092E0392E4BA545FF0FC080914F0375
:100A800090915003A0915103B0915203813896493F
:100A9000A849B10514F00C94C7128FA5882331F032
:100AA0009BA590FD02C00C94D1121AC080912C031A
:100AB000813079F4A2E03A123EC080912B03803558
:100AC000D1F18823C1F1BBA5B0FD02C00C94D112B5
:100AD00032C08091D30281112EC0EBA5E0FF1BC074
:100AE00080912D03813039F523E333E34BEC51E45E
:100AF00060913603709137038091380390913903E8
:100B00000E94F0416093360370933703809338035B
:100B10009093390310C08091E1029091E202A0917C
:100B2000E302B091E4028093360390933703A093DD
:100B30003803B09339032BA53CA54DA55EA530FD28
:100B400010C08091DD029091DE02A091DF02B09191
:100B5000E00280935B0390935C03A0935D03B093EA
:100B60005E0380912A03843079F43BA536FD03C0EF
:100B70008CE10C94F3128BA59CA5ADA5BEA58F7B33
:100B80008BA79CA7ADA7BEA780912F038823C1F098
:100B9000813061F121E060962FAF609734E02F96AD
:100BA0003FAF2F9742E02E964FAF2E9761961FAE24
:100BB000619752E05FAF81E02C968FAF2C972BC0EE
:100BC00094E060969FAF6097A2E02F96AFAF2F970B
:100BD000B1E02E96BFAF2E97E2E06196EFAF61973E
:100BE000F1E0FFAF2C961FAE2C9715C092E06096F7
:100BF0009FAF6097A1E02F96AFAF2F97B4E02E96EE
:100C0000BFAF2E97E1E06196EFAF61971FAEF2E0C4
:100C10002C96FFAF2C9780912D03813021F023E09B
:100C2000321244C037C0BAE2EB2EB3E0FB2E00E034
:100C300010E0CC24C394D12CC601002E02C0880F32
:100C4000991F0A94E2F7092E000CAA0BBB0B842112
:100C50009521A621B721892B8A2B8B2B91F023E399
:100C600033E34BEC51E4D701D6966D917D918D9194
:100C70009C91D9970E94F041F70166AB77AB80AFAA
:100C800091AF0F5F1F4FF4E0EF0EF11C0330110521
:100C900099F6C5CF80913003813041F424E04216AB
:100CA00051046104710411F00C94C91284E1EEEF57
:100CB000F2E0DE01119601900D928A95E1F78BAD7D
:100CC0009CADADADBEAD91FD0AC0D0902A039AE0B7
:100CD000D916D1F0ACE5DA1609F4C9C03FC180914C
:100CE0003103873018F08DE10C94F3129091D80203
:100CF000891759F3BE016F5F7F4F0E940E3788231B
:100D000011F40C94DF12E1CF411451046104710419
:100D100019F48AE10C94F3128BA59CA5ADA5BEA590
:100D200080759927AA27BB27892B8A2B8B2B09F43F
:100D30001FCF60915303709154038091550390919C
:100D400056030E94D3420E941140673060F68091A2
:100D50004E03843149F0823011F00C94CB12BBA5C4
:100D6000B7FF02C00C94CB122BA53CA54DA55EA5E8
:100D70002F7A2BA73CA74DA75EA7662321F022243C
:100D80002A94260E02C0209031036AE373E0822D7C
:100D90000E940E37882311F40C94DF1230914E0319
:100DA0003FA38090260390902703A0902803B09043
:100DB00029030AE213E0AAEECA2EA2E0DA2EE12C01
:100DC000F12C81E090E00E2C02C0880F991F0A944C
:100DD000E2F7092E000CAA0BBB0B84219521A6215A
:100DE000B721892B8A2B8B2BA1F14FA1443141F5DF
:100DF000D60198962D913D914D915C919B976D9167
:100E00007D918D919C910E94983EF80126A937A969
:100E100040AD51AD0E94983ED80150966D937D93A0
:100E20008D939C935397B2E0EB1213C0A5019401EC
:100E30000E94983EF801608B718B828B938B09C066
:100E4000F80186A997A9A0ADB1AD808B918BA28B3B
:100E5000B38BFFEFEF1AFF0A0C5F1F4F24E0C20EA7
:100E6000D11C35E0E316F10409F0ABCF63C14114A6
:100E700051046104710409F44CCF809026039090D2
:100E80002703A0902803B0902903FAEECF2EF2E0BA
:100E9000DF2EAE014F5F5F4F58A74FA30AE213E06A
:100EA000E12CF12C81E090E00E2C02C0880F991FFC
:100EB0000A94E2F7092E000CAA0BBB0B84219521A2
:100EC000A621B721892B8A2B8B2B51F1AFA1B8A575
:100ED0002D913D914D915C91F601608171818281EE
:100EE00093810E94983ED801D6962D913D914D91C7
:100EF0005C91D9970E94983EF80166AB77AB80AFC2
:100F000091AFF2E0EF1216C0A50194010E94983E45
:100F1000D801D6966D937D938D939C93D9970AC0F3
:100F2000F60180A591A5A2A5B3A5F80186AB97AB64
:100F3000A0AFB1AFFFEFEF1AFF0A24E0C20ED11C41
:100F40004FA158A54C5F5F4F58A74FA30C5F1F4F91
:100F500055E0E516F10409F0A5CFEBC083E03812A7
:100F60000FC09EE1D91609F4A0C0A5E3DA1609F472
:100F7000DAC0BCE1DB12DDC06AE373E086E098C052
:100F8000411451046104710461F3C0902E03209157
:100F900026033091270340912803509129032FA362
:100FA00038A749A75AA7EAEEAE2EE2E0BE2E0AE223
:100FB00013E0AE014F5F5F4F4A01E12CF12C81E05D
:100FC00090E00E2C02C0880F991F0A94E2F7092EB8
:100FD000000CAA0BBB0B84219521A621B721892BDC
:100FE0008A2B8B2B59F4F50180819181A281B381E9
:100FF000F80186AB97ABA0AFB1AF46C0F5E3DF1603
:1010000009F442C0C1102DC0D50198962D913D9193
:101010004D915C919B97F4016081718182819381F4
:101020000E94993ED801D6962D913D914D915C91AB
:10103000D9970E94993EF80166AB77AB80AF91AF2C
:10104000F2E0EF1221C02FA138A549A55AA50E94B0
:10105000993ED801D6966D937D938D939C93D997A5
:1010600013C0F5012081318142815381D801D69688
:101070006D917D918D919C91D9970E94993EF80137
:1010800066AB77AB80AF91AFFFEFEF1AFF0A24E0BA
:10109000A20EB11C0C5F1F4F34E0830E911C45E083
:1010A000E416F10409F08BCF5CCF6AE373E087E0CC
:1010B0000E940E37882311F40C94DF12411451045E
:1010C0006104710419F4212C312C34C0A2EDB2E07A
:1010D000EAE2F3E020E030E041E050E0CA01022E15
:1010E00002C0880F991F0A94E2F76C01990FEE086D
:1010F000FF08C420D520E620F720CD28CE28CF2811
:1011000051F45896CD90DD90ED90FC905B97C08A9D
:10111000D18AE28AF38A2F5F3F4F149634962530A6
:101120003105E1F606C080912B03823010F00C945B
:10113000CD12212C50912B035FA3503541F4411463
:1011400051046104710411F00C94CF1229C382E0A0
:10115000381226C39FA1992341F120E030E0A90174
:101160006091360370913703809138039091390371
:101170000E948E3F882311F40C94D112AFA1AC3899
:1011800009F4F6C240F4A230C1F0A330C9F0A13096
:1011900009F006C30AC0BFA1BE3809F4E9C208F4C9
:1011A000E4C2BF3809F4E1C2FBC241145104610436
:1011B000710409F0F5C2312CF3C2EFA5E460EFA78A
:1011C000411451046104710409F4A3CD2C963FAD80
:1011D0002C97232F30E025963FAF2EAF25975FAD9C
:1011E000452F50E029965FAF4EAF299781E090E000
:1011F0008C012C960FAC2C9702C0000F111F0A9483
:10120000E2F70FAC02C0880F991F0A94E2F7082B8F
:10121000192BC801012E000CAA0BBB0B84219521B0
:10122000A621B721892B8A2B8B2B11F40C94D31276
:10123000F901EE0FFF1FEE0FFF1FE65DFC4FD90116
:10124000AA0FBB1FAA0FBB1FA651BD4F2D913D91E9
:101250004D915C9166A977A980AD91AD0E94983EB1
:101260004B015C012996EEADFFAD2997EE0FFF1FF4
:10127000EE0FFF1FE65DFC4F2996AEADBFAD29977F
:10128000AA0FBB1FAA0FBB1FA651BD4F2D913D91A9
:101290004D915C9166A977A980AD91AD0E94983E71
:1012A0006FAB78AF89AF9AAF8BA587FF6FC12BA5C6
:1012B0003CA54DA55EA52F772BA73CA74DA75EA704
:1012C00044E150E060E673E08AEE92E00E945D4304
:1012D000892B19F481E20C94F31280912D03813053
:1012E000B1F423E333E34BEC51E460915703709185
:1012F00058038091590390915A030E94F0416093E2
:101300005703709358038093590390935A03809125
:10131000570390915803A0915903B0915A038BAB96
:101320009CABADABBEABA5019401C501B4010E945D
:10133000F04127966CAF7DAF8EAF9FAF27972FA957
:1013400038AD49AD5AADCA01B9010E94F0412B96A2
:101350006CAF7DAF8EAF9FAF2B9720E030E040E8C1
:1013600050E46BA97CA98DA99EA90E94F0412BA9EC
:101370003CA94DA95EA90E94F04127962CAD3DAD38
:101380004EAD5FAD27970E94983E2B962CAD3DAD9C
:101390004EAD5FAD2B970E94983E6B017C0120E023
:1013A00030E0A9010E948E3F87FF02C00C94D51245
:1013B000C701B6010E948F426B017C012B962CADB8
:1013C0003DAD4EAD5FAD2B9727966CAD7DAD8EAD2F
:1013D0009FAD27970E94993E0E948F429B01AC01CE
:1013E000C701B60190580E94983F6B017C019FA1F4
:1013F000933021F4F7FAF094F7F8F09420E030E01D
:10140000A9016BA97CA98DA99EA90E948E3F87FF87
:1014100011C0F7FAF094F7F8F0948BA99CA9ADA944
:10142000BEA9B0588093570390935803A0935903D3
:10143000B0935A0380912F038823D1F1813009F0B2
:101440006EC0A70196016FA978AD89AD9AAD0E94D3
:10145000F0419B01AC01C501B4010E94983E20E01F
:1014600030E040E05FE30E94F041609342037093FC
:1014700043038093440390934503A7019601C5015C
:10148000B4010E94F0412FA938AD49AD5AAD0E9478
:10149000993E20E030E040E05FE30E94F04160933D
:1014A0003A0370933B0380933C0390933D0378C1D0
:1014B000A70196016FA978AD89AD9AAD0E94F04160
:1014C0009B01AC01C501B4010E94983E20E030E0D0
:1014D00040E05FE30E94F04160933A0370933B0366
:1014E00080933C0390933D03A7019601C501B4018D
:1014F0000E94F0412FA938AD49AD5AAD0E94993EE6
:1015000020E030E040E05FE30E94F04160933E0362
:1015100070933F03809340039093410341C1A7011F
:1015200096016FA978AD89AD9AAD0E94F0419B01FB
:10153000AC01C501B4010E94983E20E030E040E0DB
:101540005FE30E94F04160933E0370933F038093FA
:10155000400390934103A7019601C501B4010E9485
:10156000F0412FA938AD49AD5AAD0E94993E20E017
:1015700030E040E05FE30E94F041609342037093EB
:10158000430380934403909345030AC1ABA9CA2E39
:10159000D12C0C211D21012B11F40C94D7122BA559
:1015A0003CA54DA55EA5217F2BA73CA74DA75EA717
:1015B00080912D03813009F491C02596EEADFFADE9
:1015C0002597EE0FFF1FEE0FFF1FE65CFC4F80819B
:1015D0009181A281B3818BAB9CABADABBEAB9C01C7
:1015E000AD01C501B4010E94983E27966CAF7DAF56
:1015F0008EAF9FAF27972996EEADFFAD2997EE0FDF
:10160000FF1FEE0FFF1FE65CFC4FC080D180E28021
:10161000F380A70196016FA978AD89AD9AAD0E94BC
:10162000983E4B015C0127962CAD3DAD4EAD5FADB4
:101630002797CA01B9010E94F0416FAB78AF89AF1B
:101640009AAFA5019401C501B4010E94F0419B012C
:10165000AC016FA978AD89AD9AAD0E94993E0E9408
:101660008F424B015C012BA93CA94DA95EA9CA017F
:10167000B9010E94F0416FAB78AF89AF9AAFA70173
:101680009601C701B6010E94F0419B01AC016FA910
:1016900078AD89AD9AAD0E94993E0E948F426B0150
:1016A0007C01609357037093580380935903909380
:1016B0005A039B01AC01C501B4010E94983E4B0145
:1016C0005C01E894B7F82AE037ED43EA5BE3C50133
:1016D000B4010E94B04118165CF162C09AE2E92E92
:1016E00093E0F92E00E010E0C601002E02C09595AF
:1016F00087950A94E2F780FF12C023E333E34BECB3
:1017000051E4D70150966D917D918D919C915397A5
:101710000E94F041F701608B718B828B938B0F5F7E
:101720001F4FF4E0EF0EF11C03301105E9F645CF31
:1017300020E030E040E05FE3C501B4010E94B04129
:1017400018160CF4C7CD2FE632E143E85AE3C7017F
:10175000B6010E94F0419B01AC01C501B4010E9499
:10176000B04118160CF4B6CD1BC02FA520612FA7D1
:101770008FA18E58823018F43FA538603FA74114DE
:1017800051046104710409F4C4CA44E150E060E604
:1017900073E08AEE92E00E945D43892B09F49ACDB2
:1017A0002FA521704FA58BA59CA5ADA5BEA540FF7B
:1017B00002C08E7D02C08E7D9C7F332011F093701D
:1017C000A87F892B8A2B8B2B09F0F3C68E010B5E29
:1017D0001F4F8DE0D8011D928A95E9F7222309F465
:1017E0005BC08BAD9CADADADBEAD867B892B8A2B2E
:1017F0008B2B09F0E0C680912A03853311F081110B
:10180000DAC68091DD029091DE02A091DF02B091F4
:10181000E002898F9A8FAB8FBC8F9091DB02809111
:10182000DA02892B409136035091370360913803D7
:10183000709139034D8B5E8B6F8B788F846089A399
:1018400080914F0390915003A0915103B0915203A6
:101850008D8F9E8FAF8FB8A38091C20285FF06C087
:1018600080E693E00E94421F8111A7C6B80180E67E
:1018700093E00E94813D809148028111A2C60E949E
:101880003830892B09F49DC680E2809348020E947B
:1018900031270E94F53A95C68091C202F090DB0292
:1018A00081FF27C08FA18150833018F0BFA5B0649D
:1018B000BFA745284628472839F0E2E03E1204C079
:1018C000FFA5F068FFA715C020E1F21212C08091B9
:1018D000D20281509FA59074833030F4992349F04F
:1018E0003FA530623FA705C0911103C04FA54062DC
:1018F0004FA780914F0390915003A0915103B09155
:1019000052038093E6029093E702A093E802B0931B
:10191000E9028D8F9E8FAF8FB8A380912C038093A7
:10192000D302882311F088E089A380913603909137
:101930003703A0913803B09139038093E10290936B
:10194000E202A093E302B093E4028D8B9E8BAF8BF7
:10195000B88F80905B0390905C03A0905D03B09083
:101960005E03A50194016091DD027091DE02809119
:10197000DF029091E0020E948E3F5FA55074E52E39
:10198000811103C08FA585FF20C0FF2071F09FA5A6
:1019900097FD0BC0EE2021F040E050E0BA0102C0FC
:1019A000B501A4018F2D0E94773C80915B0390913B
:1019B0005C03A0915D03B0915E038093DD02909380
:1019C000DE02A093DF02B093E002E1100CC0809130
:1019D000DD029091DE02A091DF02B091E002898FDA
:1019E0009A8FAB8FBC8F80915F038093E5028091CB
:1019F00034039091DB02981751F0498D5A8D6B8D0D
:101A00007C8D0E94773C809134038093DB0299A106
:101A10008091DB02892B89A3F09033038091DA0255
:101A20008F15A9F080914802823029F00E942C3B4A
:101A30008F2D0E94883B80913303811103C0109247
:101A4000DA0205C09091DA02892B8093DA0299A11B
:101A50008091DA02892B89A380912A03843099F43A
:101A6000C0905303D0905403E0905503F090560378
:101A700080914802823039F00E942C3B40E0C7013F
:101A8000B6010E94F12680912F038093D6028091A7
:101A90002D038093D402A3E03A122EC0809130032C
:101AA0008093D702811108C01092680310926903D5
:101AB00010926A0310926B03C0906803D090690380
:101AC000E0906A03F0906B03A701960160912603F2
:101AD0007091270380912803909129030E948E3FE3
:101AE000882351F0C0922603D0922703E092280366
:101AF000F09229030E94C61F809131039091D80271
:101B0000981769F08093D80284E1FE013196AEEF18
:101B1000B2E001900D928A95E1F70E94C61F809174
:101B20002E038093D50280912A038632E1F138F4A6
:101B30008C3101F18E31F1F08A3069F04DC08C3575
:101B4000C1F1863609F43FC0883209F045C06AEE1B
:101B500072E087E02BC06AE373E0822D0E941435A7
:101B60008091D802281238C084E1EAE3F3E0AEEFB6
:101B7000B2E024C089A1816089A3332029F0B80193
:101B800080E693E00E94813DB8018AE393E00E94E1
:101B9000813D84E1EAE3F3E0AAEEB2E001900D9228
:101BA0008A95E1F719C06AEE72E086E00E9414356A
:101BB00013C084E1E0E6F3E0A2E1B3E001900D920E
:101BC0008A95E1F707C084E1E2E1F3E0DF011D92CD
:101BD0008A95E9F70E94C61F80912B038093D20259
:101BE000803509F47AC4B2E03B1277C4813021F425
:101BF000BE016B5E7F4F06C0811109C089A1816063
:101C000089A3B80180E693E00E94813D5DC48250C3
:101C1000823008F0F1C3209157033091580340916E
:101C2000590350915A032BAF3CAF4DAF5EAF2C968A
:101C30004FAD2C9734E0439F80011124C801865C8E
:101C40009C4F9CAB8BABDC018D909D90AD90BC907C
:101C5000F801E651FD4F2081318142815381C50158
:101C6000B4010E94993E6FA378A789A79AA7EFAD08
:101C7000B4E0EB9F100111249101265C3C4F2D969E
:101C80003FAF2EAF2D97D901CD90DD90ED90FC9018
:101C9000F101E651FD4F2081318142815381C7011D
:101CA000B6010E94993E6FAB78AF89AF9AAF24011D
:101CB000350177FA709477F87094A701960150581F
:101CC0002BA73CA74DA75EA7F801E05AFC4F2FA118
:101CD00038A549A55AA560817181828193810E94AE
:101CE000983E6B017C01F101E05AFC4F2FA938AD01
:101CF00049AD5AAD60817181828193810E94983E85
:101D00004B015C01A7019601C301B2010E94F041A1
:101D100023966CAF7DAF8EAF9FAF2397A501940143
:101D20006BA57CA58DA59EA50E94F0419B01AC01F1
:101D300023966CAD7DAD8EAD9FAD23970E94993EED
:101D400023966CAF7DAF8EAF9FAF2397A501940113
:101D5000C301B2010E94F0414B015C01A701960151
:101D60006BA57CA58DA59EA50E94F0419B01AC01B1
:101D7000C501B4010E94983E23962CAD3DAD4EADF9
:101D80005FAD23970E94183F6B017C013FA532FF96
:101D900011C02DEB37E346E055EB0E94B04187FDC3
:101DA0001BC02BED3FE049EC50E4C701B6010E9497
:101DB000983E10C02DEB37E346E055E30E948E3F7E
:101DC000181654F02BED3FE049EC50E4C701B60182
:101DD0000E94993E6B017C018090B6029090B70200
:101DE000A090B802B090B9022BAD3CAD4DAD5EAD48
:101DF000CA01B9010E94993EA50194010E94983E32
:101E0000A50194010E94F0410E948F424B015C01A8
:101E100020E030E040E05FE3C701B6010E94F041FE
:101E20002BAD3CAD4DAD5EAD0E94F0419F77A5015D
:101E300094010E94983F0E947D400E94114021968B
:101E40007FAF6EAF21976115710509F4D1CE19A14D
:101E50004B01A12CB12C13FF12C0C501B4010E948B
:101E600040409B01AC016D897E898F89988D0E94CD
:101E7000F0416D8B7E8B8F8B988F177F19A3C501D7
:101E8000B4010E9440404B015C019B01AC01C701C1
:101E9000B6010E94983F6FA778AB89AB9AAB619669
:101EA000AFAD619754E0A59FC0011124FC01E05A39
:101EB000FC4FDC01A651BD4F2D913D914D915C91A0
:101EC00060817181828193810E94983EA501940175
:101ED0000E94983F6BAF7CAF8DAF9EAF2091F60212
:101EE0003091F7024091F8025091F90260916C0331
:101EF00070916D0380916E0390916F030E94983EE4
:101F0000A50194010E94983F68966CAF7DAF8EAF9B
:101F10009FAF68972091FA023091FB024091FC023A
:101F20005091FD0260917003709171038091720372
:101F3000909173030E94983EA50194010E94983FDE
:101F40006C966CAF7DAF8EAF9FAF6C972FA538A905
:101F500049A95AA9CA01B9010E94F0419B01AC01EB
:101F600060E070E080E090E40E94983E6B017C01AC
:101F70002BEA3AEA4AE25EE36FA578A989A99AA911
:101F80000E94F0414B015C0120E030E040E850E469
:101F9000C701B6010E94993E9B01AC01C501B40185
:101FA0000E94F04127966CAF7DAF8EAF9FAF279711
:101FB00020E030E040E05FE3C701B6010E94F0415D
:101FC0002B966CAF7DAF8EAF9FAF2B9710E0222486
:101FD0002394312C2E96BFAD2E97B1706D96BFAF66
:101FE0006D972E96EFAD2E97E2706E96EFAF6E97CF
:101FF0002E96FFAD2E97F4702E96FFAF2E972F964C
:102000002FAD2F9721706F962FAF6F972F963FAD03
:102010002F973270A0963FAFA0972F964FAD2F9776
:1020200044702F964FAF2F9760965FAD60975170B9
:10203000A1965FAFA19760968FAD60978270A296D0
:102040008FAFA29760969FAD6097947060969FAF98
:1020500060972196EEADFFAD2197E215F30509F4E7
:10206000C7CD1C3008F048C02BA53CA54DA55EA5EA
:102070002B966CAD7DAD8EAD9FAD2B970E94F04140
:102080006B017C01A301920127966CAD7DAD8EADF5
:102090009FAD27970E94F041A70196010E94993EAB
:1020A0007B01082FD92EA30192012B966CAD7DAD3B
:1020B0008EAD9FAD2B970E94F0414B015C012BA58B
:1020C0003CA54DA55EA527966CAD7DAD8EAD9FADB3
:1020D00027970E94F0419B01AC01C501B4010E9409
:1020E000983E2B013C011F5FC701A02FBD2D8BA780
:1020F0009CA7ADA7BEA76CC0B10180E090E00E9494
:1021000040402FA538A949A95AA90E94F0416B0166
:102110007C010E94933F6BA77CA78DA79EA7C70158
:10212000B6010E9481424B015C01ABA9BCA9CD90D4
:10213000DD90ED90FC90F7FAF094F7F8F0942D967E
:10214000AEADBFAD2D972D913D914D915C916496B3
:102150002CAF3DAF4EAF5FAF6497A70196016BA563
:102160007CA58DA59EA50E94F0412B013C016496A3
:102170002CAD3DAD4EAD5FAD6497C501B4010E947D
:10218000F0419B01AC01C301B2010E94993E2B01B9
:102190003C01A7019601C501B4010E94F0416B0109
:1021A0007C0164962CAD3DAD4EAD5FAD64976BA5E3
:1021B0007CA58DA59EA50E94F0419B01AC01C701A5
:1021C000B6010E94983E6BA77CA78DA79EA710E042
:1021D0006D96BFAD6D97BB2381F0A30192016FA1F6
:1021E00078A589A59AA50E94993E6093EA0270930A
:1021F000EB028093EC029093ED026E96EFAD6E973A
:10220000EE2381F0A30192016FA178A589A59AA57B
:102210000E94993E6093EE027093EF028093F00269
:102220009093F1022E96FFAD2E97FF2381F0A3012C
:1022300092016FA178A589A59AA50E94993E609305
:10224000F2027093F3028093F4029093F5026F967A
:102250002FAD6F97222391F02BA53CA54DA55EA530
:102260006FA978AD89AD9AAD0E94993E6093EA025C
:102270007093EB028093EC029093ED02A0963FAD39
:10228000A097332391F02BA53CA54DA55EA56FA982
:1022900078AD89AD9AAD0E94993E6093EE0270933D
:1022A000EF028093F0029093F1022F964FAD2F979B
:1022B000442391F02BA53CA54DA55EA56FA978AD53
:1022C00089AD9AAD0E94993E6093F2027093F30239
:1022D0008093F4029093F502A1965FADA1975523E8
:1022E000B1F02BAD3CAD4DAD5EAD6091EA027091A9
:1022F000EB028091EC029091ED020E94993E609376
:10230000EA027093EB028093EC029093ED02A296A6
:102310008FADA2978823B1F02BAD3CAD4DAD5EAD36
:102320006091EE027091EF028091F0029091F102C3
:102330000E94993E6093EE027093EF028093F00248
:102340009093F10260969FAD60979923B1F02BAD09
:102350003CAD4DAD5EAD6091F2027091F3028091A3
:10236000F4029091F5020E94993E6093F2027093FC
:10237000F3028093F4029093F50268962CAD3DAD84
:102380004EAD5FAD68976091F6027091F702809153
:10239000F8029091F9020E94993E6093F6027093C0
:1023A000F7028093F8029093F9026C962CAD3DAD44
:1023B0004EAD5FAD6C976091FA027091FB02809117
:1023C000FC029091FD020E94993E6093FA02709384
:1023D000FB028093FC029093FD02BE016B5E7F4F77
:1023E0008AEE92E00E94813D8091490281116CC089
:1023F000AFEF2A1A3A0A2DCE89A1846089A3809171
:102400004802823009F460C00E942C3B809149024E
:10241000811163C0FFA5F071FF2E10924D022FA510
:1024200023FB882780F90E94212080910601807873
:1024300090911E02891749F084E00E94291F0E9492
:10244000B81D80E00E94212048C0B80180E693E0DA
:102450000E94813D81E08093470282E00E94391F03
:102460000E94B81D80914902811137C080914802B5
:102470008111F6CF80914702813081F4FF2051F025
:1024800084E1EFE1F2E0A3E3B2E001900D928A95DE
:10249000E1F707C085E00E94291F03C081E0809317
:1024A0004D021092470280E00E9421200E94B81D38
:1024B0000E94012F0E9448300E9420270E942C2356
:1024C00080914D0281118CC084E1E0E6F3E0AAEE38
:1024D000B2E001900D928A95E1F7809132038093EA
:1024E000D902882309F47FC00E942C3B8091D90235
:1024F00090914802833041F49230D1F188E00E94FB
:10250000391F0E94B81D34C081E08093D20210921E
:10251000D6021092D5021092D3021092D8021092D5
:10252000DB021092DA0284E6809353028093540215
:1025300080935502923091F06EEF72E080E00E943D
:102540000E378823E1F10E94C61F40E050E0BA0137
:1025500080E00E944E3C80E00E94883B87E393E04D
:102560000E948C218EEC92E00E948C210E942723F5
:102570001092D9022FC081E036C082E034C088E1D9
:1025800032C086E230C089E12EC084E02CC08BE1ED
:102590002AC085E228C084E126C08EE124C08FE1F4
:1025A00022C086E120C080E21EC082E21CC083E21D
:1025B0001AC084E218C080E116C08FE014C087E022
:1025C00012C084E1E0E6F3E0AAEEB2E001900D92E1
:1025D0008A95E1F780E007C01EA21FA60C9497021F
:1025E0000E94CC3C7ACFCF59DF4F0FB6F894DEBFB4
:1025F0000FBECDBFDF91CF911F910F91FF90EF9054
:10260000DF90CF90BF90AF909F908F907F906F9012
:102610005F904F903F902F900895CF93DF93CDB769
:10262000DEB769970FB6F894DEBF0FBECDBF8091BD
:10263000C00082608093C0001092C50080E180934A
:10264000C4008091C10088698093C10080E090E05F
:102650000E94C2368A3009F0FBC545E750E061E0D0
:1026600070E08DE592E00E94CA36892B09F4F0C52E
:10267000809A869A80910A01886080930A010C9A58
:10268000399A579A829A8091070181608093070155
:102690000A9A3F9A819A879A80910A018260809370
:1026A0000A010E9A3B9A809181008F7E809381006F
:1026B00080918100886080938100809180008C7F70
:1026C00080938000809180008F7080938000809143
:1026D0006E00887F80936E0014BC15BC80916E00E4
:1026E000816080936E0080910701817E8093070155
:1026F000809108018E618093080180916D008E6148
:1027000080936D0080916800846080936800809160
:10271000780381608093780388E58093A703809194
:10272000770382608093770389E58093A803809183
:1027300076038460809376038AE58093A903809171
:10274000750388608093750381E48093AA03809168
:10275000740380618093740382E48093AB0384E10B
:10276000EFE1F2E0DF011D928A95E9F7789410928B
:1027700048028091C20284FF03C081E08093480236
:1027800015E1312E02EDC02E02E0D02E80914802DC
:10279000E8E4F2E0232D11922A95E9F780934802AC
:1027A00084E680935302809354028093550284E11F
:1027B000A3E3B2E01D928A95E9F7109247021092C6
:1027C000AC031092AD031092AE031092AF03809150
:1027D000790380937A0388E5F60111928A95E9F7E7
:1027E0006EEF72E080E00E940E37811103C087E037
:1027F0000E949F210E94953C249A8091010180644F
:10280000809301010E94813B0E94E3258091070192
:102810008F77809307018091080180688093080179
:1028200080E00E94212010929100109290008091EF
:102830009100887F816080939100809191008360F6
:1028400080939100809171008E7F809371000E942F
:1028500048300E94012F0E9420270E94CC3C8DE32B
:1028600093E00E948C218091C20283FF11C00E94DC
:102870005623882369F081E08093480287E393E040
:102880000E948C2186ED92E00E948C210E942723D9
:10289000809148028178A1F087E393E00E948C2127
:1028A00081E193E00E948C210E94272381E08093A4
:1028B000480200E010E0A2E0EA2EB4E02B2E31C086
:1028C000109248020E94CB1F80FF07C08091AC038A
:1028D00080628093AC030E94B81D0E94B321E9CFAF
:1028E000E92FF0E0E752F14F80819F5F90937A03E8
:1028F0008F3FE9F08A3021F50E94B81D809149028E
:10290000811144CFE02FF0E0E152FF4E1082F12F11
:10291000F170FF2E10FF18C08BE00E949F2100E095
:1029200010E090917A03809179039813D9CF0E9497
:10293000CB1E0E94B81D80914902882391F326CFB7
:102940008D3009F05FC4D8CF8091DF10882309F45F
:1029500056C4843209F04BC421E0298F8091E010E5
:10296000833409F134F4882361F0843209F019C109
:102970001AC08A3459F08835B1F0873409F011C192
:1029800012C08DEA93E00E948C212FC480914802EE
:102990008F7D09F017C48091E1108D3309F01DC4BB
:1029A0000E945D0215C49091E110911116C4833408
:1029B00009F4BBC01CF4843239F017C4873469F0C1
:1029C000883509F4D2C011C4809148028871F82E6C
:1029D00009F0F8C30E94152208C487EA93E00E9418
:1029E0008C218091D2028C3838F083EA93E00E94E7
:1029F0008C218091D2028A580E94662184E993E05A
:102A00000E948C218091D8028A5C0E94662184E910
:102A100093E00E948C218091D6028F5E0E946621F5
:102A200084E993E00E948C218091D402332D381BDD
:102A3000832F0E94662184E993E00E948C2180917B
:102A4000D502865A0E94662184E993E00E948C2177
:102A50008091D3029EE5981B892F0E946621809168
:102A6000D902882399F087E993E00E948C21809114
:102A7000D902833029F08E3139F0823039F404C024
:102A800080E30E94683B02C00E94662187E993E0D0
:102A90000E948C218091DB02803131F0803231F054
:102AA000811107C085E303C083E301C084E30E9472
:102AB000683B87E993E00E948C218091DA028823A9
:102AC00059F087FF03C087E30E94683B8091DA02D8
:102AD00086FF05C088E301C089E30E94683B80EA65
:102AE00093E00E948C218091E5020E9466218DE98D
:102AF00093E00E948C216091E1027091E20280914A
:102B0000E3029091E4020E94CF208AE993E00E94C0
:102B10008C216091DD027091DE028091DF02909144
:102B2000E00240E00E9432200EC0809148028230D4
:102B300069F40E94D23C87E393E00E948C218EEEE0
:102B400092E00E948C210E9427234FC381113AC337
:102B5000E092480287E393E00E948C2187EF92E0A5
:102B60000E948C210E94272345C080914802813019
:102B700009F03BC30E94CB1FA82FA170FA2E80FF43
:102B800003C0FDE0FF2E31C387E393E00E948C2158
:102B90008FEF92E00E948C210E942723109248021E
:102BA00024C390914802923008F00CC3893409F490
:102BB000AAC034F4833271F0883409F45AC075C164
:102BC000823509F41CC1833509F48BC08E3409F0B9
:102BD0006CC145C18091E1108111FFC210E0BE01BE
:102BE0006F5F7F4F812F0E940E37811105C087E0F4
:102BF0000E949F21F12CF9C281E993E00E948C216F
:102C0000163029F0173041F48BE893E002C08EE8CB
:102C100093E00E948C2104C086E3810F0E9466210C
:102C20008AE30E94683BCE0101960E94ED200E943B
:102C300027231F5F183099F685E893E00E948C21C6
:102C400082E193E00E94ED200E9427238FE793E02A
:102C50000E948C21609126037091270380912803A4
:102C6000909129030E94DE200E9427230E942C239A
:102C7000BCC28091C20284FFA2C20E94CB1F80FD11
:102C800080CF209248028091E1108111A6C284E099
:102C90000E94A92388E00E94A92380E10E94A92321
:102CA00081E00E94A92382E00E94A9230E94B81D0E
:102CB00080914902811106C00E94CC3C0E942027CD
:102CC0000E94E3258091490281118FC2109248022F
:102CD0000E942F378091E110811187C20E94B32199
:102CE00089CF8091E1108C3409F077C28091E21095
:102CF000803509F072C28091E31081116EC280E8C4
:102D00000E94391F72C2E98E8091E110811159C071
:102D100040E051E06EEA73E08FED90E10E94CA3628
:102D2000892B51F41092DF1040E051E06FED70E11B
:102D30008EEA93E00E94CA348BE693E00E948C21D5
:102D40000E94D31E0E94272385E693E00E948C21D7
:102D500085E00E94662183E693E00E948C2188E54D
:102D60000E94683B89E50E94683B8AE50E94683BB7
:102D700081E40E94683B82E40E94683B0E94272312
:102D80008DE593E00E948C2186E50E94683B8EE4ED
:102D90000E94683B8DE40E94683B8CE20E94683B85
:102DA00083E20E9466218CE20E94683B8FEF0E94C2
:102DB00066218CE20E94683B8091C2020E946621DB
:102DC000C2CEB3E0B98F8D3309F007C283E0282F5C
:102DD00030E0F901E152FF4E9081D901A452BF4E7B
:102DE0009C938F5F90819111F2CF898F40E051E0E9
:102DF0006FED70E18EEA93E00E94CA34F6C18091D3
:102E0000E110833509F0E9C18091E210843509F0C1
:102E1000E4C18091E3108D3309F0DFC18091E510AA
:102E20008111DBC18091E410843239F08A3239F0AB
:102E3000833209F0D2C182E003C081E001C08FEF8C
:102E40000E94283587E393E00E948C218BEB92E06F
:102E50000E948C210E9427230E94D23CC6C1E98E89
:102E60008091E11081111DC010E0812F0E94E01EB1
:102E7000811104C087E00E949F210EC08AE593E083
:102E80000E948C21812F0E9466218DE30E94683B65
:102E90000E94D31E0E949B211F5F123009F4A5C11E
:102EA000E4CF91118FC111E001C010E0BE016B5E53
:102EB0007F4FCE0149960E94E43D811103C0E2E0BC
:102EC000FE2E93C1E98D81E08E0F898FF0E0E152F3
:102ED000FF4E90819D3309F080C11123B9F1482F35
:102EE00050E0282F30E0F901E152FF4E9081241B81
:102EF000350BD901A152BF4E9C938F5F90819111E8
:102F0000F0CF898F813508F060C10E945D02811188
:102F10005FC16D897E898F89988D0E94D3422B0174
:102F20003C010E942C3BC301B2010E941140E1E030
:102F3000F1E06E9FC0016F9F900D112440E051E0C1
:102F40006FED70E19D5F0E94CA3454CEBE016F5F89
:102F50007F4FCE0149960E94E43D882309F4AFCF0C
:102F6000E98DF0E0E152FF4E8081811136C18D88FC
:102F70009E88AF88B88C20E030E04FE753E4C5016D
:102F8000B4010E94B04118160CF427C149805A8040
:102F90006B807C80C501B4010E941140062F20E0A7
:102FA00030E0A901C301B2010E948E3F87FD12C12A
:102FB000043608F441C0045680E00530A0F510E066
:102FC000000F111F000F111F823079F0F8018330BC
:102FD00019F1813019F0E35AFD4F02C0EF58FD4F4F
:102FE0004082518262827382E7C00B571D4F20E0FE
:102FF00030E040E752E4C301B2010E94F04120E01A
:1030000030E040E752E40E94F041D8016D937D9397
:103010008D939C931397D0C0E756FD4F77FA709429
:1030200077F87094DDCF8F5F0A3008F4D6C0843013
:1030300009F4D3C00A50C1CFC301B2010E94D342E8
:103040000E94114010E00132110508F0C6C0F801DD
:103050008827EF57FF4F8F4F0C943B43633008F4A2
:10306000BFC06093AD02A8C06093B002A5C06093DA
:10307000AE0202C06093AF020E94B62E9DC0809146
:10308000C202662311F0846095C08B7F93C080914B
:10309000C202662311F080648DC08F7B8BC080914B
:1030A000C202662311F0806801C08F778093C2024C
:1030B00080E00E94212080C06093B1027DC04092D8
:1030C000B2025092B3026092B4027092B50274C020
:1030D0004092B6025092B7026092B8027092B90262
:1030E0006BC08091C202662311F0816001C08E7FA7
:1030F0008093C2020E94C61F5FC08091C2026623F5
:1031000021F084FF70C0806255C08F7D53C08091D4
:10311000C202662311F0886001C0877F8093C202DB
:103120000E94E32549C08091C202662311F08061AC
:1031300041C08F7C3FC06093C3023EC04092C40236
:103140005092C5026092C6027092C70235C040928A
:10315000C8025092C9026092CA027092CB022CC07F
:1031600070E07093CD026093CC0226C04092CE02F4
:103170005092CF026092D0027092D1021DC0409254
:10318000BA025092BB026092BC027092BD0208C0AB
:103190004092BE025092BF026092C0027092C10281
:1031A0000E94953C09C08091C202662311F08260A2
:1031B00001C08D7F8093C2020E94073516C065E072
:1031C000F62E13C058E0F52E10C04EE0F42E0DC0C0
:1031D000F82E0BC034E0F32E08C023E0F22E05C019
:1031E00096E0F92E02C08AE0F82E8F2D08C080915B
:1031F0004802817211F089E090CB0E945D020E942A
:10320000AB218DCB112329F0893209F08ACB1D7FA8
:1032100088CB813208F485CB8F3209F482CB883297
:1032200089F08B3389F00F3F89F0202F30E00F5F5A
:103230009FE9980FF901E152FF4E9A3108F480524C
:1032400080836FCB12E06DCB14E06BCB11E069CBC8
:1032500087E00E949F218FEF0E9428350E9415224F
:1032600007CA3F924F925F926F927F928F929F9286
:10327000AF92BF92CF92DF92EF92FF920F931F9384
:10328000CF93DF93CDB7DEB7EC970FB6F894DEBFE0
:103290000FBECDBF1091AD03112391F181E080935A
:1032A000480287EF93E00E948C21812F0E946621C3
:1032B0000E949B2185EF91E0019739F0EFE9FFE053
:1032C0003197F1F700C00000F7CF1150123030F005
:1032D0008FB7F8941092AD038FBF12C087E393E0CD
:1032E0000E948C2185E293E00E948C210E9427237A
:1032F00080E10E942F1F8091AC0384FFFCCFE8CFB8
:103300001091AC03112309F407C314FF04C081E03A
:103310008093490215C410FF0BC284E1EFE1F2E093
:10332000DE01999601900D928A95E1F7BE01675DE5
:103330007F4FCE0145960E948A1F8CE30E94683B16
:10334000809148028830E1F058F4813099F1A8F07A
:10335000823099F1843009F043C087E494E03EC0A4
:10336000803229F118F4803171F03AC0803441F193
:103370008038B1F58FE294E031C08AE594E02EC048
:1033800086E594E02BC080914A0287FD10C080E55D
:1033900094E00E948C2180914A0280FF06C080E365
:1033A0001AC082FF17C085FFFACF81E314C08CE4F6
:1033B00094E014C081E494E011C08BE394E00EC06B
:1033C00085E394E00E948C2180914A0283FFE9CF3B
:1033D00083E301C082E30E94683B02C00E948C210B
:1033E0008091B102F82FF170BF2E80FF07C080914D
:1033F0005802882319F088E294E053C040902603D5
:103400005090270360902803709029034EEF842E7C
:1034100042E0942E9E012F5F3F4F7901CE014596E9
:103420006C0101E0F40161917191819191914F01E1
:1034300020893189428953890E94993EF70160832E
:10344000718382839383033099F4A30192010E94D4
:10345000993EF7016083718382839383BB2051F08F
:1034600094E0E90EF11C0F5FE4E0CE0ED11CDACF40
:10347000B11011C0F7012081318142815381F601E1
:1034800060817181828193810E94983EF601608300
:10349000718382839383053019F7B110ACCF81E239
:1034A00094E00E948C21CE0145960E94ED208091EF
:1034B000B10281FF21C08CE194E00E948C219091A7
:1034C000D80E80918F05981710F08D5D01C0815046
:1034D000891B0E9466218CE20E94683B80917A03DE
:1034E00090917903981720F0981B892F809502C03E
:1034F0008150891B0E9466210E9438300097F9F0A4
:10350000FC01C68CD78CE0A0F1A0C114D104E10469
:10351000F104A9F087E194E00E948C21F7FE0BC032
:103520008DE20E94683B66277727CB016C197D09E5
:103530008E099F0902C0C701B6010E94062182E1DF
:1035400094E00E948C21809148028C7749F0609130
:103550006E0570916F05809170059091710503C0A3
:1035600060E070E0CB010E94CF208CE20E94683BBB
:103570006091590270915A0280915B0290915C02B5
:1035800040E00E9432200E945623082F0E94CB1F49
:10359000F82E80910601982F907880911E02E92ED6
:1035A000E826802F8F298E29D1F18DE094E00E94AA
:1035B0008C21EE2019F080E50E94683B0023C9F0C1
:1035C00000FF03C088E50E94683B01FF03C089E556
:1035D0000E94683B02FF03C08AE50E94683B03FF2C
:1035E00003C081E40E94683B04FF03C082E40E94A0
:1035F000683BFF20A1F0F0FE03C084E40E94683B1A
:10360000F1FE03C082E50E94683BF2FE03C088E43D
:103610000E94683BF3FE03C083E50E94683B8091F3
:103620005802882321F081508093580218C080915D
:1036300048028C7711F08DE101C089E08093580237
:1036400080915702811103C081E08093570287E087
:1036500094E00E948C21CE0101960E94ED20809181
:103660005702882321F081508093570259C08091DE
:1036700048028C7711F083E101C089E08093570202
:1036800082E094E00E948C21809153020E94662186
:103690008CE20E94683B809154020E9466218CE279
:1036A0000E94683B809155020E94662184B3082FD6
:1036B000007285FF0BC08091A000082F087083FF67
:1036C00005C0739B02C002E001C001E085B1FF2488
:1036D000F394982F907184FFF12C8091020186FF62
:1036E00004C0FF2DF260FF2E04C0011102C0992317
:1036F000B9F08EEF93E00E948C21002339F0013065
:1037000011F483E501C083E40E94683BF0FE03C02E
:1037100086E40E94683BF1FE03C08DE40E94683B92
:103720008EE30E94683B0E949B2181E00E942F1F34
:10373000812F887E09F467C080914802982F93708A
:1037400009F050C08872A1F080914A02807C81F417
:103750000E94922E82E080934C0280914802803237
:1037600039F417FDEBC180914A02806880934A02C8
:1037700080914802811103C091E090934A0216FFA4
:1037800007C085FD05C090914A02906490934A025B
:1037900013FF05C0807E19F480E18093480215FF75
:1037A00021C087E393E00E948C2183EE92E00E9487
:1037B0008C210E94272380914A0287FD0EC09091A0
:1037C0004802903439F483FFB5C1837E82608093D0
:1037D0004A02B0C1903809F0ADC180914A028062BE
:1037E00080934A0217FF0CC080914802813029F46F
:1037F00080914A02856080934A0280E88093480263
:1038000088EE0E942F1F11FF44C0812F8876F1F5AA
:1038100080914802803471F480914A0285FD0AC08B
:1038200084FF03C01092480205C082FF03C0886075
:1038300080934A0280914802882381F084FF26C049
:1038400090914A0290FF22C0803141F4809156024B
:10385000882321F088608093560218C010924C0291
:103860000E943830892B71F080914A0286FD0AC08F
:1038700010924A0288E0809348020E9431270E94F9
:10388000F53A04C010924A021092480282E00E9467
:103890002F1F12FF41C080914802807D90914A0203
:1038A0008823D9F080914B02811117C097FD15C074
:1038B0000E94922E80918F0580938D050E94593031
:1038C00080914C0281FF05C090914A0291609093D3
:1038D0004A02897F80934C021CC097FF0AC0109255
:1038E0004C020E9448300E94012F0E94CC3C0E9452
:1038F000202780914A0285FF08C08F7781608093DE
:103900004A0280E48093480204C010924A02109256
:10391000480284E00E942F1F9091AE03992309F47E
:10392000ABC08FB7F8941092AE038FBF4091530293
:1039300090FD02C0842F01C084E691FD865F92FD58
:103940008A5093FD8F5F94FD8150893C08F088EC8C
:103950008A3008F48AE03091540295FD02C0232F8A
:1039600001C024E696FD22E397FD29E1481303C038
:10397000231709F481C080935302209354021092BC
:10398000570210918F053090D80E89E9D82E96E70E
:10399000E92E26E9F22E0EE732E4432E131509F440
:1039A00057C0812E912C489CC001499C900D112438
:1039B0009C0120573A4F5901C9010E94C52F562E2C
:1039C000672E782EC92E2D2D3E2D4F2D502F0E9463
:1039D000B04118164CF42D2D3E2D4F2D502F6D2D2E
:1039E0007E2D8F2D902F08C0252D362D472D5C2D37
:1039F000652D762D872D9C2D0E94F041F50166A343
:103A000077A380A791A7489CC001499C900D1124E1
:103A10009C0120573A4F7901F90182A893A8A4A8E4
:103A2000B5A8A501940166A177A180A591A50E94E2
:103A3000B04118162CF4F70186A297A2A0A6B1A651
:103A40001F5F143209F410E0D52C73010C2DA6CFA2
:103A50008D2D9E2DAF2DB02F8093A3039093A403A3
:103A6000A093A503B093A6030E94922E80918F0588
:103A700080938D050E9459309091AF03992309F4EA
:103A800052C08FB7F8941092AF038FBF20915502A8
:103A900090FD02C0822F01C084E691FD865F92FDF9
:103AA0008A5093FD8F5F94FD8150893C08F088EC2B
:103AB0008A3008F48AE0281749F020914C022860E7
:103AC00020934C0280935502109257028091480235
:103AD00095FF0DC0803159F420915602211102C08A
:103AE00022E003C020FF03C0246020935602292F48
:103AF000207CC9F0882311F08871A9F01091DA02B6
:103B000097FF05C017FF02C01F7701C0106896FF1E
:103B100005C016FF02C01F7B01C01064812F0E94E8
:103B2000883B1093DA02809148028C7F49F00E9412
:103B3000312706C080E4809348024FCE80E21FCE3A
:103B4000EC960FB6F894DEBF0FBECDBFDF91CF91DC
:103B50001F910F91FF90EF90DF90CF90BF90AF90AB
:103B60009F908F907F906F905F904F903F900895BF
:103B7000CF92DF92EF92FF921F93CF93DF930E9439
:103B8000311980914A02882309F4FDC00E9438301F
:103B9000009771F4C091DB028091DA02C82BC090CB
:103BA000DD02D090DE02E090DF02F090E00207C07C
:103BB000FC01C58DFE96C080D180E280F3808091AB
:103BC000C20281FF03C080E20E94171FDC2FD07366
:103BD00011E0C07480914A02882309F4D4C0909106
:103BE00049029111D0C080FFCBC090914802292F8B
:103BF000207C09F47AC082FD12C01092560240E087
:103C000050E0BA0180E00E944E3C80E00E94883B78
:103C100080914A028D7F846080934A02B1C09038BF
:103C2000E1F487E393E00E948C2180EA92E00E9415
:103C30008C210E94272340E050E0BA0180E00E94DE
:103C40004E3C80E00E94883B0E942F3780914902C1
:103C5000811199C00E943119F9CF903449F40E9422
:103C6000CB1F80FD05C080914A028F7D80934A0260
:103C700080914A0283FF84C09091DB029923C1F0B6
:103C800081FD16C08091C20281FF06C080914C0266
:103C9000886080934C020CC0B701A6018D2F0E9452
:103CA0004E3C41E060E070E080E890E40E94F12644
:103CB0008091DA02882371F080914A0281FD0AC066
:103CC0008C2F0E94883B41E060E070E080E89FE339
:103CD0000E94F12680914A0281FD52C0806180934A
:103CE0004A0282E00E94391F4BC08091560288230D
:103CF000C9F181FF0DC08091DB028823B1F040E063
:103D000050E0BA0180E00E944E3C1093560238C049
:103D10008C70B1F18091DB0281110AC08091560252
:103D200083FF03C082E00E94391F1092560228C010
:103D300087E393E00E948C2189EA92E00E948C2123
:103D40000E9427238091C20281FF06C080914C020D
:103D5000886080934C02E2CFB701A6018D2F0E94AC
:103D60004E3CDCCF80914C0283FF0AC0B701A60114
:103D70008D2F0E944E3C80914C02877F80934C0295
:103D80000E94311927CFDF91CF911F91FF90EF90C3
:103D9000DF90CF9008950E943830892B19F082E08F
:103DA0000C94391F0895CF93DF93CFEDD0E1899123
:103DB000882319F00E94683BFACFDF91CF910895D4
:103DC000CF93DF9321E031E0482F429FC001439F12
:103DD000900D1124EC01DD5F40E051E0BE018FED5C
:103DE00090E10E94CA36892B69F41092DF100E947C
:103DF0002C3B40E051E06FED70E1CE010E94CA34EF
:103E000080E001C081E0DF91CF9108951F920F9271
:103E10000FB60F9211248F938091B0038F5F809320
:103E2000B0038F910F900FBE0F901F9018959FB702
:103E3000F8942091AF03822B8093AF039FBF089526
:103E40009FB7F8942091AE03822B8093AE039FBF5F
:103E500008959FB7F8948093AD039FBF08952FB73F
:103E6000F8949091AC03809589238093AC032FBF85
:103E700008959FB7F8942091AC03822B8093AC03F4
:103E80009FBF08958F929F92AF92BF92CF92DF9281
:103E9000EF92FF920F931F93CF93DF93C9E9D2E084
:103EA0008C01C990D990E990F99020E030E0A90107
:103EB000C701B6010E948E3F8823B1F0F8018080CF
:103EC0009180A280B38020E030E0A901C501B40157
:103ED0000E94B041181684F0A5019401C701B601F3
:103EE0000E94B041181644F00C5F1F4FF2E0CD3A2B
:103EF000DF07B9F680E001C081E0DF91CF911F912B
:103F00000F91FF90EF90DF90CF90BF90AF909F9078
:103F10008F9008958F929F92AF92BF92CF92DF922F
:103F2000EF92FF920F931F93CF93DF93EB012DE559
:103F3000E22E22E0F22E8C016B0184E1C80ED11C2E
:103F40006991799189919991F70181909190A190CE
:103F5000B1907F010E944240A50194010E94983FC8
:103F6000F80161937193819391938F01CC15DD05D5
:103F700039F7DF91CF911F910F91FF90EF90DF9074
:103F8000CF90BF90AF909F908F9008950E942C3B50
:103F900010925802089520910601822F8E7169F0C7
:103FA00024FB882780F991E0892721FF826022FF86
:103FB000846023FD03C08860089580E008951F9207
:103FC0000F920FB60F9211240BB60F922F933F93BF
:103FD0004F935F936F937F938F939F93AF93BF9311
:103FE000EF93FF930E94CB1F8823C1F081FF03C092
:103FF0000E94D23C13C083FF04C08091AC03826056
:104000000BC082FF04C08091AC03886005C080FFB4
:1040100005C08091AC0380628093AC03FF91EF9167
:10402000BF91AF919F918F917F916F915F914F91D0
:104030003F912F910F900BBE0F900FBE0F901F90CE
:10404000189510921E029091C20297FD03C090E84D
:1040500090931E02882329F080911E02805880933D
:104060001E0208958F929F92AF92BF92CF92DF92DD
:10407000EF92FF920F931F93CF93DF93CDB7DEB7ED
:104080002D970FB6F894DEBF0FBECDBF6B017C013C
:10409000042F20E030E0A9010E948E3F87FF07C077
:1040A0008DE20E94683BF7FAF094F7F8F094102F35
:1040B000123060F020E030E048EC52E4C701B60175
:1040C0000E94F0416B017C011250F2CF00FF0AC048
:1040D00020E030E040E251E4C701B6010E94F04127
:1040E0006B017C0120E030E040E05FE3C701B601F6
:1040F0000E94993E0E940A4010E03AE0832E912CE3
:10410000A12CB12C611571058105910591F0EE246A
:10411000E394F12CEC0EFD1EE10EF11CA5019401BF
:104120000E941943605DF7016083B901CA011F5FF6
:10413000E9CF80E3101748F4E1E0F0E0EC0FFD1F59
:10414000E10FF11D80831F5FF5CF101313C0FE0137
:10415000E10FF11D80E381831F5F0CC0101303C0CA
:104160008EE20E94683BFE01E10FF11D80810E94FA
:10417000683B11501111F2CF2D960FB6F894DEBFA7
:104180000FBECDBFDF91CF911F910F91FF90EF90A8
:10419000DF90CF90BF90AF909F908F900895209127
:1041A000C20220FF08C02BE832E441E25DE30E9436
:1041B000F04141E001C040E00C9432202091C20265
:1041C00020FF08C02BE832E441E25DE30E94F041A9
:1041D00044E001C043E00C9432200F931F93CF932F
:1041E0008C01C0E0F80161917191819191918F01F1
:1041F0000E94DE20C43019F08CE20E94683BCF5F41
:10420000C53081F7CF911F910F9108958F929F92A2
:10421000AF92BF92EF92FF921F93CF93DF93CDB7F0
:10422000DEB72A970FB6F894DEBF0FBECDBF61157B
:1042300071058105910591F480E32A960FB6F894F3
:10424000DEBF0FBECDBFDF91CF911F91FF90EF90EA
:10425000BF90AF909F908F900C94683B20E04AE015
:10426000842E912CA12CB12C11E0120FEE24E3949A
:10427000F12CEC0EFD1EE20EF11CA50194010E9432
:104280001943F7016083B901CA01212F6115710536
:104290008105910549F7112349F0FE01E10FF11D58
:1042A0008081805D0E94683B1150F5CF2A960FB641
:1042B000F894DEBF0FBECDBFDF91CF911F91FF906D
:1042C000EF90BF90AF909F908F900895CF93DF9322
:1042D000843630F06AE00E94F942C0E3C90F03C09F
:1042E000C0E08A3030F06AE00E94F942D0E3D90F92
:1042F00001C0D0E0805D0E94683BDD2319F08D2F66
:104300000E94683BCC2329F08C2FDF91CF910C9435
:10431000683BDF91CF910895CF93DF93FC018491A7
:10432000EF012196882321F00E94683BFE01F7CF20
:10433000DF91CF9108958FE594E00C948C21CF9379
:10434000C82F88E694E00E948C218C2F0E94662161
:10435000CF910C949B21811104C08FE694E00C94C2
:104360008C210C949F21CF93DF93C0E08C2F0E946F
:10437000E01E81110EC01092DF108EE30E94683B98
:104380000E94D31E8AE30E94683B87E00E949F211F
:1043900012C08091DF10882371F00E945D02D82F37
:1043A0008EE30E94683B0E94D31E8AE30E94683B12
:1043B0008D2F0E94AB21CF5FC230C1F6DF91CF912C
:1043C0000895CF92DF92EF92FF92CF93DF93D82F91
:1043D0006A017B01C22F84E20E94683B8D2F0E94FC
:1043E00066218DE30E94683B4C2FC701B6010E94F5
:1043F0003220DF91CF91FF90EF90DF90CF900C941F
:104400009B21CF93DF93D82FC62F84E20E94683B75
:104410008D2F0E9466218DE30E94683B8C2F0E94A5
:104420006621DF91CF910C949B21EF92FF920F9325
:104430001F93CF93DF936091AD0270E080E00E9404
:1044400001226091B00270E081E00E94012260913F
:10445000AE0270E082E00E9401226091AF0270E043
:1044600083E00E9401226091C20262FB662760F92C
:1044700070E084E00E9401226091C20266FB662720
:1044800060F970E085E00E9401228091C202082E4E
:10449000000C990B692F661F6627661F70E086E087
:1044A0000E9401226091B10270E08AE00E94012224
:1044B0004091B2025091B3026091B4027091B50282
:1044C00023E08BE00E94E1214091B6025091B702B7
:1044D0006091B8027091B90223E08CE00E94E12162
:1044E0006091C202617070E08DE00E9401226091D3
:1044F000C20265FB662760F970E084E10E94012238
:104500006091C20263FB662760F970E085E10E945A
:1045100001226091C2026295617070E086E10E94A2
:1045200001226091C30270E087E10E940122409164
:10453000C4025091C5026091C6027091C70223E087
:1045400088E10E94E1214091C8025091C902609126
:10455000CA027091CB0223E089E10E94E1216091BF
:10456000CC027091CD028AE10E9401224091CE02DC
:104570005091CF026091D0027091D10223E08BE183
:104580000E94E1214091BA025091BB026091BC02AD
:104590007091BD0220E08EE10E94E1214091BE02B7
:1045A0005091BF026091C0027091C10220E08FE182
:1045B0000E94E1216091C2026695617070E080E224
:1045C0000E940122D4E6F12C0DE512E085E0E82EF0
:1045D000ED0ECD2F82E0F81691F0E3E0FE16E9F043
:1045E000F1E0FF1631F0F801408151816281738161
:1045F0001AC0F801448955896689778914C020E07A
:1046000030E041E655E4F80160A571A582A593A5C7
:104610000E94983FAB01BC0106C0F80144AD55AD06
:1046200066AD77AD705823E08C2F0E94E1210C5FBE
:104630001F4FCF5FEC12CECFD65FF394DC3821F65C
:10464000DF91CF911F910F91FF90EF9008958DE52D
:104650000E94683B0C949B21CF93DF93CDB7DEB7CC
:1046600064970FB6F894DEBF0FBECDBF82E694E02C
:104670000E948C2163E372E0CE0101960E948A1FA2
:10468000CE0101960E94ED208AE30E94683B809152
:104690004D020E9466210E94272364960FB6F8946B
:1046A000DEBF0FBECDBFDF91CF910895CF92DF92D5
:1046B000FF920F931F93CF93DF9384E1C82E82E084
:1046C000D82EAFE0B2E0C5E0D2E000E012E020E09A
:1046D00030E080E041E050E0922FF601619171916D
:1046E0006F01FB01F080BA010D9002C0660F771FC9
:1046F0000A94E2F76F2139F4BA01022E01C0660F65
:104700000A94EAF7862B69917991FB01F080F80110
:10471000BA01019002C0660F771F0A94E2F78F0179
:104720006F2131F4BA0101C0660F9A95EAF7862B22
:104730002F5F3F4F2530310579F69091C20296FDEB
:104740008095DF91CF911F910F91FF90DF90CF90D7
:1047500008952F923F924F925F926F927F928F9225
:104760009F92AF92BF92CF92DF92EF92FF920F9300
:104770001F93CF93DF93CDB7DEB7E9970FB6F894C9
:10478000DEBF0FBECDBF90914902911103C28DAB28
:10479000FE0175968DE0DF011D928A95E9F786E0AE
:1047A00089A3EDE5F2E0FFA7EEA75F019E012E5D74
:1047B0003F4F490100E010E0C12CD12C76019DA9AA
:1047C000892F90E09CAB8BAB802F002341F0013010
:1047D00041F0033041F0043041F098E007C091E02F
:1047E00005C090E403C090E101C092E0D4019D9324
:1047F0004D01EBA9FCA902C0F595E7958A95E2F772
:10480000E0FF1BC020E030E040EC5FEBD501DC9620
:104810006D917D918D919C91DF970E94F041362E94
:10482000472E582E692EA70196010E948E3F87FDC4
:1048300004C0C32CD42CE52CF62C0F5F1F4FB4E022
:10484000AB0EB11C0530110509F0BECF2090C80297
:104850003090C9024090CA025090CB0234E0A32E9F
:10486000BB24B394FE01BC96FDA7ECA76FE172E0F8
:10487000CE0101960E948A1F8091C302282F30E04A
:104880003FAB2EAB28E4822E22E0922EFE01319621
:104890008FE192E09AAB89AB8C01DE0192963D01EB
:1048A0009E01295D3F4F39AF28AF20E030E018AAC4
:1048B000B701A6017058A8ADB9AD1C928BA99CA9EF
:1048C000022E02C0959587950A94E2F780FF29C0D1
:1048D000B8A9BF5FB8ABD8011D921D921D921C9262
:1048E00013978EA99FA9022E02C0959587950A94C9
:1048F000E2F780FF03C0BB2019F007C0BB2029F0FE
:10490000C082D182E282F38204C0408351836283F9
:104910007383D3018C91A8ADB9AD8C93D401169655
:104920008C932F5F3F4F88AD99AD019699AF88AFBB
:104930009FEF691A790AAFEF8A1A9A0A34960C5FC8
:104940001F4F2530310509F0B6CFB8A96B2F70E0A5
:1049500080E090E00E9440400E948F429B01AC01A9
:10496000C201B1010E94F0416D8B7E8B8F8B988FBD
:10497000BE016B5E7F4FCE0101960E94A131E4E043
:10498000E0934C020E9431270E94F53AB11008C012
:104990000E9431278091AC03847309F456C02EC065
:1049A0000E9456239EE4C92E92E0D92EFE01B796AE
:1049B000AE014E5D5F4F20E030E090E0BF01F0803F
:1049C000DA01ED90AD011F2D1E2161F08C01022E48
:1049D00002C0159507950A94E2F700FF03C0E09422
:1049E000FE20F0823196DB016C91D6016D936D0152
:1049F0002F5F3F4F2530310509F7CACF1091AC0327
:104A000014FF03C086E00E94291F15FF03C087E042
:104A10000E94291FB11007C00E945623BDA98B23F5
:104A200039F088E003C012FF03C089E00E94291F0B
:104A30008091AD03882329F00E94D23C0E94B81DCA
:104A4000A9C084E00E942F1F0AC0FE01B796819181
:104A500081119CCF2CA53DA52E173F07C1F70E94C1
:104A6000012F0091CC021091CD020115110549F0E2
:104A70008FE99FE00197F1F700C000000150110994
:104A8000F4CF91E0B926C9F020E030E040EA50E4EC
:104A90006091CE027091CF028091D0029091D102AC
:104AA0000E94F0416B017C012090C4023090C5024D
:104AB0004090C6025090C70210C0C090CE02D09065
:104AC000CF02E090D002F090D1022090C802309046
:104AD000C9024090CA025090CB02AA94A110C6CE3F
:104AE000E090C302F12C8090CE029090CF02A09073
:104AF000D002B090D1022401350177FA709477F892
:104B000070948BA99CA9002E02C0959587950A9454
:104B1000E2F780FF2CC0C701002E02C09595879553
:104B20000A94E2F7AEA5BFA580FF11C0DC962D91D7
:104B30003D914D915C91DF97C501B4010E94993E72
:104B4000EEA5FFA5208131814281538106C02D91C0
:104B50003D914D915C91C301B2010E94F0410E94D0
:104B6000BD41E9A9FAA960837183828393830F5FB2
:104B70001F4F29A93AA92C5F3F4F3AAB29AB8EA50D
:104B80009FA504969FA78EA70530110509F0B9CF00
:104B900010924C02E9960FB6F894DEBF0FBECDBF5F
:104BA000DF91CF911F910F91FF90EF90DF90CF9009
:104BB000BF90AF909F908F907F906F905F904F903D
:104BC0003F902F9008956D98E4E0F1E080818D7F13
:104BD00080835398AAE0B1E08C918F778C938C916D
:104BE0008F7D8C936C9880818E7F8083529899986A
:104BF0008598759AE5E0F1E08081826080835B9A18
:104C0000ABE0B1E08C9180688C938C9180628C9346
:104C1000749A8081816080835A9AA19A8D9A0895AE
:104C20006F927F928F929F92AF92BF92CF92DF92BC
:104C3000EF92FF920F931F93CF93DF93EB018C01C1
:104C40005B0184E1A80EB11C89E9682E96E7792EF4
:104C500026E9822E3EE7932EC990D990E990F990EB
:104C600020E030E0A901C701B6010E948E3F8823F1
:104C7000B9F0A7019601F801608171818281938169
:104C80000E94983F6B017C01E894F7F89301A4011E
:104C9000C701B6010E94B041181614F03601470151
:104CA0000C5F1F4FCA15DB05B9F6B301C401DF91D4
:104CB000CF911F910F91FF90EF90DF90CF90BF9019
:104CC000AF909F908F907F906F9008952F923F921A
:104CD0004F925F926F927F928F929F92AF92BF920C
:104CE000CF92DF92EF92FF920F931F93CF93DF93B8
:104CF000EC018C0187EAA82E83E0B82E4E01C12C6E
:104D0000D12C7601312CE7EAF3E080E0831539F00D
:104D10002191D5019C91291721F08F5FF7CF212C8C
:104D200002C022242394F40141905190619071902B
:104D30004F0120E030E0A901C301B2010E948E3F83
:104D4000882381F021100EC0A3019201C301B2019A
:104D50000E94F0419B01AC01C701B6010E94993E3F
:104D60006B017C013394FFEFAF1ABF0A85E0381264
:104D7000CACFC701B6010E948F426B017C019B0123
:104D8000AC0160E070E080E89FE30E94983F4B0137
:104D90005C016496A5019401D8016D917D918D917E
:104DA0009C910E94F041F8016193719381939193DA
:104DB0008F01CE17DF0771F7C701B601DF91CF91E1
:104DC0001F910F91FF90EF90DF90CF90BF90AF9029
:104DD0009F908F907F906F905F904F903F902F901B
:104DE00008951F93CF93DF93142F20E030E040EA23
:104DF00051E40E94F0410E94773F0E941140EB0174
:104E00002097D1F080914902811116C0111103C081
:104E10000E94B81D06C00E94311980914A0281FD8E
:104E20000BC02FEF80E792E0215080409040E1F7E7
:104E300000C000002197E4CFDF91CF911F9108952A
:104E4000EFE1F2E0ABE7B3E04191519161917191F3
:104E50004D935D936D937D9382E0E333F807A1F763
:104E600008952F923F924F925F926F927F928F920E
:104E70009F92AF92BF92CF92DF92EF92FF920F93E9
:104E80001F93CF93DF93CDB7DEB7ED970FB6F894AE
:104E9000DEBF0FBECDBF80914C0280FD2AC790912E
:104EA000F70380918805981709F423C780918B0533
:104EB00090918C05892B09F017C310914C0212FFB9
:104EC00009C08091D80E22E4289FC0011124805788
:104ED0009A4F02C00E94383090938C0580938B05C6
:104EE00020908B0530908C052114310409F401C702
:104EF00000915805802F817000FF03C01092580563
:104F0000F6C0909157059F5F993009F0892F8093E3
:104F10005705E82EF12C4EE14E9D90014F9D300D2E
:104F20001124275B3B4F30938A0520938905F101BB
:104F300078965EE1859FC0011124875B9B4F20E03E
:104F400030E04191DC01A20FB31F58964C932F5FC4
:104F50003F4F25303105A9F7F10120E030E04191C4
:104F6000519161917191DC01A20FB31F689412F805
:104F7000440F551F661F771F1694D1F74D935D930D
:104F80006D937C9313972C5F3F4F2431310539F794
:104F90008EE18E9DF0018F9DF00D11249F01275B06
:104FA0003B4FF10184899589A689B78943E0880F31
:104FB000991FAA1FBB1F4A95D1F7F901848B958BC6
:104FC000A68BB78BD10154966D917D918D919C915B
:104FD00057970E94404060935D0570935E058093F3
:104FE0005F0590936005F10126A537A540A951A959
:104FF0000E94983F9B01AC0160936105709362052C
:10500000809363059093640560E070E080EA9FE31D
:105010000E94983F609365057093660580936705CD
:10502000909368051092590510925A0510925B05ED
:1050300010925C0511FD02C003FF1FC06091760550
:1050400070917705809178059091790560936E0550
:1050500070936F0580937005909371059B01AC016F
:105060000E94F041D10192966D937D938D939C9314
:105070009597077F009358050FC0F10162A173A1B6
:1050800084A195A10E948F4260936E0570936F0575
:105090008093700590937105FEE1FE9DC001FF9D18
:1050A000900D11249C01275B3B4F7901D9015D963E
:1050B0001C928091C20281FF1AC0F101858D85FF8B
:1050C00016C022AD33AD44AD55AD60E070E080E870
:1050D0009FE30E94983F60938205709383058093BD
:1050E000840590938505E1E0D7015D96EC931092DD
:1050F0006A0510926B0510926C0510926D05D10136
:105100009A962D913D914D915C919D9729833A837B
:105110004B835C8360E070E080E09FE30E94983FF7
:105120006D837E838F839887F10146A457A460A87E
:1051300071A882A093A0A4A0B5A011FF44C0F2E082
:10514000F0936905A50194010E94F0419B01AC0117
:10515000C301B2010E94983E6B017C0120E030E067
:10516000A9010E948E3F87FF1DC029813A814B8192
:105170005C81CA01B9010E94993EA30192010E947B
:10518000F0419B01AC01C501B4010E94983E0E9410
:105190008F4260937605709377058093780590939E
:1051A00079059FC1C0926A05D0926B05E0926C05AB
:1051B000F0926D05109276051092770510927805A1
:1051C000109279058EC11092690540927A0550922D
:1051D0007B0560927C0570927D0512FF0CC01092D9
:1051E0007605109277051092780510927905C12CFA
:1051F000D12C760124C0E0918F05EF5FE43209F4F1
:10520000E0E08091D80E8E1759F022E42E9FF00135
:105210001124E057FA4FC2A0D3A0E4A0F5A003C028
:10522000C12CD12C7601C701B6010E948F42609338
:105230007605709377058093780590937905C10181
:105240000E94C52F698B7A8B8B8B9C8B9B01AC0149
:105250000E94F04169877A878B879C87A50194011A
:105260000E948E3F87FF6CC029853A854B855C85FF
:10527000C501B4010E94983E2D813E814F81588521
:105280000E94F0419B01AC01C301B2010E94983E13
:1052900060937A0570937B0580937C0590937D05E0
:1052A00020E030E0A9010E948E3F18162CF132E078
:1052B0003093690529813A814B815C81CA01B9012A
:1052C0000E94993EA30192010E94F0419B01AC0112
:1052D000C501B4010E94983E0E948F4260937605FA
:1052E00070937705809378059093790580915805A0
:1052F000886080935805F5C0A701960169857A8575
:105300008B859C850E94983E2D813E814F815885DA
:105310000E94F04160937E0570937F058093800525
:105320009093810589899A89AB89BC89809372059C
:1053300090937305A0937405B093750593E0B6C080
:10534000A7019601C501B4010E94983E2D813E81BE
:105350004F8158850E94F041A30192010E94993E1D
:1053600020E030E040E05FE30E94F0416D877E87FF
:105370008F87988B20E030E0A9010E94B041181679
:105380000CF097C02D853E854F855889C301B20129
:105390000E94B04118160CF088C0A70196016985DB
:1053A0007A858B859C850E94983E2D813E814F8118
:1053B00058850E94F0419B01AC0160937E0570937B
:1053C0007F0580938005909381056D857E858F850F
:1053D00098890E94B0411816BCF529893A894B89F1
:1053E0005C89209372053093730540937405509344
:1053F0007505A501940169857A858B859C850E9438
:105400008E3F811104C031E0309369056AC0A50167
:10541000940169857A858B859C850E94983E2D81B3
:105420003E814F8158850E94F0419B01AC01C30130
:10543000B2010E94983E60937A0570937B05809339
:105440007C0590937D054DC08D859E85AF85B8897F
:1054500080937A0590937B05A0937C05B0937D059E
:1054600080937E0590937F05A0938005B09381057E
:1054700029813A814B815C81CA01B9010E94993E20
:105480002D853E854F8558890E94F041A7019601E0
:105490000E94993E0E948F4260937205709373053B
:1054A00080937405909375051CC092E090936905F4
:1054B00018C010927A0510927B0510927C0510920C
:1054C0007D058091760590917705A0917805B09142
:1054D00079058093720590937305A0937405B0933A
:1054E0007505186010934C02E0914804F8E0EF9FB6
:1054F000D0011124BE8BAD8BFD01E850FC4F809193
:105500005705848320918B0530918C053DAF2CAFDE
:10551000D9019E96BC91BBA3F901F7A5FCA3D901C3
:10552000D096BC91BDA3F901F1A9FEA32091650518
:105530003091660540916705509168056BA17CA18B
:105540008B2F9F2F0E94983E6FA778AB89AB9AABA9
:1055500020E030E0A9010E948E3F87FF04C01FA613
:1055600018AA19AA1AAA209172052F8B30917305D7
:10557000388F40917405498F509175055A8F8091ED
:105580007A058B8F90917B059C8FA0917C05AD8FC8
:10559000B0917D05BE8FE0916905E98BF0917E05A4
:1055A000FFA320917F0528A73091800539A740915E
:1055B00081054AA750916E05598380916F058D83AF
:1055C000909170059987A0917105AD87B0916A059A
:1055D000BBA7E0916B05ECA7F0916C05FDA72091AE
:1055E0006D052EA7309176053CAB409177054DAB0C
:1055F000509178055EAB809179058FAB2FA138A5CE
:1056000049A55AA56B8D7C8D8D8D9E8D0E948E3FF8
:10561000811103C092E09BAB02C0A1E0ABAB2BA019
:105620003CA00DA11EA18EE3C82E83ECD82E8EE2E5
:10563000E82E89E3F82E412C512C3201CF8ED8A2CE
:10564000E9A2FAA23989313009F4E8C0ACADBDADA8
:10565000313008F477C0333009F012C19A962D9199
:105660003D914D915C919D97C701B6010E94F0411B
:105670004B015C012F89388D498D5A8D69817D815F
:1056800089859D850E94983E9B01AC01C501B401AE
:105690000E94B04187FD31C02B8D3C8D4D8D5E8DBC
:1056A0006BA17CA18DA19EA10E94983E9B01AC01A3
:1056B0000E94993E6B017C0129813D8149855D8570
:1056C0006F89788D898D9A8D0E94993E9B01AC01DE
:1056D000C701B6010E94983F6B017C01BF89B98365
:1056E000E88DED83F98DF9872A8D2D872B8C3C8CE5
:1056F0000D8D1E8D31E0398B3DC120E030E040E062
:105700005FE3C501B4010E94F0419B01AC016981D6
:105710007D8189859D850E94983EA70196010E9402
:10572000F0419B01AC01B101C8010E94983E1B01F0
:105730008C01A501940169817D8189859D850E94E7
:10574000983E67C09A962D913D914D915C919D97A1
:10575000C701B6010E94F0414B015C0120E030E03E
:1057600040E05FE30E94F04129813D8149855D85EC
:105770000E94993EA70196010E94F0419B01AC0155
:10578000B101C8010E94983E1B018C019B01AC0134
:105790006B8D7C8D8D8D9E8D0E94B04118168CF581
:1057A0002B8D3C8D4D8D5E8D6BA17CA18DA19EA11D
:1057B0000E94983E9B01AC010E94993E6B017C01C6
:1057C00029813D8149855D856F89788D898D9A8D87
:1057D0000E94993E9B01AC01C701B6010E94983F0F
:1057E0006B017C01BF89B983E88DED83F98DF98761
:1057F0002A8D2D873BA9398B2B8C3C8C0D8D1E8DD2
:10580000B9C0A501940169817D8189859D850E942A
:10581000993E69837D8389879D87ACC02F89388DA8
:10582000498D5A8DC701B6010E94F0419B01AC0120
:10583000B101C8010E94983E5B014C019B01AC0183
:105840006FA178A589A59AA50E94B04118160CF001
:105850008FC02FA138A549A55AA5B101C8010E9442
:10586000983E2F89388D498D5A8D0E94983F6B0143
:105870007C012FA038A409A51AA542E0498B7AC063
:105880009A962D913D914D915C919D97C701B601DE
:105890000E94F0414B015C0129813D8149855D8574
:1058A0000E948E3F87FF37C020E030E040E05FE39A
:1058B000C501B4010E94F0419B01AC0169817D8169
:1058C00089859D850E94983EA70196010E94F0411E
:1058D0009B01AC01B101C8010E94983E68AF79AF4D
:1058E0008AAF9BAF2BA53CA54DA55EA50E94B041FC
:1058F00018168CF4A501940169817D8189859D85A7
:105900000E94983E69837D8389879D8728AC39AC46
:105910000AAD1BAD2FC02BA53CA54DA55EA5B101C1
:10592000C8010E94983E9B01AC010E94993E6B0108
:105930007C0129813D8149855D856CA97DA98EA960
:105940009FA90E94993E9B01AC01C701B6010E942C
:10595000983F6B017C01BCA9B983EDA9ED83FEA939
:10596000F9872FA92D872BA43CA40DA51EA502C045
:1059700015018401A7019601C301B2010E94993E5D
:105980002B013C012F8D38A149A15AA10E948E3FC5
:1059900087FF07C0A30192016F8D78A189A19AA109
:1059A0001AC02FA538A949A95AA9B101C8010E9456
:1059B000B041181614F52EE333EC4EE259E36F8D27
:1059C00078A189A19AA10E94993E6F8F78A389A39B
:1059D0009AA3A30192010E94983E6B017C01910160
:1059E000A8016BA57CA58DA59EA50E948E3F87FD75
:1059F00029CE39893093690503C0498940936905E7
:105A000089819D81A985BD8580936E0590936F05E1
:105A1000A0937005B0937105E0918905F0918A0516
:105A2000958D911104C080914C0283FF43C0ACADB1
:105A3000BDAD5D968C915D97807359F1FD01FE9629
:105A4000C080D180E280F3809923D1F0209182053B
:105A500030918305409184055091850560916E05D4
:105A600070916F0580917005909171050E94F041D1
:105A70009B01AC01C701B6010E94F0416B017C01A2
:105A8000C701B6010E949D3B9093870580938605D0
:105A90000CC01092590210925A0210925B0210929E
:105AA0005C02109287051092860580914C02877FD8
:105AB00080934C028091860590918705ED89FE893F
:105AC000E850FC4FFA87E987978386832091610528
:105AD000309162054091630550916405B101C801A0
