:100000000AC2000029C2000027C2000025C2000069
:1000100023C2000021C200001FC200001DC2000058
:100020001BC2000019C2000017C200000C94562524
:1000300013C2000011C200000FC200000DC2000078
:100040000BC200000C94D21307C2000005C20000CE
:1000500003C2000001C20000FFC100000C94541351
:10006000FBC100000C9453190C94DF19F5C100007A
:10007000F3C10000F1C10000EFC10000EDC10000BC
:10008000EBC10000E9C10000E7C100000C94A0181A
:10009000E3C10000E1C10000DFC10000DDC10000DC
:1000A000DBC10000D9C10000D7C10000D5C10000EC
:1000B000D3C10000D1C10000CFC10000CDC10000FC
:1000C000CBC10000C9C10000C7C10000C5C100000C
:1000D000C3C10000C1C10000BFC10000BDC100001C
:1000E000BBC100000204730473040C041904260449
:1000F0003304730437047304450473044F04590430
:100100006304D634DC34DF34E234E734EF34F734DC
:1001100093359335933504350735103519359335B7
:100120009335933593359335933524352E353935BD
:10013000413544354D3556355C3593359335653508
:100140006E3579358C198E19CC19CC19CC19CC197E
:10015000CC19CC19CC19CC19CC19CC199A199C19D9
:100160009E19A019A219A419A619A819CC19AC197D
:10017000AE19B019B219B419B619CC19B819BA19FF
:10018000084AD73B3BCE016E84BCBFFDC12F3D6CFE
:1001900074319ABD56833DDA3D00C77F11BED9E464
:1001A000BB4C3E916BAAAABE000000803F05A84C44
:1001B000CDB2D44EB93836A9020C50B99186880810
:1001C0003CA6AAAA2ABE000000803F00536C6565C9
:1001D00070696E6700526573746F72696E67207321
:1001E00070696E646C6500526573746F72696E67D6
:1001F0002064656661756C74730050676D20456E90
:100200006400436865636B204C696D6974730043D7
:100210006865636B20446F6F720044697361626C40
:10022000656400456E61626C656400436175746964
:100230006F6E3A20556E6C6F636B656400272448BF
:10024000277C2724582720746F20756E6C6F636B92
:1002500000526573657420746F20636F6E74696EED
:100260007565005B4D53473A000D0A4772626C207A
:10027000312E3170205B27242720666F722068653D
:100280006C705D0D0A00244E005B4F50543A003AEA
:10029000005B4158533A005B5645523A312E31705B
:1002A0002E32303230313230333A005B544C4F3AD8
:1002B000005B4739323A003330003238005B470088
:1002C000204700204D0020530020460020540033DA
:1002D000382E005B47433A47005B484C503A242491
:1002E00020242320244720244920244E2024783D04
:1002F00076616C20244E783D6C696E6520244A3D01
:100300006C696E652024534C5020244320245820CF
:100310002448207E2021203F206374726C2D785D5C
:100320000D0A005B5052423A006572726F723A00D9
:100330000000C8430000C8430000C843E4380E4131
:10034000E4380E4100803B4400803B4400803B4445
:100350000000B4440000B44400C82F4800C82F482F
:1003600000C82F4800C82F4800C82F480000C8C345
:10037000000048C3000048C30000B4C3000034C3F9
:100380000A0000FE010AD7A33C6F12033B00803B2A
:10039000460080094430000000C8420000FA43FAD9
:1003A000000000A040414C41524D3A007C413A00CF
:1003B0007C4F763A007C57434F3A007C506E3A00AF
:1003C0007C46533A007C4C6E3A007C42663A007C94
:1003D00057506F733A007C4D506F733A00536C6501
:1003E000657000446F6F723A00436865636B00414B
:1003F0006C61726D00486F6D65004A6F6700486FF1
:100400006C643A0052756E0049646C65000D0A0018
:100410006F6B0D0A000011241FBECFEFD1E2DEBFCB
:10042000CDBF00E00CBF12E0A0E0B2E0EEEDF2E8DC
:1004300000E00BBF02C007900D92AE31B107D9F7B3
:1004400021E1AEE1B2E001C01D92AF3DB207E1F79C
:100450000E94B12F0C946D41D3CD2F923F924F92B9
:100460005F926F927F928F929F92AF92BF92CF9244
:10047000DF92EF92FF920F931F93CF93DF93CDB74D
:10048000DEB7C556D1090FB6F894DEBF0FBECDBF9B
:100490008AE4EAE2F3E0DF011D928A95E9F78BE056
:1004A000E2EDF2E0ABE2B3E001900D928A95E1F764
:1004B0008091DF10843211F00C94D71281E0809388
:1004C0002B0310922C0383E08EA3B1E0BFA71BA6E1
:1004D0001CA61DA61EA61BAE1CAE1DAE1EAE1BAAE4
:1004E000412C512C3201312C812C912C54018394BC
:1004F0008EA1E82FF0E0E152FF4E30813FA333237D
:1005000009F484C22FA0EFEB2E0EF9E1F21510F4DE
:100510000C94A3128F5F8EA3BE016E5D7F4FCE0140
:1005200086960E94002F882311F40C94A512CAA06D
:10053000DBA0ECA0FDA0C701B6010E9441410E94D2
:10054000A93E162F70E080E090E00E94D73E9B010C
:10055000AC01C701B6010E945B3D20E030E048ECF1
:1005600052E40E9473400E94D6400E94A93ECB01F3
:100570002FA1273421F02D3409F4CCC030C118321A
:1005800009F4BEC020F5143168F4113108F088C0B8
:10059000143009F450C008F462C01A3009F444C0A1
:1005A0000C94B3121C3109F43FC050F4163110F012
:1005B0000C94B31225E1211B20932D0306E0A5C066
:1005C0001E3191F1163209F44AC00C94B3121D3356
:1005D00009F490C0A0F4153371F140F41B3209F412
:1005E00076C0113309F473C00C94B3121C3310F0AD
:1005F0000C94B31216531093310309E086C01C35D6
:1006000038F41A3508F051C0103571F10C94B3125A
:100610001C3551F01F3510F00C94B3122EE5211B40
:1006200020932C0305E071C0009729F431100C943D
:10063000A7123324339410932A03212F2D7F2C31BA
:1006400019F01C3509F05EC0009721F00A9711F0EF
:100650000C94B312610F60932A0300E069C031105B
:100660000C94A71222E0322E10932B03163209F0BD
:100670004BC08431910559F08E31910541F088329B
:10068000910529F08233910511F00C94B3126AE0C0
:1006900070E00E94043D665760932B0301E048C060
:1006A000115110932F0302E030C0892B29F41A5501
:1006B00010932E0303E03CC06A30710511F00C94D6
:1006C000B3121A3511F40C94B31204E031C0311096
:1006D0000C94A712113319F41092300307C00A9733
:1006E00011F00C94B31281E08093300308E083E0B2
:1006F000382E1EC0892B11F00C94B3120AE018C0DA
:1007000007E003C000E001C001E0892B89F087E128
:100710000C94DB12892BD9F71630D8F4133018F16A
:10072000143069F1153069F180E1809334030CE0F5
:100730008BAD9CADADADBEAD002E04C0B695A795FA
:10074000979587950A94D2F780FF32C085E10C9483
:10075000DB12173010F40C94B3121A30A8F01E31CB
:1007600059F00C94B312112319F01130F9F004C0B0
:1007700083E0809332031AC01093320317C080E2E3
:10078000D4CF10923403D3CF183031F0193051F058
:1007900080913303806803C0809133038064809329
:1007A000330302C0109233030DE0C2CF0BE0C0CF81
:1007B000D501C401002E04C0880F991FAA1FBB1FBA
:1007C0000A94D2F72BAD3CAD4DAD5EAD282B392B45
:1007D0004A2B5B2B2BAF3CAF4DAF5EAF89CE3FA119
:1007E000832F330F990BAA0BBB0BFC01E654F109C5
:1007F000EF30F10508F077C08827EE58FF4F8F4F94
:100800000C943A3DC0923603D0923703E0923803FD
:10081000F092390300E0BAC0C0923A03D0923B0391
:10082000E0923C03F0923D034BA941604BAB01E0E9
:10083000ADC0C0923E03D0923F03E0924003F092DD
:1008400041035BA952605BAB02E0A0C0C0924203CF
:10085000D0924303E0924403F09245038BA9846055
:100860008BAB03E093C010934E0304E08FC0C7012D
:10087000B6010E94A43E60934F037093500380938F
:1008800051039093520305E081C0C0925303D0926C
:100890005403E0925503F092560306E077C0C092ED
:1008A0005703D0925803E0925903F0925A0307E09D
:1008B0006DC0C0925B03D0925C03E0925D03F09246
:1008C0005E0308E063C020E030E04FE753E4C70177
:1008D000B6010E943840181614F40C94A912109313
:1008E0005F0309E053C09FA1983561F4C092600393
:1008F000D0926103E0926203F0926303689440F83F
:100900000AE03BC0AFA1A93561F4C0926403D09264
:100910006503E0926603F0926703689441F80BE088
:100920002CC0BFA1BA3561F4C0926803D0926903AC
:10093000E0926A03F0926B03689442F80CE01DC0E9
:10094000EFA1E13461F4C0926C03D0926D03E092A8
:100950006E03F0926F03689443F80DE00EC0FFA1A0
:10096000F23459F4C0927003D0927103E092720392
:10097000F0927303689444F80EE08FA18855833099
:1009800028F021E0221510F40C94B312102F8BA53F
:100990009CA5ADA5BEA5002E04C0B695A7959795BC
:1009A00087950A94D2F780FF02C00C94AB1281E6BF
:1009B00093E0A0E0B0E0002E04C0B695A79597950F
:1009C00087950A94D2F780FF0BC020E030E0A901A0
:1009D000C701B6010E94353E87FF02C00C94AD12DC
:1009E000D501C40104C0880F991FAA1FBB1F1A9507
:1009F000D2F72BA53CA54DA55EA5282B392B4A2B5C
:100A00005B2B2BA73CA74DA75EA772CD41145104C9
:100A10006104710421F0311002C012E0312E4BA5A7
:100A200045FF0FC080914F0390915003A091510357
:100A3000B091520381389649A849B10514F00C943D
:100A4000AF128FA5882309F19BA590FD02C00C94DD
:100A5000B91280912D03813009F041C023E333E3C3
:100A60004BEC51E460913603709137038091380369
:100A7000909139030E94734060933603709337035B
:100A800080933803909339032AC080912C038130DE
:100A900079F4A2E03A1223C080912B038035F9F05B
:100AA0008823E9F0BBA5B0FD02C00C94B91217C0B1
:100AB0008091D302811113C0EBA5E0FDCACF8091D4
:100AC000E1029091E202A091E302B091E4028093EE
:100AD000360390933703A0933803B09339032BA5C3
:100AE0003CA54DA55EA530FD10C08091DD02909122
:100AF000DE02A091DF02B091E00280935B0390934D
:100B00005C03A0935D03B0935E0380912A0384305D
:100B100079F43BA536FD03C08CE10C94DB128BA568
:100B20009CA5ADA5BEA58F7B8BA79CA7ADA7BEA797
:100B300080912F03882371F18130B1F492E06096A7
:100B40009FAF6097A1E02F96AFAF2F97B4E02E969E
:100B5000BFAF2E97E1E06196EFAF61971FAEF2E075
:100B60002C96FFAF2C972BC021E060962FAF60979B
:100B700034E02F963FAF2F9742E02E964FAF2E973F
:100B800061961FAE619752E05FAF81E02C968FAF08
:100B90002C9715C094E060969FAF6097A2E02F96C7
:100BA000AFAF2F97B1E02E96BFAF2E97E2E06196E0
:100BB000EFAF6197F1E0FFAF2C961FAE2C978091BD
:100BC0002D03813021F023E0321242C035C0A0E66F
:100BD000EA2EA3E0FA2E00E010E0CC24C394D12C3E
:100BE000C601002E02C0880F991F0A94E2F7092E51
:100BF000000CAA0BBB0B84219521A621B721892BC0
:100C00008A2B8B2B81F023E333E34BEC51E4D701A8
:100C10006D917D918D919C910E947340F70160834D
:100C20007183828393830F5F1F4FF4E0EF0EF11CFB
:100C300003301105A9F6C7CF80913003813041F40C
:100C400024E0421651046104710411F00C94B112B5
:100C500084E1EEEFF2E0DE01119601900D928A95AB
:100C6000E1F78BAD9CADADADBEAD91FD0AC0B090CE
:100C70002A039AE0B916D1F0ACE5BA1609F4CDC052
:100C80003CC180913103873018F08DE10C94DB1268
:100C90009091D802981759F3BE016F5F7F4F0E9461
:100CA000D818882311F40C94C712E1CF41145104D1
:100CB0006104710419F48AE10C94DB128BA59CA5E4
:100CC000ADA5BEA580759927AA27BB27892B8A2B9E
:100CD0008B2B09F421CF60915303709154038091C1
:100CE0005503909156030E9441410E94A93E6730EE
:100CF00060F680914E03843149F0823011F00C94FB
:100D0000B312BBA5B7FF02C00C94B3122BA53CA530
:100D10004DA55EA52F7A2BA73CA74DA75EA76623FE
:100D200021F022242A94260E02C0209031036AE387
:100D300073E0822D0E94D818882311F40C94C712F6
:100D400030914E033FA38090260390902703A090FC
:100D50002803B09029030AE213E0F2EDCF2EF2E06F
:100D6000DF2EE12CF12C81E090E00E2C02C0880FE8
:100D7000991F0A94E2F7092E000CAA0BBB0B8421E1
:100D80009521A621B721892B8A2B8B2BC1F14FA14D
:100D9000443161F5F601E05CFF4F208131814281F1
:100DA0005381D60158966D917D918D919C915B9761
:100DB0000E945B3DF80126A937A940AD51AD0E94C4
:100DC0005B3DD80150966D937D938D939C93539783
:100DD000B2E0EB16F10499F4A50194010E945B3D89
:100DE000F801608B718B828B938B09C0F80186A907
:100DF00097A9A0ADB1AD808B918BA28BB38BFFEF88
:100E0000EF1AFF0A0C5F1F4F24E0C20ED11C35E021
:100E1000E316F10409F0A7CF5CC141145104610449
:100E2000710409F448CF8090260390902703A09086
:100E30002803B090290300E613E0C12CD12CE12C4B
:100E4000F12C81E090E00E2C02C0880F991F0A94CB
:100E5000E2F7092E000CAA0BBB0B84219521A621D9
:100E6000B721892B8A2B8B2B71F1E1E0F0E0EC0F9D
:100E7000FD1FEC0DFD1D2081318142815381F60162
:100E8000EE52FD4F608D718D828D938D0E945B3D82
:100E9000D8012D913D914D915C910E945B3DF801EF
:100EA0006083718382839383F2E0EF16F104B9F4D7
:100EB000A50194010E945B3DD8016D937D938D93B4
:100EC0009C9313970CC0F601EE5EFC4F80819181DC
:100ED000A281B381F80180839183A283B383FFEF62
:100EE000EF1AFF0A24E0C20ED11C0C5F1F4F35E041
:100EF000E316F10409F0A5CFEBC043E034120FC0B4
:100F00005EE1B51609F49FC085E3B81609F4DAC0AE
:100F10009CE1B912DDC06AE373E086E097C041143A
:100F200051046104710461F3A0902E032091260303
:100F30003091270340912803509129032FA338A70C
:100F400049A75AA7E2EDCE2EE2E0DE2E00E613E03E
:100F5000AE014F5F5F4F4A01E12CF12C81E090E040
:100F60000E2C02C0880F991F0A94E2F7092E000C7C
:100F7000AA0BBB0B84219521A621B721892B8A2B93
:100F80008B2B59F4F601808D918DA28DB38DF801D4
:100F900080839183A283B38345C0F5E3BF1609F430
:100FA00041C0A1102BC0F601E05CFF4F20813181D0
:100FB00042815381D4016D917D918D919C910E94CC
:100FC0005C3DF80120813181428153810E945C3D6A
:100FD000D8016D937D938D939C931397B2E0EB169C
:100FE000F10401F52FA138A549A55AA50E945C3D41
:100FF000F801608371838283938314C0D60158966D
:101000002D913D914D915C915B97F80160817181CB
:10101000828193810E945C3DD8016D937D938D9375
:101020009C931397BFEFEB1AFB0AE4E0CE0ED11CA2
:101030000C5F1F4FF4E08F0E911C25E0E216F104C7
:1010400009F08CCF5DCF6AE373E087E00E94D81887
:10105000882311F40C94C7124114510461047104E3
:1010600019F4212C312C35C020E030E080E090E0F4
:1010700041E050E06A01082E02C0CC0CDD1C0A944D
:10108000E2F70D2C000CEE08FF08C420D520E62066
:10109000F720CD28CE28CF2871F4F901EE52FD4F6C
:1010A000C08CD18CE28CF38CF901E65DFC4FC08AD8
:1010B000D18AE28AF38A01962C5F3F4F85309105F1
:1010C000C9F606C080912B03823010F00C94B51243
:1010D000212C30912B033FA3303541F441145104AE
:1010E0006104710411F00C94B7122FC342E0341262
:1010F0002CC35FA1552341F120E030E0A9016091AC
:1011000036037091370380913803909139030E9420
:10111000353E882311F40C94B9128FA18C3809F450
:10112000FCC240F48230C1F08330C9F0813009F054
:101130000CC30AC09FA19E3809F4EFC208F4EAC2AA
:101140009F3809F4E7C201C34114510461047104DA
:1011500009F0FBC2312CF9C2AFA5A460AFA74114BE
:1011600051046104710409F4A6CD2C96FFAD2C97AF
:10117000EF2FF0E02596FFAFEEAF25973FAD232F81
:1011800030E029963FAF2EAF299781E090E08C01A7
:101190000FAC02C0000F111F0A94E2F72C960FAC9F
:1011A0002C9702C0880F991F0A94E2F7082B192B7D
:1011B000C801012E000CAA0BBB0B84219521A6218E
:1011C000B721892B8A2B8B2B11F40C94BB12EE0FB9
:1011D000FF1FEE0FFF1FE65DFC4F2596AEADBFADC6
:1011E0002597AA0FBB1FAA0FBB1FA651BD4F2D915C
:1011F0003D914D915C9166A977A980AD91AD0E941A
:101200005B3D4B015C012996EEADFFAD2997EE0FDA
:10121000FF1FEE0FFF1FE65DFC4F2996AEADBFAD81
:101220002997AA0FBB1FAA0FBB1FA651BD4F2D9117
:101230003D914D915C9166A977A980AD91AD0E94D9
:101240005B3D6FAB78AF89AF9AAF4BA547FF75C1D8
:101250008BA59CA5ADA5BEA58F778BA79CA7ADA799
:10126000BEA744E150E060E673E08AEE92E00E949F
:101270006041892B19F481E20C94DB1280912D03DB
:101280008130B1F423E333E34BEC51E46091570335
:10129000709158038091590390915A030E947340B2
:1012A00060935703709358038093590390935A03A4
:1012B00020915703309158034091590350915A039C
:1012C0002BAB3CAB4DAB5EABA5019401C501B401AA
:1012D0000E94734027966CAF7DAF8EAF9FAF27976C
:1012E0002FA938AD49AD5AADCA01B9010E9473406A
:1012F0002B966CAF7DAF8EAF9FAF2B9720E030E089
:1013000040E850E46BA97CA98DA99EA90E94734076
:101310002BA93CA94DA95EA90E94734027962CAD2C
:101320003DAD4EAD5FAD27970E945B3D2B962CAD3A
:101330003DAD4EAD5FAD2B970E945B3D6B017C01D7
:1013400020E030E0A9010E94353E87FF02C00C94E6
:10135000BD12C701B6010E9400416B017C012B96B2
:101360002CAD3DAD4EAD5FAD2B9727966CAD7DADF1
:101370008EAD9FAD27970E945C3D0E9400419B016E
:10138000AC01C701B60190580E943C3E6B017C0144
:101390003FA1333021F4F7FAF094F7F8F09420E00D
:1013A00030E0A9016BA97CA98DA99EA90E94353EB8
:1013B00087FF11C0F7FAF094F7F8F0948BA99CA975
:1013C000ADA9BEA9B0588093570390935803A0933A
:1013D0005903B0935A0380912F038823E1F18130A0
:1013E00009F072C0A70196016FA978AD89AD9AADD9
:1013F0000E9473409B01AC01C501B4010E945B3D9A
:1014000020E030E040E05FE30E94734060934203DD
:10141000709343038093440390934503A70196017F
:10142000C501B4010E9473409B01AC016FA978AD66
:1014300089AD9AAD0E945C3D20E030E040E05FE382
:101440000E94734060933A0370933B0380933C0384
:1014500090933D037AC1A70196016FA978AD89AD3C
:101460009AAD0E9473409B01AC01C501B4010E947A
:101470005B3D20E030E040E05FE30E94734060931A
:101480003A0370933B0380933C0390933D03A70181
:101490009601C501B4010E9473409B01AC016FA984
:1014A00078AD89AD9AAD0E945C3D20E030E040E02F
:1014B0005FE30E94734060933E0370933F03809309
:1014C00040039093410341C1A70196016FA978ADF4
:1014D00089AD9AAD0E9473409B01AC01C501B40176
:1014E0000E945B3D20E030E040E05FE30E947340FB
:1014F00060933E0370933F038093400390934103B6
:10150000A7019601C501B4010E9473409B01AC0183
:101510006FA978AD89AD9AAD0E945C3D20E030E0C6
:1015200040E05FE30E947340609342037093430383
:10153000809344039093450308C14BA9C42ED12C3A
:101540000C211D21012B11F40C94BF128BA59CA51D
:10155000ADA5BEA5817F8BA79CA7ADA7BEA7809197
:101560002D03813009F48FC02596EEADFFAD259790
:10157000EE0FFF1FEE0FFF1FE65CFC4F2081318155
:10158000428153812BAB3CAB4DAB5EABC501B4018B
:101590000E945B3D27966CAF7DAF8EAF9FAF2797C4
:1015A0002996EEADFFAD2997EE0FFF1FEE0FFF1F3F
:1015B000E65CFC4FC080D180E280F380A7019601F9
:1015C0006FA978AD89AD9AAD0E945B3D4B015C017E
:1015D00027962CAD3DAD4EAD5FAD2797CA01B90141
:1015E0000E9473406FAB78AF89AF9AAFA5019401A9
:1015F000C501B4010E9473409B01AC016FA978AD95
:1016000089AD9AAD0E945C3D0E9400414B015C0196
:101610002BA93CA94DA95EA9CA01B9010E9473403A
:101620006FAB78AF89AF9AAFA7019601C701B6013A
:101630000E9473409B01AC016FA978AD89AD9AAD52
:101640000E945C3D0E9400416B017C016093570346
:10165000709358038093590390935A039B01AC01F4
:10166000C501B4010E945B3D4B015C01E894B7F8F1
:101670002AE037ED43EA5BE3C501B4010E9438403C
:1016800018165CF162C09AE2E92E93E0F92E00E0B0
:1016900010E0C601002E02C0959587950A94E2F7E6
:1016A00080FF12C023E333E34BEC51E4D7015096A3
:1016B0006D917D918D919C9153970E947340F7019C
:1016C000608B718B828B938B0F5F1F4FF4E0EF0E5B
:1016D000F11C03301105E9F647CF20E030E040E08F
:1016E0005FE3C501B4010E94384018160CF4C3CD65
:1016F0002FE632E143E85AE3C701B6010E94734086
:101700009B01AC01C501B4010E94384018160CF4CD
:10171000B2CD1BC02FA520612FA78FA18E5882307C
:1017200018F43FA538603FA74114510461047104C7
:1017300009F4C1CA44E150E060E673E08AEE92E049
:101740000E946041892B09F496CD2FA521704FA5E9
:101750008BA59CA5ADA5BEA540FF02C08E7D02C095
:101760008E7D9C7F332011F09370A87F892B8A2B6C
:101770008B2B09F006C78E010B5E1F4F8DE0D80141
:101780001D928A95E9F7222309F45BC08BAD9CADCD
:10179000ADADBEAD867B892B8A2B8B2B09F0F3C6B2
:1017A00080912A03853311F08111EDC68091DD020D
:1017B0009091DE02A091DF02B091E002898F9A8FB2
:1017C000AB8FBC8F9091DB028091DA02892B409124
:1017D00036035091370360913803709139034D8B74
:1017E0005E8B6F8B788F846089A380914F0390917B
:1017F0005003A0915103B09152038D8F9E8FAF8FF4
:10180000B8A38091C20285FF06C080E693E00E94E3
:10181000293A8111BAC6B80180E693E00E948F3C54
:10182000809148028111B5C60E945A1D892B09F486
:10183000B0C680E2809348020E9496250E946817F5
:10184000A8C68091C202F090DB0281FF27C08FA161
:101850008150833018F0BFA5B064BFA74528462843
:10186000472839F0E2E03E1204C0FFA5F068FFA768
:1018700015C020E1F21212C08091D20281509FA5C2
:101880009074833030F4992349F03FA530623FA72C
:1018900005C0911103C04FA540624FA780914F032F
:1018A00090915003A0915103B09152038093E602AE
:1018B0009093E702A093E802B093E9028D8F9E8F88
:1018C000AF8FB8A380912C038093D302882311F0AB
:1018D00088E089A38091360390913703A091380363
:1018E000B09139038093E1029093E202A093E30266
:1018F000B093E4028D8B9E8BAF8BB88F80905B038F
:1019000090905C03A0905D03B0905E03A5019401EC
:101910006091DD027091DE028091DF029091E00221
:101920000E94353E5FA55074E52E811103C08FA53E
:1019300085FF20C0FF2071F09FA597FD0BC0EE2012
:1019400021F040E050E0BA0102C0B501A4018F2DA2
:101950000E94D73580915B0390915C03A0915D0359
:10196000B0915E038093DD029093DE02A093DF02CC
:10197000B093E002E1100CC08091DD029091DE0294
:10198000A091DF02B091E002898F9A8FAB8FBC8F5C
:1019900080915F038093E502809134039091DB0294
:1019A000981751F0498D5A8D6B8D7C8D0E94D735DB
:1019B000809134038093DB0299A18091DB02892B13
:1019C00089A3809133039091DA02981791F0909156
:1019D0004802923051F0A6968FAFA6970E94FE1F44
:1019E000A6968FADA6970E94D82E80913303809340
:1019F000DA0299A18091DA02892B89A380912A03C6
:101A0000843049F5609153037091540380915503DC
:101A100090915603209148022230E9F0A3966FAFCF
:101A2000A397A4967FAFA497A6968FAFA697A596E7
:101A30009FAFA5970E94FE1F40E0A3966FADA397AE
:101A4000A4967FADA497A6968FADA697A5969FADB9
:101A5000A5970E94CC1E80912F038093D60280917F
:101A60002D038093D402A3E03A122EC0809130035C
:101A70008093D702811108C0109268031092690305
:101A800010926A0310926B03C0906803D0906903B0
:101A9000E0906A03F0906B03A70196016091260322
:101AA0007091270380912803909129030E94353E6D
:101AB000882351F0C0922603D0922703E092280396
:101AC000F09229030E94713A809131039091D802DB
:101AD000981769F08093D80284E1FE013196AEEF49
:101AE000B2E001900D928A95E1F70E94713A8091DF
:101AF0002E038093D50280912A038632E1F138F4D7
:101B00008C3101F18E31F1F08A3069F04DC08C35A5
:101B1000C1F1863609F43FC0883209F045C06AEE4B
:101B200072E087E02BC06AE373E0822D0E94BE184A
:101B30008091D802821138C084E1EAE3F3E0AEEF8D
:101B4000B2E024C089A1816089A3332029F0B801C3
:101B500080E693E00E948F3CB8018AE393E00E9404
:101B60008F3C84E1EAE3F3E0AAEEB2E001900D924B
:101B70008A95E1F719C06AEE72E086E00E94BE180D
:101B800013C084E1E0E6F3E0A2E1B3E001900D923E
:101B90008A95E1F707C084E1E2E1F3E0DF011D92FD
:101BA0008A95E9F70E94713A80912B038093D202C3
:101BB000803509F47CC4B2E03B1279C4813021F451
:101BC000BE016B5E7F4F06C0811109C089A1816093
:101BD00089A3B80180E693E00E948F3C5FC48250E5
:101BE000823008F0F3C3209157033091580340919D
:101BF000590350915A032BAF3CAF4DAF5EAF2C96BB
:101C00004FAD2C9734E0439F80011124C801865CBE
:101C10009C4F9CAB8BABDC018D909D90AD90BC90AC
:101C2000F801E651FD4F2081318142815381C50188
:101C3000B4010E945C3D6FA378A789A79AA7EFAD76
:101C4000B4E0EB9F100111249101265C3C4F2D96CE
:101C50003FAF2EAF2D97D901CD90DD90ED90FC9048
:101C6000F101E651FD4F2081318142815381C7014D
:101C7000B6010E945C3D6FAB78AF89AF9AAF24018B
:101C8000350177FA709477F87094A701960150584F
:101C90002BA73CA74DA75EA7F801E05AFC4F2FA148
:101CA00038A549A55AA560817181828193810E94DE
:101CB0005B3D6B017C01F101E05AFC4F2FA938AD6F
:101CC00049AD5AAD60817181828193810E945B3DF3
:101CD0004B015C01A7019601C301B2010E94734050
:101CE00023966CAF7DAF8EAF9FAF2397A501940174
:101CF0006BA57CA58DA59EA50E9473409B01AC01A0
:101D000023966CAD7DAD8EAD9FAD23970E945C3D5B
:101D100023966CAF7DAF8EAF9FAF2397A501940143
:101D2000C301B2010E9473404B015C01A7019601FF
:101D30006BA57CA58DA59EA50E9473409B01AC015F
:101D4000C501B4010E945B3D23962CAD3DAD4EAD67
:101D50005FAD23970E94CF3D6B017C013FA532FF11
:101D600011C02DEB37E346E055EB0E94384087FD6C
:101D70001BC02BED3FE049EC50E4C701B6010E94C7
:101D80005B3D10C02DEB37E346E055E30E94353E46
:101D9000181654F02BED3FE049EC50E4C701B601B2
:101DA0000E945C3D6B017C018090B6029090B7026E
:101DB000A090B802B090B9022BAD3CAD4DAD5EAD78
:101DC000CA01B9010E945C3DA50194010E945B3DDE
:101DD0009B01AC01C501B4010E9473400E94004107
:101DE0004B015C0120E030E040E05FE3C701B60159
:101DF0000E9473402BAD3CAD4DAD5EAD0E94734073
:101E00009F77A50194010E943C3E0E94123F0E94D0
:101E1000A93E21967FAF6EAF21976115710509F438
:101E2000CFCE19A14B01A12CB12C13FF12C0C501BB
:101E3000B4010E94D53E9B01AC016D897E898F89DA
:101E4000988D0E9473406D8B7E8B8F8B988F177F40
:101E500019A3C501B4010E94D53E4B015C019B0151
:101E6000AC01C701B6010E943C3E6FA778AB89ABBD
:101E70009AAB6196AFAD619754E0A59FC001112464
:101E8000FC01E05AFC4FDC01A651BD4F2D913D9164
:101E90004D915C9160817181828193810E945B3D53
:101EA000A50194010E943C3E6BAF7CAF8DAF9EAF0D
:101EB0002091F6023091F7024091F8025091F90218
:101EC00060916C0370916D0380916E0390916F032C
:101ED0000E945B3DA50194010E943C3E68966CAF58
:101EE0007DAF8EAF9FAF68972091FA023091FB02D1
:101EF0004091FC025091FD0260917003709171035A
:101F000080917203909173030E945B3DA50194013F
:101F10000E943C3E6C966CAF7DAF8EAF9FAF6C97CE
:101F20002FA538A949A95AA9CA01B9010E9473402D
:101F30009B01AC0160E070E080E090E40E945B3DBA
:101F40006B017C012BEA3AEA4AE25EE36FA578A9CD
:101F500089A99AA90E9473404B015C0120E030E0FE
:101F600040E850E4C701B6010E945C3D9B01AC0112
:101F7000C501B4010E94734027966CAF7DAF8EAF50
:101F80009FAF279720E030E040E05FE3C701B60154
:101F90000E9473402B966CAF7DAF8EAF9FAF2B9797
:101FA00010E022242394312C2E96BFAD2E97B170D1
:101FB0006D96BFAF6D972E96EFAD2E97E2706E9631
:101FC000EFAF6E972E96FFAD2E97F4702E96FFAF63
:101FD0002E972F962FAD2F9721706F962FAF6F975B
:101FE0002F963FAD2F973270A0963FAFA0972F96B8
:101FF0004FAD2F9744702F964FAF2F9760965FADE0
:1020000060975170A1965FAFA19760968FAD609772
:102010008270A2968FAFA29760969FAD60979470E2
:1020200060969FAF60972196EEADFFAD21972E167B
:102030003F0609F4C5CD1C3008F048C02B962CADE6
:102040003DAD4EAD5FAD2B976BA57CA58DA59EA537
:102050000E9473406B017C0127962CAD3DAD4EADC7
:102060005FAD2797C301B2010E947340A70196019B
:102070000E945C3D7B01082FD92E2B962CAD3DADE7
:102080004EAD5FAD2B97C301B2010E9473404B016F
:102090005C0127962CAD3DAD4EAD5FAD27976BA58E
:1020A0007CA58DA59EA50E9473409B01AC01C50136
:1020B000B4010E945B3D2B013C011F5FC701A02FB3
:1020C000BD2D8BA79CA7ADA7BEA76CC0B10180E0BA
:1020D00090E00E94D53E2FA538A949A95AA90E948F
:1020E00073406B017C010E94393E6BA77CA78DA7D2
:1020F0009EA7C701B6010E94F6404B015C01ABA947
:10210000BCA9CD90DD90ED90FC90F7FAF094F7F833
:10211000F0942D96AEADBFAD2D972D913D914D9183
:102120005C9164962CAF3DAF4EAF5FAF64972BA52B
:102130003CA54DA55EA5C701B6010E9473402B01C9
:102140003C01A501940164966CAD7DAD8EAD9FAD53
:1021500064970E9473409B01AC01C301B2010E94CD
:102160005C3D2B013C01A5019401C701B6010E9411
:1021700073406B017C012BA53CA54DA55EA5649623
:102180006CAD7DAD8EAD9FAD64970E9473409B0199
:10219000AC01C701B6010E945B3D6BA77CA78DA770
:1021A0009EA710E06D96BFAD6D97BB2381F0A30194
:1021B00092016FA178A589A59AA50E945C3D6093C4
:1021C000EA027093EB028093EC029093ED026E961C
:1021D000EFAD6E97EE2381F0A30192016FA178A578
:1021E00089A59AA50E945C3D6093EE027093EF0270
:1021F0008093F0029093F1022E96FFAD2E97FF236D
:1022000081F0A30192016FA178A589A59AA50E94EA
:102210005C3D6093F2027093F3028093F40290931A
:10222000F5026F962FAD6F97222391F02BA53CA559
:102230004DA55EA56FA978AD89AD9AAD0E945C3DB4
:102240006093EA027093EB028093EC029093ED02AC
:10225000A0963FADA097332391F02BA53CA54DA5AB
:102260005EA56FA978AD89AD9AAD0E945C3D609383
:10227000EE027093EF028093F0029093F1022F969A
:102280004FAD2F97442391F02BA53CA54DA55EA5FE
:102290006FA978AD89AD9AAD0E945C3D6093F20262
:1022A0007093F3028093F4029093F502A1965FADD0
:1022B000A1975523B1F02BAD3CAD4DAD5EAD609116
:1022C000EA027091EB028091EC029091ED020E9483
:1022D0005C3D6093EA027093EB028093EC02909372
:1022E000ED02A2968FADA2978823B1F02BAD3CAD45
:1022F0004DAD5EAD6091EE027091EF028091F00203
:102300009091F1020E945C3D6093EE027093EF02A7
:102310008093F0029093F10260969FAD60979923AD
:10232000B1F02BAD3CAD4DAD5EAD6091F202709160
:10233000F3028091F4029091F5020E945C3D60935B
:10234000F2027093F3028093F4029093F502689680
:102350002CAD3DAD4EAD5FAD68976091F6027091CA
:10236000F7028091F8029091F9020E945C3D60931F
:10237000F6027093F7028093F8029093F9026C963C
:102380002CAD3DAD4EAD5FAD6C976091FA02709192
:10239000FB028091FC029091FD020E945C3D6093E3
:1023A000FA027093FB028093FC029093FD02BE013F
:1023B0006B5E7F4F8AEE92E00E948F3C80914902D3
:1023C00081116CC0AFEF2A1A3A0A2DCE89A1846020
:1023D00089A380914802823009F460C00E94FE1FE8
:1023E00080914902811163C0FFA5F071FF2E109208
:1023F0004D022FA523FB882780F90E947F1B809127
:102400000601807890911E02891749F084E00E94AD
:10241000E1240E94FB1E80E00E947F1B48C0B8019F
:1024200080E693E00E948F3C81E08093470282E047
:102430000E94F1240E94FB1E80914902811137C045
:10244000809148028111F6CF80914702813081F45A
:10245000FF2051F084E1EFE1F2E0A3E3B2E001906C
:102460000D928A95E1F707C085E00E94E12403C040
:1024700081E080934D021092470280E00E947F1B12
:102480000E94FB1E0E94362D0E94701D0E94D61CC9
:102490000E94FF3580914D02811186C084E1E0E603
:1024A000F3E0AAEEB2E001900D928A95E1F78091F7
:1024B00032038093D902882309F47DC00E94FE1F55
:1024C0008091D90290914802833041F49230C1F159
:1024D00088E00E94F1240E94FB1E32C081E08093BC
:1024E000D2021092D6021092D5021092D30210920C
:1024F000D8021092DB021092DA0284E68093530233
:102500008093540280935502923081F06EEF72E016
:1025100080E04ED68823D9F10E94713A40E050E025
:10252000BA0180E0B1D580E00E94D82E83E692E027
:102530000E94C81C8AEF91E00E94C81C0E947C1B6C
:102540001092D9022FC081E036C082E034C088E109
:1025500032C086E230C089E12EC084E02CC08BE11D
:102560002AC085E228C084E126C08EE124C08FE124
:1025700022C086E120C080E21EC082E21CC083E24D
:102580001AC084E218C080E116C08FE014C087E052
:1025900012C084E1E0E6F3E0AAEEB2E001900D9211
:1025A0008A95E1F780E007C00E94272E80CF1EA207
:1025B0001FA60C946702CB59DF4F0FB6F894DEBF0D
:1025C0000FBECDBFDF91CF911F910F91FF90EF9084
:1025D000DF90CF90BF90AF909F908F907F906F9043
:1025E0005F904F903F902F9008959093AD0080930F
:1025F000AC00892B21F48091A000877F03C08091DB
:10260000A00088608093A0000895CF93DF9340914D
:10261000AE0250E06091AF0270E0A9EBB5E0E4EBF0
:10262000F5E080E090E0382FEA01082E02C0D59551
:10263000C7950A94E2F7C0FF13C0009741F08130BC
:1026400041F0833041F0843041F028E007C021E0C0
:1026500005C020E403C020E101C022E0208301C0C6
:102660001082EB0102C0D595C7953A95E2F7C0FFFD
:1026700011C0009731F0813031F0833031F0843077
:1026800031F022E005C020E803C020E401C028E0CA
:102690002C9301C01C9201961196319685309105BC
:1026A00011F6DF91CF9108951F920F920FB60F92FE
:1026B00011240BB60F928F939F93AF93BF93EF9319
:1026C000FF9381B38E7FE4EBF5E09081892B81BB92
:1026D00081B38F7B9181892B81BBABE0B1E08C9181
:1026E000877F9281892B8C9382B18F7E9381892BF6
:1026F00082B988B18D7F9481892B88B915BCFF91EF
:10270000EF91BF91AF919F918F910F900BBE0F9062
:102710000FBE0F901F90189580916F008D7F809352
:102720006F0080918100887F81608093810010928A
:10273000BE058091B002909148028F3F39F42091FC
:10274000D710211103C0903881F402C0943069F091
:1027500090E0009741F0EFE9FFE03197F1F700C01A
:1027600000000197F6CF81E001C080E09091C202A5
:1027700092FF02C091E08927882351F05F9A8A9ADC
:1027800080910801816080930801129A479A089508
:102790005F988A98809108018E7F80930801129833
:1027A000479808951F920F920FB60F9211240BB6FF
:1027B0000F920F931F932F933F934F935F936F93BA
:1027C0007F938F939F93AF93BF93CF93DF93EF93B9
:1027D000FF938091BE05811164C30E94A02D8823C0
:1027E00099F08091C20283FF0FC08091480281302E
:1027F00059F0843049F08091D710811105C00E94B2
:102800000C2081E00E94E12481B38D7F9091DA0554
:10281000892B81BB81B38F779091DB05892B81BB9D
:1028200080910B018D7F9091DC05892B80930B01AA
:1028300082B18F7B9091DD05892B82B988B1877F2A
:102840009091DE05892B88B981B38E7F9091D50553
:10285000892B81BB81B38F7B9091D605892B81BB5E
:1028600080910B01877F9091D705892B80930B0175
:1028700082B18F7E9091D805892B82B988B18D7FE6
:102880009091D905892B88B98091D40586BD82E0C5
:1028900085BD81E08093BE0578948091F805909184
:1028A000F905892B09F0FDC08091450F9091960F95
:1028B000981709F4E1C08091450F28E0829FC0017C
:1028C0001124FC01EA5BF04FF093F905E093F80561
:1028D00022813381309389002093880020813181C7
:1028E0003093F4052093F305E4812091F5052E172C
:1028F000E1F1E093F505CEE1EC9FF0011124E956FA
:10290000F04FF093F705E093F60544895589668901
:10291000778976956795579547954093CF0550935E
:10292000D0056093D1057093D2054093CB055093A9
:10293000CC056093CD057093CE054093C7055093A9
:10294000C8056093C9057093CA054093C3055093A9
:10295000C4056093C5057093C6054093BF055093A9
:10296000C0056093C1057093C205E091F605F09132
:10297000F705DF01589649EB55E00AED15E0BF0178
:10298000635E7F4F2D91EA013991AE012327E80163
:1029900029938E01A617B707A9F7DC01AA5BB04FF0
:1029A00015969C9115974081518162817381092E02
:1029B00004C076956795579547950A94D2F740934A
:1029C000DF055093E0056093E1057093E2054481D3
:1029D000558166817781092E04C076956795579554
:1029E00047950A94D2F74093E3055093E40560932A
:1029F000E5057093E6054085518562857385092E4E
:102A000004C076956795579547950A94D2F74093F9
:102A1000E7055093E8056093E9057093EA0544855E
:102A2000558566857785092E04C0769567955795F7
:102A300047950A94D2F74093EB055093EC056093C9
:102A4000ED057093EE05408951896289738904C050
:102A500076956795579547959A95D2F74093EF05E8
:102A60005093F0056093F1057093F20516968D91E1
:102A70009C911797BADD15C04FDEE091F605F091F5
:102A8000F705858D882349F01092AD001092AC00B7
:102A90008091A000877F8093A00084E00E94F124B1
:102AA00000C2809147028130B9F48091060180789C
:102AB00090911E02891781F01092470284E1EFE1A4
:102AC000F2E0A3E3B2E001900D928A95E1F78091E4
:102AD000D61080648093D6101092D5051092D6053A
:102AE0001092D7051092D8051092D9054091DF05B4
:102AF0005091E0056091E1057091E2058091BF057C
:102B00009091C005A091C105B091C205840F951F99
:102B1000A61FB71F8093BF059093C005A093C10562
:102B2000B093C205E091F605F091F7054489558907
:102B300066897789481759076A077B0768F521E096
:102B40002093D5054489558966897789841B950B1F
:102B5000A60BB70B8093BF059093C005A093C1054A
:102B6000B093C205208D80911F0290912002A09108
:102B70002102B091220221FF04C00197A109B109ED
:102B800003C00196A11DB11D80931F0290932002E6
:102B9000A0932102B09322024091E3055091E405F5
:102BA0006091E5057091E6058091C3059091C4059B
:102BB000A091C505B091C605840F951FA61FB71F2C
:102BC0008093C3059093C405A093C505B093C60533
:102BD0004489558966897789481759076A077B07A9
:102BE00068F520E42093D60544895589668977895C
:102BF000841B950BA60BB70B8093C3059093C4055C
:102C0000A093C505B093C605218D809123029091B4
:102C10002402A0912502B091260227FF04C001974B
:102C2000A109B10903C00196A11DB11D8093230222
:102C300090932402A0932502B09326024091E705C9
:102C40005091E8056091E9057091EA058091C7050A
:102C50009091C805A091C905B091CA05840F951F30
:102C6000A61FB71F8093C7059093C805A093C905F9
:102C7000B093CA05448955896689778948175907E9
:102C80006A077B0768F528E02093D70544895589B2
:102C900066897789841B950BA60BB70B8093C705B4
:102CA0009093C805A093C905B093CA05228D809161
:102CB000270290912802A0912902B0912A0221FFB7
:102CC00004C00197A109B10903C00196A11DB11D5E
:102CD0008093270290932802A0932902B0932A029E
:102CE0004091EB055091EC056091ED057091EE057A
:102CF0008091CB059091CC05A091CD05B091CE05EA
:102D0000840F951FA61FB71F8093CB059093CC050A
:102D1000A093CD05B093CE054489558966897789FE
:102D2000481759076A077B0768F520E12093D80503
:102D30004489558966897789841B950BA60BB70B47
:102D40008093CB059093CC05A093CD05B093CE0591
:102D5000238D80912B0290912C02A0912D02B09195
:102D60002E0226FF04C00197A109B10903C00196F4
:102D7000A11DB11D80932B0290932C02A0932D02D4
:102D8000B0932E024091EF055091F0056091F1054E
:102D90007091F2058091CF059091D005A091D10559
:102DA000B091D205840F951FA61FB71F8093CF0542
:102DB0009093D005A093D105B093D205448955894D
:102DC00066897789481759076A077B0768F522E003
:102DD0002093D9054489558966897789841B950B89
:102DE000A60BB70B8093CF059093D005A093D10588
:102DF000B093D205248D80912F0290913002A09142
:102E00003102B091320223FF04C00197A109B10938
:102E100003C00196A11DB11D80932F029093300233
:102E2000A0933102B09332023091480280E090E0EA
:102E3000343069F4DC01A154BA4F56964C91569740
:102E4000FC01E85BFD4F2681242356962C930196C6
:102E50008530910569F78091F3059091F40501970C
:102E60009093F4058093F305892B69F41092F9058A
:102E70001092F8058091450F8F5F8093450F8A303F
:102E800011F41092450FA4EBB5E0E5EDF5E08D915E
:102E9000908189278193D5E0EA3DFD07C1F7109223
:102EA000BE05FF91EF91DF91CF91BF91AF919F91BF
:102EB0008F917F916F915F914F913F912F911F91D2
:102EC0000F910F900BBE0F900FBE0F901F90189593
:102ED0008091C20282FF0EC05F9A8A9A8091080197
:102EE000816080930801129A479AE4EBF5E0A5ED22
:102EF000B5E00AC05F988A98809108018E7F809320
:102F0000080112984798F1CF81918D9385E0E93BB4
:102F1000F807D1F78091AD02880F84508195809396
:102F2000D40580916F00826080936F0008954F9266
:102F30005F926F927F928F929F92AF92BF92CF9249
:102F4000DF92EF92FF92CF936B017C01C09155020B
:102F50008090BE029090BF02A090C002B090C102CB
:102F60004090BA025090BB026090BC027090BD02CB
:102F7000A3019201C501B4010E94384087FF1AC025
:102F80006C2F70E080E090E00E94D73E2AE037EDA1
:102F900043E25CE30E9473409B01AC01C701B601B0
:102FA0000E9473406B017C01A30192010E94384092
:102FB00087FD0BC04092590250925A0260925B0208
:102FC00070925C0280E094E04AC0A5019401C701C0
:102FD000B6010E94353E1816FCF020E030E0A90151
:102FE000C701B6010E94353E81110BC010925902F3
:102FF00010925A0210925B0210925C0280E090E004
:103000002EC08092590290925A02A0925B02B09216
:103010005C0281E090E023C0C0925902D0925A0233
:10302000E0925B02F0925C02A5019401C701B60137
:103030000E945B3D20917E0530917F054091800587
:10304000509181050E9473400E94123F20E030E0C1
:1030500040E85FE30E945C3D0E94A93ECB01CF9116
:10306000FF90EF90DF90CF90BF90AF909F908F90A8
:103070007F906F905F904F900895E0EAF0E080813C
:10308000877F8083A598089590914902911121C06E
:1030900081110AC01092590210925A0210925B02DA
:1030A00010925C02EADF13C0803111F4739801C002
:1030B000739A9091C20291FF05C0803219F440E0EA
:1030C00050E0BA01CB01BA0132DF8FDAA59A109233
:1030D00057020895E1E0F1E080818062808383E01F
:1030E0008093A0008AE18093A10080E094E0909317
:1030F000A9008093A8009D9A6B9A2091BE023091FE
:10310000BF024091C0025091C1026091BA02709119
:10311000BB028091BC029091BD020E945B3D9B016D
:10312000AC0160E070EC8FE794E40E943C3E609359
:103130007E0570937F0580938005909381059DCFD8
:103140001F920F920FB60F9211248F9380917D05DD
:103150008F5F80937D058F910F900FBE0F901F9012
:1031600018956AE080E090E00E942D2E45E750E03F
:103170006DE572E081E090E00C944F2ECF93DF93E9
:1031800000D0CDB7DEB76A837B83898337D7898147
:1031900025E1829FC001112444E150E06A817B81D6
:1031A0009E5F0F900F900F90DF91CF910C944F2E58
:1031B0001F93CF93DF93182FEB0185E1189FB00188
:1031C00011247E5F44E150E0CE010E94942E892BB1
:1031D00051F484E1FE0111928A95E9F7BE01812F35
:1031E000CDDF80E001C081E0DF91CF911F91089594
:1031F000EF92FF920F931F93CF93DF93CDB7DEB77C
:1032000064970FB6F894DEBF0FBECDBF182F80FFB6
:103210000AC085E7E0E3F3E0ADE5B2E005900D928A
:103220008A95E1F79EDF11FF0FC0CE0101967C0168
:1032300084E1F70111928A95E9F700E0B701802F48
:103240009DDF0F5F0830D1F712FF14C060E080E00F
:1032500093E00E942D2E60E081E093E00E942D2EED
:1032600060E081E094E00E942D2E60E082E094E036
:103270000E942D2E13FF0AC060E08EEA93E00E94A8
:103280002D2E60E08FEA93E00E942D2E64960FB6FB
:10329000F894DEBF0FBECDBFDF91CF911F910F918C
:1032A000FF90EF9008951F920F920FB60F92112486
:1032B0000BB60F922F933F934F935F936F937F9330
:1032C0008F939F93AF93BF93EF93FF93E091C600CB
:1032D000E13269F020F4E83171F49ED65DC0EF333D
:1032E00021F0EE3741F482E003C081E001C088E0C4
:1032F0000E94F12451C0E7FF41C08E2F90E0FC01F5
:10330000E458F109EE31F10508F046C08827EE5582
:10331000FF4F8F4F0C943A3D80E2EACF80914802F4
:1033200085FF3AC080E40E94F12480917A04809362
:10333000790432C081E00DC082E00BC084E009C096
:1033400088E007C080E105C080E203C080E401C0DE
:1033500080E80E94D82420C081E00DC082E00BC02C
:1033600084E009C088E007C080E105C080E203C0B6
:1033700080E401C080E80E94CF240EC0A0917A04AE
:1033800081E08A0F90917904891731F0B0E0A75855
:10339000BC4FEC9380937A04FF91EF91BF91AF9172
:1033A0009F918F917F916F915F914F913F912F915D
:1033B0000F900BBE0F900FBE0F901F9018951F928D
:1033C0000F920FB60F9211240BB60F928F939F930B
:1033D000EF93FF9380917C05E82FF0E0E458FB4FDA
:1033E00090819093C6008F5F80937C0590917B04C1
:1033F000891305C08091C1008F7D8093C100FF912A
:10340000EF919F918F910F900BBE0F900FBE0F9079
:103410001F901895E0917B0491E09E0F20917C0510
:10342000921305C02091D61024FFF8CF0BC0F0E016
:10343000E458FB4F808390937B048091C1008062AD
:103440008093C1000895CF92DF92EF92FF921F9375
:10345000CF93DF931F92CDB7DEB7182F6A017B01A0
:1034600084E22983D7DF812F70D28DE3D3DF2981D6
:10347000422FC701B60154D10F90DF91CF911F9118
:10348000FF90EF90DF90CF90E6C51F93CF93DF932F
:103490001F92CDB7DEB7182F84E26983BBDF812F7F
:1034A00054D28DE3B7DF6981862F4FD20F90DF9121
:1034B000CF911F91D0C5CF93C82F89E293E068D2F6
:1034C0008C2F43D2CF91C7C5EF92FF920F931F93DA
:1034D000CF93DF936091AD0270E080E0D6DF609122
:1034E000B00270E081E0D1DF6091AE0270E082E076
:1034F000CCDF6091AF0270E083E0C7DF6091C20271
:1035000062FB662760F970E084E0BFDF6091C20271
:1035100066FB662760F970E085E0B7DF8091C20244
:10352000082E000C990B692F661F6627661F70E036
:1035300086E0ABDF6091B10270E08AE0A6DF4091E7
:10354000B2025091B3026091B4027091B50223E0CF
:103550008BE079DF4091B6025091B7026091B802DA
:103560007091B90223E08CE06EDF6091C20261705D
:1035700070E08DE08ADF6091C20265FB662760F92A
:1035800070E084E182DF6091C20263FB662760F92C
:1035900070E085E17ADF6091C2026295617070E04F
:1035A00086E173DF6091C30270E087E16EDF4091D6
:1035B000C4025091C5026091C6027091C70223E017
:1035C00088E141DF4091C8025091C9026091CA026E
:1035D0007091CB0223E089E136DF6091CC027091DB
:1035E000CD028AE152DF4091CE025091CF0260912C
:1035F000D0027091D10223E08BE125DF4091BA0225
:103600005091BB026091BC027091BD0220E08EE13E
:103610001ADF4091BE025091BF026091C0027091CA
:10362000C10220E08FE10FDF6091C20266956170F8
:1036300070E080E22ADFD4E6F12C0DE512E085E0AF
:10364000E82EED0ECD2F82E0F81691F0E3E0FE16A5
:10365000E9F0F1E0FF1631F0F8014081518162811B
:1036600073811AC0F801448955896689778914C025
:1036700020E030E041E655E4F80160A571A582A59F
:1036800093A50E943C3EAB01BC0106C0F80144ADCD
:1036900055AD66AD77AD705823E08C2FD4DE0C5F4E
:1036A0001F4FCF5FCE11CFCFD65FF394DC3829F612
:1036B000DF91CF911F910F91FF90EF9008958111AD
:1036C00003C080E194E064C1F6CE0F931F93CF93C3
:1036D0008C01C0E0F80161917191819191918F010C
:1036E000C8D0C43011F08CE295DECF5FC53091F7C1
:1036F000CF911F910F9108958DE58CDEACC410928F
:103700001E029091C20297FD03C090E890931E02A2
:10371000882329F080911E02805880931E0208950C
:103720008F929F92AF92BF92CF92DF92EF92FF92D1
:103730000F931F93CF93DF93CDB7DEB72D970FB6BF
:10374000F894DEBF0FBECDBF6B017C01042F20E0DB
:1037500030E0A9010E94353E87FF06C08DE25ADEA7
:10376000F7FAF094F7F8F094102F123060F020E0A0
:1037700030E048EC52E4C701B6010E9473406B018F
:103780007C011250F2CF00FF0AC020E030E040E29E
:1037900051E4C701B6010E9473406B017C0120E037
:1037A00030E040E05FE3C701B6010E945C3D0E944B
:1037B000A43E10E03AE0832E912CA12CB12C61158F
:1037C00071058105910591F0EE24E394F12CEC0E46
:1037D000FD1EE10EF11CA50194010E94183D605DE3
:1037E000F7016083B901CA011F5FE9CF80E31017B9
:1037F00048F4E1E0F0E0EC0FFD1FE10FF11D8083E4
:103800001F5FF5CF101312C011E0100F80E3FE010F
:10381000E00FF11D81830AC0101302C08EE2FADDB1
:10382000FE01E10FF11D8081F5DD11501111F4CF82
:103830002D960FB6F894DEBF0FBECDBFDF91CF91AE
:103840001F910F91FF90EF90DF90CF90BF90AF90BE
:103850009F908F9008952091C20220FF08C02BE80E
:1038600032E441E25DE30E94734041E001C040E088
:1038700057CF2091C20220FF08C02BE832E441E27A
:103880005DE30E94734044E001C043E049CF8F9262
:103890009F92AF92BF92EF92FF921F93CF93DF93CD
:1038A000CDB7DEB72A970FB6F894DEBF0FBECDBFF7
:1038B000611571058105910589F480E32A960FB69B
:1038C000F894DEBF0FBECDBFDF91CF911F91FF9067
:1038D000EF90BF90AF909F908F909CCD30E04AE0EA
:1038E000842E912CA12CB12C11E0130FEE24E39423
:1038F000F12CEC0EFD1EE30EF11CA50194010E94BB
:10390000183DF7016083B901CA01312F61157105B6
:103910008105910549F7112341F0FE01E10FF11DE9
:103920008081805D77DD1150F6CF2A960FB6F8942E
:10393000DEBF0FBECDBFDF91CF911F91FF90EF9003
:10394000BF90AF909F908F900895CF93DF93843670
:1039500030F06AE00E94F83CC0E3C90F03C0C0E049
:103960008A3030F06AE00E94F83CD0E3D90F01C001
:10397000D0E0805D4FDDDD2311F08D2F4BDDCC23BA
:1039800021F08C2FDF91CF9145CDDF91CF9108951C
:10399000CF93DF93FC018491EF012196882319F0E6
:1039A00039DDFE01F8CFDF91CF910895EFE1F2E02C
:1039B000A8E8B5E041915191619171914D935D936A
:1039C0006D937D9382E0E333F807A1F70895BF92EA
:1039D000CF92DF92EF92FF920F931F93CF93DF93DB
:1039E0007C01FC0102AD13ADD4ADC5AD858D80FF6A
:1039F00018C06091540270E080E090E00E94D73ED1
:103A00002AE037ED43E25CE30E9473409B01AC0186
:103A1000B8018D2F9C2F0E9473408B01D82FC92F86
:103A20002DC082FD17C06091530270E080E090E0ED
:103A30000E94D73E2AE037ED43E25CE30E947340E8
:103A40009B01AC01B8018D2F9C2F0E9473408B010C
:103A5000D82FC92FF701B6A8C7A8D0ACF1AC2B2D31
:103A60003C2D4D2D5F2DB8018D2F9C2F0E9438408D
:103A7000181624F40B2D1C2DDD2DCF2D20E030E069
:103A800040E85FE3B8018D2F9C2F0E943840181644
:103A900024F000E010E0D0E8CFE3B8018D2F9C2F98
:103AA000DF91CF911F910F91FF90EF90DF90CF901A
:103AB000BF9008958091FB059091440F981739F0BD
:103AC00022E4829FC001112484509A4F089580E01F
:103AD00090E00895EFDF892B11F082E082C708950E
:103AE0008CE2E8E8F5E0DF011D928A95E9F7109293
:103AF000FB051092440F81E0809387051092FA0530
:103B000008952F923F924F925F926F927F928F9281
:103B10009F92AF92BF92CF92DF92EF92FF920F935C
:103B20001F93CF93DF93C091440FC11101C0C4E232
:103B3000C150D091FA05CD1709F41BC1EC2EF12C20
:103B400022E4C29F8001112404501A4FF801A6A05C
:103B5000B7A0C0A4D1A462A573A584A595A59B0117
:103B6000AC010E945C3DF80126A537A540A951A9EA
:103B70000E9473404B018C019B01AC01B501C60151
:103B80000E94353E87FD02C05401680182E48E9D8B
:103B9000F0018F9DF00D1124E450FA4FC501D601BC
:103BA00082A393A3A4A3B5A3C11101C0C4E2C150D1
:103BB000CD1761F022E42E9DC0012F9D900D1124A0
:103BC0009C0124503A4F7901D2E433C08091FB0527
:103BD000D8135EC00E94122D5BC0AC2EB12CDA9DB2
:103BE000C001DB9D900D1124FC01E450FA4F6F01E0
:103BF000C11101C0C4E2C1508091FB05C81302C0CD
:103C00000E94122DDA9D8001DB9D100D11240450BD
:103C10001A4FF80186A097A0A0A4B1A4A501940111
:103C200062A173A184A195A10E94353E811106C0B5
:103C300076018091FA05C813D0CF2AC0F80162A599
:103C400073A584A595A59B01AC010E945C3DF8017C
:103C500026A537A540A951A90E947340F70122A1CA
:103C600033A144A155A10E945C3D2B013C01A5015B
:103C700094010E94353EF80187FF05C042A253A27D
:103C800064A275A2D5CF82A293A2A4A2B5A2D0CFDE
:103C9000D091FA05F2E4DF9F8001112404501A4FFD
:103CA000C1E0CD0FC43209F4C0E02090440F82E49B
:103CB000382EC21509F45BC0CC2ED12C3C9CC0011F
:103CC0003D9C900D11249C0124503A4F7901F8013C
:103CD00042A053A064A075A0F90182A093A0A4A063
:103CE000B5A0A5019401C301B2010E94353E87FF32
:103CF00024C0F80162A573A584A595A59B01AC011C
:103D00000E945C3DF80126A537A540A951A90E9453
:103D100073409B01AC01C301B2010E945C3D2B01C9
:103D20003C01A50194010E94353E87FF06C0F701C2
:103D300042A253A264A275A2DC2F3C9CF0013D9CE0
:103D4000F00D1124E450FA4F26A137A140A551A54A
:103D500062A173A184A195A10E94353E811101C089
:103D6000DC2FCF5FC43209F4C0E08701A2CFD0932B
:103D7000FA05DF91CF911F910F91FF90EF90DF90A7
:103D8000CF90BF90AF909F908F907F906F905F90FB
:103D90004F903F902F9008950F931F93CF93C42F70
:103DA00020E030E040EA51E40E9473400E94223E4D
:103DB0000E94A93E8B0101151105C9F080914902AD
:103DC000811115C0C11102C016D005C047D1809124
:103DD0004A0281FD0CC02FEF80E792E02150804025
:103DE0009040E1F700C0000001501109E4CFCF91ED
:103DF0001F910F910895CF92DF92EF92FF920F9350
:103E00001F93CF932BD180914A02882309F4EEC0EF
:103E100051DE8C01009771F4C091DA028091DB02CF
:103E2000C82BC090DD02D090DE02E090DF02F0905F
:103E3000E0020CC0FC01C58DC0730E94F62EC82B99
:103E4000F801FE96C080D180E280F3808091C202AA
:103E500081FF02C080E2A3D51C2F107301E0C07C5B
:103E600090914A02992309F4C1C0809149028111BD
:103E7000BDC090FFB9C080914802282F207C09F472
:103E80006FC092FD11C01092560240E050E0BA019E
:103E900080E0FAD880E00E94D82E90914A029D7F5F
:103EA000946090934A02A0C08038B9F483E692E00F
:103EB0006FDD8CEC91E06CDD1FDC40E050E0BA017E
:103EC00080E0E2D880E00E94D82E0E948C1380917E
:103ED000490281118BC0C2D0FACF803441F4D2D5CF
:103EE00080FD05C080914A028F7D80934A028091B7
:103EF0004A0283FF79C09091DB029923B1F081FDE2
:103F000014C08091C20281FF06C080914C0288607B
:103F100080934C020AC0B701A601812FB5D841E0B9
:103F200060E070E080E890E437DF8091DA02882377
:103F300069F080914A0281FD09C08C2F0E94D82E21
:103F400041E060E070E080E89FE326DF90914A0264
:103F500091FD4AC0906190934A0282E042D544C0EC
:103F600090915602992399F191FF0CC08091DB0248
:103F70008823A1F040E050E0BA0180E085D80093AA
:103F8000560232C09C7081F18091DB02811109C020
:103F90008091560283FF02C082E023D51092560220
:103FA00023C083E692E0F4DC85ED91E0F1DCA4DB54
:103FB0008091C20281FF06C080914C02886080938C
:103FC0004C02E6CFB701A601812F5ED8E1CF8091E8
:103FD0004C0283FF09C0B701A601812F55D88091FB
:103FE0004C02877F80934C0239D03ACFCF911F91FA
:103FF0000F91FF90EF90DF90CF9008956BDDFBDE87
:1040000080914902811107C055DD892BC1F780914C
:1040100048028830A1F308958091D61084FD1AC01B
:1040200080E1DFD42AD80E94EF2E90914802892F98
:104030008C7221F480914C02867061F0943031F4DE
:104040008091D710811104C086E001C083E0B9D40B
:104050000C948C1308958DE094E09ACC3F924F928B
:104060005F926F927F928F929F92AF92BF92CF9208
:10407000DF92EF92FF920F931F93CF93DF93CDB711
:10408000DEB7EC970FB6F894DEBF0FBECDBF109130
:10409000D710112359F181E08093480285EA93E01B
:1040A00077DC812F52DCD7DF85EF91E0019739F083
:1040B000EFE9FFE03197F1F700C00000F7CF1150B2
:1040C000123030F08FB7F8941092D7108FBF0EC017
:1040D00083E692E05DDC81E592E05ADC0DDB80E175
:1040E00076D48091D61084FFFCCFECCF1091D610FF
:1040F000112309F4C3C214FF04C081E08093490274
:10410000D8C310FFD0C184E1EFE1F2E0DE0199965F
:1041100001900D928A95E1F7BE01675D7F4FCE0158
:10412000459668D48CE376D9809148028830E1F0D6
:1041300058F4813091F1A8F0823091F1843009F087
:104140003FC085EF93E03BC0803221F118F480310D
:1041500071F036C0803439F1803891F58DED93E0FF
:104160002EC088E094E02BC084E094E028C08091C9
:104170004A0287FD0FC08EEF93E00ADC80914A026D
:1041800080FF06C080E319C082FF16C085FFFACF0A
:1041900081E313C08AEF93E012C08FEE93E00FC06B
:1041A00089EE93E00CC083EE93E0F2DB80914A024B
:1041B00083FFEACF83E301C082E32CD901C0E8DBAF
:1041C0008091B102F82FF170BF2E80FD15C0409094
:1041D00026035090270360902803709029034EEF28
:1041E000842E42E0942E9E012F5F3F4F7901CE0135
:1041F00045966C0101E019C080915802882339F37B
:1042000086ED93E03EC0A30192010E945C3DF70160
:104210006083718382839383BB20E1F094E0E90E95
:10422000F11C0F5FE4E0CE0ED11CF401619171919D
:10423000819191914F0120893189428953890E944E
:104240005C3DF70160837183828393830330D9F2ED
:10425000B11011C0F7012081318142815381F601F3
:1042600060817181828193810E945B3DF601608350
:10427000718382839383053089F6B110C1CF8FECAF
:1042800093E086DBCE01459620DA8091B10281FF72
:1042900017C08AEC93E07CDB9091440F8091FB0582
:1042A000981710F08D5D01C08150891B4EDB8CE2A8
:1042B000B1D880917904815090917A04891B45DBB3
:1042C000F9DB0097E1F0FC01C68CD78CE0A0F1A0EF
:1042D000C114D104E104F10491F085EC93E058DBC2
:1042E000F7FE0AC08DE296D866277727CB016C19B6
:1042F0007D098E099F0902C0C701B601C8DA80ECAA
:1043000093E046DB809148028C7749F06091BC10C5
:104310007091BD108091BE109091BF1003C060E0FD
:1043200070E0CB0198DA8CE275D8609159027091F7
:104330005A0280915B0290915C0240E0F1D90E94A8
:10434000A02D082F9FD3F82E80910601982F9078EA
:1043500080911E02E92EE826802F8F298E2979F17F
:104360008BEB93E015DBEE2011F080E553D80023B2
:10437000A1F000FF02C088E54DD801FF02C089E529
:1043800049D802FF02C08AE545D803FF02C081E494
:1043900041D804FF02C082E43DD8FF2081F0F0FE46
:1043A00002C084E437D8F1FE02C082E533D8F2FEC1
:1043B00002C088E42FD8F3FE02C083E52BD8809199
:1043C0005802882321F081508093580216C08091B2
:1043D00048028C7711F08DE101C089E0809358028A
:1043E00080915702811103C081E08093570285EBD1
:1043F00093E0CEDACE01019668D9809157028823E6
:1044000021F081508093570248C0809148028C77F8
:1044100011F083E101C089E08093570280EB93E0C3
:10442000B7DA8091530291DA8CE20E940A1A8091E5
:1044300054028BDA8CE20E940A1A8091550285DAC6
:1044400084B3082F007285FF0BC08091A000082F55
:10445000087083FF05C0739902C001E001C002E04B
:104460000E94F62EF82E011102C08823B1F08CEACA
:1044700093E08EDA002339F0013011F483E501C0B6
:1044800083E40E940A1AF6FE03C086E40E940A1A18
:10449000F7FE03C08DE40E940A1A8EE30E940A1AF6
:1044A000DADD81E094D2812F887E09F465C08091A5
:1044B0004802982F937009F04FC08872A1F0809144
:1044C0004A02807C81F40E94122D82E080934C028B
:1044D00080914802803239F417FD05C080914A026C
:1044E000806880934A0280914802811103C091E064
:1044F00090934A0216FF07C085FD05C090914A02BD
:10450000906490934A0213FF05C0807E19F480E105
:104510008093480215FF20C083E692E039DA8FE0ED
:1045200092E036DAE9D880914A0287FD10C0909176
:104530004802903439F483FF07C0837E8260809301
:104540004A0202C0903819F080E4809348028091BA
:104550004A02806280934A0217FF0CC08091480291
:10456000813029F480914A02856080934A0280E874
:104570008093480288EE2BD211FF41C0812F8876AC
:10458000E1F580914802803471F480914A0285FD02
:104590000AC084FF03C01092480205C082FF03C016
:1045A000886080934A0280914802882381F084FFCA
:1045B00024C090914A0290FF20C0803141F4809144
:1045C0005602882321F088608093560216C010920C
:1045D0004C0270DA892B69F080914A0286FD09C08D
:1045E00010924A0288E080934802A0D20E94681785
:1045F00004C010924A021092480282E0E8D112FFF1
:104600003DC080914802807D90914A028823D1F07C
:1046100080914B02811116C097FD14C00E94122D8B
:104620008091FB058093FA056CDA80914C0281FF42
:1046300005C090914A02916090934A02897F8093CD
:104640004C021AC097FF08C010924C0249DA0E942F
:10465000362D0E94272EAAD980914A0285FF08C0D4
:104660008F77816080934A0280E48093480204C07F
:1046700010924A021092480284E0A9D19091D81079
:10468000992309F4A9C08FB7F8941092D8108FBF5E
:104690004091530290FF02C084E601C0842F91FD37
:1046A000865F92FD8A5093FD8F5F94FD8150893C17
:1046B00008F088EC8A3008F48AE03091540295FFC3
:1046C00002C024E601C0232F96FD22E397FD29E1D5
:1046D000841303C0231709F47FC0809353022093EF
:1046E0005402109257021091FB053090440F89E953
:1046F000D82E96E7E92E26E9F22E0EE732E4432E75
:10470000131509F456C0812E912C489CC001499C78
:10471000900D11249C0124503A4F5901C90157D9D9
:10472000562E672E782EC92E2D2D3E2D4F2D502F13
:104730000E94384018164CF42D2D3E2D4F2D502F31
:104740006D2D7E2D8F2D902F08C0252D362D472DB8
:104750005C2D652D762D872D9C2D0E947340F501D3
:1047600066A377A380A791A7489CC001499C900DA0
:1047700011249C0124503A4F7901F90182A893A891
:10478000A4A8B5A8A501940166A177A180A591A5CB
:104790000E94384018162CF4F70186A297A2A0A612
:1047A000B1A61F5F143209F410E0D52C73010C2D53
:1047B000A7CF8D2D9E2DAF2DB02F8093B005909358
:1047C000B105A093B205B093B3050E94122D80915C
:1047D000FB058093FA0595D90091D910002309F4BF
:1047E00063C08FB7F8941092D9108FBF9091550283
:1047F00000FF02C084E601C0892F01FD865F02FD33
:104800008A5003FD8F5F04FD8150893C08F088ECDD
:104810008A3008F48AE08917D1F08093550280919C
:10482000480281110DC04091DD025091DE0260917D
:10483000DF027091E0028091DB020E94441805C003
:1048400080914C02886080934C02109257028091B4
:10485000480205FF0DC0803159F490915602911124
:1048600002C092E003C090FF03C094609093560290
:10487000902F907CC9F0882311F08873A9F01091D3
:10488000DA0207FF05C017FF02C01F7701C01068DA
:1048900006FF05C016FF02C01F7B01C01064812FF8
:1048A0000E94D82E1093DA02809148028C7F09F082
:1048B0003DD1EC960FB6F894DEBF0FBECDBFDF91B1
:1048C000CF911F910F91FF90EF90DF90CF90BF900D
:1048D000AF909F908F907F906F905F904F903F90A0
:1048E0000895CF93DF93CFEDD0E18991882319F01C
:1048F0000E940A1AFACFDF91CF910895CF93DF93E8
:1049000021E031E0482F429FC001439F900D1124C8
:10491000EC01DD5F40E051E0BE018FED90E10E94CF
:10492000942E892B61F41092DF1068DB40E051E097
:104930006FED70E1CE010E944F2E80E001C081E05A
:10494000DF91CF910895CF93DF93C0E08C2FD6DF16
:1049500081110DC01092DF108EE30E940A1AC1DF90
:104960008AE30E940A1A87E00E945B1A11C08091B4
:10497000DF10882369F00E942D02D82F8EE30E9459
:104980000A1AAFDF8AE30E940A1A8D2F0E945F1B6A
:10499000C13011F0C1E0DACFDF91CF9108952FB788
:1049A000F8949091D910892B8093D9102FBF089536
:1049B0002FB7F8949091D810892B8093D8102FBFDF
:1049C00008959FB7F8948093D7109FBF08952FB78D
:1049D000F8949091D610809589238093D6102FBF9C
:1049E00008952FB7F8949091D610892B8093D61004
:1049F0002FBF0895AF92BF92CF92DF92EF92FF92B6
:104A00000F931F93CF93DF9300D01F92CDB7DEB7E4
:104A10005B012DE5E22E22E0F22E8C016B0184E198
:104A2000C80ED11CF50161917191819191915F0145
:104A3000F70121913191419151917F0129833A836D
:104A40004B835C830E94D73E29813A814B815C81F4
:104A50000E943C3EF80161937193819391938F0181
:104A6000AC14BD04F9F60F900F900F900F90DF91EA
:104A7000CF911F910F91FF90EF90DF90CF90BF905B
:104A8000AF90089520910601822F8E7169F024FB6A
:104A9000882780F991E0892721FF826022FF8460C6
:104AA00023FD03C08860089580E008951F920F924F
:104AB0000FB60F9211240BB60F922F933F934F9383
:104AC0005F936F937F938F939F93AF93BF93EF9376
:104AD000FF93D8DF8823B9F081FF02C09DDA13C0AD
:104AE00083FF04C08091D61082600BC082FF04C097
:104AF0008091D610886005C080FF05C08091D610D7
:104B000080628093D610FF91EF91BF91AF919F91FA
:104B10008F917F916F915F914F913F912F910F9066
:104B20000BBE0F900FBE0F901F9018952F923F92C3
:104B30004F925F926F927F928F929F92AF92BF92AD
:104B4000CF92DF92EF92FF920F931F93CF93DF9359
:104B5000CDB7DEB7EC970FB6F894DEBF0FBECDBF72
:104B600080914C0280FD45C79091450F8091DA10ED
:104B7000981709F43EC78091DD109091DE10892BC3
:104B800009F023C310914C0212FF09C08091440F19
:104B900022E4289FC001112484509A4F02C00E9431
:104BA0005A1D9093DE108093DD102090DD10309020
:104BB000DE102114310409F41CC70091A610802FC7
:104BC000817000FF03C01092A610F6C09091A5104E
:104BD0009F5F993009F0892F8093A510E82EF12C62
:104BE0004EE14E9D90014F9D300D11242956304FBE
:104BF0003093DC102093DB10F10178965EE1859F05
:104C0000C00111248956904F20E030E04191DC0131
:104C1000A20FB31F58964C932F5F3F4F253031059D
:104C2000A9F7F10120E030E041915191619171913A
:104C3000DC01A20FB31F689412F8440F551F661FC2
:104C4000771F1694D1F74D935D936D937C931397D3
:104C50002C5F3F4F2431310539F78EE18E9DF001F5
:104C60008F9DF00D11249F012956304FF101848949
:104C70009589A689B78943E0880F991FAA1FBB1F92
:104C80004A95D1F7F901848B958BA68BB78BD1010F
:104C900054966D917D918D919C9157970E94D53E30
:104CA0006093AB107093AC108093AD109093AE10E6
:104CB000F10126A537A540A951A90E943C3E9B01C0
:104CC000AC016093AF107093B0108093B1109093CB
:104CD000B21060E070E080EA9FE30E943C3E609387
:104CE000B3107093B4108093B5109093B6101092D7
:104CF000A7101092A8101092A9101092AA1011FDDE
:104D000002C003FF1FC06091C4107091C510809154
:104D1000C6109091C7106093BC107093BD10809323
:104D2000BE109093BF109B01AC010E947340D10153
:104D300092966D937D938D939C939597077F0093A7
:104D4000A6100FC0F10162A173A184A195A10E94D8
:104D500000416093BC107093BD108093BE1090937F
:104D6000BF10FEE1FE9DC001FF9D900D11249C012E
:104D70002956304F7901D9015D961C928091C2026B
:104D800081FF1AC0F101858D85FF16C022AD33ADBC
:104D900044AD55AD60E070E080E89FE30E943C3E8A
:104DA0006093D0107093D1108093D2109093D31051
:104DB000E1E0D7015D96EC931092B8101092B91013
:104DC0001092BA101092BB10D1019A962D913D917C
:104DD0004D915C919D9729833A834B835C8360E07E
:104DE00070E080E09FE30E943C3E6D837E838F8372
:104DF0009887F10146A457A460A871A882A093A047
:104E0000A4A0B5A011FF44C0F2E0F093B710A50133
:104E100094010E9473409B01AC01C301B2010E9446
:104E20005B3D6B017C0120E030E0A9010E94353E32
:104E300087FF1DC029813A814B815C81CA01B9017C
:104E40000E945C3DA30192010E9473409B01AC0152
:104E5000C501B4010E945B3D0E9400416093C410F3
:104E60007093C5108093C6109093C710ABC1C092C9
:104E7000B810D092B910E092BA10F092BB10109214
:104E8000C4101092C5101092C6101092C7109AC18B
:104E90001092B7104092C8105092C9106092CA1078
:104EA0007092CB1012FF0CC01092C4101092C5105B
:104EB0001092C6101092C710C12CD12C760124C0BC
:104EC000E091FB05EF5FE43209F4E0E08091440FEC
:104ED000E81759F022E42E9FF0011124E450FA4F14
:104EE000C2A0D3A0E4A0F5A003C0C12CD12C7601B0
:104EF000C701B6010E9400416093C4107093C510B1
:104F00008093C6109093C710C1010E94E71C698B63
:104F10007A8B8B8B9C8B9B01AC010E9473406987C1
:104F20007A878B879C879B01AC01C501B4010E94E5
:104F3000384018160CF070C029853A854B855C8581
:104F4000C501B4010E945B3D9B01AC016D817E8176
:104F50008F8198850E9473409B01AC01C301B2010F
:104F60000E945B3D6093C8107093C9108093CA1073
:104F70009093CB1020E030E0A9010E94353E181636
:104F80002CF132E03093B71029813A814B815C815A
:104F9000CA01B9010E945C3DA30192010E947340C5
:104FA0009B01AC01C501B4010E945B3D0E94004120
:104FB0006093C4107093C5108093C6109093C7106F
:104FC0008091A61088608093A610FCC0A70196016E
:104FD00069857A858B859C850E945B3D9B01AC0130
:104FE0006D817E818F8198850E9473406093CC1083
:104FF0007093CD108093CE109093CF1089899A89A9
:10500000AB89BC898093C0109093C110A093C2104B
:10501000B093C31093E0BBC0A7019601C501B401D2
:105020000E945B3D9B01AC016D817E818F819885E3
:105030000E9473409B01AC01C301B2010E945C3D20
:1050400020E030E040E05FE30E9473406D877E87A0
:105050008F87988B20E030E0A9010E943840181615
:105060000CF098C0A30192016D857E858F8598898B
:105070000E94353E87FF8AC0A701960169857A851F
:105080008B859C850E945B3D9B01AC016D817E817F
:105090008F8198850E9473406093CC107093CD10DF
:1050A0008093CE109093CF102D853E854F855889E3
:1050B0000E94353E87FF39C029893A894B895C892E
:1050C0002093C0103093C1104093C2105093C3106E
:1050D00029853A854B855C85C501B4010E94353E22
:1050E000811104C031E03093B7106CC0A501940168
:1050F00069857A858B859C850E945B3D9B01AC010F
:105100006D817E818F8198850E9473409B01AC01E7
:10511000C301B2010E945B3D6093C8107093C91037
:105120008093CA109093CB104DC08D859E85AF851E
:10513000B8898093C8109093C910A093CA10B093F7
:10514000CB108093CC109093CD10A093CE10B09341
:10515000CF1029813A814B815C81CA01B9010E943B
:105160005C3D2D853E854F8558890E947340A7017F
:1051700096010E945C3D0E9400416093C0107093B4
:10518000C1108093C2109093C3101CC092E0909302
:10519000B71018C01092C8101092C9101092CA10FF
:1051A0001092CB108091C4109091C510A091C610A0
:1051B000B091C7108093C0109093C110A093C210FB
:1051C000B093C310186010934C02E091960FF8E072
:1051D000EF9FD0011124BE8BAD8BFD01EA5BF04F38
:1051E0008091A51084832091DD103091DE103CAFBA
:1051F0002BAFD9019E96BC91BBA3F901F7A5FCA3E7
:10520000D901D096BC91BDA3F901F1A9FEA32091CB
:10521000B3103091B4104091B5105091B6106BA1FD
:105220007CA18B2F9F2F0E945B3D6FA778AB89AB32
:105230009AAB20E030E0A9010E94353E87FF04C010
:105240001FA618AA19AA1AAA2091C0102F8B309154
:10525000C110388F4091C210498F5091C3105A8F9E
:105260008091C8108B8F9091C9109C8FA091CA100B
:10527000AD8FB091CB10BE8FE091BC10E983F0915F
:10528000BD10FD832091BE1029873091BF103D874E
:105290004091CC104FA35091CD1058A78091CE10C3
:1052A00089A79091CF109AA7A091B710A98BB09120
:1052B000B810BBA7E091B910ECA7F091BA10FDA708
:1052C0002091BB102EA73091C4103BAB4091C5106C
:1052D0004CAB5091C6105DAB8091C7108EAB2BA02C
:1052E0003CA00DA11EA18EE3C82E83ECD82E8EE229
:1052F000E82E89E3F82E412C512C3201CF8ED8A212
:10530000E9A2FAA23989313009F4F9C0ABADBCADDC
:10531000313008F477C0333009F020C19A962D91CE
:105320003D914D915C919D97C701B6010E947340DC
:105330004B015C012F89388D498D5A8D69817D81A2
:1053400089859D850E945B3DA50194010E94353EA3
:1053500018168CF12B8D3C8D4D8D5E8D6BA17CA133
:105360008DA19EA10E945B3D9B01AC010E945C3D12
:105370006B017C012F89388D498D5A8D69817D8122
:1053800089859D850E945C3D9B01AC01C701B601EA
:105390000E943C3E6B017C01BF89B983E88DED839F
:1053A000F98DF9872A8D2D872B8C3C8C0D8D1E8DC8
:1053B00031E0398B51C120E030E040E05FE3C501CE
:1053C000B4010E9473409B01AC0169817D81898594
:1053D0009D850E945B3D9B01AC01C701B6010E9407
:1053E00073409B01AC01B101C8010E945B3D1B01F0
:1053F0008C01A501940169817D8189859D850E942B
:105400005B3D78C09A962D913D914D915C919D9711
:10541000C701B6010E9473404B015C0120E030E0FF
:1054200040E05FE30E9473409B01AC0169817D8194
:1054300089859D850E945C3D9B01AC01C701B60139
:105440000E9473409B01AC01B101C8010E945B3D09
:105450001B018C012B8D3C8D4D8D5E8D0E94353E48
:1054600087FF40C02B8D3C8D4D8D5E8D6BA17CA147
:105470008DA19EA10E945B3D9B01AC010E945C3D01
:105480006B017C012F89388D498D5A8D69817D8111
:1054900089859D850E945C3D9B01AC01C701B601D9
:1054A0000E943C3E6B017C012FA138A549A55AA55D
:1054B0006B8D7C8D8D8D9E8D0E94353E811103C03C
:1054C000B2E0B98B02C0E1E0E98BFF89F983288D56
:1054D0002D83398D39874A8D4D872B8C3C8C0D8DD2
:1054E0001E8DBAC0A501940169817D8189859D8544
:1054F0000E945C3D69837D8389879D87ADC0A7013C
:1055000096016F89788D898D9A8D0E9473409B01D9
:10551000AC01B101C8010E945B3D5B014C012FA1B0
:1055200038A549A55AA50E94353E87FF93C02FA1F3
:1055300038A549A55AA5B101C8010E945B3D2F8934
:10554000388D498D5A8D0E943C3E6B017C012FA005
:1055500038A409A51AA552E0598B7EC09A962D91C0
:105560003D914D915C919D97C701B6010E9473409A
:105570004B015C019B01AC0169817D8189859D8521
:105580000E9438401816CCF520E030E040E05FE3A0
:10559000C501B4010E9473409B01AC0169817D810A
:1055A00089859D850E945B3D9B01AC01C701B601C9
:1055B0000E9473409B01AC01B101C8010E945B3D98
:1055C0006FAB78AF89AF9AAF2BA53CA54DA55EA573
:1055D0000E94384018168CF4A501940169817D81E0
:1055E00089859D850E945B3D69837D8389879D8731
:1055F0002FA838AC09AD1AAD2FC02BA53CA54DA5E1
:105600005EA5B101C8010E945B3D9B01AC010E94F7
:105610005C3D6B017C012BA93CA94DA95EA9698168
:105620007D8189859D850E945C3D9B01AC01C70100
:10563000B6010E943C3E6B017C01BBA9B983ECA979
:10564000ED83FDA9F9872EA92D872BA43CA40DA5D8
:105650001EA502C015018401A7019601C301B20174
:105660000E945C3D2B013C012F8D38A149A15AA11C
:105670000E94353E87FF07C0A30192016F8D78A17C
:1056800089A19AA131C02FA538A949A95AA9B10168
:10569000C8010E9438401816BCF089819D81A985F7
:1056A000BD858093BC109093BD10A093BE10B093A5
:1056B000BF1039893093B710E091DB10F091DC1006
:1056C000958D911134C02FC02EE333EC4EE259E397
:1056D0006F8D78A189A19AA10E945C3D6F8F78A3FC
:1056E00089A39AA3A30192010E945B3D6B017C01F7
:1056F0002BA53CA54DA55EA5B101C8010E9438406F
:1057000018160CF4FFCD89819D81A985BD858093F4
:10571000BC109093BD10A093BE10B093BF104989E8
:105720004093B710C9CF80914C0283FF43C0ABAD0B
:10573000BCAD5D968C915D97807359F1FD01FE962D
:10574000C080D180E280F3809923D1F02091D010E5
:105750003091D1104091D2105091D3106091BC1073
:105760007091BD108091BE109091BF100E94734047
:105770009B01AC01C701B6010E9473406B017C0123
:10578000C701B6010E9497179093D5108093D4104B
:105790000CC01092590210925A0210925B021092A1
:1057A0005C021092D5101092D41080914C02877F29
:1057B00080934C028091D4109091D510ED89FE8990
:1057C000EA5BF04FFA87E987978386832091AF10D1
:1057D0003091B0104091B1105091B210B101C80198
:1057E0000E94734069837A838B839C830E94223E4C
:1057F0006B017C016091AB107091AC108091AD1089
:105800009091AE100E94223E4B015C01A7019601CF
:105810000E945B3D0E94A93E6D837E838F839887A3
:10582000ED81FE81A985BA85ED93FC93EF2B41F4C0
:1058300080914C0281FF04C0816080934C02D9C0EA
:105840002091A7103091A8104091A9105091AA1052
:10585000C301B2010E945C3D2B013C0129813A81C8
:105860004B815C81C501B4010E945B3D9B01AC0191
:10587000C301B2010E943C3E4B015C0120EC31EEC1
:1058800044E65EE40E9473400E94223E0E94A93ECC
:10589000ED89FE89EA5BF04F603D37E073078105D3
:1058A000910510F4158230C0603A4FE0740781050D
:1058B000910518F451E055830BC06034AFE17A07CD
:1058C0008105910518F4B2E0B58302C023E0258379
:1058D000ED89FE89EA5BF04F2581022E04C0969582
:1058E0008795779567950A94D2F74D815E8102C0BE
:1058F000440F551F2A95E2F75183408361157105C6
:1059000051E08507910538F4ED89FE89EA5BF04F97
:105910007383628304C08FEF9FEF938382838091B0
:10592000DA108093960F8F5F8A3019F08093DA1027
:1059300002C01092DA10E091DD10F091DE10C1018A
:10594000D80186A797A7A0ABB1ABC092AB10D092FD
:10595000AC10E092AD10F092AE1029813A814B81EB
:105960005C81C701B6010E945B3DA50194010E94C4
:1059700073406093A7107093A8108093A910909320
:10598000AA102091B8103091B9104091BA105091DE
:10599000BB10B101C8010E94353E8111E5C820E06D
:1059A00030E0A901B101C8010E94384090914C0239
:1059B000181614F092FF04C0916090934C0219C025
:1059C0001092DE101092DD109091FB058091440F33
:1059D000891709F4C9C881E0890F843209F480E08D
:1059E0002091FA05921302C08093FA058093FB057B
:1059F000BBC8EC960FB6F894DEBF0FBECDBFDF91EB
:105A0000CF911F910F91FF90EF90DF90CF90BF90BB
:105A1000AF909F908F907F906F905F904F903F904E
:105A20002F900895CF93DF93C091DD10D091DE10B9
:105A30002097C9F08091A61081608093A610609194
:105A4000BC107091BD108091BE109091BF109B0151
:105A5000AC010E9473406AA37BA38CA39DA3109208
:105A6000DE101092DD10DF91CF9108950E948C130B
:105A700081E3E5EAF0E1DF011D928A95E9F78BE326
:105A8000EFEBF5E0DF011D928A95E9F71092DE1049
:105A90001092DD101092450F1092960F81E08093C6
:105AA000DA101092BE050E940513AAEDB5E0E9EBED
:105AB000F5E085E08E0F91919D938E13FCCF81B31D
:105AC0008E7F9091B405892B81BB81B38D7F90919E
:105AD000B905892B81BB81B38F7B9091B505892B4B
