:100000000C9427020C9448020C9448020C94480269
:100010000C9448020C9448020C9448020C94480238
:100020000C9448020C9448020C9448020C943A3305
:100030000C9448020C9448020C9448020C94480218
:100040000C9448020C94B4330C9448020C9448026B
:100050000C9448020C9448020C9448020C947C3393
:100060000C9448020C942B370C94D7370C9448020C
:100070000C9448020C9448020C9448020C944802D8
:100080000C9448020C9448020C9448020C941A37C1
:100090000C9448020C9448020C9448020C944802B8
:1000A0000C9448020C9448020C9448020C944802A8
:1000B0000C9448020C9448020C9448020C94480298
:1000C0000C9448020C9448020C9448020C94480288
:1000D0000C9448020C9448020C9448020C94480278
:1000E0000C944802084AD73B3BCE016E84BCBFFD4E
:1000F000C12F3D6C74319ABD56833DDA3D00C77FF8
:1001000011BED9E4BB4C3E916BAAAABE0000008090
:100110003F05A84CCDB2D44EB93836A9020C50B91F
:10012000918688083CA6AAAA2ABE000000803F004B
:100130000C940B3E0C94DC3D0C94AB370C94D42205
:100140000C94F13D0C94B1370C94F73D0C946D3D3B
:100150000C94DF3D0C947E3D0C94DE220C94F8222E
:100160000C94A8220C94BF370C9495370C94AF379D
:100170000C9497220C947D220C94A7370C947E3714
:100180000C94BE3D0C94BD370C940C3A0C94A937DA
:100190000C94B3370C94B23D0C94A03D0C948A227D
:1001A0000C94733D0C94C5370C94A4220C94342207
:1001B0000C949D3D0C94903D0C94883D0C94E82249
:1001C0000C94A93D0C94B9370C94B5370C94A33713
:1001D0000C9497370C94AD370C94143E0C94BB37A9
:1001E0000C94763D0C947B3D0C94C1370C94B62254
:1001F0000C94003E0C94C3370C94E83D0C94C83D1D
:100200000C94D43D0D0A4772626C20312E3264206A
:100210005B27242720666F722068656C705D0D0A6D
:1002200000244E005B4F50543A003A005B41585353
:100230003A005B5645523A312E32642E323032311A
:10024000303933303A005B544C4F3A005B47393217
:100250003A003330003238005B4700204700204D21
:100260000020530020460020540033382E005B4706
:10027000433A47005B484C503A242420242320244E
:100280004720244920244E2024783D76616C202488
:100290004E783D6C696E6520244A3D6C696E652020
:1002A00024534C50202443202458202448207E20CE
:1002B00021203F206374726C2D785D0D0A00414C43
:1002C00041524D3A000D0A005B5052423A007C41C7
:1002D0003A007C4F763A007C57434F3A007C506E90
:1002E0003A007C46533A007C4C6E3A007C42663AB7
:1002F000007C57506F733A007C4D506F733A005337
:100300006C65657000446F6F723A00436865636B9B
:1003100000416C61726D00486F6D65004A6F670047
:10032000486F6C643A0052756E0049646C650065F4
:1003300072726F723A000000C8430000C8430000A8
:10034000C843E4380E41E4380E4100803B4400804D
:100350003B4400803B440000B4440000B44400C867
:100360002F4800C82F4800C82F4800C82F4800C891
:100370002F480000C8C3000048C3000048C3000065
:10038000B4C3000034C30A0000FE010AD7A33C6FC7
:1003900012033B00803B460080094430000000C847
:1003A000420000FA43FA000000A0406F6B0D0A0003
:1003B000536C656570696E6700526573746F72691E
:1003C0006E67207370696E646C6500526573746F3C
:1003D00072696E672064656661756C74730050673E
:1003E0006D20456E6400436865636B204C696D69E0
:1003F000747300436865636B20446F6F72004469D7
:100400007361626C656400456E61626C6564004393
:10041000617574696F6E3A20556E6C6F636B6564BD
:1004200000272448277C2724582720746F20756EC6
:100430006C6F636B00526573657420746F20636F1B
:100440006E74696E7565005B4D53473A0000112468
:100450001FBECFEFD1E2DEBFCDBF00E00CBF12E088
:10046000A0E0B2E0E8E9F6E800E00BBF02C00790C8
:100470000D92AE31B107D9F721E1AEE1B2E001C092
:100480001D92AF3DB207E1F70E9425380C944A4314
:100490000C9400008F929F92AF92BF92CF92DF9206
:1004A000EF92FF920F931F93CF93DF937C016B0129
:1004B000DC01EC91F0E0E152FF4E8081EF018D32E2
:1004C00029F52296818101E0912CF0E010E020E0F6
:1004D00030E0A9015E01E0EDE80FEA3018F5FF5FBA
:1004E000F930E0F491101150A5E0B0E00E942343F0
:1004F0009B01AC01220F331F441F551F2E0F311DCE
:10050000411D511D2196D5018C91E4CF8B3219F0FC
:10051000219600E0D9CF22968181FBCF9110F2CFB6
:100520001F5FF0CFEE3F29F4911003C099249394FC
:10053000E9CFFF23F9F0CA01B9010E9420404B0125
:100540005C0120E030E0A9010E946E3F81112BC0C8
:10055000002309F445C0B7FAB094B7F8B094F60197
:1005600080829182A282B382CF5DD041C150F701D7
:10057000C083F1E08F2FDF91CF911F910F91FF90FA
:10058000EF90DF90CF90BF90AF909F908F900895A5
:100590002AE037ED43E25CE3C501B4010E94D0419B
:1005A0004B015C011E5F1F3F9CF31F3F59F42DEC74
:1005B0003CEC4CEC5DE3C501B4010E94D0414B0121
:1005C0005C01C6CF112321F220E030E040E251E48B
:1005D000C501B4010E94D0414B015C011150F2CF22
:1005E000D6018D929D92AD92BC921397BDCF2FB73D
:1005F000F8949091880F892B8093880F2FBF0895CE
:100600002FB7F8949091870F892B8093870F2FBF76
:1006100008959FB7F8948093860F9FBF08959FB762
:10062000F8942091850F809582238093850F9FBF3A
:1006300008952FB7F8949091850F892B8093850F9B
:100640002FBF08954F925F926F927F92AF92BF92A9
:10065000CF92DF92EF92FF920F931F93CF93DF938E
:1006600004E010E1EC015C0184E1A80EB11CF8018A
:10067000C190D190E190F1908F0120E030E0A9018C
:10068000C701B6010E946E3F8823A9F048805980B7
:100690006A807B8020E030E0A901C301B2010E94A2
:1006A00090411816E4F0A3019201C701B6010E941F
:1006B00090411816A4F02496CA15DB05C1F680E017
:1006C000DF91CF911F910F91FF90EF90DF90CF902E
:1006D000BF90AF907F906F905F904F90089581E0B2
:1006E000EFCF8F929F92AF92BF92CF92DF92EF9215
:1006F000FF920F931F93CF93DF93EB0128ECE22E31
:100700002FE0F22E8C016B0184E1C80ED11C69919F
:10071000799189919991F70181909190A190B190EF
:100720007F010E942240A50194010E94783FF801B8
:1007300061937193819391938F01CC15DD0539F706
:10074000DF91CF911F910F91FF90EF90DF90CF90AD
:10075000BF90AF909F908F90089590910601892F40
:100760008E7159F094FB882780F921E0822791FF50
:10077000826092FF846093FF88600895CF93DF9337
:10078000C091830FD091840F2097C9F08091530FAF
:1007900081608093530F6091690F70916A0F80910F
:1007A0006B0F90916C0F9B01AC010E94D0416AA32A
:1007B0007BA38CA39DA31092840F1092830FDF91D3
:1007C000CF910895CF93DF934091191050E060913D
:1007D0001A1070E0A3E6B4E0EEE5F4E090E080E00B
:1007E000282FEA01082E02C0D595C7950A94E2F792
:1007F000C0FF29C031E0882351F030E4813039F066
:1008000030E1833021F038E0843009F432E0308385
:10081000EB0102C0D595C7952A95E2F7C0FF1BC032
:10082000882331F0813089F0833089F0843089F079
:1008300022E02C930196119631968530910581F630
:10084000DF91CF9108951082E3CF20E8F2CF20E42A
:10085000F0CF28E0EECF1C92EDCF80912D1082FFDB
:100860002BC05F9A8A9A8091080181608093080169
:10087000129A479A80915E0480937F0480915F046E
:10088000809380048091600480938104809161044E
:100890008093820480916204809383048091181075
:1008A0008250990B880F819580937E0480916F0010
:1008B000826080936F0008955F988A988091080104
:1008C0008E7F8093080112984798D4CF9093AD0003
:1008D0008093AC00892B31F48091A000877F8093B6
:1008E000A00008958091A0008860F9CFE0EAF0E0D0
:1008F0008081877F8083A5980895E0EAF0E0808179
:10090000877F8083A1E0B1E08C9180628C9383E04B
:1009100080838AE18093A10080E094E09093A90015
:100920008093A8009D9A6B9A2091291030912A10EB
:1009300040912B1050912C10609125107091261031
:1009400080912710909128100E94783E9B01AC0165
:1009500060E070EC8FE794E40E94783F60935A0463
:1009600070935B0480935C0490935D040C94760414
:10097000E091550291E09E0F20915603291761F0F6
:10098000F0E0EA5AFD4F8083909355028091C100B8
:1009900080628093C10004C02091850F24FFECCFBA
:1009A0000895CF93DF93CFEDD0E18991811103C0FA
:1009B000DF91CF9108950E94B804F7CF1092890F6C
:1009C00090912D1097FD03C090E89093890F882394
:1009D00029F08091890F80588093890F08958F9214
:1009E0009F92AF92BF92CF92DF92EF92FF920F93BE
:1009F0001F93CF93DF93CDB7DEB72D970FB6F89443
:100A0000DEBF0FBECDBF6B017C01042F20E030E0C4
:100A1000A9010E946E3F87FF07C08DE20E94B804C3
:100A2000F7FAF094F7F8F094102F123008F054C051
:100A300000FF0AC020E030E040E251E4C701B60107
:100A40000E94D0416B017C0120E030E040E05FE398
:100A5000C701B6010E94793E0E94EA3F10E03AE0E9
:100A6000832E912CA12CB12CE12FF0E061157105A2
:100A700081059105E9F581E090E08C0F9D1FE80F5D
:100A8000F91F80E3101708F445C0101309C0E1E016
:100A9000F0E0EC0FFD1FE10FF11D80E380831F5F8D
:100AA000EE24E394F12CEC0EFD1EE10EF11C11116D
:100AB00034C02D960FB6F894DEBF0FBECDBFDF91C8
:100AC000CF911F910F91FF90EF90DF90CF90BF904B
:100AD000AF909F908F90089520E030E048EC52E472
:100AE000C701B6010E94D0416B017C0112509DCF1D
:100AF000EE24E394F12CEC0EFD1EEE0EFF1EA5017C
:100B000094010E94F942605DF7016083B901CA0156
:100B10001F5FAACF1F5F8193B5CF101303C08EE272
:100B20000E94B804F70182917F010E94B80411501D
:100B3000BECF20912D1040E020FF07C02BE832E40B
:100B400041E25DE30E94D04141E00C94EF0420912A
:100B50002D1043E020FF07C02BE832E441E25DE3C3
:100B60000E94D04144E00C94EF040F931F93CF9365
:100B70008C01C0E0F80161917191819191918F0197
:100B80000E94A705C43019F08CE20E94B804CF5F20
:100B9000C53081F7CF911F910F9108958F929F9249
:100BA000AF92BF92CF92DF92EF92FF920F931F937B
:100BB000CF93DF9300D000D000D01F92CDB7DEB727
:100BC0006115710581059105A9F480E32A960FB698
:100BD000F894DEBF0FBECDBFDF91CF911F910F9173
:100BE000FF90EF90DF90CF90BF90AF909F908F904D
:100BF0000C94B80400E09E012F5F3F4F79012AE07A
:100C0000822E912CA12CB12C6701C00ED11CA50104
:100C100094010E94F942F6016083B901CA010F5F95
:100C2000611571058105910579F70E0D1F2D111DB7
:100C3000E016F10699F42A960FB6F894DEBF0FBEBF
:100C4000CDBFDF91CF911F910F91FF90EF90DF907B
:100C5000CF90BF90AF909F908F900895F8018291B0
:100C60008F01805D0E94B804E3CFCF93DF93843679
:100C700058F06AE00E94D942C0E3C90F6AE00E94BE
:100C8000D942D0E3D90F04C0C0E0D0E08A30B0F739
:100C9000805D0E94B804DD2319F08D2F0E94B804F6
:100CA000CC2329F08C2FDF91CF910C94B804DF91E5
:100CB000CF910895CF93DF93EC01FE0184912196AB
:100CC000811103C0DF91CF9108950E94B804F5CF40
:100CD00085EC92E00C945A06CF93C82F8FE293E0F4
:100CE0000E945A068C2F0E943506CF910C946806FC
:100CF000811104C08BEA93E00C945A060C946C06A4
:100D0000CF92DF92EF92FF92CF93DF93D82F6A01B9
:100D10007B01C22F84E20E94B8048D2F0E94350609
:100D20008DE30E94B8044C2FC701B6010E94EF0466
:100D3000DF91CF91FF90EF90DF90CF900C946806F9
:100D4000CF93DF93D82FC62F84E20E94B8048D2F53
:100D50000E9435068DE30E94B8048C2F0E94350650
:100D6000DF91CF910C946806EF92FF920F931F933F
:100D7000CF93DF936091181070E080E00E94A0068E
:100D800060911B1070E081E00E94A0066091191034
:100D900070E082E00E94A00660911A1070E083E08B
:100DA0000E94A00660912D1062FB662760F970E03A
:100DB00084E00E94A00660912D1066FB662760F912
:100DC00070E085E00E94A00680912D10082E000C96
:100DD000990B692F661F6627661F70E086E00E94E8
:100DE000A00660911C1070E08AE00E94A00640916D
:100DF0001D1050911E1060911F107091201023E063
:100E00008BE00E9480064091211050912210609149
:100E100023107091241023E08CE00E9480066091E2
:100E20002D10617070E08DE00E94A00660912D1081
:100E300065FB662760F970E084E10E94A00660917E
:100E40002D1063FB662760F970E085E10E94A00623
:100E500060912D106295617070E086E10E94A0069D
:100E600060912E1070E087E10E94A00640912F1043
:100E700050913010609131107091321023E088E170
:100E80000E948006409133105091341060913510CB
:100E90007091361023E089E10E948006609137103E
:100EA000709138108AE10E94A0064091391050914B
:100EB0003A1060913B1070913C1023E08BE10E944E
:100EC0008006409125105091261060912710709156
:100ED000281020E08EE10E94800640912910509158
:100EE0002A1060912B1070912C1020E08FE10E944D
:100EF000800660912D106695617070E080E20E941E
:100F0000A00684E6F82E10E0C8ECDFE000E0E02E5A
:100F1000EF0C123011F1133069F11130C9F0488132
:100F200059816A817B8123E08E2D0E9480060F5FAC
:100F30002496053061F78AE0F80E1F5F8CE8F812FE
:100F4000E3CFDF91CF911F910F91FF90EF90089524
:100F50004C895D896E897F89E6CF20E030E041E6EB
:100F600055E468A579A58AA59BA50E94783FAB01A9
:100F7000BC01D9CF4CAD5DAD6EAD7FAD7058D3CF58
:100F80008DE50E94B8040C946806CF93DF93CDB72B
:100F9000DEB764970FB6F894DEBF0FBECDBF88EC06
:100FA00092E00E945A066EE97FE0CE0101960E940F
:100FB0007103CE0101960E94B5058AE30E94B80430
:100FC0008091B80F0E9435060E94C00764960FB644
:100FD000F894DEBF0FBECDBFDF91CF910895EAE850
:100FE000FFE0A9E2B2E041915191619171914D937D
:100FF0005D936D937D938FE0EE39F807A1F7089527
:10100000BF92CF92DF92EF92FF920F931F93CF93F5
:10101000DF937C01FC0102AD13ADD4ADC5AD858D70
:1010200080FF33C06091BF0F70E090E080E00E94CD
:1010300022402AE037ED43E25CE30E94D0419B016D
:10104000AC01B8018D2F9C2F0E94D0418B01D82F6D
:10105000C92F20E030E040E85FE3B8018D2F9C2FDE
:101060000E949041181624F000E010E0D0E8CFE391
:10107000B8018D2F9C2FDF91CF911F910F91FF9081
:10108000EF90DF90CF90BF90089582FD17C06091E0
:10109000BE0F70E090E080E00E9422402AE037ED31
:1010A00043E25CE30E94D0419B01AC01B8018D2F6B
:1010B0009C2F0E94D0418B01D82FC92FF701B6A8D1
:1010C000C7A8D0ACF1AC98014D2F5C2F6B2D7C2DB7
:1010D0008D2D9F2D0E946E3F87FFBBCF0B2D1C2DAA
:1010E000DD2DCF2DB6CF8091A5049091EE0D9817F0
:1010F00039F022E4829FC00111248A559B4F089544
:1011000090E080E008950E947308892B19F082E036
:101110000C94190308952F923F924F925F926F9211
:101120007F928F929F92AF92BF92CF92DF92EF9277
:10113000FF920F931F93CF93DF9300D01F92CDB7F1
:10114000DEB70091EE0D002309F486C009833981D2
:10115000315039831091A404131709F466C0C32ECB
:10116000D12CE2E43E9FC00111249C012A553B4F43
:101170007901F90176A087A090A4A1A462A573A526
:1011800084A595A59B01AC010E94793EF70126A597
:1011900037A540A951A90E94D041B62EE72EF82EBE
:1011A0009B83262F372F482F592F672D782D892D78
:1011B0009A2D0E946E3F87FF03C0B72C7401AB824B
:1011C00082E48C9DF0018D9DF00D1124EA55FB4FBA
:1011D0008B2D9E2DAF2DBB8182A393A3A4A3B5A37A
:1011E000F9818F2FF11101C084E2FF24FA94F80EE7
:1011F0003090A5041F1133C0131102C00E94BE031A
:10120000E2E41E9FC00111248A559B4F9A83898373
:1012100033243394310EF4E23F1201C0312C82E4C6
:10122000282E031185C01093A4040F900F900F90E7
:101230000F90DF91CF911F910F91FF90EF90DF9072
:10124000CF90BF90AF909F908F907F906F905F9066
:101250004F903F902F90089524E2298378CF2981E1
:1012600082E4289F900111242A553B4F3C832B8315
:1012700022E4E22E8F2C912CFE9CC0011124FC0153
:10128000EA55FB4FFA83E983F11002C094E2F92E8C
:10129000FA94F31002C00E94BE03E89CC001E99CCE
:1012A000900D11249C012A553B4F6901F90146A07C
:1012B00057A060A471A4A301920162A173A184A1AB
:1012C00095A10E946E3F882339F1F60162A573A5AE
:1012D00084A595A59B01AC010E94793EF60126A547
:1012E00037A540A951A90E94D041EB81FC8122A1E0
:1012F00033A144A155A10E94793E4B015C01AC0190
:101300009B01C301B2010E949041F60118165CF4E2
:1013100082A293A2A4A2B5A229813A813C832B8305
:101320001F11A8CF6DCF42A253A264A275A2F4CF21
:10133000C32CD12C329CC00111249C012A553B4F57
:101340007901E981FA8142A053A064A075A0F90156
:1013500082A093A0A4A0B5A0A5019401C301B201ED
:101360000E946E3F87FF26C0E981FA8162A573A5BE
:1013700084A595A59B01AC010E94793EE981FA8183
:1013800026A537A540A951A90E94D041A3019201E9
:101390000E94793E2B013C01AC019B01C501B401C7
:1013A0000E949041181634F4F70142A253A264A29D
:1013B00075A2132D2C9CF0012D9CF00D1124EA55E3
:1013C000FB4F26A137A140A551A562A173A184A11D
:1013D00095A10E946E3F811101C0132D3394F4E258
:1013E0003F1201C0312CFA82E9821BCF6F927F92AB
:1013F0008F929F92AF92BF92CF92DF92EF92FF9225
:101400000F931F93CF93DF93EB018C015B0184E17A
:10141000A80EB11C89E9682E96E7792E26E9822E5E
:101420003EE7932EC990D990E990F99020E030E002
:10143000A901C701B6010E946E3F8823B9F0A70138
:101440009601F80160817181828193810E94783FC9
:101450006B017C01E894F7F89301A401C701B60180
:101460000E949041181614F0360147010C5F1F4F7F
:10147000CA15DB05B9F6B301C401DF91CF911F9105
:101480000F91FF90EF90DF90CF90BF90AF909F9023
:101490008F907F906F900895CF92DF92EF92FF929E
:1014A0000F931F93CF93DF9384E1C82E82E0D82E51
:1014B000AFE0B2E0C5E0D2E000E012E030E020E0D2
:1014C00090E080E041E050E0722FF601E190F19071
:1014D0006F01F7016081FD90FA0102C0EE0FFF1F5E
:1014E000FA94E2F76E2339F47A01022E01C0EE0C71
:1014F0000A94EAF78E29E990F990F7016081F801E2
:10150000F1908F01FA0102C0EE0FFF1FFA94E2F78B
:101510006E2339F4FA0102C0EE0FFF1F7A95E2F74D
:101520009E2B2F5F3F4F2530310571F620912D10F6
:1015300026FF0CC08923806E8095DF91CF911F918B
:101540000F91FF90EF90DF90CF900895892BF5CF0A
:101550006D98E4E0F1E080818D7F80835398AAE06C
:10156000B1E08C918F778C938C918F7D8C936C985C
:1015700080818E7F8083529899988598759AE5E04E
:10158000F1E08081826080835B9AABE0B1E08C9176
:1015900080688C938C9180628C93749A8081816036
:1015A00080835A9AA19A8D9A08956AE87FE085E52A
:1015B00090E10C947103F894F999FECF92BD81BD2E
:1015C00081E08FBB20B5862F8227082E000C990B57
:1015D00050E086239523892B49F084E16F3F11F079
:1015E00060BD84E08FBBF99A789408952617E1F3E3
:1015F00060BD84E2F7CF9F92AF92BF92CF92DF920D
:10160000EF92FF920F931F93CF93DF935C018A01B8
:101610007B01E40EF51EEB01912C6C01C61AD70A72
:10162000CE018C0D9D1D21E0911007C0292D990C34
:10163000330B232F221F2227221F6991962E920EF1
:101640000E94DB0ACE15DF0559F7692DC501800F11
:10165000911FDF91CF911F910F91FF90EF90DF903D
:10166000CF90BF90AF909F900C94DB0A6AE090E01F
:1016700080E00E94DB0A45E750E068EC7FE081E013
:1016800090E00C94FB0AF999FECF92BD81BD81E0F8
:101690008FBB80B508959F92AF92BF92CF92DF9299
:1016A000EF92FF920F931F93CF93DF935B018A0119
:1016B0007C01E40EF51EEC01912C6B01C81AD90ACD
:1016C000C6018C0F9D1F0E94430B21E0911007C0A3
:1016D000292D990C330B232F221F2227221F982EEE
:1016E000920E8993CE15DF0559F7C501800F911F22
:1016F0000E94430B21E030E0891511F030E020E03A
:10170000C901DF91CF911F910F91FF90EF90DF9072
:10171000CF90BF90AF909F900895809102018695E1
:1017200081709091020190FD8260119984601399FB
:10173000886008959091B40F91110CC086FF0BC082
:101740002C9A87FF0AC08091020180648093020175
:101750001092C20F08952C98F4CF809102018F7BD4
:10176000F5CF2C98E2E0F1E080818F7B80830895B3
:101770002C9B06C080E49091020196FD806808953C
:1017800080E0F9CF4F925F926F927F92AF92BF92BB
:10179000CF92DF92EF92FF920F931F93CF93DF933D
:1017A000CDB7DEB7EC970FB6F894DEBF0FBECDBF56
:1017B00084E1EAE8FFE0DE01119601900D928A953E
:1017C000E1F7BE016F5F7F4FCE0145960E94710326
:1017D0008CE30E94B8048091B30F883009F41CC1D7
:1017E00008F0F7C0813009F420C108F410C182303C
:1017F00009F41EC1843009F415C180911C10082F12
:10180000017080FF2AC18091C30F882309F425C18C
:1018100088EF92E00E945A06CE0145960E94B505D7
:1018200080911C1081FF1EC08CEE92E00E945A062F
:101830009091EE0D8091A504981708F45DC18D5D1F
:10184000891B0E9435068CE20E94B80480915704DF
:1018500090915804981708F451C1981B892F8095CE
:101860000E9435060E9473080097F1F0FC01C68CB7
:10187000D78CE0A0F1A0C114D104E104F104A1F0DF
:1018800087EE92E00E945A06C701B601F7FE0AC031
:101890008DE20E94B80466277727CB016C197D0979
:1018A0008E099F090E94CE0582EE92E00E945A06A0
:1018B0008091B30F8C7709F424C16091690F709106
:1018C0006A0F80916B0F90916C0F0E9499058CE2CA
:1018D0000E94B8046091C40F7091C50F8091C60F2B
:1018E0009091C70F40E00E94EF040E944C0A182F0D
:1018F0000E94AD03082F809106018078F090890F37
:10190000F826812F802B8F29D1F18DED92E00E9456
:101910005A06FF2019F080E50E94B8041123C9F08F
:1019200010FF03C088E50E94B80411FF03C089E5D9
:101930000E94B80412FF03C08AE50E94B80413FF96
:1019400003C081E40E94B80414FF03C082E40E9433
:10195000B8040023A1F000FF03C084E40E94B8048F
:1019600001FF03C082E50E94B80402FF03C088E4BF
:101970000E94B80403FF03C083E50E94B80480916D
:10198000C30F882309F4C1C081508093C30F109105
:10199000C20F112309F4D2C011501093C20F8EE36D
:1019A0000E94B8040E946806EC960FB6F894DEBF59
:1019B0000FBECDBFDF91CF911F910F91FF90EF90A0
:1019C000DF90CF90BF90AF907F906F905F904F90DF
:1019D0000895803221F198F4803109F00ECF809182
:1019E000B50F87FD1CC080E293E00E945A068091EB
:1019F000B50F80FF2EC080E30E94B804FECE803475
:101A0000D1F0803809F0F9CE8FEF92E002C08AE27F
:101A100093E00E945A06F1CE86E293E0FACF8CE181
:101A200093E0F7CF87E193E0F4CF81E193E0F1CF4A
:101A30008BE093E0EECF85E093E00E945A06809120
:101A4000B50F83FF02C083E3D7CF82FF04C085FFB9
:101A5000D2CF81E3D1CF82E3CFCF4090911050908D
:101A60009210609093107090941089E6A82E80E1F7
:101A7000B82E6E0189E2C80ED11CFE0175967F0159
:101A800010E0F50161917191819191915F0120893F
:101A90003189428953890E94793EF601619371939D
:101AA000819391936F01123041F4A30192010E943E
:101AB000793E69AB7AAB8BAB9CAB011112C0F601DE
:101AC00034972081318142815381F7016081718196
:101AD000828193810E94783EF701608371838283C3
:101AE00093831F5FF4E0EF0EF11C153051F60111E6
:101AF0008FCE81EF92E08ECE8150A2CE8150891B95
:101B0000AFCE60E070E0CB01E0CE8091B30F8C7778
:101B100099F08DE18093C30F8091C20F811103C0B2
:101B200081E08093C20F87ED92E00E945A06CE01B9
:101B300089960E94B5052BCF89E0ECCF8091B30F39
:101B40008C7709F460C083E18093C20F82ED92E04C
:101B50000E945A068091BE0F0E9435068CE20E94B8
:101B6000B8048091BF0F0E9435068CE20E94B80431
:101B70008091C00F0E943506A59B07C08091A000F0
:101B800083FF03C0739941C011E00E94B80BF82E87
:101B90000E948D0B082F111105C0F11003C088237E
:101BA00009F4FDCE8EEC92E00E945A06112331F02A
:101BB00083E5113009F083E40E94B804F6FE03C007
:101BC00086E40E94B804F7FE03C08DE40E94B804C6
:101BD000002309F4E4CE84E40E94B80481E303FF07
:101BE00080E30E94B80481E302FF80E30E94B8040E
:101BF00081E301FF80E30E94B80481E300FF80E3FA
:101C00000E94B804CCCE89E09FCF12E0BECFE9E2BB
:101C1000F2E08CE2DF011D928A95E9F71092A504AB
:101C20001092EE0D81E0809328021092A404089592
:101C30004F925F926F927F928F929F92AF92BF92DC
:101C4000CF92DF92EF92FF920F931F93CF93DF9388
:101C5000EC0183E2E82E82E0F82E6E01812C912CBB
:101C6000540110E0E3E2F2E080E007C02191D701E7
:101C70009C91291709F464C08F5F8113F7CF00E0AE
:101C8000F60141905190619071906F0120E030E039
:101C9000A901C301B2010E946E3F882381F00111A6
:101CA0000EC0A3019201C301B2010E94D0419B0169
:101CB000AC01C501B4010E94793E4B015C011F5F7C
:101CC000FFEFEF1AFF0A153069F6C501B4010E9453
:101CD0006F426B017C01AC019B0160E070E080E829
:101CE0009FE30E94783F2B013C018E010C5E1F4F49
:101CF00069917991899199915E0124E0A21AB108C4
:101D0000A30192010E94D041D5016D937D938D93E3
:101D10009C931397C017D10759F7C701B601DF91FC
:101D2000CF911F910F91FF90EF90DF90CF90BF90D8
:101D3000AF909F908F907F906F905F904F9008959D
:101D400001E09ECF4F925F926F927F928F929F920F
:101D5000AF92BF92CF92DF92EF92FF926B017C0124
:101D60008090291090902A10A0902B10B0902C10E9
:101D700040902510509026106090271070902810E9
:101D8000A3019201C501B4010E94904187FF1BC0CD
:101D90006091C00F70E090E080E00E9422402AE055
:101DA00037ED43E25CE30E94D041A70196010E9417
:101DB000D0416B017C01AC019B01C301B2010E94C7
:101DC0006E3F1816BCF04092C40F5092C50F60923F
:101DD000C60F7092C70F80E094E0FF90EF90DF9005
:101DE000CF90BF90AF909F908F907F906F905F90BB
:101DF0004F900895A7019601C501B4010E9490413A
:101E000087FD1FC020E030E0A901C701B6010E9494
:101E10006E3F81110BC01092C40F1092C50F10922B
:101E2000C60F1092C70F90E080E0D7CF8092C40F0A
:101E30009092C50FA092C60FB092C70F81E090E0BC
:101E4000CCCFC092C40FD092C50FE092C60FF092D3
:101E5000C70FA5019401C701B6010E94783E2091E9
:101E60005A0430915B0440915C0450915D040E94DF
:101E7000D0410E945D4020E030E040E85FE30E94F6
:101E8000793E0E94F13FCB01A8CF9091B40F911100
:101E90000EC081110DC01092C40F1092C50F109288
:101EA000C60F1092C70F0E9476041092C20F0895B9
:101EB000803191F4739890912D1091FF05C080327C
:101EC00019F440E050E0BA01CB01BA010E94A20E21
:101ED0000E946604A59AE9CF739AEDCF2F923F92A4
:101EE0004F925F926F927F928F929F92AF92BF922A
:101EF000CF92DF92EF92FF920F931F93CF93DF93D6
:101F0000CDB7DEB7EB970FB6F894DEBF0FBECDBFEF
:101F10008091B70F80FD4AC29091EF0D8091F00D36
:101F2000981709F443C28091830F9091840F892BF5
:101F300009F07EC01091B70F12FF51C28091EE0DD3
:101F400022E4829FC00111248A559B4F9093840FF5
:101F50008093830F4091830F5091840F5A87498754
:101F6000452B09F423C20091530F00FF3BC210928E
:101F7000530F1092650F1092660F1092670F109218
:101F8000680FA985BA859A962D913D914D915C91E6
:101F90009D9729833A834B835C8360E070E080E007
:101FA0009FE30E94783F6D837E838F839887E985C6
:101FB000FA8546A457A460A871A882A093A0A4A003
:101FC000B5A011FF0CC3F2E0F093640FA5019401DA
:101FD0000E94D0419B01AC01C301B2010E94783E36
:101FE0006B017C0120E030E0A9010E946E3F87FF79
:101FF000E5C229813A814B815C81CA01B9010E9405
:10200000793EA30192010E94D0419B01AC01C50120
:10201000B4010E94783E0E946F426093710F7093EA
:10202000720F8093730F9093740F18601093B70F13
:10203000E091410EF8E0EF9FD0011124BA8BA98BFB
:10204000FD01EF50F24F8091520F84832091830F56
:102050003091840F3A872987D9019E96BC91BDA300
:10206000F901F7A5FEA3D901D096BC91BFA3F90150
:10207000F1A9F8A72091600F3091610F4091620F94
:102080005091630F6DA17EA18B2F9F2F0E94783EF0
:1020900069AB7AAB8BAB9CAB20E030E0A9010E942E
:1020A0006E3F87FF04C019AA1AAA1BAA1CAA209176
:1020B0006D0F2D8B30916E0F3E8B40916F0F4F8BBC
:1020C0005091700F588F8091750F8D8F9091760F72
:1020D0009E8FA091770FAF8FB091780FB8A3E0914A
:1020E000790FE9A7F0917A0FFAA720917B0F2BA720
:1020F00030917C0F3CA74091640F4D875091690F40
:102100005AAF80916A0F8BAF00916B0F10916C0FDB
:102110009091650F9DA7A091660FAEA7B091670F34
:10212000BFA7E091680FE8ABF091710FFEAB209173
:10213000720F2FAB3091730F38AF4091740F49AFCE
:1021400029A53AA54BA55CA56D8D7E8D8F8D98A197
:102150000E946E3F8111D2C352E05DAB9DA1998F69
:10216000AEA1AA8FBFA1BB8FE8A5EC8F8EE3C82ECE
:1021700083ECD82E8EE2E82E89E3F82E412C512CE8
:102180003201A701960129A33AA34BA35CA35D8565
:10219000513009F44EC4A985BA85513008F4DEC324
:1021A000533009F07CC49A962D913D914D915C91EC
:1021B0009D97C701B6010E94D0414B015C012D895A
:1021C0003E894F89588D6AAD7BADC8010E94783E2B
:1021D0009B01AC01C501B4010E94904187FD98C3E9
:1021E0002D8D3E8D4F8D58A16DA17EA18FA198A5FB
:1021F0000E94783E9B01AC010E94793E6B017C01FC
:102200002D893E894F89588D6AAD7BADC8010E94EA
:10221000793E9B01AC01C701B6010E94783F6B017A
:102220007C01BD89BAAFEE89EBAF0F89188D2D8C7B
:102230003E8CFF8DF98328A12D8331E03D87A701D6
:102240009601C301B2010E94793E2B013C0129A1F4
:102250003AA14BA15CA10E946E3F87FF8AC4A301F3
:10226000920169A17AA18BA19CA10E94783E6B0189
:102270007C01910149815D816DA57EA58FA598A9FD
:102280000E946E3F87FD3DC38AAD9BADD801809310
:10229000690F90936A0FA0936B0FB0936C0F3D85FD
:1022A0003093640FE091420EF091430E858D8111C1
:1022B00004C09091B70F93FF32C0A985BA855D968F
:1022C0009C915D97907309F47FC4FD01FE96C080D8
:1022D000D180E280F3808823A9F020917D0F309196
:1022E0007E0F40917F0F5091800F6AAD7BADC8018A
:1022F0000E94D0419B01AC01C701B6010E94D041B0
:102300006B017C01C701B6010E94A20E9093820F5F
:102310008093810F8091B70F877F8093B70F809153
:10232000810F9091820FE989FA89EF50F24FFAA359
:10233000E9A39783868320915C0F30915D0F4091D4
:102340005E0F50915F0FB10189819D810E94D04144
:1023500069877A878B879C870E94573F6B017C0136
:102360006091580F7091590F80915A0F90915B0FA7
:102370000E94573F4B015C01A70196010E94783EE5
:102380000E94F13F6D877E878F87988BED85FE8554
:10239000A9A1BAA1ED93FC93EF2B09F022C480917F
:1023A000B70F81FF1EC481608093B70FEB960FB605
:1023B000F894DEBF0FBECDBFDF91CF911F910F917B
:1023C000FF90EF90DF90CF90BF90AF909F908F9055
:1023D0007F906F905F904F903F902F9008950E9454
:1023E0007308B4CD8091520F8F5F893009F480E07B
:1023F0008093520F282F30E05EE1859FC0011124A9
:10240000DC01AC5BB14F7D01B093430EA093420E53
:10241000E985FA85808D58968C935897818D5996C9
:102420008C935997828D5A968C935A97838D5B968D
:102430008C935B97848D5C968C9390E080E04191C7
:10244000519161917191D701A80FB91F689412F849
:10245000440F551F661F771F1694D1F74D935D9358
:102460006D937C93139704968431910541F7A98568
:10247000BA8554966D917D918D919C915797BEE14F
:10248000B29FA001B39F500D1124FA01EC5BF14FF4
:102490004B015C0123E0880C991CAA1CBB1C2A95EB
:1024A000D1F7848A958AA68AB78A0E9420406093D1
:1024B000580F7093590F80935A0F90935B0FE985D3
:1024C000FA8526A537A540A951A90E94783F9B010E
:1024D000AC0120935C0F30935D0F40935E0F5093DF
:1024E0005F0F60E070E080EA9FE30E94783F6093B6
:1024F000600F7093610F8093620F9093630F10923F
:10250000540F1092550F1092560F1092570F11FD45
:1025100002C003FF42C06091710F7091720F8091F1
:10252000730F9091740F6093690F70936A0F80938B
:102530006B0F90936C0F9B01AC010E94D041A98559
:10254000BA8592966D937D938D939C939597077F13
:102550000093530FD7015D961C9280912D1081FF3F
:1025600008CDE985FA85858D85FF03CD22AD33AD94
:1025700044AD55AD60E070E080E89FE30E94783F95
:1025800060937D0F70937E0F80937F0F9093800FE9
:10259000E1E0D7015D96EC93ECCCE985FA8562A188
:1025A00073A184A195A10E946F426093690F7093FB
:1025B0006A0F80936B0F90936C0FCCCFC092650F16
:1025C000D092660FE092670FF092680F1092710F31
:1025D0001092720F1092730F1092740F26CD1092FA
:1025E000640F4092750F5092760F6092770F709241
:1025F000780F12FF6AC01092710F1092720F109232
:10260000730F1092740FC12CD12C760189859A8595
:102610000E940008698B7A8B8B8B9C8B9B01AC0191
:102620000E94D04169877A878B879C87A501940196
:102630000E946E3F87FF93C029853A854B855C8554
:10264000C501B4010E94783E2D813E814F8158859D
:102650000E94D0419B01AC01C301B2010E94783EAF
:102660006093750F7093760F8093770F9093780F28
:1026700020E030E0A9010E946E3F18160CF449C01A
:1026800032E03093640F29813A814B815C81CA0129
:10269000B9010E94793EA30192010E94D0419B01A1
:1026A000AC01C501B4010E94783E0E946F42609364
:1026B000710F7093720F8093730F9093740F8091CA
:1026C000530F88608093530FB0CCE091A504EF5F67
:1026D000E43209F4E0E08091EE0DC12CD12C7601BA
:1026E0008E1751F022E42E9FF0011124EA55FB4F82
:1026F000C2A0D3A0E4A0F5A0C701B6010E946F421A
:102700006093710F7093720F8093730F9093740F97
:102710007DCFA701960169857A858B859C850E946E
:10272000783E2D813E814F8158850E94D041609333
:10273000790F70937A0F80937B0F90937C0F898928
:102740009A89AB89BC8980936D0F90936E0FA0938B
:102750006F0FB093700F93E09093640F66CCA70156
:102760009601C501B4010E94783E2D813E814F81C2
:1027700058850E94D041A30192010E94793E20E039
:1027800030E040E05FE30E94D0416D877E878F8715
:10279000988B20E030E0A9010E94904118160CF0BF
:1027A00094C0A30192016D857E858F8598890E94D2
:1027B0006E3F87FF88C0A701960169857A858B8562
:1027C0009C850E94783E2D813E814F8158850E94D4
:1027D000D0419B01AC012093790F30937A0F409345
:1027E0007B0F50937C0F6D857E858F8598890E9425
:1027F00090411816BCF529893A894B895C89209348
:102800006D0F30936E0F40936F0F5093700FA501B3
:10281000940169857A858B859C850E946E3F811124
:1028200004C031E03093640F00CCA50194016985A8
:102830007A858B859C850E94783E2D813E814F81D3
:1028400058850E94D0419B01AC01C301B2010E9496
:10285000783E6093750F7093760F8093770F909307
:10286000780FE3CB8D859E85AF85B8898093750FF2
:102870009093760FA093770FB093780F8093790F92
:1028800090937A0FA0937B0FB0937C0F29813A81AC
:102890004B815C81CA01B9010E94793E2D853E853C
:1028A0004F8558890E94D041A70196010E94793E28
:1028B0000E946F4260936D0F70936E0F80936F0F45
:1028C0009093700FB2CB92E047CF8091710F9091AF
:1028D000720FA091730FB091740F1092750F109238
:1028E000760F1092770F1092780F80936D0F909360
:1028F0006E0FA0936F0FB093700F97CB81E08DABED
:102900002DCC298E3A8E39813B8F4D814C8F3FCC17
:1029100020E030E040E05FE3C501B4010E94D04117
:102920009B01AC016AAD7BADC8010E94783EA70156
:1029300096010E94D0419B01AC01698D7A8D8B8DEF
:102940009C8D0E94783E1B0189839D83A501940183
:102950006AAD7BADC8010E94783E67C09A962D9102
:102960003D914D915C919D97C701B6010E94D04168
:102970004B015C0120E030E040E05FE30E94D04189
:102980002AAD3BADA8010E94793EA70196010E94A5
:10299000D0419B01AC01698D7A8D8B8D9C8D0E94FD
:1029A000783E1B0189839D839B01AC016D8D7E8DDB
:1029B0008F8D98A10E949041181684F52D8D3E8D23
:1029C0004F8D58A16DA17EA18FA198A50E94783E40
:1029D0009B01AC010E94793E6B017C012D893E89EF
:1029E0004F89588D6AAD7BADC8010E94793E9B012D
:1029F000AC01C701B6010E94783F6B017C01BDA903
:102A0000BD87ED89EAAFFE89FBAF0F89188D2D8C4C
:102A10003E8C2F8D298338A13D8311CCA5019401D3
:102A20006AAD7BADC8010E94793E6AAF7BAF8C0175
:102A300006CC2D893E894F89588DC701B6010E9469
:102A4000D0419B01AC01698D7A8D8B8D9C8D0E944C
:102A5000783E1B0189839D8329A53AA54BA55CA5DA
:102A60000E946E3F87FFEBCB29A53AA54BA55CA53D
:102A7000698D7A8D8B8D9C8D0E94783E2D893E8943
:102A80004F89588D0E94783F6B017C0129A43AA49C
:102A90004BA549835CA55D8382E08D87D0CB9A9658
:102AA0002D913D914D915C919D97C701B6010E947A
:102AB000D0414B015C01AC019B016AAD7BADC8010B
:102AC0000E94904118163CF520E030E040E05FE3C2
:102AD000C501B4010E94D0419B01AC016AAD7BAD40
:102AE000C8010E94783EA70196010E94D0419B0137
:102AF000AC01698D7A8D8B8D9C8D0E94783E1B0177
:102B000089839D832DA53EA54FA558A90E9490417C
:102B100018160CF41BCF2DA53EA54FA558A9698DFD
:102B20007A8D8B8D9C8D0E94783E9B01AC010E941A
:102B3000793E6B017C012EA93FA948AD59AD6AAD24
:102B40007BADC8010E94793E9B01AC01C701B60173
:102B50000E94783F6B017C01BEA9BAAFEFA9EBAF31
:102B600008AD19AD2DA43EA4FFA5F98328A92D8396
:102B700066CB29A93AA94BA95CA9B10189819D819C
:102B80000E94904118168CF42EE333EC4EE259E388
:102B900069A17AA18BA19CA10E94793E69A37AA325
:102BA0008BA39CA3A301920160CB8AAD9BADD801FE
:102BB0008093690F90936A0FA0936B0FB0936C0F83
:102BC0004D854093640F6ECB1092C40F1092C50FC9
:102BD0001092C60F1092C70F1092820F1092810FA1
:102BE00099CB2091540F3091550F4091560F509131
:102BF000570FC301B2010E94793E2B013C01298588
:102C00003A854B855C85C501B4010E94783E9B01E5
:102C1000AC01C301B2010E94783F4B015C0120EC82
:102C200031EE44E65EE40E94D0410E94573F0E948C
:102C3000F13FE989FA89EF50F24F603D37E07307C1
:102C40008105910508F059C01582E989FA89EF508C
:102C5000F24F738362838091F00D8093410E8F5FFA
:102C60008A3009F480C08093F00DE091830FF091D9
:102C7000840FC101A981BD8186A797A7A0ABB1AB85
:102C8000C092580FD092590FE0925A0FF0925B0FFA
:102C900029853A854B855C85C701B6010E94783E3F
:102CA000A50194010E94D0416093540F7093550F79
:102CB0008093560F9093570F2091650F3091660FB8
:102CC0004091670F5091680FB10189819D810E94E9
:102CD0006E3F811121C99091B70F998720E030E0B4
:102CE000A901B10189819D810E9490411816F4F5D6
:102CF000A985A160A093B70F59CB603A4FE0740744
:102D00008105910520F551E05583E989FA89EF5055
:102D1000F24F2581022E04C0969587957795679589
:102D20000A94D2F74D855E8502C0440F551F2A953F
:102D3000E2F7518340836115710551E085079105E4
:102D400008F483CF8FEF9FEF9383828384CF603427
:102D5000AFE17A078105910518F4B2E0B583D5CFCC
:102D600023E02583D2CF1092F00D7FCFB985B2FF3B
:102D700004C0B160B093B70F19CB1092840F1092BA
:102D8000830F9091A5048091EE0D891709F4C4C8B2
:102D900081E0890F843209F480E02091A404921329
:102DA00002C08093A4048093A504B6C880916F00EC
:102DB0008D7F80936F0080918100887F81608093F8
:102DC00081001092680480911B109091B30F8F3F87
:102DD000E1F42091860F211118C09038C1F490E0E1
:102DE0000197B8F481E090912D1092FF02C091E01C
:102DF00089278823A9F05F9A8A9A809108018160C7
:102E000080930801129A479A0895943041F780E020
:102E1000EACFEFE9FFE03197F1F700C00000E0CF23
:102E20005F988A98809108018E7F8093080112989C
:102E300047980895CF93DF930E94D616E2E5FFE00E
:102E400081E3DF011D928A95E9F7C9E6D4E08BE3BF
:102E5000FE0111928A95E9F71092840F1092830F68
:102E60001092EF0D1092410E81E08093F00D1092C0
:102E700068040E94E203E3E6F4E080818B8F218105
:102E80002C8F92819D8F63816E8F54815F8F81B370
:102E90008E7FAEE5B4E03C91832B81BB81B38D7F07
:102EA0003081832B81BB41B34F7B11968C9111975D
:102EB000482B41BB31B33F77322B31BBEBE0F1E024
:102EC0003081377F12968C911297382B3083208176
:102ED0002D7F292B208322B12F7E13968C9113975F
:102EE000282B22B992B19F7B962B92B998B19D7FE6
:102EF00014968C91982B98B988B1877F852B88B9C7
:102F0000DF91CF9108958091850F84FD1DC080E1F0
:102F10000E9419030E9476040E94B10B9091B30F96
:102F2000892F8C7221F48091B70F867069F09430EC
:102F300049F48091860F811103C086E00E94090345
:102F40000C94D61683E0FACF08954F925F926F9259
:102F50007F928F929F92AF92BF92CF92DF92EF9229
:102F6000FF920F931F93CF93DF93C091860FCC23D3
:102F700091F181E08093B30F8EEB92E00E945A06AC
:102F80008C2F0E9435060E94680685EF91E001971C
:102F9000E9F5C150C230D0F487E494E00E945A06AB
:102FA00085E394E00E945A060E94C00780E10E94D7
:102FB0000F038091850F80FF05C00E94C20B81E046
:102FC0000E940F038091850F84FFF3CF8FB7F89491
:102FD0001092860F8FBFC091850FCC2309F4E2C0F9
:102FE000C4FF1BC081E08093B40FDF91CF911F918C
:102FF0000F91FF90EF90DF90CF90BF90AF909F9098
:103000008F907F906F905F904F900895EFE9FFE071
:103010003197F1F700C00000BACFC0FF05C00E9491
:10302000C20B81E00E940F038C2F887E09F46AC0D6
:103030008091B30F982F937009F053C08872A9F054
:103040008091B50F807C89F40E94BE0382E080935A
:10305000B70F8091B30F803241F480E2C7FD0CC0FE
:103060008091B50F80688093B50F8091B30F811167
:1030700003C091E09093B50FC6FF07C085FD05C062
:103080009091B50F90649093B50FC3FF05C0807EFB
:1030900019F480E18093B30FC5FF23C087E494E067
:1030A0000E945A0683EF93E00E945A060E94C007CE
:1030B0008091B50F87FD10C09091B30F903451F4FB
:1030C00083FF04C0837E82608093B50F80E4809389
:1030D000B30F02C09038D1F78091B50F8062809312
:1030E000B50FC7FF0CC08091B30F813029F48091D8
:1030F000B50F85608093B50F80E88093B30F88EE9D
:103100000E940F03C1FF28C08C2F887611F5809193
:10311000B30F803441F48091B50F85FD04C084FF66
:1031200002C11092B30F8091B30F882309F401C13B
:1031300084FF0FC09091B50F90FF0BC0803109F054
:10314000F8C08091C10F882309F4F3C08860809390
:10315000C10F82E00E940F03C2FF24C09091B50FFF
:103160008091B30F807D09F4FDC08091B60F81116D
:10317000F9C097FDF9C00E94BE038091A504809319
:10318000A4040E948B088091B70F81FF05C0909125
:10319000B50F91609093B50F897F8093B70F84E04E
:1031A0000E940F039091870F992309F44DC08FB7A8
:1031B000F8941092870F8FBF4091BE0F842F90FD1F
:1031C00084E691FD865F92FD8A5093FD8F5F94FDAA
:1031D0008150893C08F088EC8A3008F48AE030910C
:1031E000BF0F232F95FD24E696FD22E397FD29E1ED
:1031F000481302C0231741F18093BE0F2093BF0FE5
:103200001092C20F8090A5044090EE0DC82D89E960
:10321000B82E96E7E92E26E9F22EDEE732E4532EA9
:10322000C411BDC08B2D9E2DAF2DBD2F809351029B
:1032300090935202A0935302B09354020E94BE0393
:103240008092A4040E948B08D091880FDD2309F49A
:1032500053C08FB7F8941092880F8FBF9091C00F12
:10326000892FD0FD84E6D1FD865FD2FD8A50D3FD43
:103270008F5FD4FD8150893C08F088EC8A3008F4D7
:103280008AE09817A1F09091B30F8093C00F91112D
:10329000DBC0409148105091491060914A107091E4
:1032A0004B10809146100E94450F1092C20F8091E2
:1032B000B30FD5FF09C0803139F49091C10F91113E
:1032C000C9C092E09093C10F9D2F907CA9F08823F4
:1032D00011F0887389F0C0914510D7FF03C0C7FF74
:1032E000BDC0CF77D6FF03C0C6FFBAC0CF7B8C2F3F
:1032F0000E949A0BC09345108091B30F8C7F09F404
:1033000074CEDF91CF911F910F91FF90EF90DF90DE
:10331000CF90BF90AF909F908F907F906F905F9075
:103320004F900C946E0F82FFFECE88608093B50F95
:10333000FACE1092B70F0E947308892B71F080911A
:10334000B50F86FD0AC01092B50F88E08093B30FC9
:103350000E946E0F0E942D04FCCE1092B50F1092A9
:10336000B30FF7CE97FF0AC01092B70F0E94070E57
:103370000E941A170E94D50A0E94EF078091B50F8C
:1033800085FF08C08F7781608093B50F80E48093BC
:10339000B30F05CF1092B50F1092B30F00CFCC2E04
:1033A000D12CC59DC00111248A559B4F0E94000855
:1033B0003B01982EA92E2B2D3E2D4F2D5D2F0E94C7
:1033C00090415C9C80015D9C100D11240A551B4F9F
:1033D00018169CF52B2D3E2D4F2D5D2F6B2D7E2D20
:1033E0008F2D9D2F0E94D041F80166A377A380A75F
:1033F00091A75C9C80015D9C100D11240A551B4F08
:10340000F801C2A8D3A8E4A8F5A8A701960166A16F
:1034100077A180A591A50E94904118162CF4F8017F
:10342000C6A2D7A2E0A6F1A6CF5FC43209F4C0E0DD
:10343000B62CE72CF92CDA2DF3CE9301492D5A2D19
:10344000B301892D9A2DCECF8091B70F88608093DC
:10345000B70F2BCF90FF38CF946034CFC06842CFE6
:10346000C06445CF1F93CF93DF93142F20E030E04B
:1034700040EA51E40E94D0410E94573F0E94F13F30
:10348000EB012097C9F08091B40F811115C0111183
:103490000DC00E94601A2FEF80E792E0215080401B
:1034A0009040E1F700C000002197EBCF0E94A517E4
:1034B0008091B50F81FFEFCFDF91CF911F910895DC
:1034C000CF92DF92EF92FF920F931F93CF930E94C0
:1034D000A5178091B50F882309F46DC00E94730869
:1034E0008C01009709F03FC0C091461080914510B3
:1034F000C82BC0904810D0904910E0904A10F0902E
:103500004B1080912D1081FF03C080E20E94F702D2
:103510001C2F107301E0C07C8091B50F882309F443
:103520004AC09091B40F911146C080FF19C090918C
:10353000B30F292F207C09F491C082FD21C0109285
:10354000C10F40E050E0BA0180E00E94450F80E0EA
:103550000E949A0B8091B50F8D7F84608093B50F88
:103560000E94A517D9CFFC01C58DC0730E94B80B6E
:10357000C82BF801FE96C080D180E280F380C1CFD5
:10358000903821F587E494E00E945A0680EB93E09E
:103590000E945A060E94C00740E050E0BA0180E055
:1035A0000E94450F80E00E949A0B0E94D6168091DF
:1035B000B40F882341F0CF911F910F91FF90EF90AE
:1035C000DF90CF9008950E94A517F1CF903449F471
:1035D0000E94AD0380FD05C08091B50F8F7D809363
:1035E000B50F8091B50F83FFBBCF90914610992303
:1035F00059F081FD09C080912D1081FF22C080917A
:10360000B70F88608093B70F80914510882371F0C1
:103610008091B50F81FD0AC08C2F0E949A0B41E06A
:1036200060E070E080E89FE30E94321A8091B50F5D
:1036300081FD96CF80618093B50F82E00E941903CF
:103640008FCFB701A601812F0E94450F41E060E0B6
:1036500070E080E890E40E94321AD6CF8091C10FCA
:103660008823C9F181FF0DC080914610882351F154
:1036700040E050E0BA0180E00E94450F0093C10F86
:103680006FCF8C7009F46CCF80914610882399F02D
:1036900087E494E00E945A0689EB93E00E945A0660
:1036A0000E94C00780912D1081FF0FC08091B70F3D
:1036B00088608093B70F8091C10F83FF03C082E0C1
:1036C0000E9419031092C10F4BCFB701A601812FA1
:1036D0000E94450FF0CF8091B70F83FF41CFB70114
:1036E000A601812F0E94450F8091B70F877F80939D
:1036F000B70F36CF0E9483080E94601A8091B40FE2
:10370000811108C00E947308892BB1F78091B30F13
:10371000883091F30895CF93DF9321E031E0829FC9
:10372000E001839FD00D1124DD5F40E051E0BE0138
:103730008FED90E10E944B0B892B79F41092DF10F2
:103740000E947A1B40E051E06FED70E1CE010E94D3
:10375000FB0A80E0DF91CF91089581E0FBCF0E94CA
:103760007A1B1092C30F0895CF92DF92EF92FF92CF
:10377000CF939091B30F923079F06A017B01C82FFB
:103780000E947A1BB701A6018C2FCF91FF90EF907A
:10379000DF90CF900C94450FCF91FF90EF90DF908A
:1037A000CF9008950F931F93CF93C82F8B010E9442
:1037B0007A1B25E1C29FC001112444E150E0B80109
:1037C0009E5FCF911F910F910C94FB0A1F93CF9393
:1037D000DF93182FEB0185E1189FB00111247E5F64
:1037E00044E150E0CE010E944B0B892B71F484E13F
:1037F000FE0111928A95E9F7BE01812F0E94D21B2A
:1038000080E0DF91CF911F91089581E0FACFEF9290
:10381000FF920F931F93CF93DF93CDB7DEB76497DB
:103820000FB6F894DEBF0FBECDBF182F80FF0BC0C0
:1038300085E7E6E3F3E0A8ECBFE005900D928A95FA
:10384000E1F70E94360B11FF10C0CE0101967C01FA
:1038500084E1F70111928A95E9F700E0B701802F22
:103860000E94D21B0F5F0830C9F712FF14C060E03E
:1038700080E093E00E94DB0A60E081E093E00E9438
:10388000DB0A60E081E094E00E94DB0A60E082E015
:1038900094E00E94DB0A13FF0AC060E08EEA93E026
:1038A0000E94DB0A60E08FEA93E00E94DB0A6496E4
:1038B0000FB6F894DEBF0FBECDBFDF91CF911F9141
:1038C0000F91FF90EF9008952F923F924F925F9249
:1038D0006F927F928F929F92AF92BF92CF92DF9220
:1038E000EF92FF920F931F93CF93DF93CDB7DEB785
:1038F000C256D1090FB6F894DEBF0FBECDBF679692
:103900007FAF6EAF6797B090EE0D2B2C312C22E479
:10391000B29EA0011124BA016A557B4F63967FAF16
:103920006EAF6397DB011D922A95E9F76796EEADBE
:10393000FFAD67972485DB015D962C93FB01FE9616
:103940006796AEADBFAD679714964D915D916D9141
:103950007C911797408351836283738318964D91AE
:103960005D916D917C911B976396EEADFFAD639772
:10397000468F578F60A371A321FFBAC124E1EAE803
:10398000FFE0DE01999601900D922A95E1F7649689
:103990008FAF649765969FAF659728EC3FE0A1963F
:1039A0003FAF2EAFA197BE016B5E7F4F6F967FAF8B
:1039B0006EAF6F97CE0189966D969FAF8EAF6D9764
:1039C000DE01DD966996BFAFAEAF69976B96BFAF6C
:1039D000AEAF6B9710E000E0912C812C22E4229D89
:1039E000C001239D900D1124FC01E654FB4FA396CA
:1039F000FFAFEEAFA3976596AEADBFAD65976D9186
:103A00007D918D919D916596BFAFAEAF6597A19663
:103A1000EEADFFADA1974190519061907190A1964C
:103A2000FFAFEEAFA197A30192010E94D0410E9487
:103A30009D416F96AEADBFAD6F976D937D938D93A6
:103A40009D936F96BFAFAEAF6F976D96EEADFFAD26
:103A50006D97C190D190E190F1906D96FFAFEEAF70
:103A60006D976C197D098E099F099B01AC0197FF29
:103A700007C022273327A901261B370B480B590BF8
:103A80006396EEADFFAD6397E00FF11F20833183A6
:103A900042835383A396AEADBFADA397CD90DD9087
:103AA000ED90FC90C216D306E406F50610F4690109
:103AB0007A01A396EEADFFADA397C082D182E282D8
:103AC000F3820E942240A30192010E94783F6B96EC
:103AD000AEADBFAD6B976D937D938D939D936B96BC
:103AE000BFAFAEAF6B9720E030E0A9010E946E3F00
:103AF00087FF16C0882D882049F0813009F4FCC06A
:103B0000833009F4FBC0843009F4FAC082E0639684
:103B1000EEADFFAD6397E80DF91D908D892B808F79
:103B2000BFEF8B1A9B0A0C5F1F4F0431110509F080
:103B300062CF80E0CD28CE28CF2809F4BFC0CE01C7
:103B4000CD960E94180E6B017C0182E4829D80015B
:103B5000839D100D11240A551B4FF801C6A6D7A648
:103B6000E0AAF1AABE01635C7F4F80EF9FE00E9454
:103B7000F609D8019A966D937D938D939C939D97AA
:103B8000BE01635C7F4F8CED9FE00E94F609F80157
:103B900066AB77AB80AF91AFA58CA0FEB3C062AF30
:103BA00073AF84AF95AF8091A504B81611F0A1FE54
:103BB000C5C082E4829DF001839DF00D1124EA5579
:103BC000FB4F12A213A214A215A212AA13AA14AA9E
:103BD00015AA82E4829D8001839D100D11240A554F
:103BE0001B4FD8015D968C9181FD67C063968EADA9
:103BF0009FAD63970E9400086B017C018090510289
:103C000090905202A0905302B0905402AC019B01DC
:103C1000C501B4010E946E3F87FF76C1A5019401E2
:103C2000C501B4010E94D041F80166A377A380A723
:103C300091A782E4829D8001839D100D11240A5575
:103C40001B4FF80182A893A8A4A8B5A8A5019401C8
:103C500066A177A180A591A50E94904118163CF419
:103C6000D80196968D929D92AD92BC929997C092F2
:103C70005102D0925202E0925302F092540284E137
:103C8000FE01FD96ADE3B2E001900D928A95E1F759
:103C900084E1FE017596A9E2B2E001900D928A9549
:103CA000E1F7809128028093EE0D8F5F843209F452
:103CB00080E0809328020E948B0881E0CE59DF4F7C
:103CC0000FB6F894DEBF0FBECDBFDF91CF911F912D
:103CD0000F91FF90EF90DF90CF90BF90AF909F90AB
:103CE0008F907F906F905F904F903F902F900895AE
:103CF00024E1E9E2F2E045CE80E809CF80E407CF95
:103D000088E005CF6796EEADFFAD679720813181E2
:103D100042815381A3FC08C0D801DA962D933D93CC
:103D20004D935C93DD973FCFC701B6010E94D04110
:103D3000F80162AF73AF84AF95AF35CF2DE332E0BA
:103D400065963FAF2EAF65978E010F5F1F4F699647
:103D50006EAD7FAD69976C5E7F4F6D967FAF6EAF36
:103D60006D97C12CD12C760166960FAF66976A9637
:103D70001FAF6A976596AEADBFAD65978D909D906C
:103D8000AD90BD906596BFAFAEAF65976996EEAD4D
:103D9000FFAD699741905190619071906996FFAF26
:103DA000EEAF6997A3019201C501B4010E94D04111
:103DB0009B01AC01C701B6010E94783E6B017C01FA
:103DC000A5019401C301B2010E94783ED8016D9310
:103DD0007D938D939D938D016D96EEADFFAD6D97A7
:103DE00069962EAD3FAD6997E217F30719F62FEEEE
:103DF0003FEF4FE75FE3C701B6010E9490411816FD
:103E00004CF482E4829DF001839DF00D1124EA556B
:103E1000FB4FDBCE2FEE3FEF4FE75FEBC701B60165
:103E20000E946E3F87FF11C082E4829DF001839D56
:103E3000F00D1124EA55FB4F89E996E7A6E9BEE7A4
:103E400082AB93ABA4ABB5ABC4CE66968FAD669791
:103E50006A969FAD6A970E94180E66966FAD669738
:103E60006A967FAD6A9780EF9FE00E94F6094B014A
:103E70005C01A701960160E070E080E89FE30E948A
:103E8000783E20E030E040E05FE30E94D0410E94B5
:103E90006F426B017C0120911D1030911E104091EA
:103EA0001F1050912010C501B4010E94D041A701FC
:103EB00096010E94D0414B015C01A701960160E090
:103EC00070E080E89FE30E94783E9B01AC01C50151
:103ED000B4010E94783F6B017C0120E030E0A90131
:103EE0000E946E3F87FF03C0C12CD12C760182E473
:103EF000829DF001839DF00D1124EA55FB4FC2AA6B
:103F0000D3AAE4AAF5AA65CEA7019601C701B60116
:103F10000E94D041D80196966D937D938D939C938A
:103F2000999787CEFF920F931F93CF93DF938C01C6
:103F3000EB0180912D1085FF23C0F090B30F80E23C
:103F4000F81611F1C8010E9422038823C9F081E00C
:103F50008093B60F88E0F8120CC00E9419030E94EB
:103F6000601A8091B40F81110BC08091B30F811141
:103F7000F6CF0E94831782E00E9409030E94601A14
:103F80008091B30F823041F10E94601A8091B40F8A
:103F9000811122C09091A50480912802981303C03A
:103FA0000E948308F1CFBE01C8010E94641C8111E8
:103FB00013C080912D1081FF0FC08C8584FF0CC031
:103FC0004C815D816E817F8180E1DF91CF911F9176
:103FD0000F91FF900C94B41BDF91CF911F910F9123
:103FE000FF9008952F923F924F925F926F927F922F
:103FF0008F929F92AF92BF92CF92DF92EF92FF92F9
:104000000F931F93CF93DF93CDB7DEB7CF55D10971
:104010000FB6F894DEBF0FBECDBFE5E9F0E18AE44C
:10402000DF011D928A95E9F78BE0EDE3F0E1A6E967
:10403000B0E101900D928A95E1F78091DF10843212
:10404000A1F01EA21FA61BA61CA61DA61EA61BAE87
:104050001CAE1DAE1EAE1BAA412C512C3201312CC0
:10406000812C912C540183949AC181E08093961005
:104070001092971083E08EA3B1E0BFA7E4CF2FA0EA
:10408000EFEB2E0EF9E1F21510F40C94B3308F5FC4
:104090008EA3BE016E5D7F4FCE0186960E944A02BE
:1040A000882311F40C94B630CAA0DBA0ECA0FDA0CC
:1040B000C701B6010E94B3420E94F13F162F70E083
:1040C00090E080E00E9422409B01AC01C701B60154
:1040D0000E94783E20E030E048EC52E40E94D0415B
:1040E0000E943D420E94F13FCB012FA1273401F1F4
:1040F0002D3409F4FCC0EFA1E654EF3008F078C28B
:104100000E2E000CFF0B8827E757FF4D8F4F0C94A6
:104110001B433422F822F8227D228A229722A422ED
:10412000F822A822F822B622F822D422DE22E8229F
:10413000183209F4DAC028F5143160F4113108F0AE
:1041400097C0143009F472C0B0F01A3009F467C097
:1041500084E195C01C3109F462C040F41631C0F707
:1041600025E1211B2093981006E086C01E3109F43A
:1041700056C0163269F731100C94B930E2E03E2E89
:1041800027C01D3309F4ACC0D8F4153309F44EC070
:1041900080F41B3211F01133D9F631100C94B93080
:1041A000113309F096C010929B1073E0372E08E08F
:1041B0004FC01C3368F6165310939C1009E05CC086
:1041C0001C3510F51A3508F074C0103509F0C0CF51
:1041D0001093961001E0163209F04EC0843191051B
:1041E00051F08E31910539F08832910521F08233FA
:1041F000910509F0ADCF6AE070E00E94E542665794
:104200006093961001E024C01C3549F01F3508F07A
:104210009FCF2EE5211B2093971005E02DC000971E
:1042200029F431100C94B930332433941093951041
:10423000212F2D7F2C3119F000E01C35E9F4009777
:1042400019F00A9709F084CF610F6093951000E090
:104250008BAD9CADADADBEAD002E04C0B695A7959F
:10426000979587950A94D2F780FF83C085E107C0B0
:10427000115110939A1002E0892B51F387E1C15A32
:10428000DF4F0FB6F894DEBF0FBECDBFDF91CF91E9
:104290001F910F91FF90EF90DF90CF90BF90AF9064
:1042A0009F908F907F906F905F904F903F902F9056
:1042B0000895892B29F41A551093991003E0C8CF5B
:1042C0006A30710509F044CF1A3509F441CF04E092
:1042D000BFCF0A9709F03CCF81E080939B1065CF58
:1042E000892B09F035CF0AE0B3CF07E0C5CF892B82
:1042F00029F61A3078F4173058F51330C0F016301C
:1043000008F026CF1430F9F080E11530E9F410926E
:104310009F101CC01E3179F008F41ACF82EC810F77
:10432000843008F015CF109395100FE091CF112332
:1043300029F0113031F010939D1003C083E0809379
:104340009D100BE085CF80E280939F100CE080CF22
:10435000183041F080919E108068193031F410922D
:104360009E1005C080919E10806480939E100DE089
:104370006FCFD501C401002E04C0880F991FAA1F5A
:10438000BB1F0A94D2F72BAD3CAD4DAD5EAD282BD3
:10439000392B4A2B5B2B2BAF3CAF4DAF5EAF8EA1C1
:1043A000E82FF0E0E152FF4E30813FA3311167CE9C
:1043B000411451046104710421F0311002C052E033
:1043C000352E4BA545FF0FC08091BA109091BB10C0
:1043D000A091BC10B091BD1081389649A849B10593
:1043E00014F00C94C2308FA5882309F455C19BA505
:1043F00090FF64C1809198108130B1F423E333E3DE
:104400004BEC51E46091A1107091A2108091A31027
:104410009091A4100E94D0416093A1107093A210BB
:104420008093A3109093A4102BA53CA54DA55EA549
:1044300030FD10C08091481090914910A0914A1011
:10444000B0914B108093C6109093C710A093C810E2
:10445000B093C91080919510843009F052C13BA5EA
:1044600036FD46C18CE10BCFC092A110D092A210B4
:10447000E092A310F092A41000E0102F8BA59CA551
:10448000ADA5BEA5002E04C0B695A79597958795B6
:104490000A94D2F780FF02C00C94BC3081E693E00E
:1044A000A0E0B0E0002E04C0B695A795979587953B
:1044B0000A94D2F780FF0BC020E030E0A901C701C9
:1044C000B6010E946E3F87FF02C00C94BF30D50139
:1044D000C40104C0880F991FAA1FBB1F1A95D2F7E9
:1044E0002BA53CA54DA55EA5282B392B4A2B5B2B74
:1044F0002BA73CA74DA75EA752CFC092A510D09284
:10450000A610E092A710F092A8103BA931603BAB37
:1045100001E0B3CFC092A910D092AA10E092AB10E4
:10452000F092AC104BA942604BAB02E0A6CFC09218
:10453000AD10D092AE10E092AF10F092B0105BA927
:1045400054605BAB03E099CF1093B91004E095CFB2
:10455000C701B6010E94EA3F6093BA107093BB1086
:104560008093BC109093BD1005E087CF809195108B
:104570008E53843080F4612F70E090E080E00E94E0
:1045800020406093BE107093BF108093C010909332
:10459000C11006E072CFC092BE10D092BF10E09260
:1045A000C010F092C110F5CFC092C210D092C310CB
:1045B000E092C410F092C51007E05FCFC092C61021
:1045C000D092C710E092C810F092C91008E055CF01
:1045D00020E030E04FE753E4C701B6010E9490416C
:1045E000181614F40C94CB301093CA1009E045CF80
:1045F0008FA18835A9F4C092CB10D092CC10E09254
:10460000CD10F092CE10689440F80AE08FA1885542
:10461000833008F432CFF1E0F21508F499CD2DCFB4
:104620009FA1993561F4C092CF10D092D010E09242
:10463000D110F092D210689441F80BE0E7CFAFA10F
:10464000AA3561F4C092D310D092D410E092D51064
:10465000F092D610689442F80CE0D8CFBFA1B134E4
:1046600061F4C092D710D092D810E092D910F09295
:10467000DA10689443F80DE0C9CFEFA1E23431F6C7
:10468000C092DB10D092DC10E092DD10F092DE10D0
:10469000689444F80EE0BACF80919710813081F48D
:1046A000A2E03A12C1CE80919610803509F4BCCEBA
:1046B000882309F4B9CEBBA5B0FDB6CE86E1DFCD27
:1046C00080913E108111B0CEEBA5E0FD93CE80919C
:1046D0004C1090914D10A0914E10B0914F108093BE
:1046E000A1109093A210A093A310B093A4109CCEFD
:1046F0008BA59CA5ADA5BEA58F7B8BA79CA7ADA7C1
:10470000BEA780919A108823C9F0813009F4F1C0C6
:1047100021E02A962FAF2A9734E029963FAF2997B8
:1047200042E028964FAF28972B961FAE2B9752E06A
:1047300022965FAF229781E08FAF15C094E02A9652
:104740009FAF2A97A2E02996AFAF2997B1E02896AC
:10475000BFAF2897E2E02B96EFAF2B97F1E02296C0
:10476000FFAF22971FAE809198108130B1F535E9E7
:10477000E32E30E1F32E10E000E0CC24C394D12CE2
:10478000C601002E02C0880F991F0A94E2F7092E75
:10479000000CAA0BBB0B84219521A621B721892BE4
:1047A0008A2B8B2B91F023E333E34BEC51E4D701BD
:1047B000D6966D917D918D919C91D9970E94D04113
:1047C000F70166AB77AB80AF91AF0F5F1F4FF4E09F
:1047D000EF0EF11C0330110599F623E032120CC0E4
:1047E00080919B10813041F485E234E043165104FE
:1047F0006104710409F043CD84E1E9E6F0E1DE01F2
:10480000119601900D928A95E1F78BAD9CADADADFF
:10481000BEAD91FD84C0909195109FA39A3009F48C
:1048200092C09C3509F454C143E0341609F447C0E2
:10483000411451046104710409F441C0209099109D
:104840008091911090919210A0919310B09194103A
:104850008FAB98AFA9AFBAAF0DE310E1B5E9CB2E9E
:10486000B0E1DB2EF12CE12C81E090E00E2C02C0B7
:10487000880F991F0A94E2F7092E000CAA0BBB0BB4
:1048800084219521A621B721892B8A2B8B2B09F016
:104890009AC1F801808D918DA28DB38DF60186AB02
:1048A00097ABA0AFB1AFBFEFEB1AFB0A0C5F1F4F86
:1048B000E4E0CE0ED11CF5E0EF16F104A9F62FA12D
:1048C0002E3109F4D3C1253309F405C265EA70E13C
:1048D00086E02C3109F068C10E94E61B882389F12B
:1048E000411451046104710409F0C4C1212C312C1C
:1048F000D9C092E02A969FAF2A97A1E02996AFAF40
:104900002997B4E02896BFAF2897E1E02B96EFAF48
:104910002B9722961FAE2297F2E0FFAF24CF809113
:104920009C10873010F08DE1AACC9091431089172C
:1049300009F471CFBE016F5F7F4F0E94E61B8111AA
:104940006ACF87E09CCC411451046104710411F4D6
:104950008AE195CC8BA59CA5ADA5BEA580759927B0
:10496000AA27BB27892B8A2B8B2B09F47BCD60913F
:10497000BE107091BF108091C0109091C1100E9424
:10498000B3420E94F13F673070F68091B9108431D4
:1049900031F0823009F0DCCBABA5A7FDD9CB2224C6
:1049A0002A94260E611102C020909C1065EA70E1E5
:1049B000822D0E94E61B882321F2B091B910BFA37B
:1049C0002091911030919210409193105091941039
:1049D0002FAB38AF49AF5AAF95E9E92E90E1F92EE8
:1049E00010E000E0CC24C394D12CC601002E02C0FC
:1049F000880F991F0A94E2F7092E000CAA0BBB0B33
:104A000084219521A621B721892B8A2B8B2BC1F1DB
:104A1000D701D6968D909D90AD90BC90D997BFA1AF
:104A2000B43109F04DC0F801EE0FFF1FEE0FFF1F6C
:104A3000E35CFF4EDF01A05CBF4F2D913D914D9196
:104A40005C91608D718D828D938D0E94783EA50161
:104A500094010E94783EF701608B718B828B938B5F
:104A6000023071F42FA938AD49AD5AAD0E94783E9D
:104A70006093AD107093AE108093AF109093B01010
:104A80000F5F1F4FB4E0EB0EF11C0530110509F06C
:104A9000ACCF2BA53CA54DA55EA52F7A2BA73CA797
:104AA0004DA75EA7B0919610BFA3B03509F01AC10B
:104AB000411451046104710409F43FC18FE1DFCB5B
:104AC000D70150968D929D92AD92BC925397D8CFBC
:104AD000411451046104710409F43ACF809091109B
:104AE00090909210A0909310B09094101DE3C12E5E
:104AF00010E1D12EAE014F5F5F4F58A74FA305E9DC
:104B0000E02E00E1F02E10E000E081E090E0002EC9
:104B100002C0880F991F0A94E2F7092E000CAA0B15
:104B2000BB0B84219521A621B721892B8A2B8B2BA6
:104B3000E9F1AFA1B8A52D913D914D915C91F601A0
:104B4000608D718D828D938D0E94783ED701D696AF
:104B50002D913D914D915C91D9970E94783EF7013E
:104B600066AB77AB80AF91AF023061F4A5019401E1
:104B70000E94783E6093D3107093D4108093D51028
:104B80009093D6100F5F1F4FF4E0CF0ED11C2FA1D2
:104B900038A52C5F3F4F38A72FA334E0E30EF11C5C
:104BA0000530110509F0B1CF212C7CCFF601E05C76
:104BB000FF4F80819181A281B381F70186AB97ABD2
:104BC000A0AFB1AFDFCFFFA1F53309F46CCED601B2
:104BD000D6968D909D90AD90BC90D997211035C000
:104BE000F701EE0FFF1FEE0FFF1F21E030E02C0F4B
:104BF0003D1FE20FF31FD801A05CBF4F2D913D91E7
:104C00004D915C9160817181828193810E94793E96
:104C1000A50194010E94793ED601D6966D937D93AD
:104C20008D939C93D997B2E0EB123DCE2FA938AD6E
:104C300049AD5AAD0E94793E6093D3107093D41061
:104C40008093D5109093D6102ECEA5019401F80133
:104C5000608D718D828D938D0E94793ED601D6969E
:104C60006D937D938D939C93D9971DCE65EA70E1EA
:104C700087E032CE6DE370E1E5E9F0E130E020E07D
:104C800041E050E0CA01022E02C0880F991F0A9429
:104C9000E2F7092E000CAA0BBB0B6C017D01C420AE
:104CA000D520E620F720CD28CE28CF2859F4DB01E7
:104CB0005896CD90DD90ED90FC905B97C08AD18A9C
:104CC000E28AF38A2F5F3F4F6C5F7F4F3496253027
:104CD0003105C1F669CF80919610823008F464CF17
:104CE0008EE1CDCAE2E03E1228C0FFA1F11107C05B
:104CF000411451046104710401F5312C1EC020E0FF
:104D000030E0A9016091A1107091A2108091A310D0
:104D10009091A4100E946E3F882309F4CFCC2FA15C
:104D20002C3809F4BDC008F0B1C0223009F4D1C05C
:104D3000233009F4D1C02130D9F2F090951082ECE3
:104D40008F0D8430F0F45BA556FF8CCB20E030E073
:104D500040E450E46091BE107091BF108091C0108B
:104D60009091C1100E949041181614F40C94CB300D
:104D70008BA59CA5ADA5BEA58F7B8BA79CA7ADA73A
:104D8000BEA72FA521709FA590FF14C38BA59CA53E
:104D9000ADA5BEA58E7D332011F09370A87F892B21
:104DA0008A2B8B2B11F00C94CE308E010B5E1F4F93
:104DB0008DE0D8011D928A95E9F7222309F401C3F9
:104DC0008BAD9CADADADBEAD867B892B8A2B8B2B7D
:104DD00011F00C94D130B5E3FB1619F0F1100C94DE
:104DE000D1308091481090914910A0914A10B09113
:104DF0004B10898F9A8FAB8FBC8F8091461090910A
:104E00004510892B4091A1105091A2106091A310E0
:104E10007091A4104D8B5E8B6F8B788F846089A30B
:104E20008091BA109091BB10A091BC10B091BD10B0
:104E30008D8F9E8FAF8FB8A380912D1085FF07C0F7
:104E40008BEC90E10E94220381110C94D430B801C4
:104E50008BEC90E10E94921F8091B30F81110BC0E7
:104E60000E947308892B39F080E28093B30F0E946F
:104E70006E0F0E942D0484E1EBECF0E1A5E5B0E1BA
:104E800001900D928A95E1F780E0F9C93FA13E3883
:104E900039F018F03F3809F050CF3FA530613FA7F7
:104EA0008FA18E58823018F44FA548604FA7411447
:104EB00051046104710409F44BCD44E150E06BEC02
:104EC00070E185E590E10E943D43892B09F035CFE3
:104ED00082C04FA544604FA741145104610471047E
:104EE00009F436CD5FADA52EB12C22968FAD229759
:104EF000882E912C01E010E0C80102C0880F991F94
:104F00005A95E2F722960FAC229702C0000F111FAC
:104F10000A94E2F7082B192BC801012E000CAA0BEA
:104F2000BB0B84219521A621B721892B8A2B8B2BA2
:104F300011F40C94C530F501EE0FFF1FEE0FFF1FAB
:104F4000EB56FF4ED501AA0FBB1FAA0FBB1FAB5AD2
:104F5000BF4E2D913D914D915C9166A977A980AD91
:104F600091AD0E94783E6FAB78AF89AF9AAFF401F4
:104F7000EE0FFF1FEE0FFF1FEB56FF4ED401AA0FDF
:104F8000BB1FAA0FBB1FAB5ABF4E2D913D914D9138
:104F90005C9166A977A980AD91AD0E94783E279675
:104FA0006CAF7DAF8EAF9FAF27979BA597FF1DC1BD
:104FB0002BA53CA54DA55EA52F772BA73CA74DA7FC
:104FC0005EA744E150E06BEC70E185E590E10E9462
:104FD0003D43892B11F481E252C96091C210709156
:104FE000C3108091C4109091C51020919810213069
:104FF00071F423E333E34BEC51E40E94D04160931E
:10500000C2107093C3108093C4109093C510809009
:10501000C2109090C310A090C410B090C5102FA9DA
:1050200038AD49AD5AADCA01B9010E94D0416BAB50
:105030007CAB8DAB9EAB27962CAD3DAD4EAD5FAD41
:105040002797CA01B9010E94D04162966CAF7DAF2B
:105050008EAF9FAF629720E030E040E850E4C5019A
:10506000B4010E94D041A50194010E94D0412BA916
:105070003CA94DA95EA90E94783E62962CAD3DAD3B
:105080004EAD5FAD62970E94783E6B017C0120E0DF
:1050900030E0A9010E946E3F87FF02C00C94C83027
:1050A000C701B6010E946F426B017C0162962CAD74
:1050B0003DAD4EAD5FAD62976BA97CA98DA99EA950
:1050C0000E94793E0E946F429B01AC01C701B6016C
:1050D00090580E94783F6B017C013FA1333021F44E
:1050E000F7FAF094F7F8F09420E030E0A901C50158
:1050F000B4010E946E3F87FF0FC0F7FAF094F7F8F3
:10510000F094D501C401B0588093C2109093C3109D
:10511000A093C410B093C510A701960127966CAD5B
:105120007DAD8EAD9FAD27970E94D0419B01AC0114
:105130006FA978AD89AD9AAD0E94783E20E030E04D
:1051400040E05FE30E94D0414B015C01A701960162
:105150006FA978AD89AD9AAD0E94D04127962CAD4C
:105160003DAD4EAD5FAD27970E94793E20E030E027
:1051700040E05FE30E94D04120919A10222399F0F1
:10518000213011F18092A9109092AA10A092AB1038
:10519000B092AC106093AD107093AE108093AF10CE
:1051A0009093B010CACD8092A5109092A610A092B4
:1051B000A710B092A8106093A9107093AA108093C2
:1051C000AB109093AC10B9CD8092AD109092AE1010
:1051D000A092AF10B092B0106093A5107093A6107B
:1051E0008093A7109093A810A8CD4BA9C42ED12CC2
:1051F00004231D2183E2012B09F441C88BA59CA542
:10520000ADA5BEA5817F8BA79CA7ADA7BEA78091AA
:105210009810813049F535E9E32E30E1F32E10E0A6
:1052200000E0C601002E02C0959587950A94E2F72A
:1052300080FF12C023E333E34BEC51E4D7015096D7
:105240006D917D918D919C9153970E94D041F70172
:10525000608B718B828B938B0F5F1F4FF4E0EF0E8F
:10526000F11C03301105E9F6F501EE0FFF1FEE0FFB
:10527000FF1FEB55FF4E20813181428153812BABC3
:105280003CAB4DAB5EAB6FA978AD89AD9AAD0E94DA
:10529000783E6FAB78AF89AF9AAFF401EE0FFF1F86
:1052A000EE0FFF1FEB55FF4EC080D180E280F380F0
:1052B000A701960127966CAD7DAD8EAD9FAD27976A
:1052C0000E94783E4B015C012FA938AD49AD5AAD23
:1052D000CA01B9010E94D0416FAB78AF89AF9AAFD4
:1052E000A5019401C501B4010E94D0419B01AC010C
:1052F0006FA978AD89AD9AAD0E94793E0E946F4248
:105300004B015C012BA93CA94DA95EA9CA01B901B9
:105310000E94D0416BAB7CAB8DAB9EABA7019601DD
:10532000C701B6010E94D0419B01AC016BA97CA9C9
:105330008DA99EA90E94793E0E946F426B017C015B
:10534000C092C210D092C310E092C410F092C51067
:10535000AC019B01C501B4010E94783E4B015C0188
:10536000E894B7F82AE037ED43EA5BE3C501B401FE
:105370000E94904118160CF0E0CC20E030E040E0B4
:105380005FE3C501B4010E94904118160CF423CECE
:105390002FE632E143E85AE3C701B6010E94D0414B
:1053A0009B01AC01C501B4010E94904118160CF09C
:1053B000C4CC11CE8BA59CA5ADA5BEA58E7D9C7F32
:1053C000EACC80912D10F090461081FF12C08FA181
:1053D0008150833018F0EFA5E064EFA745284628F8
:1053E000472809F445C1F2E03F1242C12FA52068C9
:1053F0002FA78091BA109091BB10A091BC10B091D2
:10540000BD108093511090935210A0935310B093FD
:1054100054108D8F9E8FAF8FB8A38091971080937B
:105420003E10882311F088E089A38091A11090910B
:10543000A210A091A310B091A41080934C1090934F
:105440004D10A0934E10B0934F108D8B9E8BAF8B51
:10545000B88F8090C6109090C710A090C810B090E0
:10546000C910A50194016091481070914910809174
:105470004A1090914B100E946E3F9FA59074E92EA8
:10548000811103C0AFA5A5FF1FC0FF2069F0BFA514
:10549000B7FD0AC040E050E0BA01E11002C0B5011A
:1054A000A4018F2D0E94B41B8091C6109091C7104B
:1054B000A091C810B091C9108093481090934910E2
:1054C000A0934A10B0934B10E1100CC0809148108B
:1054D00090914910A0914A10B0914B10898F9A8FEA
:1054E000AB8FBC8F8091CA108093501080919F1019
:1054F00090914610981751F0498D5A8D6B8D7C8D87
:105500000E94B41B80919F108093461089A19091B6
:105510004610892B89A3F0909E10809145108F151D
:1055200069F08091B30F823029F00E947A1B8F2D91
:105530000E949A0B80919E108093451089A19091B2
:105540004510892B89A380919510843099F480911E
:10555000B30F823079F0C090BE10D090BF10E090B1
:10556000C010F090C1100E947A1B40E0C701B60144
:105570000E94321A80919A10809341108091981065
:1055800080933F10E3E03E122EC080919B108093E9
:105590004210811108C01092D3101092D4101092B2
:1055A000D5101092D610C090D310D090D410E090A7
:1055B000D510F090D610A7019601609191107091CE
:1055C000921080919310909194100E946E3F8823C6
:1055D00051F0C0929110D0929210E0929310F092FC
:1055E00094100E94AF1B80919C10909143109817CB
:1055F00069F08093431084E1FE013196A9E6B0E1A1
:1056000001900D928A95E1F70E94AF1B809199104D
:105610008093401080919510863209F479C008F08B
:105620003EC08C3109F45BC08E3109F458C08A3019
:1056300009F440C08091961080933D10803509F4A4
:1056400092C4B2E03B128FC4813009F075C0BE0134
:105650006B5E7F4F8BEC90E10E94921F84E1EBEC3C
:10566000F0E1A5E5B0E101900D928A95E1F77BC4E8
:1056700030E1F312BECE9FA5907480913D10815011
:10568000833038F4992309F4B4CE4FA540624FA774
:10569000B0CE9111AECE5FA550625FA7AACE8C3579
:1056A000E9F1863609F440C0883221F665E570E1FB
:1056B00087E031C065EA70E1822D0E94D21B8091A3
:1056C00043102812B7CF84E1E5EAF0E1A9E6B0E1A2
:1056D00001900D928A95E1F70E94AF1BABCF89A193
:1056E000816089A3332029F0B8018BEC90E10E94FE
:1056F000921FB80185EA90E10E94921F84E1E5EAD9
:10570000F0E1A5E5B0E101900D928A95E1F792CF25
:1057100065E570E186E00E94D21B8CCF84E1EBEC62
:10572000F0E1ADE7B0E1D4CFEDE7F0E184E1DF01F6
:105730001D928A95E9F7D0CF811105C089A18160BA
:1057400089A3B80187CF8250823008F0E3C320914B
:10575000C2103091C3104091C4105091C5102BABB2
:105760003CAB4DAB5EAB4FAD34E0439F80011124A9
:10577000C8018B559F4E21969FAF8EAF2197DC01BC
:105780004D905D906D907C90F801EB5AFF4E20811A
:10579000318142815381C301B2010E94793E6FA3DE
:1057A00078A789A79AA72296EFAD2297B4E0EB9F3E
:1057B0005001112495012B553F4E23963FAF2EAF3C
:1057C0002397D901CD90DD90ED90FC90F501EB5A37
:1057D000FF4E2081318142815381C701B6010E9471
:1057E000793E6BAF7CAF8DAF9EAF77FA709477F850
:1057F0007094A701960150582BA73CA74DA75EA710
:10580000F801E553FF4E2FA138A549A55AA560819F
:105810007181828193810E94783E6B017C01F50148
:10582000E553FF4E2BAD3CAD4DAD5EAD608171815A
:10583000828193810E94783E4B015C01A701960111
:10584000C301B2010E94D0416FAB78AF89AF9AAF6C
:10585000A50194016BA57CA58DA59EA50E94D041B4
:105860009B01AC016FA978AD89AD9AAD0E94793EDC
:105870006FAB78AF89AF9AAFA5019401C301B201B4
:105880000E94D0414B015C01A70196016BA57CA54C
:105890008DA59EA50E94D0419B01AC01C501B4011C
:1058A0000E94783E2FA938AD49AD5AAD0E94F83E0E
:1058B0006B017C013FA532FFACC22DEB37E346E024
:1058C00055EB0E94904187FD0AC02BED3FE049EC6B
:1058D00050E4C701B6010E94783E6B017C018090C4
:1058E000211090902210A0902310B09024102BA98A
:1058F0003CA94DA95EA9CA01B9010E94793EA50142
:1059000094010E94783EA50194010E94D0410E941A
:105910006F424B015C0120E030E040E05FE3C701F3
:10592000B6010E94D0412BA93CA94DA95EA90E94B5
:10593000D0419F77A50194010E94783F0E945D406D
:105940000E94F13F78AF6FAB6115710509F47FCE0E
:1059500019A190E080E00E9420404B015C0113FF00
:105960000EC0AC019B016D897E898F89988D0E9444
:10597000D0416D8B7E8B8F8B988F177F19A3A501DC
:105980009401C701B6010E94783F6FA778AB89AB3D
:105990009AAB2B96AFAD2B9754E0A59FC001112475
:1059A000FC01E553FF4E8B5A9F4EDC012D913D913A
:1059B0004D915C9160817181828193810E94783EDA
:1059C000A50194010E94783F6BAB7CAB8DAB9EAB85
:1059D00020916110309162104091631050916410D9
:1059E0006091D7107091D8108091D9109091DA10F1
:1059F0000E94783EA50194010E94783F66966CAFA4
:105A00007DAF8EAF9FAF6697209165103091661085
:105A100040916710509168106091DB107091DC101C
:105A20008091DD109091DE100E94783EA5019401D6
:105A30000E94783F6A966CAF7DAF8EAF9FAF6A973A
:105A40002FA538A949A95AA9CA01B9010E94D04174
:105A50009B01AC0160E070E080E090E40E94783E41
:105A60006B017C012BEA3AEA4AE25EE36FA578A972
:105A700089A99AA90E94D0414B015C0120E030E045
:105A800040E850E4C701B6010E94793E9B01AC0199
:105A9000C501B4010E94D04127966CAF7DAF8EAF97
:105AA0009FAF279720E030E040E05FE3C701B601F9
:105AB0000E94D0412E966CAF7DAF8EAF9FAF2E97D8
:105AC00010E022242394312C2896BFAD2897B17082
:105AD0006B96BFAF6B972896EFAD2897E2706C96E8
