:100000000C9468010C947A010C947A010C94883257
:100010000C94372F0C947A010C947A010C947A0189
:100020000C947A010C947A010C947A010C94872F29
:100030000C947A010C947A010C947A010C947A0154
:100040000C94712F0C947A010C94BE310C945E3296
:100050000C947A010C947A010C947A010C947A0134
:100060000C947A010C947A01084AD73B3BCE016E7E
:1000700084BCBFFDC12F3D6C74319ABD56833DDAFF
:100080003D00C77F11BED9E4BB4C3E916BAAAABE0E
:10009000000000803F05A84CCDB2D44EB93836A937
:1000A000020C50B9918688083CA6AAAA2ABE000074
:1000B00000803F000D0A4772626C20312E316820AB
:1000C0005B27242720666F722068656C705D0D0ABF
:1000D00000244E005B4F50543A005B5645523A3173
:1000E0002E31682E4B5F3234303130373A005B545A
:1000F0004C4F3A005B4739323A0033300032380017
:100100005B4700204700204D002053002046002080
:10011000540033382E005B47433A47005B484C504D
:100120003A242420242320244720244920244E201C
:1001300024783D76616C20244E783D6C696E652094
:10014000244A3D6C696E652024534C502024432082
:100150002458202448207E2021203F206374726C84
:100160002D785D0D0A00414C41524D3A007C413AD8
:10017000007C4F763A007C57434F3A007C506E3AF1
:10018000007C46533A007C42663A007C57506F73BD
:100190003A007C4D506F733A00536C6565700044B3
:1001A0006F6F723A00436865636B00416C61726DFA
:1001B00000486F6D65004A6F6700486F6C643A00D5
:1001C00052756E0049646C65000D0A005B50524226
:1001D0003A006572726F723A0000007A4300007A4A
:1001E0004300007A430000FA430000FA430000FA9B
:1001F0004300A00C4700A00C4700A00C470000489B
:10020000C3000048C3000048C30A000019010AD710
:10021000233C6F12033B00007A4400000000000002
:100220000000C8410000FA43FA000000803F6F6BF5
:100230000D0A00536C656570696E670052657374D2
:100240006F72696E67207370696E646C65005265C9
:1002500073746F72696E672064656661756C747320
:100260000050676D20456E6400436865636B204CE9
:10027000696D69747300436865636B20446F6F72C6
:100280000044697361626C656400456E61626C650F
:10029000640043617574696F6E3A20556E6C6F63CC
:1002A0006B656400272448277C2724582720746F17
:1002B00020756E6C6F636B00526573657420746F8C
:1002C00020636F6E74696E7565005B4D53473A002D
:1002D00011241FBECFEFD8E0DEBFCDBF27E0A0E0E6
:1002E000B1E001C01D92A136B207E1F70E94B7321A
:1002F0000C941B3D0C9400008F929F92AF92BF9282
:10030000CF92DF92EF92FF920F931F93CF93DF93E1
:100310007C016B01DC01EC91F0E0EF5EF84F808135
:10032000EF018D3229F52296818101E0912CF0E0D8
:1003300010E020E030E0A9015E01E0EDE80FEA30D6
:1003400018F5FF5FF930E0F491101150A5E0B0E02E
:100350000E94F43C9B01AC01220F331F441F551F28
:100360002E0F311D411D511D2196D5018C91E4CFD9
:100370008B3219F0219600E0D9CF22968181FBCFF4
:100380009110F2CF1F5FF0CFEE3F29F4911003C020
:1003900099249394E9CFFF23F9F0CA01B9010E948F
:1003A000D4394B015C0120E030E0A9010E942239E0
:1003B00081112BC0002309F445C0B7FAB094B7F8F7
:1003C000B094F60180829182A282B382C151D7405B
:1003D000C150F701C083F1E08F2FDF91CF911F91C2
:1003E0000F91FF90EF90DF90CF90BF90AF909F90D4
:1003F0008F9008952AE037ED43E25CE3C501B40134
:100400000E94843B4B015C011E5F1F3F9CF31F3F1A
:1004100059F42DEC3CEC4CEC5DE3C501B4010E94B9
:10042000843B4B015C01C6CF112321F220E030E078
:1004300040E251E4C501B4010E94843B4B015C01E0
:100440001150F2CFD6018D929D92AD92BC9213972E
:10045000BDCF2FB7F89490911606892B809316067E
:100460002FBF08952FB7F89490911506892B80938C
:1004700015062FBF08959FB7F894809314069FBF69
:1004800008959FB7F8942091130680958223809356
:1004900013069FBF08952FB7F89490911306892BE8
:1004A000809313062FBF0895AF92BF92CF92DF9231
:1004B000EF92FF920F931F93CF93DF93EC0106E629
:1004C00016E05C018CE0A80EB11CC990D990E990AF
:1004D000F99020E030E0A901C701B6010E94443B39
:1004E0001816DCF0F80121913191419151918F0161
:1004F000C701B6010E94223987FD0FC0CA15DB056E
:1005000021F780E0DF91CF911F910F91FF90EF9045
:10051000DF90CF90BF90AF90089581E0F3CF4F92DE
:100520005F926F927F928F929F92AF92BF92CF9283
:10053000DF92EF92FF920F931F93CF938B016C0189
:100540007B01C0E082E0882E912CA12CB12CC1113E
:100550003BC0F80160817181828193814480558024
:1005600066807780640D751D861D971DA501940119
:100570000E94CF3CCA01B9010E94D639209142069F
:100580003091430640914406509145060E942C3913
:10059000F60161937193819391936F01CF5FF4E0C2
:1005A000EF0EF11CC33099F6CF911F910F91FF9080
:1005B000EF90DF90CF90BF90AF909F908F907F9003
:1005C0006F905F904F900895C130F1F4F801608111
:1005D000718182819381448055806680778064191F
:1005E000750986099709A50194010E94CF3CCA01AB
:1005F000B9010E94D63920914606309147064091B4
:10060000480650914906C2CFF7016081718182810D
:1006100093810E94D63920914A0630914B06409131
:100620004C0650914D06B2CF96B19095892F8770A8
:1006300039F082E091FF80E090FD816092FD84605E
:100640000895CF93DF93C0911106D09112062097A1
:10065000C9F08091E20581608093E2056091F80520
:100660007091F9058091FA059091FB059B01AC0111
:100670000E94843B6A8B7B8B8C8B9D8B1092120625
:1006800010921106DF91CF91089590917306492F32
:1006900080917406282F90FF11C094E080FF10C055
:1006A00080E241FD986021FD806442FD906122FD61
:1006B000806890930F0280931002089590E0EECF2F
:1006C00080E0EFCF8091870682FF13C0289A809147
:1006D0000F0280932002809172068250990B880F3E
:1006E000819580931F0280916F00826080936F00DC
:1006F00008952898ECCF8093B300811106C08091B3
:10070000B0008F778093B00008958091B00080682A
:10071000F9CFCF93DF93239AC0EBD0E083E08883B7
:1007200087E08093B100259A20918306309184065A
:10073000409185065091860660917F0670918006F3
:1007400080918106909182060E942C389B01AC0119
:1007500060E070E088EF91E40E942C3960930B0216
:1007600070930C0280930D0290930E0288818F7714
:100770008883DF91CF910895E0911D0191E09E0F54
:10078000993609F490E020918701291761F0F0E093
:10079000E25EFE4F808390931D018091C1008062D4
:1007A0008093C10004C02091130624FFECCF08956C
:1007B000CF93DF93C1E1D7E08991811103C0DF912D
:1007C000CF9108950E94BC03F7CF10921706909125
:1007D000870697FD03C090E290931706882331F0B7
:1007E0008091170690E289278093170608958F92CB
:1007F0009F92AF92BF92CF92DF92EF92FF920F93B0
:100800001F93CF93DF93CDB7DEB72D970FB6F89434
:10081000DEBF0FBECDBF6B017C01042F20E030E0B6
:10082000A9010E94223987FF07C08DE20E94BC0304
:10083000F7FAF094F7F8F094102F123008F054C043
:1008400000FF0AC020E030E040E251E4C701B601F9
:100850000E94843B6B017C0120E030E040E05FE3DC
:10086000C701B6010E942D380E949E3910E03AE07F
:10087000832E912CA12CB12CE12FF0E06115710594
:1008800081059105E9F581E090E08C0F9D1FE80F4F
:10089000F91F80E3101708F445C0101309C0E1E008
:1008A000F0E0EC0FFD1FE10FF11D80E380831F5F7F
:1008B000EE24E394F12CEC0EFD1EE10EF11C11115F
:1008C00034C02D960FB6F894DEBF0FBECDBFDF91BA
:1008D000CF911F910F91FF90EF90DF90CF90BF903D
:1008E000AF909F908F90089520E030E048EC52E464
:1008F000C701B6010E94843B6B017C0112509DCF61
:10090000EE24E394F12CEC0EFD1EEE0EFF1EA5016D
:1009100094010E94AD3C605DF7016083B901CA019A
:100920001F5FAACF1F5F8193B5CF101303C08EE264
:100930000E94BC03F70182917F010E94BC03115009
:10094000BECF2091870640E020FF07C02BE832E4AD
:1009500041E25DE30E94843B41E00C94F703209167
:10096000870643E020FF07C02BE832E441E25DE365
:100970000E94843B44E00C94F7030F931F93CF93A2
:100980008C01C0E0F80161917191819191918F0189
:100990000E94AF04C23019F08CE20E94BC03CF5F0A
:1009A000C33081F7CF911F910F910895CF93DF93BB
:1009B000843658F06AE00E948D3CC0E3C90F6AE0BB
:1009C0000E948D3CD0E3D90F04C0C0E0D0E08A3053
:1009D000B0F7805D0E94BC03DD2319F08D2F0E94CB
:1009E000BC03CC2329F08C2FDF91CF910C94BC0356
:1009F000DF91CF910895CF93DF93EC01FE018491B5
:100A00002196811103C0DF91CF9108950E94BC030C
:100A1000F5CF89EC91E00C94FB04CF93C82F82EDC5
:100A200091E00E94FB048C2F0E94D604CF910C947D
:100A30000905811104C08EE292E00C94FB040C9431
:100A40000D05CF92DF92EF92FF92CF93DF93D82FD5
:100A50006A017B01C22F84E20E94BC038D2F0E9499
:100A6000D6048DE30E94BC034C2FC701B6010E943F
:100A7000F703DF91CF91FF90EF90DF90CF900C9430
:100A80000905CF93DF93D82FC62F84E20E94BC03C1
:100A90008D2F0E94D6048DE30E94BC038C2F0E94F0
:100AA000D604DF91CF910C940905EF92FF920F933A
:100AB0001F93CF93DF936091720670E080E00E94F5
:100AC00041056091750670E081E00E9441056091EA
:100AD000730670E082E00E9441056091740670E048
:100AE00083E00E9441056091870662FB662760F9FA
:100AF00070E084E00E9441056091870666FB6627EE
:100B000060F970E085E00E94410580918706082E1B
:100B1000000C990B692F661F6627661F70E086E040
:100B20000E9441056091760670E08AE00E944105CE
:100B300040917706509178066091790670917A0617
:100B400023E08BE00E94210540917B0650917C06BA
:100B500060917D0670917E0623E08CE00E94210565
:100B600060918706617070E08DE00E9441056091A0
:100B7000870665FB662760F970E084E10E94410505
:100B80006091870663FB662760F970E085E10E944B
:100B90004105609187066295617070E086E10E9470
:100BA00041056091880670E087E10E94410540910F
:100BB000890650918A0660918B0670918C0623E01D
:100BC00088E10E94210540918D0650918E0660912A
:100BD0008F067091900623E089E10E9421056091C3
:100BE0009106709192068AE10E9441054091930618
:100BF00050919406609195067091960623E08BE1E2
:100C00000E94210540917F065091800660918106E7
:100C10007091820620E08EE10E94210540918306BA
:100C200050918406609185067091860620E08FE1E0
:100C30000E942105609187066695617070E080E2F0
:100C40000E94410584E6F82E10E0C2E4D6E000E000
:100C5000E02EEF0C123011F1133069F11130C9F0B0
:100C6000488159816A817B8123E08E2D0E94210574
:100C70000F5F2496033061F78AE0F80E1F5F8CE85F
:100C8000F812E3CFDF91CF911F910F91FF90EF907A
:100C900008954C855D856E857F85E6CF20E030E048
:100CA00041E655E4688D798D8A8D9B8D0E942C39A3
:100CB000AB01BC01D9CF4CA15DA16EA17FA1705841
:100CC000D3CF8DE50E94BC030C940905CF93DF932D
:100CD000CDB7DEB72C970FB6F894DEBF0FBECDBFF1
:100CE0008CEC91E00E94FB0464E276E0CE01019678
:100CF0000E948F02CE0101960E94BD048AE30E94E9
:100D0000BC03809136060E94D6040E9461062C9690
:100D10000FB6F894DEBF0FBECDBFDF91CF9108951F
:100D20004F925F926F927F928F929F92AF92BF92FB
:100D3000CF92DF92EF92FF92CF93DF9300D000D05B
:100D4000CDB7DEB7E8E1F6E080859185A285B38571
:100D500089839A83AB83BC83C080D180E280F38097
:100D60004480558066807780C701B601640D751D8B
:100D7000861D971D22E0822E912CA12CB12CA5015D
:100D800094010E94CF3CA1E0B1E02D933D934D939F
:100D90005C931397C701B601641975098609970911
:100DA000A50194010E94CF3C2093050130930601D8
:100DB000409307015093080189819A81AB81BC81DE
:100DC0008093090190930A01A0930B01B0930C0149
:100DD0000F900F900F900F90DF91CF91FF90EF90B9
:100DE000DF90CF90BF90AF909F908F907F906F904B
:100DF0005F904F900895BF92CF92DF92EF92FF9253
:100E00000F931F93CF93DF937C01FC0102A513A5E1
:100E1000D4A5C5A5818980FF33C06091390670E0F3
:100E200090E080E00E94D6392AE037ED43E25CE3AF
:100E30000E94843B9B01AC01B8018D2F9C2F0E9426
:100E4000843B8B01D82FC92F20E030E040E85FE3DE
:100E5000B8018D2F9C2F0E94443B181624F000E00F
:100E600010E0D0E8CFE3B8018D2F9C2FDF91CF9118
:100E70001F910F91FF90EF90DF90CF90BF9008955A
:100E800082FD17C06091380670E090E080E00E941B
:100E9000D6392AE037ED43E25CE30E94843B9B01B4
:100EA000AC01B8018D2F9C2F0E94843B8B01D82F61
:100EB000C92FF701B6A0C7A0D0A4F1A498014D2F67
:100EC0005C2F6B2D7C2D8D2D9F2D0E94223987FF4D
:100ED000BBCF0B2D1C2DDD2DCF2DB6CF8091360233
:100EE00090915705981739F022E3829FC001112491
:100EF000895C9D4F089590E080E008950E946E0700
:100F0000892B19F082E00C944B0208952F923F92A6
:100F10004F925F926F927F928F929F92AF92BF9209
:100F2000CF92DF92EF92FF920F931F93CF93DF93B5
:100F300000D000D0CDB7DEB700915705002309F4EB
:100F400086C00983398131503983109135021317D6
:100F500009F466C0C32ED12CE2E33E9FC0011124E8
:100F60009C01295C3D4F7901F90176888788908C36
:100F7000A18C628D738D848D958D9B01AC010E9437
:100F80002D38F701268D378D40A151A10E94843B59
:100F9000B62EE72EF82E9B83262F372F482F592F5A
:100FA000672D782D892D9A2D0E94223987FF03C045
:100FB000B72C7401AB8282E38C9DF0018D9DF00D06
:100FC0001124E95CFD4F8B2D9E2DAF2DBB81828BB3
:100FD000938BA48BB58BF9818F2FF11101C080E128
:100FE000FF24FA94F80E309036021F1133C013110B
:100FF00002C00E942103E2E31E9FC0011124895C0C
:101000009D4F9A83898333243394310EF0E13F124C
:1010100001C0312C82E3282E031185C010933502C4
:101020000F900F900F900F90DF91CF911F910F9124
:10103000FF90EF90DF90CF90BF90AF909F908F90F8
:101040007F906F905F904F903F902F90089520E198
:10105000298378CF298182E3289F90011124295C7C
:101060003D4F3C832B8322E3E22E8F2C912CFE9C60
:10107000C0011124FC01E95CFD4FFA83E983F11002
:1010800002C090E1F92EFA94F31002C00E942103ED
:10109000E89CC001E99C900D11249C01295C3D4F06
:1010A0006901F90146885788608C718CA30192010F
:1010B00062897389848995890E942239882339F14C
:1010C000F601628D738D848D958D9B01AC010E941C
:1010D0002D38F601268D378D40A151A10E94843B09
:1010E000EB81FC8122893389448955890E942D38FE
:1010F0004B015C01AC019B01C301B2010E94443B66
:10110000F60118165CF4828A938AA48AB58A29812A
:101110003A813C832B831F11A8CF6DCF428A538A1B
:10112000648A758AF4CFC32CD12C329CC00111245F
:101130009C01295C3D4F7901E981FA8142885388FD
:1011400064887588F90182889388A488B588A50188
:101150009401C301B2010E94223987FF26C0E981B0
:10116000FA81628D738D848D958D9B01AC010E94F7
:101170002D38E981FA81268D378D40A151A10E9439
:10118000843BA30192010E942D382B013C01AC014C
:101190009B01C501B4010E94443B181634F4F701C9
:1011A000428A538A648A758A132D2C9CF0012D9CE7
:1011B000F00D1124E95CFD4F26893789408D518D52
:1011C00062897389848995890E942239811101C0BD
:1011D000132D3394F0E13F1201C0312CFA82E982E1
:1011E0001BCF6F927F928F929F92AF92BF92CF92BE
:1011F000DF92EF92FF920F931F93CF93DF93EB0158
:101200008C015B018CE0A80EB11C89E9682E96E781
:10121000792E26E9822E3EE7932EC990D990E99047
:10122000F99020E030E0A901C701B6010E942239FF
:101230008823B9F0A7019601F8016081718182814C
:1012400093810E942C396B017C01E894F7F893019B
:10125000A401C701B6010E94443B181614F03601E0
:1012600047010C5F1F4FCA15DB05B9F6B301C40176
:10127000DF91CF911F910F91FF90EF90DF90CF9072
:10128000BF90AF909F908F907F906F90089593B193
:101290008091870686FF0BC0967159F091FB8827D5
:1012A00080F992FD8260907129F084600895909594
:1012B000F3CF80E00895EBE6F0E08081897E8083C3
:1012C000E8E6F0E080818E7F8083089584B1897E96
:1012D00084B985B1866185B98091870683FF0BC08B
:1012E00080916B00866180936B00809168008160C3
:1012F0008093680008950C945B0968E176E08FEABA
:1013000096E00C948F02F894F999FECF92BD81BDBE
:1013100081E08FBB20B5862F8227082E000C990B09
:1013200050E086239523892B49F084E16F3F11F02B
:1013300060BD84E08FBBF99A789408952617E1F395
:1013400060BD84E2F7CF9F92AF92BF92CF92DF92BF
:10135000EF92FF920F931F93CF93DF935C018A016B
:101360007B01E40EF51EEB01912C6C01C61AD70A25
:10137000CE018C0D9D1D21E0911007C0292D990CE7
:10138000330B232F221F2227221F6991962E920EA4
:101390000E948309CE15DF0559F7692DC501800F1D
:1013A000911FDF91CF911F910F91FF90EF90DF90F0
:1013B000CF90BF90AF909F900C9483096AE090E02B
:1013C00080E00E94830945E550E062E476E081E038
:1013D00090E00C94A309F999FECF92BD81BD81E004
:1013E0008FBB80B508959F92AF92BF92CF92DF924C
:1013F000EF92FF920F931F93CF93DF935B018A01CC
:101400007C01E40EF51EEC01912C6B01C81AD90A7F
:10141000C6018C0F9D1F0E94EB0921E0911007C0AF
:10142000292D990C330B232F221F2227221F982EA0
:10143000920E8993CE15DF0559F7C501800F911FD4
:101440000E94EB0921E030E0891511F030E020E046
:10145000C901DF91CF911F910F91FF90EF90DF9025
:10146000CF90BF90AF909F900895909132069111C8
:1014700005C086FF04C0439A10923C060895439825
:10148000FBCFE1E0F1E08CE1DF011D928A95E9F705
:10149000109236021092570581E08093000110925D
:1014A000350208954F925F926F927F92AF92BF92F2
:1014B000CF92DF92EF92FF920F931F93CF93DF9320
:1014C000EC015C012CE0A20EB11C8C01C12CD12CD2
:1014D0007601F80141905190619071908F0120E068
:1014E00030E0A901C301B2010E942239882371F0C2
:1014F000A3019201C301B2010E94843B9B01AC0194
:10150000C701B6010E942D386B017C010A151B052D
:1015100001F7C701B6010E94233C6B017C01AC01BD
:101520009B0160E070E080E89FE30E942C392B0172
:101530003C0169917991899199915E01F4E0AF1A2A
:10154000B108A30192010E94843BF501608371837D
:1015500082839383C017D10761F7C701B601DF917A
:10156000CF911F910F91FF90EF90DF90CF90BF90A0
:10157000AF907F906F905F904F9008954F925F92E1
:101580006F927F928F929F92AF92BF92CF92DF9293
:10159000EF92FF926B017C0180908306909084060D
:1015A000A0908506B090860640907F0650908006F9
:1015B0006090810670908206A3019201C501B4017A
:1015C0000E94443B87FF08C0A7019601C301B201F6
:1015D0000E9422391816B4F040923E0650923F06FF
:1015E000609240067092410686E2FF90EF90DF9095
:1015F000CF90BF90AF909F908F907F906F905F90B3
:101600004F900895A7019601C501B4010E94443B83
:1016100087FD11C020E030E0A901C701B6010E949A
:10162000223980923E0690923F06A0924006B092E8
:10163000410687E0DACFC0923E06D0923F06E092A4
:101640004006F0924106A5019401C701B6010E942F
:101650002C3820910B0230910C0240910D025091D8
:101660000E020E94843B0E94113A20E030E040EEDE
:1016700050E40E942D380E94A539862FB6CF909154
:101680003206911118C0811117C080E090E0A0EEE1
:10169000B0E480933E0690933F06A0934006B0933B
:1016A000410660E070E088E192E40E94BE0A0E9478
:1016B0007B0310923C060895803169F42D98909137
:1016C000870691FF05C0803219F440E050E0BA016E
:1016D000CB01BA01EACF2D9AF2CF2F923F924F92CF
:1016E0005F926F927F928F929F92AF92BF92CF92B2
:1016F000DF92EF92FF920F931F93CF93DF93CDB7BB
:10170000DEB7EB970FB6F894DEBF0FBECDBF80916A
:10171000350680FD53C29091580580915905981760
:1017200009F44CC28091110690911206892B09F0A0
:101730007EC01091350612FF5AC28091570522E3F0
:10174000829FC0011124895C9D4F90931206809363
:10175000110640911106509112065A874987452B70
:1017600009F42CC20091E20500FF44C21092E20588
:101770001092F4051092F5051092F6051092F705F7
:10178000A985BA855A962D913D914D915C915D97B1
:1017900029833A834B835C8360E070E080E09FE3C1
:1017A0000E942C396D837E838F839887E985FA8523
:1017B000468C578C60A071A082889388A488B588D5
:1017C00011FF05C3F2E0F093F305A50194010E9417
:1017D000843B9B01AC01C301B2010E942C386B0118
:1017E0007C0120E030E0A9010E94223987FFDEC29F
:1017F00029813A814B815C81CA01B9010E942D384F
:10180000A30192010E94843B9B01AC01C501B4017C
:101810000E942C380E94233C6093000670930106BE
:10182000809302069093030618601093350680910A
:101830008405A82FB0E0BA8BA98B27E02A9FF0017E
:101840002B9FF00D1124E65AFA4F8091E105848315
:1018500040911106509112065A874987DA015E9627
:10186000BC91BDA3FA01F78DFEA3DA019096BC915D
:10187000BFA3FA01F1A1F8A72091EF053091F0057F
:101880004091F1055091F2056DA17EA18B2F9F2F04
:101890000E942C3869AB7AAB8BAB9CAB20E030E07C
:1018A000A9010E94223987FF04C019AA1AAA1BAAFB
:1018B0001CAA2091FC052D8B3091FD053E8B40919B
:1018C000FE054F8B5091FF05588F809104068D8F38
:1018D000909105069E8FA0910606AF8FB0910706E6
:1018E000B8A3E0910806E9A7F0910906FAA72091AC
:1018F0000A062BA730910B063CA77090F805609064
:10190000F9054091FA054BAF5091FB055AAF809114
:10191000F3058D879091F4059DA7A091F505AEA7DD
:10192000B091F605BFA7E091F705E8ABF09100068E
:10193000FEAB209101062FAB3091020638AF4091EB
:10194000030649AF29A53AA54BA55CA56D8D7E8DF3
:101950008F8D98A10E9422398111C8C352E05DABDE
:101960009DA1998FAEA1AA8FBFA1BB8FE8A5EC8FD7
:101970008EE3C82E83ECD82E8EE2E82E89E3F82E73
:10198000212C312C2101A701960129A33AA34BA3B5
:101990005CA35D85513009F44AC4A985BA855130EC
:1019A00008F4D6C3533009F078C45A962D913D916E
:1019B0004D915C915D97C701B6010E94843B4B013C
:1019C0005C012D893E894F89588D672D762D8BAD11
:1019D0009AAD0E942C389B01AC01C501B4010E9454
:1019E000443B87FD8DC32D8D3E8D4F8D58A16DA13C
:1019F0007EA18FA198A50E942C389B01AC010E946A
:101A00002D386B017C012D893E894F89588D672DBA
:101A1000762D8BAD9AAD0E942D389B01AC01C7018C
:101A2000B6010E942C396B017C017D886E88BF89CC
:101A3000BBAFE88DEAAF0D8D1E8DFF8DF98328A118
:101A40002D8331E03D87A7019601C201B1010E94BB
:101A50002D381B012C0129A13AA14BA15CA10E94A8
:101A6000223987FF87C4A201910169A17AA18BA1C4
:101A70009CA10E942C386B017C01980149815D81F9
:101A80006DA57EA58FA598A90E94223987FD31C337
:101A9000872D962DABADBAAD8093F8059093F905DF
:101AA000A093FA05B093FB053D853093F305E091D3
:101AB0008505F09186058189811104C090913506D4
:101AC00093FF31C0A985BA8551969C915197907327
:101AD00009F47CC49E96CD90DD90ED90FC90D1975A
:101AE0008823B1F020910C0630910D0640910E062E
:101AF00050910F06672D762D8BAD9AAD0E94843BD9
:101B00009B01AC01C701B6010E94843B6B017C01C3
:101B1000C701B6010E94BE0A809310068091350667
:101B2000877F8093350627E0E989FA892E9FC001D7
:101B30002F9F900D1124AC01465A5A4F3A018091C3
:101B40001006DA0116968C932091EB053091EC0586
:101B50004091ED055091EE05B80189819D810E946B
:101B6000843B69877A878B879C870E940B396B013E
:101B70007C016091E7057091E8058091E9059091FD
:101B8000EA050E940B394B015C01A70196010E94F6
:101B90002C380E94A5396D877E878F87988B2D857D
:101BA0003E85F30131832083232B09F01AC48091F1
:101BB000350681FF16C4816080933506EB960FB61B
:101BC000F894DEBF0FBECDBFDF91CF911F910F9173
:101BD000FF90EF90DF90CF90BF90AF909F908F904D
:101BE0007F906F905F904F903F902F9008950E944C
:101BF0006E07ABCD8091E1058F5F853009F480E001
:101C00008093E105282F30E052E1859FC001112427
:101C1000DC01A957BA4F7D01B0938605A0938505D5
:101C2000E985FA85808950968C9390E080E0419117
:101C3000519161917191D701A80FB91F689412F861
:101C4000440F551F661F771F1694D1F74D935D9370
:101C50006D937C93139704968C30910541F7A98579
:101C6000BA851C966D917D918D919C911F97B2E1E3
:101C7000B29FA001B39F500D1124FA01E957FA4F0A
:101C80004B015C0123E0880C991CAA1CBB1C2A9503
:101C9000D1F784869586A686B7860E94D43960934C
:101CA000E7057093E8058093E9059093EA05E985D7
:101CB000FA85268D378D40A151A10E942C399B01B8
:101CC000AC012093EB053093EC054093ED05509368
:101CD000EE0560E070E080EA9FE30E942C3960939B
:101CE000EF057093F0058093F1059093F205109243
:101CF000E3051092E4051092E5051092E60511FD4A
:101D000002C003FF42C060910006709101068091FD
:101D10000206909103066093F8057093F90580938D
:101D2000FA059093FB059B01AC010E94843BA985B9
:101D3000BA8552966D937D938D939C935597077FAB
:101D40000093E205D70151961C928091870681FF8E
:101D50000FCDE985FA85818985FF0ACD22A533A5B6
:101D600044A555A560E070E080E89FE30E942C390F
:101D700060930C0670930D0680930E0690930F06E9
:101D8000E1E0D7015196EC93F3CCE985FA856289BD
:101D90007389848995890E94233C6093F805709328
:101DA000F9058093FA059093FB05CCCFC092F4051A
:101DB000D092F505E092F605F092F7051092000634
:101DC0001092010610920206109203062DCD109279
:101DD000F305409204065092050660920606709242
:101DE000070612FF6AC010920006109201061092B8
:101DF000020610920306C12CD12C760189859A85A2
:101E00000E94FB066D877E878F87988B9B01AC01B4
:101E10000E94843B69877A878B879C87A501940100
:101E20000E94223987FF93C029853A854B855C85BE
:101E3000C501B4010E942C382D813E814F81588507
:101E40000E94843B9B01AC01C301B2010E942C386B
:101E50006093040670930506809306069093070628
:101E600020E030E0A9010E94223918160CF449C084
:101E700032E03093F30529813A814B815C81CA01BC
:101E8000B9010E942D38A30192010E94843B9B015D
:101E9000AC01C501B4010E942C380E94233C609320
:101EA00000067093010680930206909303068091CA
:101EB000E20588608093E205B7CCE0913602EF5FDF
:101EC000E03109F4E0E080915705C12CD12C760176
:101ED0008E1751F022E32E9FF0011124E95CFD4F93
:101EE000C288D388E488F588C701B6010E94233CE4
:101EF0006093000670930106809302069093030698
:101F00007DCFA701960169857A858B859C850E9486
:101F10002C382D813E814F8158850E94843B6093EF
:101F200008067093090680930A0690930B068D8528
:101F30009E85AF85B8898093FC059093FD05A0939D
:101F4000FE05B093FF0593E09093F3056DCCA701D8
:101F50009601C501B4010E942C382D813E814F812C
:101F600058850E94843BA30192010E942D3820E0F5
:101F700030E040E05FE30E94843B698B7A8B8B8B7F
:101F80009C8B20E030E0A9010E94443B18160CF025
:101F900094C0A301920169897A898B899C890E94E6
:101FA000223987FF88C0A701960169857A858B85CC
:101FB0009C850E942C382D813E814F8158850E943E
:101FC000843B9B01AC0120930806309309064093A3
:101FD0000A0650930B0669897A898B899C890E942D
:101FE000443B1816BCF52D853E854F8558892093B6
:101FF000FC053093FD054093FE055093FF05A501B8
:10200000940169857A858B859C850E94223981118E
:1020100004C031E03093F30507CCA5019401698534
:102020007A858B859C850E942C382D813E814F813D
:1020300058850E94843B9B01AC01C301B2010E9400
:102040002C386093040670930506809306069093DF
:102050000706EACB89899A89AB89BC8980930406F3
:1020600090930506A0930606B09307068093080692
:1020700090930906A0930A06B0930B0629813A8132
:102080004B815C81CA01B9010E942D3829893A89A6
:102090004B895C890E94843BA70196010E942D38E0
:1020A0000E94233C6093FC057093FD058093FE0520
:1020B0009093FF05B9CB92E047CF809100069091B5
:1020C0000106A0910206B091030610920406109238
:1020D000050610920606109207068093FC05909361
:1020E000FD05A093FE05B093FF059ECB81E08DAB6F
:1020F00037CC098F1A8F39813B8F4D814C8F49CC5A
:1021000020E030E040E05FE3C501B4010E94843B81
:102110009B01AC01672D762D8BAD9AAD0E942C38BA
:10212000A70196010E94843B9B01AC01698D7A8DC9
:102130008B8D9C8D0E942C388B0189839D83A501FA
:102140009401672D762D8BAD9AAD0E942C386AC014
:102150005A962D913D914D915C915D97C701B601C5
:102160000E94843B4B015C0120E030E040E05FE3F3
:102170000E94843B272D362D4BAD5AAD0E942D3841
:10218000A70196010E94843B9B01AC01698D7A8D69
:102190008B8D9C8D0E942C388B0189839D839B01A4
:1021A000AC016D8D7E8D8F8D98A10E94443B1816D9
:1021B0008CF52D8D3E8D4F8D58A16DA17EA18FA1E7
:1021C00098A50E942C389B01AC010E942D386B0110
:1021D0007C012D893E894F89588D672D762D8BADD9
:1021E0009AAD0E942D389B01AC01C701B6010E9437
:1021F0002C396B017C01BDA9BD877D886E88EF8974
:10220000EBAFF88DFAAF0D8D1E8D2F8D298338A180
:102210003D8319CCA5019401672D762D8BAD9AAD28
:102220000E942D38762E672E8BAF9AAF0CCC2D895D
:102230003E894F89588DC701B6010E94843B9B019E
:10224000AC01698D7A8D8B8D9C8D0E942C388B0111
:1022500089839D8329A53AA54BA55CA50E942239B7
:1022600087FFF1CB29A53AA54BA55CA5698D7A8D91
:102270008B8D9C8D0E942C382D893E894F89588DDD
:102280000E942C396B017C0109A51AA54BA5498335
:102290005CA55D8382E08D87D6CB5A962D913D91CA
:1022A0004D915C915D97C701B6010E94843B4B0143
:1022B0005C01AC019B01672D762D8BAD9AAD0E9420
:1022C000443B181644F520E030E040E05FE3C501F0
:1022D000B4010E94843B9B01AC01672D762D8BAD30
:1022E0009AAD0E942C38A70196010E94843B9B0165
:1022F000AC01698D7A8D8B8D9C8D0E942C388B0161
:1023000089839D832DA53EA54FA558A90E94443BD6
:1023100018160CF414CF2DA53EA54FA558A9698D0C
:102320007A8D8B8D9C8D0E942C389B01AC010E9474
:102330002D386B017C012EA93FA948AD59AD672D01
:10234000762D8BAD9AAD0E942D389B01AC01C70153
:10235000B6010E942C396B017C017EA86FA8B8AD34
:10236000BBAFE9ADEAAF0DA51EA5FFA5F98328A96E
:102370002D8369CB29A93AA94BA95CA9B801898108
:102380009D810E94443B18168CF42EE333EC4EE200
:1023900059E369A17AA18BA19CA10E942D3869A360
:1023A0007AA38BA39CA3A201910163CB872D962DC9
:1023B000ABADBAAD8093F8059093F905A093FA05FB
:1023C000B093FB054D854093F30571CB10923E060B
:1023D00010923F061092400610924106109210068D
:1023E0009DCB2091E3053091E4054091E5055091A6
:1023F000E605C201B1010E942D382B013C0129855F
:102400003A854B855C85C501B4010E942C389B013F
:10241000AC01C301B2010E942C394B015C0120ECDC
:1024200031EE44E65EE40E94843B0E940B390E9438
:10243000A539603D57E075078105910508F066C034
:1024400027E0A989BA892A9FF0012B9FF00D11245A
:10245000E65AFA4F158227E0A989BA892A9FF00126
:102460002B9FF00D1124E65AFA4F738362838091FB
:102470005905809384058F5F863009F4A1C080934D
:102480005905E0911106F0911206C801A981BD819C
:10249000868F978FA0A3B1A3C092E705D092E805DD
:1024A000E092E905F092EA0529853A854B855C853D
:1024B000C701B6010E942C38A50194010E94843BFB
:1024C0006093E3057093E4058093E5059093E6053A
:1024D0002091F4053091F5054091F6055091F705EE
:1024E000B80189819D810E942239811114C9F0901F
:1024F000350620E030E0A901B80189819D810E9464
:10250000443B18160CF05FC08F2D55CB603A3FE06E
:10251000730781059105A0F5A7E049895A89A49F11
:10252000F001A59FF00D1124E65AFA4FB1E0B583F2
:10253000A7E049895A89A49FF001A59FF00D1124B5
:10254000E65AFA4F2581022E04C096958795779515
:1025500067950A94D2F74D855E8502C0440F551FDA
:102560002A95E2F7518340836115710551E0850793
:10257000910508F470CF4FEF5FEF5383428377CF1D
:102580006034EFE17E078105910568F447E0298911
:102590003A89429FF001439FF00D1124E65AFA4F09
:1025A00052E05583C5CF27E0A989BA892A9FF00157
:1025B0002B9FF00D1124E65AFA4F33E03583B8CF44
:1025C000109259055ECFF2FC9FCF10921206109226
:1025D00011069091360280915705891709F49BC81E
:1025E00081E0890F803109F480E020913502921357
:1025F00002C080933502809336028DC880916F00AF
:102600008D7F80936F0080918100887F81608093AF
:1026100081001092110280917506909131068F3FD2
:10262000A1F420911406211110C0903881F490E09B
:10263000019778F481E09091870692FF02C091E0C3
:102640008927882369F0289A0895943081F780E0DB
:10265000F2CFEFE9FFE03197F1F700C00000E8CFDB
:1026600028980895CF93DF930E94FE12E1EEF5E0E3
:1026700080E3DF011D928A95E9F7C2E1D2E083E2AF
:10268000FE0111928A95E9F7109212061092110636
:10269000109258051092840581E08093590510929C
:1026A00011020E944503809110028F878BB1837EB7
:1026B00090910F02892B8BB98BB18F719091100281
:1026C000892B8BB9DF91CF9108958091130684FDFA
:1026D0001FC080E10E944B028091B0008F778093F1
:1026E000B000439890913106892F8C7221F480912B
:1026F0003506867069F0943049F480911406811192
:1027000003C086E00E943B020C94FE1283E0FACFE5
:1027100008952F923F924F925F926F927F928F9285
:102720009F92AF92BF92CF92DF92EF92FF920F9360
:102730001F93CF93DF93CDB7DEB7A4970FB6F8946E
:10274000DEBF0FBECDBF10911406112349F181E009
:102750008093310686E691E00E94FB04812F0E945F
:10276000D6040E94090585EF91E00197E1F511502B
:10277000123088F48AEC92E00E94FB0488EB92E02D
:102780000E94FB040E94610680E10E944102809148
:10279000130684FFFCCF8FB7F894109214068FBFF6
:1027A00010911306112309F4A9C214FF23C081E07C
:1027B00080933206A4960FB6F894DEBF0FBECDBF4D
:1027C000DF91CF911F910F91FF90EF90DF90CF900D
:1027D000BF90AF909F908F907F906F905F904F9041
:1027E0003F902F900895EFE9FFE03197F1F700C097
:1027F0000000BBCF10FFCDC08CE0E8E1F6E0DE01C9
:10280000599601900D928A95E1F7BE01675E7F4F60
:10281000CE010D960E948F028CE30E94BC03809132
:102820003106883009F42FC108F00AC1813009F45B
:1028300033C108F423C1823009F431C1843009F472
:1028400028C180917606F82FF1709F2E80FF3CC141
:1028500080913D06882309F437C182E991E00E9406
:10286000FB04CE010D960E94BD048091760681FF87
:102870001DC086E891E00E94FB049091570580916D
:102880003602981708F46FC1815F891B0E94D60435
:102890008CE20E94BC038091090290910A02981771
:1028A00008F463C18058891B0E94D60481E891E036
:1028B0000E94FB04809131068C7709F458C1609125
:1028C000F8057091F9058091FA059091FB050E9439
:1028D000A1048CE20E94BC0360913E0670913F0609
:1028E000809140069091410640E00E94F7030E94CB
:1028F0004709E82E0E941403F82E06B10072809159
:10290000170608278E2D8F29802B59F18CE791E02F
:102910000E94FB04002319F080E50E94BC03EE2016
:1029200079F0E0FE03C088E50E94BC03E1FE03C02D
:1029300089E50E94BC03E2FE03C08AE50E94BC0355
:10294000FF2079F0F0FE03C082E50E94BC03F1FE97
:1029500003C088E40E94BC03F2FE03C083E50E942A
:10296000BC0380913D06882309F405C18150809302
:102970003D0600913C06002309F416C10150009366
:102980003C068EE30E94BC030E94090581E00E9480
:102990004102812F887E09F461C180913106982F10
:1029A000937009F04AC18872A9F080913306807C47
:1029B00089F40E94210382E08093350680913106DC
:1029C000803241F480E217FD0CC0809133068068AC
:1029D0008093330680913106811103C091E090937A
:1029E000330616FF07C085FD05C09091330690643D
:1029F0009093330613FF05C0807E19F480E1809325
:102A0000310615FF1AC18AEC92E00E94FB0486E7AA
:102A100092E00E94FB040E9461068091330687FDCC
:102A200007C190913106903409F0FFC083FF04C0C4
:102A3000837E82608093330680E480933106F8C001
:102A4000803221F198F4803109F0FBCE8091330679
:102A500087FD1CC08AEB91E00E94FB048091330645
:102A600080FF2EC080E30E94BC03EBCE8034D1F007
:102A7000803809F0E6CE89E991E002C084EC91E06B
:102A80000E94FB04DECE80EC91E0FACF86EB91E071
:102A9000F7CF81EB91E0F4CF8BEA91E0F1CF85EABB
:102AA00091E0EECF8FE991E00E94FB048091330624
:102AB00083FF02C083E3D7CF82FF04C085FFD2CF5C
:102AC00081E3D1CF82E3CFCF4090D3065090D4069C
:102AD0006090D5067090D6066BEBA62E66E0B62EFB
:102AE0009E012F5F3F4F6901CE010D967C0100E0F2
:102AF000F50161917191819191915F0120853185FD
:102B0000428553850E942D38F6016193719381931C
:102B100091936F01023041F4A30192010E942D387C
:102B200069877A878B879C87911012C0F60134974A
:102B30002081318142815381F701608171818281DD
:102B400093810E942C38F701608371838283938381
:102B50000F5FF4E0EF0EF11C033051F691107DCEC3
:102B60008BE891E07CCE815090CE81509CCE60E08D
:102B700070E0CB01ACCE809131068C7799F08DE17D
:102B800080933D0680913C06811103C081E08093D3
:102B90003C0686E791E00E94FB04CE0101960E946C
:102BA000BD04E7CE89E0ECCF809131068C77C1F18E
:102BB00083E180933C0681E791E00E94FB048091D1
:102BC00038060E94D6048CE20E94BC03809139062C
:102BD0000E94D6048CE20E94BC0380913A060E94B7
:102BE000D6048091B000F12C87FF04C02D9B1AC041
:102BF00052E0F52E439BCDC100E48DE691E00E94AA
:102C0000FB04FF2031F021E083E5F21283E40E940F
:102C1000BC03002309F4B5CE86E40E94BC03B1CE08
:102C200089E0C7CFFF24F394E5CF903809F004CFB3
:102C30008091330680628093330617FF0CC0809129
:102C40003106813029F48091330685608093330604
:102C500080E88093310688EE0E94410211FF28C06F
:102C6000812F887611F580913106803441F480916E
:102C7000330685FD04C084FFEAC0109231068091BE
:102C80003106882309F4E9C084FF0FC09091330610
:102C900090FF0BC0803109F0E0C080913B06882393
:102CA00009F4DBC0886080933B0682E00E94410209
:102CB00012FF24C09091330680913106807D09F483
:102CC000E5C0809134068111E1C097FDE1C00E940A
:102CD000210380913602809335020E9486078091FD
:102CE000350681FF05C090913306916090933306BD
:102CF000897F8093350684E00E94410290911506F9
:102D0000992309F44CC08FB7F894109215068FBF21
:102D100040913806842F90FD84E691FD865F92FDF8
:102D20008A5093FD8F5F94FD8150893C08F088ECB8
:102D30008A3008F48AE030913906232F95FD24E685
:102D400096FD22E397FD29E1481302C0231739F1CC
:102D5000809338062093390610923C067090360214
:102D600060905705172D89E9282E96E7392E26E918
:102D7000422E3EE7532E42E3842E1611A4C0C10119
:102D8000D2018093190190931A01A0931B01B09373
:102D90001C010E942103709235020E948607109147
:102DA0001606112309F44BC08FB7F894109216063B
:102DB0008FBF90913A06892F10FD84E611FD865F42
:102DC00012FD8A5013FD8F5F14FD8150893C08F07D
:102DD00088EC8A3008F48AE09817A1F090913106C7
:102DE00080933A069111C9C04091A2065091A30662
:102DF0006091A4067091A5068091A0060E943F0BE9
:102E000010923C068091310615FF09C0803139F4DB
:102E100090913B069111B7C092E090933B06107CD5
:102E200071F0882311F0887351F010919F0616FFFE
:102E3000AEC01F7B812F0E94350A10939F068091A0
:102E400031068C7F09F4B6CC0E946D0BB3CC82FFA7
:102E500016CF88608093330612CF109235060E94F9
:102E60006E07892B71F08091330686FD0AC010929F
:102E7000330688E0809331060E946D0B0E94620346
:102E800014CF10923306109231060FCF97FF0AC06D
:102E9000109235060E94410A0E9432130E947D0959
:102EA0000E9490068091330685FF08C08F7781606D
:102EB0008093330680E4809331061DCF1092330651
:102EC0001092310618CFA12EB12C189DC0011124EB
:102ED000895C9D4F0E94FB06962EC72ED82E092F87
:102EE0009101A2010E94443B8A9C70018B9CF00CD2
:102EF00011241816ACF5C701895C9D4F7C01910126
:102F0000A201B101C2010E94843BF701668B778B5D
:102F1000808F918F8A9CC0018B9C900D11249C0105
:102F2000295C3D4F7901F90122A033A044A055A0AE
:102F3000A201910166897789808D918D0E94443B21
:102F400018162CF4F701268A378A408E518E1F5F9F
:102F5000103109F410E0292C3C2C4D2C502E0DCFB3
:102F60009701295C3D4F7901292D3C2D4D2D502F86
:102F7000692D7C2D8D2D902FC6CF809135068860D0
:102F8000809335063DCF90FF4ACF946046CF1064C2
:102F900051CFF11032CEF5CC1F93CF93DF93142F86
:102FA00020E030E040EA51E40E94843B0E940B396B
:102FB0000E94A539EB012097C9F08091320681115A
:102FC00015C011110DC00E94FA172FEF80E792E093
:102FD000215080409040E1F700C000002197EBCFE6
:102FE0000E9489138091330681FFEFCFDF91CF914B
:102FF0001F910895CF92DF92EF92FF921F93CF938C
:10300000DF930E94891380913306882309F46EC0F0
:103010000E946E07009709F03FC0C091A006809102
:103020009F06C82BC090A206D090A306E090A406ED
:10303000F090A5068091870681FF03C080E20E9480
:103040002902DC2FD07311E0C07C809133068823E5
:1030500009F44CC090913206911148C080FF19C00C
:1030600090913106292F207C09F48DC082FD23C068
:1030700010923B0640E050E0BA0180E00E943F0B16
:1030800080E00E94350A809133068D7F84608093B2
:1030900033060E948913D9CFFC01218920734399FB
:1030A00008C0C0E0C22BFC01C6A4D7A4E0A8F1A8C8
:1030B000C1CFC0E4F7CF903821F58AEC92E00E94AE
:1030C000FB0483E392E00E94FB040E94610640E05F
:1030D00050E0BA0180E00E943F0B80E00E94350A78
:1030E0000E94FE1280913206882341F0DF91CF9139
:1030F0001F91FF90EF90DF90CF9008950E94891369
:10310000F1CF903419F48F7D80933306809133068C
:1031100083FFBFCF9091A006992359F081FD09C08C
:103120008091870681FF22C0809135068860809358
:10313000350680919F06882371F08091330681FDCA
:103140000AC08C2F0E94350A41E060E070E080E800
:103150009FE30E94CC178091330681FD9ACF806156
:103160008093330682E00E944B0293CFB701A60101
:103170008D2F0E943F0B41E060E070E080E890E41A
:103180000E94CC17D6CF80913B068823C9F181FFDE
:103190000DC08091A006882351F140E050E0BA01B3
:1031A00080E00E943F0B10933B0673CF8C7009F4B4
:1031B00070CF8091A006882399F08AEC92E00E945B
:1031C000FB048CE392E00E94FB040E946106809164
:1031D000870681FF0FC08091350688608093350691
:1031E00080913B0683FF03C082E00E944B02109255
:1031F0003B064FCFB701A6018D2F0E943F0BF0CFAA
:103200008091350683FF45CFB701A6018D2F0E941F
:103210003F0B80913506877F809335063ACF0E9419
:103220007E070E94FA1780913206811108C00E9421
:103230006E07892BB1F780913106883091F308959C
:10324000CF93DF9391E5899FE0011124DD5F40E595
:1032500050E0BE0181E197E00E94F309892B79F4E7
:10326000109211070E940F1940E550E061E177E0EC
:10327000CE010E94A30980E0DF91CF91089581E003
:10328000FBCF0E940F1910923D060895CF92DF9256
:10329000EF92FF92CF9390913106923079F06A01CC
:1032A0007B01C82F0E940F19B701A6018C2FCF9167
:1032B000FF90EF90DF90CF900C943F0BCF91FF9059
:1032C000EF90DF90CF9008950F931F93CF93C82F67
:1032D0008B010E940F192DE0C29FC00111244CE008
:1032E00050E0B8019E5FCF911F910F910C94A309FC
:1032F0001F93CF93DF93182FEB018DE0189FB00140
:1033000011247E5F4CE050E0CE010E94F309892B2E
:1033100071F48CE0FE0111928A95E9F7BE01812FCC
:103320000E94641980E0DF91CF911F91089581E0A0
:10333000FACFEF92FF920F931F93CF93DF93CDB706
:10334000DEB72C970FB6F894DEBF0FBECDBF182F97
:1033500080FF0BC085E5E9EDF1E0A2E4B6E0059061
:103360000D928A95E1F70E94DE0911FF10C0CE018F
:1033700001967C018CE0F70111928A95E9F700E053
:10338000B701802F0E9464190F5F0830C9F712FF40
:1033900014C060E080E093E00E94830960E081E077
:1033A00093E00E94830960E081E593E00E94830935
:1033B00060E082E593E00E94830913FF0AC060E0A9
:1033C0008EEA93E00E94830960E08FEA93E00E9416
:1033D00083092C960FB6F894DEBF0FBECDBFDF91E8
:1033E000CF911F910F91FF90EF9008952F923F92F0
:1033F0004F925F926F927F928F929F92AF92BF9205
:10340000CF92DF92EF92FF920F931F93CF93DF93B0
:10341000CDB7DEB7CA54D1090FB6F894DEBF0FBEE0
:10342000CDBF98A38F8F7AA369A3409057054D8E87
:10343000242C312C82E3489E90011124A901495C7F
:103440005D4F5CA34BA3DA011D928A95E9F7FB015E
:103450008085DA0151968C9344815581668177810C
:10346000EBA1FCA146A757A760AB71AB81FF66C279
:10347000C0901806D0901906E0901A06F0901B062E
:1034800040901C0650901D0660901E0670901F060E
:10349000498E5A8E6B8E7C8EC301B2016C0D7D1DE0
:1034A0008E1D9F1D22E0822E912CA12CB12CA501F6
:1034B00094010E94CF3C29013A01C701B601298D30
:1034C0003A8D4B8D5C8D621B730B840B950BA501A4
:1034D00094010E94CF3C69017A018090200690906F
:1034E0002106A0902206B0902306409142065091FA
:1034F0004306609144067091450649A75AA76BA7F9
:103500007CA7AF8DB8A12D913D914D915C9169A59E
:103510007AA58BA59CA50E94843B0E94513B2196D5
:103520006CAF7DAF8EAF9FAF219720914606309153
:103530004706409148065091490629AB3AAB4BAB40
:103540005CABAF8DB8A114962D913D914D915C91DE
:10355000179769A97AA98BA99CA90E94843B0E940C
:10356000513B6DA37EA38FA398A721968CAD9DADF3
:10357000AEADBFAD219784199509A609B7090DA174
:103580001EA12FA138A50C191D092E093F0942E3E0
:10359000429DF001439DF00D1124E95CFD4FAC010B
:1035A000BD01400F511F621F731F77FF07C0709549
:1035B0006095509541955F4F6F4F7F4F408351838A
:1035C0006283738342E3429DF001439DF00D112419
:1035D000E95CFD4FAC01BD01401B510B620B730B4D
:1035E00077FF07C070956095509541955F4F6F4F7D
:1035F0007F4F448355836683778340904A0650907B
:103600004B0660904C0670904D0649AE5AAE6BAEBC
:103610007CAE6BA07CA078AE6FAA9E01235F3F4F6B
:103620003A8F298F3EAB2DAB10E042E3429D9001D3
:10363000439D300D1124295C3D4FA901445F5F4F2C
:1036400023965FAF4EAF2397AC01BD014DA05EA0A6
:103650006FA078A444195509660977092A013B012E
:103660004C0C5D1C6E1C7F1C29964CAE5DAE6EAE84
:103670007FAE29974DA05EA06FA078A4840D951D04
:10368000A61DB71D2C013D014C185D086E087F0872
:10369000A901405F5F4F25965FAF4EAF2597B901F7
:1036A000685F7F4F2B967FAF6EAF2B97EFA9F8AD7A
:1036B00081919191A191B191F8AFEFAB2396EEADCD
:1036C000FFAD2397C080D180E280F380C816D90671
:1036D000EA06FB0610F46C017D012396AEADBFAD8A
:1036E0002397CD92DD92ED92FC92139711116EC14A
:1036F000C301B2010E94D63929A53AA54BA55CA504
:103700000E942C39EDA9FEA9619371938193919345
:10371000FEABEDAB20E030E0A9010E94223987FF2B
:103720000EC090E2112321F090E4113009F090E8EE
:103730002596AEADBFAD25978C91892B8C931F5FDD
:10374000133009F014C180E0CD28CE28CF2809F429
:10375000DBC0CE010D960E94520A4B015C0182E350
:10376000829D8001839D100D1124095C1D4FF8017D
:10377000868E978EA0A2B1A2BE01635F7F4F8AE5BD
:1037800096E00E94F108D8015A966D937D938D932F
:103790009C935D97BE01635F7F4F8EE496E00E942D
:1037A000F108F80166A377A380A791A7F188F0FE3E
:1037B0002BC162A773A784A795A7809136024D8C71
:1037C000481611F0F1FE3AC182E3829DF001839D1B
:1037D000F00D1124E95CFD4F128A138A148A158AB0
:1037E00012A213A214A215A282E3829D8001839DDE
:1037F000100D1124095C1D4FD80151968C9181FD4B
:1038000082C08BA19CA10E94FB066B017C014090B1
:10381000190150901A0160901B0170901C01AC01BD
:103820009B01C301B2010E94223987FFCFC1A301CE
:103830009201C301B2010E94843BF801668B778B31
:10384000808F918F82E3829D8001839D100D1124D2
:10385000095C1D4FF80142A053A064A075A0A3010C
:10386000920166897789808D918D0E94443B18165C
:103870003CF4D80156964D925D926D927C92599788
:10388000C0921901D0921A01E0921B01F0921C0122
:103890008CE0FE013D96ADE0B1E001900D928A957D
:1038A000E1F721964CAC5DAC6EAC7FAC21974092B9
:1038B00001015092020160920301709204014DA037
:1038C0005EA06FA078A4409205015092060160921C
:1038D0000701709208014DA45EA46FA478A84092DD
:1038E000090150920A0160920B0170920C018091C3
:1038F0000001809357058F5F803109F480E0809349
:1039000000010E94860781E0C65BDF4F0FB6F89486
:10391000DEBF0FBECDBFDF91CF911F910F91FF9002
:10392000EF90DF90CF90BF90AF909F908F907F905F
:103930006F905F904F903F902F90089540900101BD
:10394000509002016090030170900401C090050145
:10395000D0900601E0900701F090080180900901E5
:1039600090900A01A0900B01B0900C01BECD1230D6
:1039700009F09CCEAF8DB8A118962D913D914D9137
:103980005C911B9769AD7AAD8BAD9CAD0E94843B79
:103990000E94513B6DA77EA78FA798ABDC01CB019E
:1039A00088199909AA09BB09B7FF07C0B095A09566
:1039B000909581959F4FAF4FBF4F2B96EEADFFADCA
:1039C0002B9780839183A283B38370CE113069F4E7
:1039D00029966CAD7DAD8EAD9FAD29970E94D639ED
:1039E00029A93AA94BA95CA98BCE6DA57EA58FA567
:1039F00098A9681979098A099B090E94D63929ADC5
:103A00003AAD4BAD5CAD7CCEE9A1FAA1208131810C
:103A100042815381F3FC08C0D8019A962D933D93BF
:103A20004D935C939D97C9CEC501B4010E94843B20
:103A3000F80162A773A784A795A7BFCE2DE031E058
:103A40003E8F2D8F8E010F5F1F4F498D5A8D445F22
:103A50005F4F5AA749A7C12CD12C76010F8F19A30C
:103A6000AD8DBE8D8D909D90AD90BD90BE8FAD8F74
:103A7000E98DFA8D4190519061907190FA8FE98FA4
:103A8000A3019201C501B4010E94843B9B01AC01DA
:103A9000C701B6010E942C386B017C01A50194017D
:103AA000C301B2010E942C38D8016D937D938D9390
:103AB0009D938D0149A45AA4698C7A8C46145704AD
:103AC00079F62FEE3FEF4FE75FE3C701B6010E94A3
:103AD000443B18164CF482E3829DF001839DF00D67
:103AE0001124E95CFD4F7CCE2FEE3FEF4FE75FEBFB
:103AF000C701B6010E94223987FF11C082E3829D6F
:103B0000F001839DF00D1124E95CFD4F89E996E7F2
:103B1000A6E9BEE782A393A3A4A3B5A365CE8F8D28
:103B200099A10E94520A6F8D79A18AE596E00E94C0
:103B3000F1082B013C01A701960160E070E080E8EC
:103B40009FE30E942C3820E030E040E05FE30E94D9
:103B5000843B0E94233C6B017C01209177063091CD
:103B600078064091790650917A06C301B2010E940D
:103B7000843BA70196010E94843B4B015C01A70195
:103B8000960160E070E080E89FE30E942C389B0182
:103B9000AC01C501B4010E942C396B017C0120E00D
:103BA00030E0A9010E94223987FF03C0C12CD12C2B
:103BB000760182E3829DF001839DF00D1124E95C82
:103BC000FD4FC2A2D3A2E4A2F5A20ECEA701960198
:103BD000C701B6010E94843BD80156966D937D9330
:103BE0008D939C9359972ECEFF920F931F93CF9353
:103BF000DF938C01EB018091870685FF23C0F09055
:103C0000310680E2F81611F1C8010E94540288239F
:103C1000C9F081E08093340688E0F8120CC00E945D
:103C20004B020E94FA178091320681110BC08091DD
:103C300031068111F6CF0E94651382E00E943B029B
:103C40000E94FA1780913106823041F10E94FA17E2
:103C500080913206811122C090913602809100013C
:103C6000981303C00E947E07F1CFBE01C8010E94D5
:103C7000F619811113C08091870681FF0FC08885D6
:103C800084FF0CC04C815D816E817F8180E1DF917A
:103C9000CF911F910F91FF900C944619DF91CF9116
:103CA0001F910F91FF9008952F923F924F925F9234
:103CB0006F927F928F929F92AF92BF92CF92DF923C
:103CC000EF92FF920F931F93CF93DF93CDB7DEB7A1
:103CD000CC54D1090FB6F894DEBF0FBECDBFE7EDCF
:103CE000F6E08AE3DF011D928A95E9F78BE0E7E9C8
:103CF000F6E0A8EDB6E001900D928A95E1F780918B
:103D000011078432A1F01A8E1BA2312C212C1EA681
:103D10001DA610E01B8E1F8EEE24E394F12CAAE06A
:103D2000AA2EB12CB1E68B2EB3E09B2E4EC181E0C2
:103D30008093D8061092D90683E08A8FB1E0BBA3A6
:103D4000E4CF9FEB9D0D9A3110F00C94E22B8F5F26
:103D50008A8FBE016A5E7F4FCE014A960E947C0127
:103D6000882311F40C94E52B4E885F88688C798C3D
:103D7000C301B2010E94673C0E94A539062F70E082
:103D800090E080E00E94D6399B01AC01C301B201F2
:103D90000E942C3820E030E048EC52E40E94843B42
:103DA0000E94F13B0E94A539CB01E7E4DE1629F120
:103DB000FDE4DF1609F465C1EAEBED0DE53108F02D
:103DC0002CC00E2E000CFF0BE851F14E0C94EE3C73
:103DD0008A200D1F0D1FB720C220CD20D8200D1F17
:103DE000DC200D1FEA200D1FF420FE2008210D1FEE
:103DF0000D1F0D1F182125213221083209F4DDC0C5
:103E000030F5043160F4013108F098C0043009F451
:103E100074C0B0F00A3009F468C084E196C00C3177
:103E200009F463C040F40631C0F725E1201B20935C
:103E3000DA0626E087C00E3109F457C0063269F76A
:103E40004F8D41110C94E82BA2E0AF8F28C00D33A9
:103E500009F4AEC0E0F4053309F44FC088F40B3226
:103E600011F00133D1F6BF8DB1110C94E82B013361
:103E700009F095C01092DD06E3E0EF8F28E04FC017
:103E80000C3358F606530093DE0629E05BC00C3570
:103E900008F50A3508F073C0003509F0BECF00936D
:103EA000D80621E0063209F04DC08431910551F069
:103EB0008E31910539F08832910521F082339105D8
:103EC00009F0ABCFB5010E94993C66576093D806C4
:103ED00021E025C00C3549F00F3508F09ECF2EE5C6
:103EE000201B2093D90625E02DC0009731F42F8D9B
:103EF00021110C94E82B31E03F8F0093D706202F3F
:103F00002D7F2C3119F020E00C35E1F4009719F0E9
:103F10000A9709F082CF600F6093D70620E0C701AF
:103F200002C0880F991F2A95E2F72DA53EA52823E8
:103F30003923232B09F443C085E107C001510093C5
:103F4000DC0622E0892B59F387E1C45BDF4F0FB613
:103F5000F894DEBF0FBECDBFDF91CF911F910F91BF
:103F6000FF90EF90DF90CF90BF90AF909F908F9099
:103F70007F906F905F904F903F902F900895892B86
:103F800029F40A550093DB0623E0C9CF6A30710596
:103F900009F043CF0A3509F440CF24E0C0CF0A9797
:103FA00009F03BCFF1E0F093DD0623E02F8F66CFE1
:103FB000892B09F032CF2AE0B2CF27E0C3CFADA5DD
:103FC000BEA5A82BB92BBEA7ADA78A8DE82FF0E020
:103FD000EF5EF84FD080D110B4CEBB8DBB2329F05B
:103FE000EF8DE11102C0F2E0FF8F25FE0FC080913E
:103FF000F4069091F506A091F606B091F706813887
:104000009649A849B10514F00C94F42B3BA1332335
:1040100009F435C120FE45C18091DA068130B1F442
:1040200023E333E34BEC51E46091E3067091E40643
:104030008091E5069091E6060E94843B6093E3063A
:104040007093E4068093E5069093E60630FC10C07A
:104050008091A2069091A306A091A406B091A50616
:104060008093000790930107A0930207B093030782
:104070008091D706843009F02FC126FC2BC18CE13A
:1040800064CF892B09F060CF063050F4033098F0EC
:104090000430D9F080E10530C9F41092E10618C06F
:1040A000083008F4BACE0A3048F10E3109F0B5CE26
:1040B0000093DF0604C0002321F00130C9F78BE034
:1040C00008C0B3E0B093DF06FACF80E28093E10648
:1040D0008CE0F70102C0EE0FFF1F8A95E2F7CF01D7
:1040E0002DA53EA52E233923232B09F025CF2DA561
:1040F0003EA52E2B392B3EA72DA767CF093039F0CF
:104100008091E00680648093E0068DE0E2CF10921B
:10411000E006FBCF4092E3065092E4066092E5068B
:104120007092E60680E06701082E02C0CC0CDD1C10
:104130000A94E2F7960122213321232B11F00C94EB
:10414000EE2BD40102C0B595A7958A95E2F7A0FFA2
:104150000BC020E030E0A901C301B2010E94223966
:1041600087FF02C00C94F12B2C283D282ECF4092C3
:10417000E7065092E8066092E9067092EA0611603E
:1041800081E0D1CF4092EB065092EC066092ED06B2
:104190007092EE06126082E0C6CF4092EF06509217
:1041A000F0066092F1067092F206146083E0BBCFD5
:1041B0000093F30684E0B7CFC301B2010E949E3999
:1041C0006093F4067093F5068093F6069093F706D5
:1041D00085E0A9CF4092F8065092F9066092FA065F
:1041E0007092FB0686E09FCF4092FC065092FD063F
:1041F0006092FE067092FF0687E095CF409200071E
:1042000050920107609202077092030788E08BCFFB
:1042100020E030E04FE753E4C301B2010E94443B89
:10422000181614F40C94EB2B0093040789E07BCF51
:1042300040920507509206076092070770920807A0
:104240003B8D31603B8F8AE06ECF409209075092E0
:104250000A0760920B0770920C074B8D42604B8FE0
:104260008BE061CF40920D0750920E0760920F07CE
:10427000709210078B8D84608B8F8CE054CF80916F
:10428000D906813081F44F8D423009F0DFCE809124
:10429000D806803509F4DACE882309F4D7CE20FC7D
:1042A000D5CE86E152CE809198068111CFCE20FCEA
:1042B000B3CE8091A6069091A706A091A806B091D2
:1042C000A9068093E3069093E406A093E506B093D5
:1042D000E606BCCEE89426F88091DC06882359F0E7
:1042E000813009F4BBC022961FAE2297A2E0ABAF8B
:1042F000B1E0B9AF07C082E022968FAF229791E07C
:104300009BAF19AE8091DA06813071F5E7EDCE2EC4
:10431000E6E0DE2EF12CE12C2B8DA22EB12CC50176
:104320000E2C02C0959587950A94E2F780FF12C083
:1043300023E333E34BEC51E4D6019E966D917D91DE
:104340008D919C91D1970E94843BF60166A777A737
:1043500080AB91ABFFEFEF1AFF0A24E0C20ED11C35
:1043600033E0E316F104D9F64F8D433049F48091E0
:10437000DD06813029F48B8D843011F00C94F72BFD
:104380008CE0EBEBF6E0DE01119601900D928A9540
:10439000E1F7ADA5BEA5B1FD69C00091D7060A3011
:1043A00009F478C00C3509F419C19F8D933009F4D4
:1043B0003FC0AB8DAA23E1F1B091DB06BFA3809192
:1043C000D3069091D406A091D506B091D60689A7C0
:1043D0009AA7ABA7BCA797E9A92E96E0B92E27ED1F
:1043E000C22E26E0D22EF12CE12C9B8D892E912C11
:1043F000C4010E2C02C0959587950A94E2F780FDC2
:104400005DC1F501808D918DA28DB38DF60186A7DA
:1044100097A7A0ABB1ABFFEFEF1AFF0A24E0A20E03
:10442000B11C34E0C30ED11C43E0E416F10401F7E3
:104430000E3109F494C1053309F4B8C167EE76E092
:1044400086E00C3109F02DC10E947819882301F112
:104450008B8D811188C119A61F8EA9C0E1E022961B
:10446000EFAF22971BAEF2E0F9AF4CCF8091DE06A2
:10447000873010F08DE169CD90919D06891709F480
:104480008CCFBE016F5F7F4F0E947819811185CF5D
:1044900087E05BCDBB8DB11102C08AE156CDC10171
:1044A00080759927892B09F4EACD6091F8067091FF
:1044B000F9068091FA069091FB060E94673C0E94E3
:1044C000A5396730B8F68091F306843129F082303F
:1044D00009F0A3CC27FCA1CC662309F474C0615079
:1044E00069A767EE76E089A50E947819882381F292
:1044F0000091F3064090D3065090D4066090D50604
:104500007090D60677EDC72E76E0D72EF12CE12CF1
:104510003B8D232F30E038A72FA38FA198A50E2C19
:1045200002C0959587950A94E2F780FF33C0D601C3
:104530009E968D909D90AD90BC90D197043109F0DE
:1045400046C0F701EE0FFF1FEE0FFF1FE956F94FB0
:1045500020A931A942A953A9608D718D828D938DB7
:104560000E942C38A50194010E942C38F601608B22
:10457000718B828B938BF2E0EF120CC0A30192013E
:104580000E942C386093EF067093F0068093F1063A
:104590009093F206BFEFEB1AFB0AE4E0CE0ED11CBB
:1045A000F3E0EF16F10409F0B8CF2FEA2222809150
:1045B000D8068FA3803509F000C19B8D992309F49B
:1045C00006C18FE1C2CCE091DE06E9A78ACF509602
:1045D0008D929D92AD92BC925397DCCF3B8D33234D
:1045E00009F45BCF4090D3065090D4066090D50676
:1045F0007090D60647E9842E46E0942ECE010196AF
:104600007C0157EDA52E56E0B52ED12CC12CA32F41
:10461000B0E0B8A7AFA38FA198A50C2C02C09595C8
:1046200087950A94E2F780FF3EC0F701208131812F
:1046300042815381D40158966D917D918D919C91C9
:104640005B970E942C38F50126A537A540A951A9F2
:104650000E942C38D5019E966D937D938D939C93EB
:10466000D197B2E0CB120CC0A30192010E942C386A
:1046700060930D0770930E0780930F0790931007B8
:10468000FFEFCF1ADF0A24E0820E911C34E0E30E24
:10469000F11C44E0A40EB11C83E0C816D10409F05B
:1046A000BACF19A684CFF40180A991A9A2A9B3A970
:1046B000F50186A797A7A0ABB1ABE2CF053309F40C
:1046C000AACED6019E964D905D906D907C90D1972C
:1046D000BFA1B11133C0F701EE0FFF1FEE0FFF1F97
:1046E00021E030E02C0F3D1FE20FF31FD501D096E3
:1046F0002D913D914D915C91D39760817181828123
:1047000093810E942D38A30192010E942D38F60159
:1047100066A777A780AB91ABF2E0EF127CCE29A51C
:104720003AA54BA55CA50E942D3860930D077093A8
:104730000E0780930F07909310076DCEA30192018F
:10474000D50158966D917D918D919C915B970E94BA
:104750002D38F60166A777A780AB91AB5CCE67EEEC
:1047600076E087E071CEA7E9B6E0E7EDF6E090E00D
:1047700080E04B8D242F30E0A901082E02C0559512
:1047800047950A94E2F740FD0AC058964D915D9115
:104790006D917C915B97408B518B628B738B0196F3
:1047A000149634968330910539F77BCF8091D806E3
:1047B000823008F476CF8EE1C8CBAF8DA23039F4C9
:1047C000BFA1B11173C0EB8DEE2309F48DC02BA1F5
:1047D0002170EBA1C101E0FFD8C28E7DFF8DF111E8
:1047E000937E892B11F00C94002C8E01035F1F4FD8
:1047F00089E0D8011D928A95E9F7222309F4C8C2FD
:104800008DA59EA5867B892B11F00C94032C80919D
:10481000D706853319F081110C94032C8091A206E0
:104820009091A306A091A406B091A506898B9A8BBE
:10483000AB8BBC8B8091A00690919F06892B4091F9
:10484000E3065091E4066091E5067091E6064D8717
:104850005E876F87788B84608D8B8091870685FF5C
:1048600006C085E097E00E9454028111CFC7B801CD
:1048700085E097E00E94F41D8091310681110BC004
:104880000E946E07892B39F080E2809331060E94E6
:104890006D0B0E9462038CE0E5E0F7E0AFEAB6E062
:1048A00001900D928A95E1F780E04FCB20E030E057
:1048B000A9016091E3067091E4068091E50690916C
:1048C000E6060E942239882309F4EBCCFFA1FC38CC
:1048D000B9F060F4F23059F1F33061F1F13009F0E0
:1048E00076CF3B8D311173CF1F8E71CF2FA12E3814
:1048F00039F018F02F3809F06ACF9BA190619BA383
:104900008FA18E58823018F4ABA1A860ABA3BB8DE9
:10491000BB2309F4C2CD4CE050E065E077E08FEABC
:1049200096E00E940E3D892B09F051CF6DC04BA13E
:1049300044604BA38B8D882309F4AFCDB9ADAB2F69
:10494000B0E0BAABA9ABFBADEF2FF0E0FEABEDAB47
:1049500081E090E07C0109AC02C0EE0CFF1C0A94DF
:10496000E2F70BAC02C0880F991F0A94E2F7E82A1D
:10497000F92A2B8D822F90E08E219F21892B09F41B
:1049800039C7FD01EE0FFF1FEE0FFF1FE952F94F70
:10499000AA0FBB1FAA0FBB1FA155B94F2D913D9167
:1049A0004D915C9166A577A580A991A90E942C38AC
:1049B0002B013C01EDA9FEA9EE0FFF1FEE0FFF1F1B
:1049C000E952F94FADA9BEA9AA0FBB1FAA0FBB1F81
:1049D000A155B94F2D913D914D915C9166A577A55B
:1049E00080A991A90E942C384B015C0127FEFFC0D1
:1049F000E89427F84CE050E065E077E08FEA96E035
:104A00000E940E3D892B11F481E29FCA6091FC0641
:104A10007091FD068091FE069091FF062091DA06C6
:104A2000213071F423E333E34BEC51E40E94843BE7
:104A30006093FC067093FD068093FE069093FF063C
:104A40008091FC069091FD06A091FE06B091FF06B4
:104A500021968CAF9DAFAEAFBFAF2197A30192015E
:104A6000C301B2010E94843B29966CAF7DAF8EAF2B
:104A70009FAF2997A5019401C501B4010E94843B11
:104A80002D966CAF7DAF8EAF9FAF2D9720E030E0BD
:104A900040E850E421966CAD7DAD8EAD9FAD219781
:104AA0000E94843B21962CAD3DAD4EAD5FAD21976C
:104AB0000E94843B29962CAD3DAD4EAD5FAD29974C
:104AC0000E942C382D962CAD3DAD4EAD5FAD2D978F
:104AD0000E942C386B017C0120E030E0A9010E948B
:104AE000223987FD8AC6C701B6010E94233C6B01AB
:104AF0007C012D962CAD3DAD4EAD5FAD2D97299629
:104B00006CAD7DAD8EAD9FAD29970E942D380E9472
:104B1000233C9B01AC01C701B60190580E942C397F
:104B20006B017C019FA1933021F4F7FAF094F7F820
:104B3000F09420E030E0A90121966CAD7DAD8EAD02
:104B40009FAD21970E94223987FF13C0F7FAF09496
:104B5000F7F8F09421968CAD9DADAEADBFAD219729
:104B6000B0588093FC069093FD06A093FE06B09388
:104B7000FF0609A91AA9000F111F000F111F0951E3
:104B8000194FA7019601C501B4010E94843B9B0106
:104B9000AC01C301B2010E942C3820E030E040E0BB
:104BA0005FE30E94843BD8016D937D938D939C932A
:104BB00013970DA91EA9000F111F000F111F0951F6
:104BC000194FA7019601C301B2010E94843BA501C0
:104BD00094010E942D3820E030E040E05FE30E9425
:104BE000843BF8016083718382839383F0CDC12E6F
:104BF000D12CE122FD2083E2EF2809F4A6C9F1EFD0
:104C00002F228091DA06813041F507ED16E0F12C74
:104C1000E12CC6010E2C02C0959587950A94E2F707
:104C200080FF12C023E333E34BEC51E4D8015096EC
:104C30006D917D918D919C9153970E94843BF801D9
:104C4000608B718B828B938BFFEFEF1AFF0A0C5FE7
:104C50001F4F23E0E216F104E1F6E9A9FAA9EE0FED
:104C6000FF1FEE0FFF1FE951F94FC080D180E28096
:104C7000F380A7019601C301B2010E942C382B01D9
:104C80003C01EDA9FEA9EE0FFF1FEE0FFF1FE9513A
:104C9000F94F80819181A281B38189AB9AABABAB93
:104CA000BCAB9C01AD01C501B4010E942C384B0185
:104CB0005C01A3019201C301B2010E94843B2B015C
:104CC0003C01A5019401C501B4010E94843B9B01F4
:104CD000AC01C301B2010E942D380E94233C4B015C
:104CE0005C01A7019601C701B6010E94843B6B01DC
:104CF0007C0129A93AA94BA95CA9CA01B9010E9462
:104D0000843B9B01AC01C701B6010E942D380E9473
:104D1000233C6B017C01C092FC06D092FD06E09220
:104D2000FE06F092FF06AC019B01C501B4010E9492
:104D30002C384B015C01E894B7F82AE037ED43EAE0
:104D40005BE3C501B4010E94443B18160CF03FCD53
:104D500020E030E040E05FE3C501B4010E94443B45
:104D600018160CF451CE2FE632E143E85AE3C7019E
:104D7000B6010E94843B9B01AC01C501B4010E94B5
:104D8000443B18160CF023CD3FCE8E7D9C7F26CD64
:104D900080918706F090A00681FF12C08FA18150FC
:104DA000833018F0BBA1B064BBA3EB8DEE2309F4F4
:104DB00043C1FF8DF23009F03FC12BA120682BA326
:104DC0008091F4069091F506A091F606B091F70651
:104DD0008093AB069093AC06A093AD06B093AE065D
:104DE0008091D90680939806882311F088E08D8BF6
:104DF0008091E3069091E406A091E506B091E60665
:104E00008093A6069093A706A093A806B093A90640
:104E10008D879E87AF87B88B8090000790900107A1
:104E2000A0900207B0900307A50194016091A2062B
:104E30007091A3068091A4069091A5060E94223944
:104E40009BA19074E92E811103C0ABA1A5FF1FC0E7
:104E5000FF2069F0BBA1B7FD0AC040E050E0BA01F5
:104E6000E11002C0B501A4018F2D0E944619809166
:104E7000000790910107A0910207B091030780936A
:104E8000A2069093A306A093A406B093A506E110F2
:104E90000CC08091A2069091A306A091A406B091A7
:104EA000A506898B9A8BAB8BBC8B80910407809372
:104EB000AA068091E1069091A006981751F04989C1
:104EC0005A896B897C890E9446198091E1068093FA
:104ED000A0068D899091A006892B8D8BF090E0061D
:104EE00080919F068F1569F080913106823029F0FC
:104EF0000E940F198F2D0E94350A8091E006809341
:104F00009F068D8990919F06892B8D8B8091D70666
:104F1000843099F480913106823079F0C090F8069F
:104F2000D090F906E090FA06F090FB060E940F1967
:104F300040E0C701B6010E94CC178091DC06809347
:104F40009B068091DA0680939906EF8DE33071F528
:104F50008091DD0680939C06811108C010920D0798
:104F600010920E0710920F0710921007C0900D07B5
:104F7000D0900E07E0900F07F0901007A701960160
:104F80006091D3067091D4068091D5069091D60693
:104F90000E942239882351F0C092D306D092D406C1
:104FA000E092D506F092D6060E9441198091DE0665
:104FB00090919D06981769F080939D068CE0FE0104
:104FC0003196ABEBB6E001900D928A95E1F70E9425
:104FD00041198091DB0680939A068091D70686322C
:104FE00009F47EC008F03FC08C3109F45FC08E31F7
:104FF00009F45CC08A3009F443C08091D8068093DC
:105000009706803509F449C3BF8DB23009F045C316
:10501000813009F079C0BE01635F7F4F85E097E082
:105020000E94F41D8CE0E5E0F7E0AFEAB6E0019005
:105030000D928A95E1F731C330E1F312C1CE9BA105
:105040009074809197068150833038F4992309F445
:10505000B7CE4BA140624BA3B3CE9111B1CE8BA181
:1050600080628BA3ADCE8C3509F440C0863609F43E
:1050700043C0883209F0C1CF6FEA76E087E033C0E1
:1050800067EE76E089A50E94641980919D06F9A5D6
:10509000F813B3CF8CE0E7EEF6E0ABEBB6E00190AF
:1050A0000D928A95E1F70E944119A7CF8D89816001
:1050B0008D8B2F8D222329F0B80185E097E00E9487
:1050C000F41DB80187EE96E00E94F41D8CE0E7EE37
:1050D000F6E0AFEAB6E001900D928A95E1F78DCF48
:1050E0006FEA76E086E00E94641987CF8CE0E5E005
:1050F000F7E0A7ECB6E0D3CFE7ECF6E08CE0DF0119
:105100001D928A95E9F7CFCF811105C08D89816005
:105110008D8BB80183CF8250823008F097C2809186
:10512000FC069091FD06A091FE06B091FF068F8FC0
:1051300098A3A9A3BAA3A9AD94E0A99F70011124D3
:10514000F701E155F94FF8A7EFA397012951394F1E
:105150003AA729A7D9014D905D906D907C90208150
:10516000318142815381C301B2010E942D386DA764
:105170007EA78FA798ABEBADB4E0EB9F8001112425
:1051800098012155394F3AAF29AFC8018951994F3C
:105190009CAF8BAFDC018D909D90AD90BC90F901E0
:1051A0002081318142815381C501B4010E942D3893
:1051B00069AB7AAB8BAB9CAB77FA709477F8709451
:1051C000D501C401B0588B8F9C8FAD8FBE8FF70176
:1051D000EB5FF84F2DA53EA54FA558A960817181C1
:1051E000828193810E942C386B017C01F801EB5F76
:1051F000F84F29A93AA94BA95CA9608171818281E4
:1052000093810E942C384B015C01A7019601C301D8
:10521000B2010E94843B6DAB7EAB8FAB98AFA50112
:1052200094016B8D7C8D8D8D9E8D0E94843B9B01A6
:10523000AC016DA97EA98FA998AD0E942D386DABE8
:105240007EAB8FAB98AFA5019401C301B2010E9460
:10525000843B4B015C01A70196016B8D7C8D8D8D8C
:105260009E8D0E94843B9B01AC01C501B4010E944C
:105270002C382DA93EA94FA958AD0E94AC386B011E
:105280007C019BA192FF68C12DEB37E346E055EB13
:10529000C701B6010E94443B87FD0AC02BED3FE0E9
:1052A00049EC50E4C701B6010E942C386B017C0127
:1052B00080907B0690907C06A0907D06B0907E0644
:1052C0002F8D38A149A15AA1CA01B9010E942D38D8
:1052D000A50194010E942C38A50194010E94843BF1
:1052E0000E94233C4B015C0120E030E040E05FE3A2
:1052F000C701B6010E94843B2F8D38A149A15AA154
:105300000E94843B9F77A50194010E942C390E9442
:10531000113A0E94A5397EAB6DABDB01AB2B09F4D2
:105320007ACE1D8990E080E00E94D4394B015C0167
:1053300013FF0EC0AC019B016D857E858F8598891A
:105340000E94843B6D877E878F87988B177F1D8B8C
:10535000A5019401C701B6010E942C396BA37CA35F
:105360008DA39EA32296EFAD2297B4E0EB9FC001E0
:1053700011248C010155194F8B5F984FD8012D9145
:105380003D914D915C91FC0160817181828193819D
:105390000E942C38A50194010E942C3929966CAFEB
:1053A0007DAF8EAF9FAF29972BA13CA14DA15EA1F0
:1053B000CA01B9010E94843B9B01AC0160E070E02E
:1053C00080E090E40E942C386B017C012BEA3AEAE1
:1053D0004AE25EE36BA17CA18DA19EA10E94843B69
:1053E0004B015C0120E030E040E850E4C701B60129
:1053F0000E942D389B01AC01C501B4010E94843B81
:1054000021966CAF7DAF8EAF9FAF219720E030E04B
:1054100040E05FE3C701B6010E94843B25966CAF74
:105420007DAF8EAF9FAF25971F8E22242394312C02
:10543000EDA9FEA9E215F30509F4EDCDFF8DFC30D1
:1054400008F09EC0A301920121966CAD7DAD8EAD9A
:105450009FAD21970E94843B6B017C012B8D3C8D7D
:105460004D8D5E8D25966CAD7DAD8EAD9FAD259736
:105470000E94843B9B01AC01C701B6010E942D38FC
:105480007B016C01A301920125966CAD7DAD8EADC3
:105490009FAD25970E94843B4B015C012B8D3C8D79
:1054A0004D8D5E8D21966CAD7DAD8EAD9FAD2197FE
:1054B0000E94843B9B01AC01C501B4010E942C38C1
:1054C0002B013C012F8D2F5F2F8F470156018B8EB3
:1054D0009C8EAD8EBE8EA30192016DA57EA58FA57B
:1054E00098A90E942D38EFA1F8A56083718382836B
:1054F00093832B8D3C8D4D8D5E8D69A97AA98BA9E7
:105500009CA90E942D38A9ADBAAD6D937D938D9362
:105510009C93139729962CAD3DAD4EAD5FAD299769
:10552000F80160817181828193810E942D38D801B8
:105530006D937D938D939C931397BE01635F7F4F13
:105540008FEA96E00E94F41D8091320681116ACDA7
:10555000BFEF2B1A3B0A6CCF2DEB37E346E055E348
:10556000C701B6010E94223918160CF4A1CE2BED0A
:105570003FE049EC50E4C701B6010E942D3896CEB9
:10558000B10190E080E00E94D4392BA13CA14DA153
:105590005EA10E94843B6B017C010E9427396B8FC6
:1055A0007C8F8D8F9E8FC701B6010E94153C4B01E9
:1055B0005C01A9A5BAA5CD90DD90ED90FC90F7FA1D
:1055C000F094F7F8F094ABADBCAD8D919D910D903A
:1055D000BC91A02D8F8F98A3A9A3BAA3A701960170
:1055E0006B8D7C8D8D8D9E8D0E94843B2B013C01AB
:1055F0002F8D38A149A15AA1C501B4010E94843B55
:105600009B01AC01C301B2010E942D382B013C016A
:10561000A7019601C501B4010E94843B6B017C0186
:105620002F8D38A149A15AA16B8D7C8D8D8D9E8DBA
:105630000E94843B9B01AC01C701B6010E942C383B
:105640006B8F7C8F8D8F9E8F1F8E45CF8D89846051
:105650008D8B80913106823009F4E4CC0E940F19C1
:1056600080913206811119C0FBA1F071FF2E1092BA
:1056700036062BA123FB882780F90E94E50386B11B
:10568000807290911706891719F184E00E943B02FD
:105690000E94FA1780E00E94E5038091DF06809364
:1056A0009E06882311F40C94A51F0E940F19809167
:1056B0009E0690913106833009F04DC0923029F05A
:1056C00088E00E944B020E94FA1710929E06ECC8D6
:1056D000B80185E097E00E94F41D81E080933006D8
:1056E00082E00E944B020E94FA17809132068111DB
:1056F000D4CF809131068111F6CF80913006813070
:1057000031F5FF2001F18CE0E8E1F6E0A4E2B6E03B
:1057100001900D928A95E1F71092300680E00E9488
:10572000E5030E94FA170E9432130E94410A0E9468
:1057300090060E94660680913606882309F472CC92
:105740000E947D09AACF85E00E943B02E5CF81E05F
:1057500080933606E1CF81E08093970610929B06F6
:1057600010929A061092980610929D061092A0062A
:1057700010929F0684E680933806809339068093C2
:105780003A069230A1F06BEB76E080E00E94781947
:10579000882311F40C9448220E94411940E050E003
:1057A000BA0180E00E943F0B80E00E94350A8AEC3B
:1057B00092E00E94FB0481E692E00E94FB040E94BA
:1057C000610683CF81E00C94A51F82E00C94A51F95
:1057D00088E10C94A51F86E20C94A51F89E10C9426
:1057E000A51F84E00C94A51F8BE10C94A51F85E2F6
:1057F0000C94A51F80E20C94A51F82E20C94A51FB7
:1058000084E20C94A51F80E10C94A51F8FE00C94FA
:10581000A51FCF93DF93C0E08C2F0E942019811128
:1058200014C0109211078EE30E94BC030E94D8039B
:105830008AE30E94BC0387E00E940D05C13019F481
:10584000DF91CF910895C1E0E7CF809111078823C0
:10585000A9F30E94541ED82F8EE30E94BC030E941D
:10586000D8038AE30E94BC038D2F0E941905E6CF5E
:105870002F923F924F925F926F927F928F929F9260
:10588000AF92BF92CF92DF92EF92FF920F931F934E
:10589000CF93DF93CDB7DEB7AB970FB6F894DEBFEB
:1058A0000FBECDBF909132069111A4C189A7FE0110
:1058B0003D9689E0DF011D928A95E9F786E08D8BA0
:1058C000E2E4F6E0FE8FED8F9E012A5E3F4F790104
:1058D0006F0110E000E0812C912C54018CE0382EF7
:1058E00099A5892F90E098A38F8F802F202F94E087
:1058F000002321F098E0013009F090E1223009F016
:10590000B3C0D7019C932F8D38A102C03595279540
:105910008A95E2F720FF17C020E030E040EC5FEB13
:10592000D60194966D917D918D919C9197970E944F
:10593000843B2B013C01A50194010E94223987FD83
:1059400002C0420153010F5F1F4FB4E0CB0ED11CC8
:10595000EFEFEE1AFE0A0330110539F640908D067E
:1059600050908E0660908F067090900604E011E0D3
:1059700068E176E0CE0101960E948F0280912006B8
:1059800090912106A0912206B091230689A39AA3A3
:10599000ABA3BCA380918806A82FB0E0BBA7AAA7A1
:1059A000FE0131967F01C12CD12C312C212CD50147
:1059B000C401B0588DA39EA3AFA3B8A7298E8F8D25
:1059C00098A1022C02C0959587950A94E2F780FF72
:1059D0008FC0C39421104BC06091180670911906B6
:1059E00080911A0690911B0620911C0630911D068D
:1059F00040911E0650911F06621B730B840B950B82
:105A000022E030E040E050E00E94CF3C20931806B6
:105A10003093190640931A0650931B06882799273E
:105A2000DC01821B930BA40BB50B80931C06909397
:105A30001D06A0931E06B0931F068AA59BA5098C80
:105A400002C0959587950A94E2F780FFECC0112378
:105A500009F440C08DA19EA1AFA1B8A5F701808334
:105A60009183A283B3833CC0F70130824CCFA98DD0
:105A7000A13059F5609118067091190680911A06A7
:105A800090911B0620911C0630911D0640911E0628
:105A900050911F06620F731F841F951F22E030E094
:105AA00040E050E00E94CF3C20931C0630931D063E
:105AB00040931E0650931F06209318063093190634
:105AC00040931A0650931B06B8CF19A21AA21BA224
:105AD0001CA2B3CFD7018D929D92AD92BC92139729
