:100000000C9426040C9438040C9438040C94B10F0E
:100010000C947A330C9438040C9438040C943804FF
:100020000C9438040C9438040C9438040C94432A2F
:100030000C9438040C9438040C9438040C94380450
:100040000C945C2C0C9438040C9466260C94282692
:100050000C9438040C9438040C9438040C94380430
:100060000C9438040C9438044507290F290F4F07C6
:100070005C0769077607290F7A07290F8807290F78
:1000800092079C07CD07290F290F290FA607B30751
:10009000C007ED0DFE0D1D0EFE0D210E340E270EB8
:1000A0002D0E490E4F0E5E0E750E990EA30EAF0E5D
:1000B000B90E59215C216121642167216A216D21DA
:1000C0007021732176217921852185218521852142
:1000D00085218521852185217F217C218221CC21BB
:1000E000CF21D221D521D821DB21DE21E121C52854
:1000F000CB28CE28D128D628DE28E8285429542910
:100100005429F028F328FC28052954295429542976
:100110005429542954290D29172923292B292E29FB
:10012000372940294629084AD73B3BCE016E84BC7B
:10013000BFFDC12F3D6C74319ABD56833DDA3D0041
:10014000C77F11BED9E4BB4C3E916BAAAABE00008A
:1001500000803F05A84CCDB2D44EB93836A9020C68
:1001600050B9918688083CA6AAAA2ABE0000008041
:100170003F003E0D0A002C4C696D3A002C52583A53
:10018000002C4275663A002C002C57506F733A00D1
:100190002C002C4D506F733A003C446F6F72003C42
:1001A000436865636B003C416C61726D003C486F55
:1001B0006D65003C486F6C64003C52756E003C49B4
:1001C000646C65005D0D0A005B302E39692E32309B
:1001D0003135303632303A000D0A003D00244E00F1
:1001E0005D0D0A00205300204600205400204D38A9
:1001F00000204D3900204D3500204D3400204D3376
:1002000000204D3200204D3100204D300020473974
:100210003400204739330020473931002047393036
:10022000002047323000204732310020473139006A
:100230002047313800204731370020470047333806
:100240002E0047383000473300473200473100471F
:1002500030005B005D0D0A005B544C4F3A005D0DB1
:100260000A002C005B4739323A005D0D0A002C0071
:100270003A003330003238005B47005D0D0A003A27
:10028000002C005B5052423A00290D0A00206D619B
:10029000782074726176656C2C206D6D002061632E
:1002A00063656C2C206D6D2F7365635E3200206D6D
:1002B000617820726174652C206D6D2F6D696E0000
:1002C0002C20737465702F6D6D007A0079007800B2
:1002D0002028003D0024002028686F6D696E67208B
:1002E00070756C6C2D6F66662C206D6D290D0A0083
:1002F0002028686F6D696E67206465626F756E6334
:10030000652C206D736563290D0A2432373D00206A
:1003100028686F6D696E67207365656B2C206D6D45
:100320002F6D696E290D0A2432363D002028686F32
:100330006D696E6720666565642C206D6D2F6D6933
:100340006E290D0A2432353D00290D0A2432343D30
:10035000002028686F6D696E672064697220696E7D
:1003600076657274206D61736B3A002028686F6D3A
:10037000696E67206379636C652C20626F6F6C29EE
:100380000D0A2432333D00202868617264206C69B4
:100390006D6974732C20626F6F6C290D0A243232E0
:1003A0003D002028736F6674206C696D6974732C2E
:1003B00020626F6F6C290D0A2432313D00202872B3
:1003C00065706F727420696E636865732C20626F4C
:1003D0006F6C290D0A2432303D00202861726320A1
:1003E000746F6C6572616E63652C206D6D290D0AEA
:1003F0002431333D0020286A756E6374696F6E2066
:10040000646576696174696F6E2C206D6D290D0AC3
:100410002431323D00290D0A2431313D002028735A
:100420007461747573207265706F7274206D61737E
:100430006B3A00202870726F62652070696E2069C7
:100440006E766572742C20626F6F6C290D0A2431F0
:10045000303D0020286C696D69742070696E7320CE
:10046000696E766572742C20626F6F6C290D0A2498
:10047000363D0020287374657020656E61626C657E
:1004800020696E766572742C20626F6F6C290D0A7C
:1004900024353D00290D0A24343D0020286469726A
:1004A00020706F727420696E76657274206D61734E
:1004B0006B3A00290D0A24333D00202873746570BF
:1004C00020706F727420696E76657274206D61732E
:1004D0006B3A002028737465702069646C65206431
:1004E000656C61792C206D736563290D0A24323D9A
:1004F000002028737465702070756C73652C2075EE
:10050000736563290D0A24313D0024303D00242405
:10051000202876696577204772626C207365747451
:10052000696E6773290D0A24232028766965772070
:100530002320706172616D6574657273290D0A24E0
:100540004720287669657720706172736572207321
:1005500074617465290D0A2449202876696577201D
:100560006275696C6420696E666F290D0A244E20DD
:100570002876696577207374617274757020626C77
:100580006F636B73290D0A24783D76616C75652065
:100590002873617665204772626C20736574746994
:1005A0006E67290D0A244E783D6C696E65202873AC
:1005B000617665207374617274757020626C6F630C
:1005C0006B290D0A24432028636865636B206763E9
:1005D0006F6465206D6F6465290D0A245820286BAF
:1005E000696C6C20616C61726D206C6F636B290D9E
:1005F0000A2448202872756E20686F6D696E672026
:100600006379636C65290D0A7E20286379636C65C4
:10061000207374617274290D0A212028666565644F
:1006200020686F6C64290D0A3F202863757272651B
:100630006E7420737461747573290D0A6374726C1F
:100640002D7820287265736574204772626C290DBD
:100650000A000D0A4772626C20302E3969205B2730
:10066000242720666F722068656C705D0D0A005D3E
:100670000D0A00526573746F72696E672064656657
:1006800061756C74730050676D20456E640043683B
:1006900065636B20446F6F720044697361626C65BF
:1006A0006400456E61626C65640043617574696FD6
:1006B0006E3A20556E6C6F636B6564002724482783
:1006C0007C2724582720746F20756E6C6F636B0035
:1006D000526573657420746F20636F6E74696E75F4
:1006E00065005B000D0A00486F6D696E67206661EA
:1006F000696C0050726F6265206661696C004162CE
:100700006F727420647572696E67206379636C65BB
:1007100000536F6674206C696D697400486172647F
:10072000206C696D697400414C41524D3A20000DB6
:100730000A00496E76616C69642067636F646520A6
:1007400049443A00556E646566696E656420666565
:100750006564207261746500556E737570706F7298
:1007600074656420636F6D6D616E64004D6F6461CC
:100770006C2067726F75702076696F6C6174696F39
:100780006E004C696E65206F766572666C6F7700DF
:10079000486F6D696E67206E6F7420656E61626C64
:1007A000656400416C61726D206C6F636B004E6F0D
:1007B000742069646C6500454550524F4D20726548
:1007C0006164206661696C2E205573696E672064D0
:1007D000656661756C74730056616C7565203C20AC
:1007E0003320757365630053657474696E672064A4
:1007F000697361626C65640056616C7565203C20AC
:100800003000496E76616C69642073746174656D43
:10081000656E7400426164206E756D62657220665B
:100820006F726D61740045787065637465642063F0
:100830006F6D6D616E64206C6574746572006572B5
:10084000726F723A20006F6B0D0A000011241FBEF8
:10085000CFEFD8E0DEBFCDBF26E0A0E0B1E001C021
:100860001D92AD3CB207E1F70E94A4120C942D3A00
:100870000C940000439808953B9A0C943A048230FB
:1008800011F4439A08950C943A04CF93DF931F9286
:10089000CDB7DEB79091A005923049F089830E94D0
:1008A000322189810F90DF91CF910C943F040F90FA
:1008B000DF91CF910895F999FECF92BD81BD81E07E
:1008C0008FBB80B50895F894F999FECF92BD81BD94
:1008D00081E08FBB40B54627842F992787FD9095EF
:1008E000262F30E082239323892B39F06F3F19F0B4
:1008F00060BD84E006C084E104C0442321F060BDF3
:1009000084E28FBBF99A789408959F92AF92BF9238
:10091000CF92DF92EF92FF920F931F93CF93DF93CB
:100920008C017A016B01C40ED51EEB01912C5C0188
:10093000A61AB70ACE018A0D9B1DCC15DD0591F0D4
:10094000911009C0692D772767FD7095272F221F09
:100950002227221F01C021E06991922E960E0E944B
:100960006304E8CF692DC8018E0D9F1DDF91CF91E3
:100970001F910F91FF90EF90DF90CF90BF90AF90BD
:100980009F900C9463049F92AF92BF92CF92DF929C
:10099000EF92FF920F931F93CF93DF938B017A0116
:1009A0006C01C40ED51EEC01912C5B01A81AB90A8A
:1009B000C5018C0F9D1FCC15DD0591F00E945B04D5
:1009C000911009C0292D332727FD3095232F221F91
:1009D0002227221F01C021E0922E980E8993E8CF92
:1009E000C8018E0D9F1D0E945B0421E030E0981627
:1009F00011F020E030E0C901DF91CF911F910F91FC
:100A0000FF90EF90DF90CF90BF90AF909F900895B0
:100A10008FE3E7E2F5E0DF011D928A95E9F76AE4EA
:100A200075E080E00E942528811103C087E00C94C6
:100A30004321089564EA75E08EE395E00C94A135B6
:100A40002F923F924F925F926F927F928F929F92DE
:100A5000AF92BF92CF92DF92EF92FF920F931F93CC
:100A6000CF93DF93CDB7DEB7AB970FB6F894DEBF69
:100A70000FBECDBF98A38F8F89E3E6E6F5E0DF01D7
:100A80001D928A95E9F78AE0E7E2F5E0A7E6B5E08E
:100A900001900D928A95E1F71D8E212C312CA12C0D
:100AA000B12C19A2512C1E8E66246394712C08E07F
:100AB000402E9924939485E0882E8D8DEF8DF8A19A
:100AC000E80FF11D0081002309F48AC29FEB900F0B
:100AD0009A3110F00C941B0F8F5F8D8FAE01475E23
:100AE0005F4FBE01635E7F4F8F8D98A10E9462179A
:100AF000882311F40C941D0FC98CDA8CEB8CFC8CC0
:100B0000C701B6010E94A1390E940937162F70E073
:100B100080E090E00E9437379B01AC01C701B6012D
:100B20000E94BB3520E030E048EC52E40E94D3380C
:100B30000E9436390E940937073421F00D3409F438
:100B400050C192C1183209F432C1E8F4143160F492
:100B5000113108F0D7C0143009F45AC008F48EC01F
:100B60001A30D9F10C94290F1C31B9F128F416313F
:100B700008F4F7C00C94290F1E3179F1163209F4EC
:100B80007DC00C94290F1D3309F40BC1A8F4153353
:100B900009F461C040F41B3209F4ECC0113309F4CC
:100BA000E9C00C94290F1C3310F00C94290F165334
:100BB00010936D0589E000C11C3540F41A3508F02A
:100BC000B0C0103509F49BC00C94290F1C3529F0D6
:100BD0001F3508F4BDC00C94290F6115710531F45F
:100BE000BE8DB1110C941F0FE1E0EE8F1C3199F016
:100BF00038F4143069F01A3009F0DBC082E02CC000
:100C0000153349F11C3559F11E3109F0D2C013C01A
:100C100090926605CEC06115710549F06A30710584
:100C200011F00C94290F24E02093660509C0F3E02D
:100C3000F093660505C06115710521F48092660583
:100C400080E0BFC06A30710511F00C94290F36E0C6
:100C500030936605F5CF87E080936605AAC06115DD
:100C6000710549F06A30710511F00C94290F99E073
:100C700090936605E5CF40926605E2CFAE8DA11157
:100C80000C941F0FB2E0BE8F123089F028F41123AC
:100C900059F0113081F08FC0163281F0103579F1A2
:100CA000133009F088C007C01092670584C0EE8D2C
:100CB000E093670580C0109367057DC06E317105B4
:100CC000B1F048F46431710511F00C94290FF4E08F
:100CD000F093670512C06832710561F062337105E7
:100CE00011F00C94290F37E03093670506C080920D
:100CF000670503C026E02093670581E062C040924B
:100D0000670559C0123129F0133139F010926B0583
:100D100002C090926B0582E04FC082E080936B0529
:100D20004BC06115710549F41A3519F410926A0522
:100D300002C090926A0583E044C06A30710511F0E8
:100D40000C94290F1A3511F40C94290F84E039C042
:100D50001D3519F49092680502C01092680585E06F
:100D60002BC0143119F49092690502C010926905E4
:100D700086E022C08E8D81110C941F0F113331F447
:100D800010926C0588E093E09E8F1BC06A3071055D
:100D900011F00C94290F90926C0588E0A3E0AE8FBF
:100DA00010C0672B11F00C94290F8AE00AC087E06D
:100DB00003C080E001C081E0672B19F087E10C944B
:100DC0003C0FF30102C0EE0FFF1F8A95E2F7CF013F
:100DD0009F012A213B21232B09F443C085E10C9478
:100DE0003C0F672B59F7163018F4133058F017C022
:100DF000183010F40C94290F1A3000F11E3159F0FC
:100E00000C94290F123039F01E3129F0111120C035
:100E100090926E051DC082E080936E0519C014305B
:100E200029F0153039F09092700506C082E0809369
:100E3000700502C0109270058CE00BC0193021F0D3
:100E400082E080936F0502C010926F058DE001C0B3
:100E50008BE0930102C0220F331F8A95E2F7C9018C
:100E6000B8CFA82AB92A29CE802F992787FD909537
:100E7000A92FB92FFC01E654F109E531F10508F07D
:100E8000E8C7EC5CFF4F0C940D3AC0927105D0920C
:100E90007205E0927305F092740580E07FC0C09205
:100EA0007505D0927605E0927705F092780539A124
:100EB000316039A381E072C0C0927905D0927A0581
:100EC000E0927B05F0927C0589A1826089A382E093
:100ED00065C0C0927D05D0927E05E0927F05F092BC
:100EE000800599A1946099A383E058C0109381056F
:100EF00084E054C0C701B6010E94043760938205A4
:100F000070938305809384059093850585E046C0A2
:100F1000C0928605D0928705E0928805F0928905F7
:100F200086E03CC0C0928A05D0928B05E0928C0589
:100F3000F0928D0587E032C0C0928E05D0928F0569
:100F4000E0929005F092910588E028C0C092930548
:100F5000D0929405E0929505F0929605A52DA1609A
:100F60005A2E8AE01BC0C0929705D0929805E09255
:100F70009905F0929A05B52DB2605B2E8BE00EC0FC
:100F8000C0929B05D0929C05E0929D05F0929E0533
:100F9000E52DE4605E2E8CE001C089E08301082E1F
:100FA00002C0000F111F0A94E2F798012221332199
:100FB000232B09F046C721E633E002C0359527957B
:100FC0008A95E2F720FF09C020E030E0A901C701BF
:100FD000B6010E94953687FD36C7202A312A6DCD8D
:100FE000552029F03E8D311102C082E08E8F25FE02
:100FF0000EC08091820590918305A0918405B091E7
:10100000850580389649A849B1050CF01EC7809126
:101010006805813031F4FE8DF230A1F520FE1FC746
:1010200031C08091280581112DC020FE1BC0809108
:101030006905813039F523E333E34BEC51E46091EA
:1010400071057091720580917305909174050E94ED
:10105000D3386093710570937205809373059093F4
:10106000740510C08091350590913605A091370523
:10107000B09138058093710590937205A093730524
:10108000B093740530FC10C0809131059091320509
:10109000A0913305B091340580938E0590938F0510
:1010A000A0939005B093910580916605813031F44D
:1010B00026FC02C08CE1E0C6E89426F880916B051E
:1010C000882341F0813061F019A682E088A791E081
:1010D0009FA30BC022E029A731E038A71FA205C0BB
:1010E000A1E0A9A718A6B2E0BFA38091690581304D
:1010F00021F0EE8DE33091F52AC0B3E9EB2EB5E097
:10110000FB2E00E010E0C52CD12CC601002E02C041
:10111000959587950A94E2F780FF10C023E333E3A7
:101120004BEC51E4D7016D917D918D919C910E9482
:10113000D338F70160837183828393830F5F1F4FDE
:10114000F4E0EF0EF11C03301105F9F6D2CF8091D7
:101150006C05813019F424E0521279C68CE0EAE47F
:10116000F5E0DE011D9601900D928A95E1F7B1FC44
:1011700009C0309166053F8F3230B9F0383009F43C
:10118000B0C015C180916D05873010F08DE174C637
:1011900090912D05981769F3BE01635F7F4F0E9400
:1011A0002528882309F465C6E4CF511002C08AE1DE
:1011B00063C6C10180759927892B09F47BCF6091A3
:1011C00086057091870580918805909189050E9418
:1011D000A1390E9409376730C8F6809181058431B2
:1011E00029F0823009F035C627FC33C68FEA282261
:1011F000662319F061506F8F03C090916D059F8F2A
:10120000BE016F5F7F4F8F8D0E942528882309F4D0
:1012100030C64090810560906205709063058090B3
:10122000640590906505DE0111967D01F3E9CF2EEE
:10123000F5E0DF2EAEE3AA2EA5E0BA2E00E010E026
:10124000E52DF0E0FEA3EDA38DA19EA1002E02C02E
:10125000959587950A94E2F780FF33C0F4E14F1229
:1012600026C0D50158962D913D914D915C915B978B
:101270006D917D918D919C910E94BB35F6012081ED
:101280003181428153810E94BB35D7016D937D939B
:101290008D939C9313970230A1F4A40193010E94B3
:1012A000BB35F70160837183828393830AC0F601A3
:1012B00080819181A281B381F70180839183A28390
:1012C000B3830F5F1F4FF4E0EF0EF11C24E0C20E5A
:1012D000D11C34E0A30EB11C0330110509F0B4CFCA
:1012E0000FC1552009F463CF6090620570906305CB
:1012F000809064059090650503E915E0EEE3CE2E3D
:10130000E5E0DE2E5E018DE0A80EB11CE12CF12C93
:10131000A52DB0E0B8A3AF8F8F8D98A10E2C02C081
:10132000959587950A94E2F780FF26C0F501208104
:10133000318142815381D6016D917D918D919C9136
:101340000E94BB35F80120813181428153810E9486
:10135000BB35D8016D937D938D939C931397B2E029
:10136000EB1214C0A40193010E94BB35F801608305
:101370007183828393830AC0F601808D918DA28D43
:10138000B38DF80180839183A283B383FFEFEF1ABB
:10139000FF0A0C5F1F4F24E0C20ED11C34E0A30EE5
:1013A000B11C83E0E816F10409F0B6CFA8C09E8D09
:1013B000933059F4AF8DA53009F48FC0A73009F4EC
:1013C00099C0A33009F09BC080C0552099F340908C
:1013D0006A058090620590906305A0906405B090C6
:1013E00065057EE3C72E75E0D72E03E915E03E01C3
:1013F000BDE06B0E711CE12CF12CE52DF0E0FEA39D
:10140000EDA38DA19EA10E2C02C0959587950A94FF
:10141000E2F780FD0BC0F60180819181A281B3814A
:10142000F80180839183A283B3833EC0FF8DF730A0
:10143000D9F1411028C0D60158962D913D914D917A
:101440005C915B97F30160817181828193810E943D
:10145000BC35D8012D913D914D915C910E94BC35D8
:10146000F8016083718382839383F2E0EF121CC0E2
:10147000A50194010E94BC35D8016D937D938D9395
:101480009C93139711C0F6012081318142815381D1
:10149000D8016D917D918D919C910E94BC35F80190
:1014A0006083718382839383FFEFEF1AFF0A24E046
:1014B000C20ED11C0C5F1F4F34E0630E711C83E021
:1014C000E816F10409F09DCF75CF511001C01E8EB2
:1014D000BE016F5F7F4F86E007C0511001C01E8EB6
:1014E000BE016F5F7F4F87E00E942528882309F4A3
:1014F000C0C405C080916705823008F0ACC41F8E5F
:1015000010916705183041F4552009F4B3C19E8D40
:10151000913009F0A2C48BC2AE8DA23009F0AAC1ED
:101520001123D9F020E030E0A9016091710570919C
:10153000720580917305909174050E9495368823F9
:1015400009F48DC4143028F4123058F4113029F005
:101550006EC2183008F44DC16AC2511068C21E8EA6
:101560008CC1552009F423CEFFA1EF2FF0E0FEA39C
:10157000EDA338A5232F30E03BA72AA781E090E018
:101580003C0108A402C0660C771C0A94E2F70FA085
:1015900002C0880F991F0A94E2F7682A792A852DDC
:1015A00090E086219721892B09F45BC4CF01880F35
:1015B000991F880F991FFC01EA59FA4FDC01A95DB8
:1015C000BA4F57962D913D914D915C915A9765A5D3
:1015D00076A587A590A90E94BB356B017C018AA5E1
:1015E0009BA5880F991F880F991FFC01EA59FA4F94
:1015F000DC01A95DBA4F57962D913D914D915C91BB
:101600005A9765A576A587A590A90E94BB354B0181
:101610005C0127FE40C0E89427F8209193053091A3
:101620009405409195055091960560913E05709105
:101630003F0580914005909141050E9495368111AA
:1016400020C12091970530919805409199055091BE
:101650009A056091420570914305809144059091EF
:1016600045050E94953681110CC120919B05309152
:101670009C0540919D0550919E0560914605709195
:10168000470580914805909149050E949536811142
:10169000F8C081E2F1C3F9A14F2E512C64207520CE
:1016A000672809F4E0C321EF222280916905813087
:1016B00009F45AC00AA51BA5000F111F000F111F26
:1016C00006591A4FD8011B962D913D914D915C9171
:1016D0001E97C501B4010E94BB352B013C01ADA092
:1016E000BEA0AA0CBB1CAA0CBB1CF501E659FA4F04
:1016F0005F012385348545855685C701B6010E9463
:10170000BB35A30192010E941F186B017C01D80117
:101710001B962D913D914D915C911E97F50163852E
:101720007485858596850E941F184B015C01609326
:101730008A0570938B0580938C0590938D059B0192
:10174000AC01C701B6010E94BB356B017C01E89476
:10175000F7F82AE037ED43EA5BE3C701B6010E94E0
:10176000983818164CF163C185E7682E85E0782E0D
:1017700000E010E0C201002E02C0959587950A9402
:10178000E2F780FF10C023E333E34BEC51E4D301D5
:101790006D917D918D919C910E94D338F30160836E
:1017A0007183828393830F5F1F4FF4E06F0E711C70
:1017B00003301105F9F67ECF20E030E040E05FE332
:1017C000C701B6010E94983818160CF462CF2FE6B4
:1017D00032E143E85AE3C501B4010E94D3389B01CA
:1017E000AC01C701B6010E94983818160CF451CF0D
:1017F0001EC1552009F4DBCC20919305309194054E
:10180000409195055091960560913E0570913F0578
:1018100080914005909141050E949536811107C144
:1018200020919705309198054091990550919A051E
:101830006091420570914305809144059091450562
:101840000E9495368111F3C020919B0530919C0533
:1018500040919D0550919E05609146057091470508
:1018600080914805909149050E949536882309F496
:1018700010CFDDC02E8D2111DAC0C1018E7D9C7F7D
:10188000D9C0809169058130B1F423E333E34BEC97
:1018900051E460918A0570918B0580918C0590913F
:1018A0008D050E94D33860938A0570938B058093D1
:1018B0008C0590938D0540908A0550908B05609023
:1018C0008C0570908D0520E030E040E850E4C301C5
:1018D000B2010E94D338A30192010E94D3382B0198
:1018E0003C01A7019601C701B6010E94D3389B01B4
:1018F000AC01C301B2010E94BB352B013C01A50123
:101900009401C501B4010E94D3389B01AC01C3010D
:10191000B2010E94BB352B013C0120E030E0A9015F
:101920000E94953687FDA7C2C301B2010E946039AB
:101930002B013C01A5019401C701B6010E941F18AB
:101940009B01AC01C301B20190580E949C362B014F
:101950003C0180916705833021F477FA709477F821
:10196000709480918A0590918B05A0918C05B0911F
:101970008D0589A39AA3ABA3BCA320E030E0A90105
:10198000BC01CD010E94953687FF11C077FA709493
:1019900077F8709489A19AA1ABA1BCA1B0588093AB
:1019A0008A0590938B05A0938C05B0938D050DA1AE
:1019B0001EA1000F111F000F111F06591A4FA3017E
:1019C0009201C501B4010E94D3389B01AC01C7014B
:1019D000B6010E94BB3520E030E040E05FE30E94AA
:1019E000D338D8011B966D937D938D939C931E974E
:1019F0000AA51BA5000F111F000F111F06591A4F32
:101A0000A3019201C701B6010E94D3389B01AC012A
:101A1000C501B4010E94BC3520E030E040E05FE346
:101A20000E94D338F8016387748785879687C10140
:101A30008E7D907E892B09F018C28091820590914D
:101A40008305A0918405B091850580933A05909314
:101A50003B05A0933C05B0933D05809168058093BC
:101A600028058091710590917205A0917305B09140
:101A700074058093350590933605A0933705B09390
:101A80003805C0908E05D0908F05E0909005F090BD
:101A90009105A70196016091310570913205809101
:101AA0003305909134050E9495368823C1F08091CA
:101AB0003005882321F0B701A6010E949529809165
:101AC0008E0590918F05A0919005B091910580931E
:101AD000310590933205A0933305B093340580917E
:101AE0009205809339058091700590913005981783
:101AF00071F040913105509132056091330570913C
:101B000034050E949529809170058093300580915D
:101B10006F0590912F05981731F00E944504809130
:101B20006F0580932F0580916605813051F4609197
:101B300086057091870580918805909189050E949E
:101B40002A1680916B0580932B05809169058093FF
:101B500029053E8D3330F9F480916C0580932C0576
:101B6000813089F480919B0590919C05A0919D0501
:101B7000B0919E058093620590936305A0936405E0
:101B8000B093650508C0109262051092630510922B
:101B900064051092650580916D0590912D0598174B
:101BA00059F080932D058CE0FE013D96AAE4B5E046
:101BB00001900D928A95E1F780916A0580932A053C
:101BC0008091660590E0FC013297E830F10508F05D
:101BD0004BC0E75BFF4F0C940D3ABE016F5F7F4F28
:101BE0008F8D0E94D92680912D059F8D89133CC031
:101BF0008CE0FE013196AAE4B5E01AC0AE8DAA23AE
:101C000049F020E040E050E060E87FEB83E995E0B8
:101C10000E94DD1220E040E050E060E87FEBCE0162
:101C200001960E94DD128CE0FE013196AEE3B5E034
:101C300001900D928A95E1F717C06EE375E086E09A
:101C400003C06EE375E087E00E94D9260DC08CE0EA
:101C5000E3E9F5E0A6E5B5E0EBCF8CE0E6E5F5E0FD
:101C6000DF011D928A95E9F780916705809327052A
:101C7000883009F498C0BE8DB23009F094C090E06D
:101C80008830910508F086C0FC01EF5AFF4F0C9494
:101C90000D3A20E040E050E060E87FEB0AC0409160
:101CA00035055091360560913705709138052091C2
:101CB000280583E995E00E94DD126CC0C0903505CF
:101CC000D0903605E0903705F090380500918A05F0
:101CD00010918B0520918C0530918D0581E08F93BB
:101CE000E9A5EF93F8A5FF9315C0C0903505D090F6
:101CF0003605E0903705F090380500918A0510917F
:101D00008B0520918C0530918D051F9289A58F93AD
:101D100098A59F938FA0A090280545E755E063E91B
:101D200075E08EE395E00E942B130F900F900F90BB
:101D300031C040913505509136056091370570915D
:101D40003805E12C0AC04091350550913605609167
:101D5000370570913805EE24E39400E015C04091FA
:101D60003505509136056091370570913805E12CA5
:101D70000AC0409135055091360560913705709144
:101D80003805EE24E39401E02091280583E995E0ED
:101D90000E9499168CE0E3E9F5E0AEE3B5E001902E
:101DA0000D928A95E1F780916E0580932E05882328
:101DB00009F45DC00E94322190912E058091A0050A
:101DC000913069F48230A1F19FB7F8948091A20517
:101DD00088608093A2059FBF0E94851F29C091E063
:101DE0009093270510922B0510922A051092280532
:101DF00010922D051092300510922F058230A9F017
:101E0000BE01635F7F4F80E00E942528882389F10F
:101E10008CE0FE013D96AAE4B5E001900D928A9512
:101E2000E1F70E9491290E943A0487E00E94BB21B9
:101E300010922E051CC081E01FC082E01DC088E109
:101E40001BC089E119C084E017C08BE115C085E291
:101E500013C084E111C08EE10FC08FE10DC086E197
:101E60000BC080E209C083E207C084E205C080E0C5
:101E700003C087E001C082E2AB960FB6F894DEBFE4
:101E80000FBECDBFDF91CF911F910F91FF90EF90CB
:101E9000DF90CF90BF90AF909F908F907F906F908A
:101EA0005F904F903F902F900895EBE6F0E0808197
:101EB000897E8083E8E6F0E080818E7F80830895CC
:101EC00084B1897E84B985B1866185B98091BD066A
:101ED00083FF0BC080916B00866180936B008091C3
:101EE000680081608093680008950C94550FCF922C
:101EF000DF92FF920F931F93CF93DF931F92CDB783
:101F0000DEB793B196718091BD0686FD02C086E171
:101F100098279923D9F0C12CD12CF12C01E010E0A5
:101F20008C2D99830E9481299981892339F0980108
:101F30000C2C01C0220F0A94EAF7F22A8FEFC81A7C
:101F4000D80AE3E0CE16D10459F701C0F12C8F2D49
:101F50000F90DF91CF911F910F91FF90DF90CF9065
:101F600008951F920F920FB60F9211242F933F9353
:101F70004F935F936F937F938F939F93AF93BF9391
:101F8000EF93FF938091A005813071F08091A305BC
:101F900081110AC00E9437179FB7F8948091A3055A
:101FA00083608093A3059FBFFF91EF91BF91AF9195
:101FB0009F918F917F916F915F914F913F912F9161
:101FC0000F900FBE0F901F9018952F923F924F9237
:101FD0005F926F927F928F929F92AF92BF92CF92B9
:101FE000DF92EF92FF920F931F93CF93DF93CDB7C2
:101FF000DEB76D970FB6F894DEBF0FBECDBF782E5B
:1020000080919F0581112AC244EA842E46E0942ED5
:102010009E01235F3F4F590100E010E0C12CD12CFD
:102020007601872D90E0998B888B602E802F0E94FF
:102030006D29D5018C93B2E00B1751F080E00E941E
:102040006D29582E81E00E946D298529F501808334
:102050008889998902C0959587956A94E2F780FFEF
:102060001DC020E030E040EC5FEBD4016D917D912C
:102070008D919C910E94D338362E472E582E692E72
:10208000262F372F482F592FC701B6010E949838A5
:10209000181624F0C32CD42CE52CF62C0F5F1F4F00
:1020A000BFEFAB1ABB0AE4E08E0E911C03301105A2
:1020B00009F0BBCF8090C3069090C406A090C506DF
:1020C000B090C60634E0332E01E02224239464EA63
:1020D00075E0CE0101960E94A1354090BE06512CBC
:1020E000FE01319624EA35E03B8B2A8B80E090E0BC
:1020F000612C10E0B701A601705828893989082E93
:1021000002C0359527950A94E2F720FF28C0639412
:10211000AA89BB891D921D921D921C921397920150
:10212000082E02C0359527950A94E2F720FF03C0D8
:10213000002319F007C0002329F0C082D182E28277
:10214000F38204C040835183628373832DE030E0C7
:102150002C0F3D1F280F391FD9012C91122B0196EE
:1021600034962A893B892C5F3F4F3B8B2A8B8330E7
:10217000910519F6662D70E080E090E00E943537F9
:102180000E9460399B01AC01C501B4010E94D338A3
:10219000AB01BC011093B0054A8F5B8F6C8F7D8FB4
:1021A0000E94961D20E04A8D5B8D6C8D7D8DCE0149
:1021B00001960E94B7190E941E2D0E94F829002343
:1021C000E9F00E94770FFE013D9620E030E090E0BC
:1021D0006191462F412359F0AC01022E02C0559562
:1021E00047950A94E2F740FF02C0609516232F5FDF
:1021F0003F4F2330310561F71093B0050E941E2D2B
:102200008091A2058473C1F08091A205807329F0AA
:102210000E9437170E94851F21C101111AC10E9417
:10222000770F8721A9F79FB7F8948091A2058B7F3C
:102230008093A2059FBF04C0812F8C7109F0BFCF8E
:102240000E94AE2C0E9460198091C7069091C8062A
:102250000E9414180225C9F020E030E040EA50E462
:102260006091C9067091CA068091CB069091CC0608
:102270000E94D3386B017C018090BF069090C0060D
:10228000A090C106B090C20610C0C090C906D09000
:10229000CA06E090CB06F090CC068090C3069090E2
:1022A000C406A090C506B090C6063A9409F00FCFB8
:1022B0002090BE06312C8091C9069091CA06A0914B
:1022C000CB06B091CC068A8B9B8BAC8BBD8BB05868
:1022D0008E8B9F8BA88FB98F80E8A82E86E0B82EB2
:1022E00094EA892E95E0992E00E010E022E0422E3B
:1022F000512C612C712C88899989002E02C09595EA
:1023000087950A94E2F780FF95C0C101002E02C0B4
:10231000959587950A94E2F7D50180FF12C09496AF
:102320002D913D914D915C9197976A897B898C891C
:102330009D890E94BC35F501208131814281538104
:1023400008C02D913D914D915C916E897F89888D5A
:10235000998D0E94D3380E94A3386B017C01011132
:102360002DC06091A8057091A9058091AA05909152
:10237000AB052091A4053091A5054091A60550918B
:10238000A705621B730B840B950BA30192010E949E
:10239000EE39D701C601821B930BA40BB50B8093BA
:1023A000A4059093A505A093A605B093A705D70112
:1023B000C601820F931FA41FB51F2EC00130A9F5BF
:1023C0006091A4057091A5058091A6059091A7053F
:1023D0002091A8053091A9054091AA055091AB051F
:1023E000620F731F841F951FA30192010E94EE3993
:1023F000DA01C9018C199D09AE09BF098093A405B2
:102400009093A505A093A605B093A705DA01C9018D
:102410008C0D9D1DAE1DBF1D8093A8059093A90531
:10242000A093AA05B093AB0505C0F401C082D18288
:10243000E282F3820F5F1F4FF4E08F0E911C24E0C5
:10244000A20EB11C0330110509F055CF0E94961D54
:1024500005C08091A20582FFE6CEDACE6D960FB65A
:10246000F894DEBF0FBECDBFDF91CF911F910F91CA
:10247000FF90EF90DF90CF90BF90AF909F908F90A4
:102480007F906F905F904F903F902F900895CF92E4
:10249000DF92EF92FF920F931F93CF93DF938C0104
:1024A000C4EAD6E0F801C190D190E190F1908F019B
:1024B00020E030E0A901C701B6010E949838181643
:1024C00054F02991399149915991C701B6010E945F
:1024D000953687FF2BC08091A0058830A1F00E941F
:1024E00037179FB7F8948091A30585608093A30563
:1024F0009FBFDF91CF911F910F91FF90EF90DF90E1
:10250000CF900C94851F9FB7F8948091A2058860A6
:102510008093A2059FBF0E94851F80919F05811116
:102520000AC08091A0058111F6CFD9CFF6E0C03B5B
:10253000DF0709F0B7CFDF91CF911F910F91FF9087
:10254000EF90DF90CF9008950E94F6250E946029B9
:102550000E94DA2C0E94693380E2EFE9F5E0DF01A6
:102560001D928A95E9F781E080939F057894809188
:10257000BD0684FF03C081E08093A0050E94C426AD
:102580000E9408050E948B290E943C040E94600F53
:102590000E94511F0E9460190E94AE2C0E94961D3D
:1025A0000E941A0510929F051092A2051092A30591
:1025B0001092A1050E94B020E1CFEF92FF921F93ED
:1025C000CF93DF9300D000D0CDB7DEB77C01122FC0
:1025D0008091BD0685FF0BC0C70149835A836B8379
:1025E0007C830E9447127C816B815A814981809152
:1025F000A005823031F149835A836B837C830E942A
:10260000851F80919F0581111CC00E94AF194981CF
:102610005A816B817C81882339F00E94A7204981EF
:102620005A816B817C81E7CF212FC7010F900F90DA
:102630000F900F90DF91CF911F91FF90EF900C942E
:10264000B7190F900F900F900F90DF91CF911F91BE
:10265000FF90EF9008952F923F924F925F926F926A
:102660007F928F929F92AF92BF92CF92DF92EF9222
:10267000FF920F931F93CF93DF93CDB7DEB7E7970A
:102680000FB6F894DEBF0FBECDBF9C8B8B8B1B01AA
:102690003A0109871A872B873C87AF8A2D961FAD91
:1026A0002D972E962FAD2E97298B2F963FAD2F97D6
:1026B0003D8B84E0889EA00111245A834983AB8915
:1026C000BC89A40FB51FB98FA88F460D571D5B8F0E
:1026D0004A8FFA0180809180A280B3802D913D9134
:1026E0004D915C91C501B4010E94BC356C8F7D8F0A
:1026F0008E8F9F8FF4E01F9F800111242B893C89CE
:10270000200F311F39A328A3A301400F511F5BA342
:102710004AA3DA014D905D906D907C90F901208183
:10272000318142815381C301B2010E94BC356CA347
:102730007DA38EA39FA3A501940150582D873E87AA
:102740004F87588BD301C201B0588D839E83AF83CE
:10275000B887E981FA81E20DF31D2C8D3D8D4E8DF8
:102760005F8D60817181828193810E94BB352B01D5
:102770003C01F101E00FF11F2CA13DA14EA15FA191
:1027800060817181828193810E94BB354B015C0124
:10279000A30192016D857E858F8598890E94D3382B
:1027A00069837A838B839C83A50194016D817E81EB
:1027B0008F8198850E94D3389B01AC0169817A8111
:1027C0008B819C810E94BC3569837A838B839C8337
:1027D000A50194016D857E858F8598890E94D338E7
:1027E0004B015C01A30192016D817E818F819885EF
:1027F0000E94D3389B01AC01C501B4010E94BB35D6
:1028000029813A814B815C810E942F362B013C014A
:102810009D89992399F02DEB37E346E055EBC301F1
:10282000B2010E94983887FD1DC02BED3FE049ECB6
:1028300050E4C301B2010E94BB3512C02DEB37E357
:1028400046E055E3C301B2010E949536181654F0D4
:102850002BED3FE049EC50E4C301B2010E94BC35CE
:102860002B013C018090B9069090BA06A090BB065F
:10287000B090BC0629853A854B855C85CA01B901B3
:102880000E94BC35A50194010E94BB359B01AC019F
:10289000C501B4010E94D3380E9460394B015C012C
:1028A00020E030E040E05FE3C301B2010E94D33892
:1028B00029853A854B855C850E94D3389F77A50191
:1028C00094010E949C360E9472370E9409377E8BC9
:1028D0006D8BDB01AB2B09F486C14B01A12CB12C14
:1028E000BF89BB2361F0C501B4010E9435379B014C
:1028F000AC01C701B6010E94D3386B017C01C50150
:10290000B4010E9435374B015C019B01AC01C3014E
:10291000B2010E949C3669877A878B879C87F989E8
:10292000E4E0FE9FC00111242B893C89280F391F48
:102930003A8B298BF101E80FF91FD9012D913D91B7
:102940004D915C9160817181828193810E94BB3540
:10295000A50194010E949C366CAB7DAB8EAB9FAB06
:1029600029853A854B855C85CA01B9010E94D33817
:102970009B01AC0160E070E080E090E40E94BB3518
:102980004B015C012BEA3AEA4AE25EE369857A850B
:102990008B859C850E94D3382B013C0120E030E0E0
:1029A00040E850E4C501B4010E94BC359B01AC0174
:1029B000C301B2010E94D33868A779A78AA79BA751
:1029C00020E030E040E05FE3C501B4010E94D3386D
:1029D0006CA77DA78EA79FA7198201E010E0ED8963
:1029E000FE890E171F0709F4FEC0B981BC3008F03C
:1029F0004AC02CA53DA54EA55FA56D817E818F8126
:102A000098850E94D3384B015C0128A539A54AA5B9
:102A10005BA56D857E858F8598890E94D338A50139
:102A200094010E94BC35B62EA72E982E892E2CA577
:102A30003DA54EA55FA56D857E858F8598890E94F1
:102A4000D3382B013C0128A539A54AA55BA56D818A
:102A50007E818F8198850E94D3389B01AC01C30190
:102A6000B2010E94BB356D877E878F87988BE98185
:102A7000EF5FE9838B2D9A2DA92DB82D8D839E8331
:102A8000AF83B8876EC0B80180E090E00E94353710
:102A900029853A854B855C850E94D3384B015C01C2
:102AA0000E9499366D837E838F839887C501B40118
:102AB0000E9456394B015C01EA8DFB8D808191812A
:102AC000A281B3819C01AD01505829833A834B8385
:102AD0005C83AAA1BBA18D919D910D90BC91A02D6D
:102AE00088AB99ABAAABBBAB2D813E814F8158859A
:102AF00069817A818B819C810E94D3382B013C01B2
:102B0000A501940168A979A98AA99BA90E94D33833
:102B10009B01AC01C301B2010E94BC356D877E8769
:102B20008F87988BA501940169817A818B819C8123
:102B30000E94D3384B015C012D813E814F81588525
:102B400068A979A98AA99BA90E94D3389B01AC01E5
:102B5000C501B4010E94BB356D837E838F83988746
:102B600019822D853E854F8558896C8D7D8D8E8D82
:102B70009F8D0E94BC35E88DF98D608371838283BF
:102B800093832D813E814F8158856CA17DA18EA1BB
:102B90009FA10E94BC35A8A1B9A16D937D938D938F
:102BA0009C9313972CA93DA94EA95FA9E989FA899D
:102BB00060817181828193810E94BC35A989BA8923
:102BC0006D937D938D939C9313972F89B701A601E5
:102BD0008B899C890E94DD1280919F05811121C003
:102BE0000F5F1F4FFCCE2F89B701A601C101E796E9
:102BF0000FB6F894DEBF0FBECDBFDF91CF911F910E
:102C00000F91FF90EF90DF90CF90BF90AF909F908B
:102C10008F907F906F905F904F903F902F900C948B
:102C2000DD12E7960FB6F894DEBF0FBECDBFDF9181
:102C3000CF911F910F91FF90EF90DF90CF90BF90B9
:102C4000AF909F908F907F906F905F904F903F904C
:102C50002F9008958F929F92AF92BF92CF92DF9262
:102C6000EF92FF924B015C018091A005823009F444
:102C700047C020E030E040EA51E4C501B4010E94C1
:102C8000D3380E9472370E9409376B017C010E9481
:102C9000322120E030E04AE754E4C501B4010E944B
:102CA000D3384B015C0182E38C9DB0018D9D700D8A
:102CB000112480E090E00E9435379B01AC01C501F2
:102CC000B4010E94BB350E9472370E940937CB01C4
:102CD0000E941418C114D10499F00E94851F21E0AC
:102CE000C21AD10880919F0581110AC08FEF90E729
:102CF00022E0815090402040E1F700C00000EACF80
:102D0000FF90EF90DF90CF90BF90AF909F908F900B
:102D100008950E94550F83E00E94E50F0E94851FD1
:102D200080919F05811104C00E941A050C94600FC8
:102D30000895CF92DF92EF920F93CF93DF9300D05D
:102D400000D01F92CDB7DEB76C018091A005823014
:102D500009F481C02D8349835A836B837C830E944D
:102D600032211092BE05802F0E94541F0E94661FC0
:102D70002D8149815A816B817C818823A1F09FB785
:102D8000F8948091A30580618093A3059FBF2D8354
:102D900049835A836B837C830E94851F7C816B816E
:102DA0005A8149812D8180919F05811154C0C601AE
:102DB0000E94DD1281E08093B1059FB7F894809165
:102DC000A20582608093A2059FBF0E94851F80910B
:102DD0009F05811140C08091A0058111F6CF80919F
:102DE000B1058130A9F4EE2051F08CE0E4EAF5E081
:102DF000A2EBB5E001900D928A95E1F70CC09FB768
:102E0000F8948091A30580618093A3059FBF03C0C0
:102E100081E08093BE051092B1050E94851F8091CC
:102E20009F05811118C00E94AE2C0E9460190E945B
:102E3000961D64EA75E0C6010E94A1350F900F90BF
:102E40000F900F900F90DF91CF910F91EF90DF9047
:102E5000CF900C9453230F900F900F900F900F90E2
:102E6000DF91CF910F91EF90DF90CF9008958091F7
:102E7000A20584FD26C09FB7F8948091A2058061C9
:102E80008093A2059FBF0E9491290E943A048091DD
:102E9000A005982F9C7021F49091A105913089F4A0
:102EA0009FB7843029F4F8948091A305806204C010
:102EB000F8948091A30588608093A3059FBF0C942C
:102EC000182A08956F927F928F929F92AF92BF922D
:102ED000CF92DF92EF92FF920F931F93CF93DF93E6
:102EE0007C018B016A01FB018081F701E80FF11D74
:102EF0002081EF012D3229F42296218166246394EA
:102F000007C02B3211F0219602C022962181612C3C
:102F1000A12CB12C712C60E070E0CB01FE0130EDF2
:102F2000932E920E29E02915C8F0B39428E02B15B2
:102F300088F0A1107A94A5E0B0E09B01AC010E945A
:102F4000133A660F771F881F991F690D711D811D28
:102F5000911D0BC0A11009C0739407C02EEF9212EF
:102F600007C0A11005C0AA24A39421962081D6CF22
:102F7000BB2009F449C00E9435374B015C0120E0B9
:102F800030E0A9010E949536882361F18FEF781611
:102F90006CF42AE037ED43E25CE3C501B4010E9422
:102FA000D3384B015C0173947394F0CF78120BC04B
:102FB0002DEC3CEC4CEC5DE3C501B4010E94D33830
:102FC0004B015C010FC0772069F020E030E040E267
:102FD00051E4C501B4010E94D3384B015C017A94DD
:102FE00017149CF3662021F0B7FAB094B7F8B094A8
:102FF000F60180829182A282B382CE19DF09C1508C
:10300000F801C08381E001C080E0DF91CF911F9182
:103010000F91FF90EF90DF90CF90BF90AF909F9077
:103020008F907F906F900895009741F0EFE9FFE057
:103030003197F1F700C000000197F6CF08958F9205
:103040009F92AF92BF92CF92DF92EF92FF9269016F
:103050007A019B01AC010E94D3384B015C01A701AE
:103060009601C701B6010E94D3389B01AC01C5018E
:10307000B4010E94BC35FF90EF90DF90CF90BF90DD
:10308000AF909F908F900C9460394F925F926F92A7
:103090007F928F929F92AF92BF92CF92DF92EF92E8
:1030A000FF920F931F93CF93DF9310911E01111185
:1030B00001C012E1115000911C01101709F4EFC07A
:1030C00089E2189FE0011124C05EDE4F8D889E8842
:1030D000AF88B88C69A17AA18BA19CA19B01AC019E
:1030E0000E94BC352DA13EA14FA158A50E94D33806
:1030F0006B017C019B01AC01B401C5010E949536B6
:1031000087FF02C064017501A601B701498B5A8B84
:103110006B8B7C8B111101C012E177247A94710EB4
:10312000701619F029E2622E27C080911F01081342
:1031300051C00E94FC2C4EC0679C80011124005E8F
:103140001E4F711002C092E1792E7A9480911F0176
:10315000781202C00E94FC2CF801C588D688E78846
:10316000F08CA701960161897289838994890E94F4
:103170009536811106C0E80180911C017812DCCFE0
:1031800029C0F80161A172A183A194A19B01AC01A6
:103190000E94BC35F80125A136A147A150A50E9487
:1031A000D33829893A894B895C890E94BC354B0107
:1031B0005C01A70196010E949536F80187FF05C0C2
:1031C000818A928AA38AB48AD6CFC18AD28AE38AB4
:1031D000F48AD1CF60901C01F9E26F9E8001112426
:1031E000005E1E4F77247394760C82E1781201C042
:1031F000712C50901E0189E2482E751409F44DC0BF
:10320000479CE0011124C05EDE4FF801818892885E
:10321000A388B488C988DA88EB88FC88A70196015E
:10322000C501B4010E94953687FF23C0F80161A152
:1032300072A183A194A19B01AC010E94BC35F8014D
:1032400025A136A147A150A50E94D3389B01AC010E
:10325000C501B4010E94BC354B015C01A701960178
:103260000E94953687FF05C0898A9A8AAB8ABC8AF4
:10327000672C2D893E894F89588D69897A898B8978
:103280009C890E949536811101C0672C7394F2E1EC
:103290007F1201C0712C8E01B0CF60921C01DF91B2
:1032A000CF911F910F91FF90EF90DF90CF90BF9043
:1032B000AF909F908F907F906F905F904F90089508
:1032C0008CE1E0E0F1E0DF011D928A95E9F71092D0
:1032D0001F0110921E0181E080931D0110921C01BC
:1032E000089590911F0180911E01891769F081E076
:1032F000890F823109F480E020911C01921302C0F1
:1033000080931C0180931F01089580911F0190916B
:103310001E01981739F029E2829FC0011124805EB6
:103320009E4F089580E090E00895E0911F01EF5FC7
:10333000E23109F4E0E080911E01E81761F089E2D2
:10334000E89FF0011124E05EFE4F61897289838954
:1033500094890C94603960E070E0CB01089581E0BD
:1033600020911F0190911D01291380E008952F9253
:103370003F924F925F926F927F928F929F92AF9205
:10338000BF92CF92DF92EF92FF920F931F93CF9352
:10339000DF93CDB7DEB7AF970FB6F894DEBF0FBEA1
:1033A000CDBF9CA38BA3142F052F6B8F7C8F28A7D9
:1033B00080911E0129E2829F10011124A101405E2B
:1033C0005E4F1A01FA01158616861786108A15A215
:1033D00016A217A210A6108289E996E7A6E9BEE711
:1033E00081A392A3A3A3B4A3209180063091810668
:1033F0004091820650918306EBA1FCA1608171810E
:10340000828193810E94D3380E94A3382B013C0112
:103410006D877E878F87988B2091840630918506F3
:103420004091860650918706EBA1FCA164817581CD
:10343000868197810E94D3380E94A3384B015C019A
:10344000698B7A8B8B8B9C8B809100019091010111
:10345000A0910201B0910301B301A201481B590BD5
:103460006A0B7B0BC0900401D0900501E09006012F
:10347000F0900701D501C4018C199D09AE09BF095F
:10348000840F951FA61FB71FB7FF07C0B095A09563
:10349000909581959F4FAF4FBF4FF10181839283EC
:1034A000A383B483C818D908EA08FB08C40ED51E44
:1034B000E61EF71EF7FE08C0F094E094D094C09486
:1034C000C11CD11CE11CF11CF101C582D682E7822E
:1034D000F08620E836E03AA329A3AE014F5F5F4FA4
:1034E0005FA34EA318A21F8E1D8EF1014585568540
:1034F00067857089EF8DF8A1E20DF31D81819281BE
:10350000A381B48184179507A607B70710F4DB01E0
:10351000CA01F10185879687A787B08BFD8DF111D0
:1035200021C08091000190910101A0910201B09110
:103530000301A3019201281B390B4A0B5B0BCA0143
:10354000B901C0900401D0900501E0900601F0900F
:103550000701A50194012C193D094E095F09690174
:103560007A011FC0FD8DF13009F580910001909125
:103570000101A0910201B0910301A3019201281B56
:10358000390B4A0B5B0BCA01B901C0900401D09002
:103590000501E0900601F0900701C818D908EA0873
:1035A000FB086C0D7D1D8E1D9F1D17C0EDE0F0E02A
:1035B000EC0FFD1F2F8D38A1E20FF31F6081718189
:1035C00082819381F901E050FF4FC080D180E28079
:1035D000F3806C197D098E099F090E943737E9A194
:1035E000FAA120813181428153810E949C366B0176
:1035F0007C01EEA1FFA16193719381939193FFA34D
:10360000EEA320E030E0A9010E94953687FF0AC0B2
:10361000F10190818D8D9FA70E9477299FA5892B0D
:10362000F1018083A7019601C701B6010E94D3383A
:10363000F10125A136A147A150A50E94BC35F10199
:1036400065A376A387A390A7FD8DFF5FFD8FF33061
:1036500009F442C05D8D523091F520918806309179
:10366000890640918A0650918B06EBA1FCA16085EA
:103670007185828593850E94D3380E94A3386D8B13
:103680007E8B8F8B988FC0900801D0900901E090BD
:103690000A01F0900B01DC01CB018C199D09AE09E8
:1036A000BF09B7FF07C0B095A095909581959F4F32
:1036B000AF4FBF4FF10181879287A387B4872F8DCA
:1036C00038A12C5F3F4F38A32F8F49A15AA14C5FDF
:1036D0005F4F5AA349A309CF0E9460396B017C0157
:1036E000F10165A376A387A390A785859685A78515
:1036F000B089892B8A2B8B2B09F4FFC120E030E0A5
:10370000A901612F702F8B8D9C8D0E94953687FDAE
:1037100022C0F8A5FF2361F0A7019601612F702F49
:103720008B8D9C8D0E94D338162F072F8B8F9C8FEB
:1037300020E030E040E85FE3612F702F8B8D9C8D9F
:103740000E94953687FF0DC010E000E040E84B8FE7
:103750005FE35C8F06C019E906E726E92B8F3EE799
:103760003C8FA701960160E070E080E89FE30E9433
:103770009C366BA77CA78DA79EA78CE091E09AA3AF
:1037800089A3ECE8F6E0F8A3EF8F9E01235F3F4F9B
:103790003A8F298FAE014F5F5F4F5E8F4D8FC12CE7
:1037A000D12C7601ED8DFE8D80809180A280B3803A
:1037B00020E030E0A901C501B4010E9495368823BC
:1037C00009F47FC02BA53CA54DA55EA5C501B4019C
:1037D0000E94D3384B015C01ED8DFE8D60837183B7
:1037E000828393839B01AC0160E070E080E89FE3FB
:1037F0000E949C362B013C01E89477F8EF8DF8A1EC
:103800002081318142815381C301B2010E94D338AA
:103810006BA37EA388A79DA39B01AC01612F702F92
:103820008B8D9C8D0E94953687FF06C01BA30EA32F
:10383000FB8DF8A72C8D2DA3F101F1A1FB8FF101D8
:10384000F2A1FC8FF101F3A1F9A7F101F4A1FAA70C
:10385000EF8DF8A12485358546855785C301B201D2
:103860000E94D3383B018C019B01AC016B8D7C8D98
:1038700089A59AA50E94953687FF04C06B8C7C8C25
:1038800009A51AA5C301D801F10181A392A3A3A39D
:10389000B4A3E9A1FAA12081318142815381C501FC
:1038A000B4010E94D3389B01AC01C701B6010E944C
:1038B000BB356B017C011BA10EA1F8A5FB8F2DA1CF
:1038C0002C8F4D8D5E8D4C5F5F4F5E8F4D8F89A12C
:1038D0009AA104969AA389A3EF8DF8A13496F8A330
:1038E000EF8F298D3A8D4217530709F05BCF9091E6
:1038F0001E0180911F01981306C0F101118A128ADE
:10390000138A148A0BC024EA30E74DE75FE3C7014E
:10391000B6010E949838181634F4F101118E128EF7
:10392000138E148E5BC024EA30E74DE75FEBC701CE
:10393000B6010E949838181644F034EAC32E30E7D6
:10394000D32E3DE7E32E3FEBF32EA701960160E077
:1039500070E080E89FE30E94BB3520E030E040E06B
:103960005FE30E94D3380E9460396B017C01209193
:10397000B5063091B6064091B7065091B806F101F0
:1039800061A172A183A194A10E94D338A7019601DD
:103990000E94D3384B015C01A701960160E070E002
:1039A00080E89FE30E94BB359B01AC01C501B401D7
:1039B0000E949C366B017C0120E030E0A9010E944E
:1039C000953687FF04C0C12CD12CE12CF12CA60127
:1039D000B701F101418F528F638F748F212F302FE8
:1039E0004B8D5C8D612F702F8B8D9C8D0E94D338F9
:1039F000162F072FF82EE92E862F902FAF2DBE2DD4
:103A0000F101858F968FA78FB0A3A18CB28CC38C48
:103A1000D48C609018017090190180901A019090D8
:103A20001B019301A401612F702F8F2D9E2D0E94E9
:103A3000953687FD0BC09301A401B501C6010E9414
:103A4000953687FD11C0530164010EC0212F302F20
:103A50004F2D5E2DB501C6010E94953687FD04C02D
:103A6000A12EB02ECF2CDE2CC501D601F101858B05
:103A7000968BA78BB08F8CE0FE013196ACE0B1E065
:103A800001900D928A95E1F7812F902FAF2DBE2DD9
:103A90008093180190931901A0931A01B0931B0110
:103AA0008CE0FE013D96A0E0B1E001900D928A9578
:103AB000E1F780911D0180931E018F5F823109F42F
:103AC00080E080931D01AF960FB6F894DEBF0FBE65
:103AD000CDBFDF91CF911F910F91FF90EF90DF90BD
:103AE000CF90BF90AF909F908F907F906F905F909E
:103AF0004F903F902F900C944518AF960FB6F894C6
:103B0000DEBF0FBECDBFDF91CF911F910F91FF9010
:103B1000EF90DF90CF90BF90AF909F908F907F906D
:103B20006F905F904F903F902F9008954F925F92CB
:103B30006F927F928F929F92AF92BF92CF92DF92BD
:103B4000EF92FF92CF93DF9300D000D0CDB7DEB7D6
:103B50004090A4055090A5056090A6057090A7051B
:103B60008090A8059090A905A090AA05B090AB05FB
:103B70008091AC059091AD05A091AE05B091AF05D7
:103B800089839A83AB83BC83C301B201680D791D1D
:103B90008A1D9B1D42E0C42ED12CE12CF12CA701E3
:103BA00096010E94EE392093000130930101409369
:103BB000020150930301C301B201681979098A090E
:103BC0009B09A70196010E94EE39209304013093CE
:103BD0000501409306015093070189819A81AB81C9
:103BE000BC818093080190930901A0930A01B093CE
:103BF0000B010F900F900F900F90DF91CF91FF90DE
:103C0000EF90DF90CF90BF90AF909F908F907F907C
:103C10006F905F904F90089580911E0190911F01C9
:103C2000891708F48E5E891B08950E94FC2C8091F0
:103C30001F0180931C010C944518CF93DF93EC0176
:103C40008991882319F00E940C26FACFDF91CF9139
:103C50000895CF93DF93FC018491EF01219688238F
:103C600021F00E940C26FE01F7CFDF91CF9108953D
:103C7000EF92FF920F931F93CF93DF931F92CDB7D5
:103C8000DEB7262FEDB6FEB66DB77EB7641B7109A1
:103C90000FB6F8947EBF0FBE6DBF0DB71EB70F5F96
:103CA0001F4F302FF8019E2F931B941728F4622F7B
:103CB0000E94C0399193F7CF442361F0F801E40FDB
:103CC000F11D31978081805D49830E940C264981D6
:103CD0004150F2CF0FB6F894FEBE0FBEEDBE0F906E
:103CE000DF91CF911F910F91FF90EF90089548E0E1
:103CF00062E00C94381E8A3020F0843620F442E0D2
:103D000003C041E001C043E06AE00C94381E8F928A
:103D10009F92AF92BF92CF92DF92EF92FF920F935A
:103D20001F93CF93DF93CDB7DEB72A970FB6F894E2
:103D3000DEBF0FBECDBF6B017C01142F20E030E051
:103D4000A9010E94953687FF07C08DE20E940C26CC
:103D5000F7FAF094F7F8F094012F023060F020E0C9
:103D600030E048EC52E4C701B6010E94D3386B0141
:103D70007C010250F2CF10FF0AC020E030E040E2A8
:103D800051E4C701B6010E94D3386B017C0120E0E9
:103D900030E040E05FE3C701B6010E94BC350E94FD
:103DA0000437E1E0F0E0EC0FFD1FE10FF11D2EE222
:103DB0002083D12C5AE0852E912CA12CB12C611599
:103DC000710581059105A9F0D11201C0D394EE24AB
:103DD000E394F12CEC0EFD1EED0CF11CA5019401F9
:103DE0000E94CC39605DF7016083B901CA01D394A8
:103DF000E6CF80E3D11648F4E1E0F0E0EC0FFD1FE0
:103E0000ED0DF11D8083D394F5CF8D2DD1120BC014
:103E1000D394D3948F5FE1E0F0E0EC0FFD1FE80F47
:103E2000F11D80E38083DD2041F0FE01ED0DF11DE9
:103E300080810E940C26DA94F6CF2A960FB6F89469
:103E4000DEBF0FBECDBFDF91CF911F910F91FF90CD
:103E5000EF90DF90CF90BF90AF909F908F9008959C
:103E60002091BD0620FF08C02BE832E441E25DE36B
:103E70000E94D33844E001C043E00C94871E209197
:103E8000BD0620FF08C02BE832E441E25DE30E945A
:103E9000D33841E001C040E00C94871E43E00C940D
:103EA000871E3D98459A08951092BF059091BD06D2
:103EB00097FD03C090E29093BF05882331F0809175
:103EC000BF0590E289278093BF05089586B180726F
:103ED0009091BF05892708958091B1058130A1F4A3
:103EE0000E94661F882381F01092B1058CE0E4EAFD
:103EF000F5E0A2EBB5E001900D928A95E1F7809193
:103F0000A20580648093A2050895EF92FF920F931B
:103F10001F93CF93DF93D1E008E080E2F82E10E109
:103F200090E4E92EC091A305CC2389F1D093A0059C
:103F3000C1FF02C081E00FC0C2FF02C082E00BC01F
:103F4000C3FF02C083E007C0C4FF02C084E003C017
:103F5000C5FF03C085E00E949121C0FD08C08FB756
:103F6000F8949091A3051092A3058FBF10C081E033
:103F70000E94BB219FB7F8948091A2058F7E809309
:103F8000A2059FBF8091A20584FFFCCFE8CFC0911E
:103F9000A205CC2309F4BCC0C4FF04C081E0809317
:103FA0009F05CEC0C0FF0AC00E94EE249FB7F894C0
:103FB0008091A2058E7F8093A2059FBF8C2F88766B
:103FC00009F43CC08091A005882349F0982F9C7784
:103FD00069F1883021F40E94FC2CD093A1058091D6
:103FE000A005811103C092E09093A105C6FF09C00E
:103FF000883011F4E092A0058091A105886080933B
:10400000A105C3FF05C08091A00585FF1093A00501
:10401000C5FF0CC086E00E94BB218091A10581FDF7
:10402000C46084608093A105F092A0059FB7F894C6
:104030008091A20587798093A2059FBFC1FF48C0E8
:104040008C2F8876E9F58091A005882331F0807562
:10405000B9F18091A10581FF33C08091A10582FF54
:104060001CC080913005882371F04091310550913A
:10407000320560913305709134050E94F72980EA7A
:104080009FE00E94141880912F05882331F00E9430
:104090003F0488EE93E00E9414180E948519892B32
:1040A00059F08091A10583FD07C00093A0050E94EF
:1040B0001E2D0E94F82902C01092A0051092A105A1
:1040C0009FB7F8948091A2058D7F8093A2059FBF32
:1040D000C2FF1EC08091A005807371F08091A10580
:1040E00082FF04C00E9491290E943A048091A10598
:1040F00082608093A10504C01092A1051092A005D2
:104100009FB7F8948091A2058B7F8093A2059FBFF3
:104110008091A0058C7711F00E941E2D8091A00542
:10412000803251F48091A10581FF06C00E94B33313
:10413000811102C01093A0058091A1058111F2CEDA
:10414000DF91CF911F910F91FF90EF9008959FB74E
:10415000F894E2EAF5E08081826080839FBF089551
:10416000CF93DF930E94EA218091A005813021F452
:1041700082E00E94BB212FC00E94B333882341F00C
:104180008091A20580628093A2050E94851F02C0D3
:104190001092A00582E094E00E94B5331CC08D30DF
:1041A00079F0DD2399F1893221F4D13009F04CC046
:1041B000D0E00E9452268F3F09F448C08A3079F738
:1041C000EC2FF0E0EE5FFB4F10820E94851F809184
:1041D0009F05882311F0C0E0EBCF8091020481118C
:1041E00003C00E944321F7CF843229F482E094E097
:1041F0000E94D433F6CF8091A005813011F489E07C
:10420000F0CF82E094E00E942005EBCF813288F26B
:104210008F3279F28832B1F08B33B1F0CF3428F09D
:104220008BE00E944321C0E0C4CF2C2F30E0CF5F51
:104230009FE9980FF901EE5FFB4F9A3108F4805225
:104240008083B7CFD1E0B5CFD2E0B3CF0E94A72013
:104250000E94851F80919F05882309F4AACFDF91D2
:10426000CF9108950E94A7200E94851F80919F05ED
:10427000811108C00E948519892BB1F78091A00592
:10428000883091F30895CF93C82F811103C086E43D
:1042900098E044C08EE398E00E94291E4C2F50E025
:1042A000FA013197E631F10580F5E75AFF4F0C949A
:1042B0000D3A86E298E002C084E198E00E94291E4F
:1042C0002BC082E098E0FACF88EF97E0F7CF87EE37
:1042D00097E0F4CF88ED97E0F1CF87EB97E0EECF52
:1042E0008EEA97E0EBCF83EA97E0E8CF80E997E0AA
:1042F000E5CF82E897E0E2CF8CE697E0DFCF88E574
:1043000097E0DCCF84E497E0D9CF82E397E00E9486
:10431000291E8C2F0E947B1E8FE297E0CF910C9478
:10432000291ECF93C82F87E297E00E94291EC33031
:1043300091F03CF4C13061F0C230A1F481E197E02A
:104340000FC0C43059F0C53069F487EE96E008C05C
:104350008CE197E005C08EEF96E002C083EF96E017
:104360000E94291E84EE96E00E94291E84EF91E0AF
:10437000CF910C941418CF93C82F82EE96E00E9430
:10438000291E8C2F90E0FC013197E830F105E8F40C
:10439000E159FF4F0C940D3A80ED96E014C08CEB80
:1043A00096E011C08AEA96E00EC082EA96E00BC061
:1043B00089E996E008C08EE896E005C086E896E0B8
:1043C00002C083E796E00E94291E8FE696E0CF9117
:1043D0000C94291E82E596E00C94291E8EE095E04F
:1043E0000C94291EFF920F931F93CF93DF938AE0C3
:1043F00095E00E94291E8091B0060E947B1E81EFED
:1044000094E00E94291E8091B3060E947B1E83EDDA
:1044100094E00E94291E8091B1060E947B1E8AEBC7
:1044200094E00E94291E8091B1060E94771E83EBC2
:1044300094E00E94291E8091B2060E947B1E8BE9A7
:1044400094E00E94291E8091B2060E94771E84E9A2
:1044500094E00E94291E8091BD0682FB882780F986
:104460000E947B1E83E794E00E94291E8091BD0676
:1044700086FB882780F90E947B1E83E594E00E94DA
:10448000291E8091BD06881F8827881F0E947B1ED9
:1044900083E394E00E94291E8091B4060E947B1E53
:1044A0008DE194E00E94291E8091B4060E94771E3F
:1044B00085E194E00E94291E6091B5067091B606D0
:1044C0008091B7069091B8060E944E1F85EF93E049
:1044D0000E94291E6091B9067091BA068091BB06B0
:1044E0009091BC060E944E1F8AED93E00E94291E07
:1044F0008091BD0681700E947B1E8DEB93E00E942F
:10450000291E8091BD0685FB882780F90E947B1EAD
:1045100082EA93E00E94291E8091BD0683FB8827D2
:1045200080F90E947B1E87E893E00E94291E8091FB
:10453000BD06829581700E947B1E8BE693E00E94EF
:10454000291E8091BE060E947B1E81E593E00E9499
:10455000291E8091BE060E94771E89E493E00E9486
:10456000291E6091BF067091C0068091C10690918E
:10457000C2060E944E1F8CE293E00E94291E6091A9
:10458000C3067091C4068091C5069091C6060E942C
:104590004E1F8FE093E00E94291E8091C7060E9463
:1045A0007B1E80EF92E00E94291E6091C9067091E7
:1045B000CA068091CB069091CC060E944E1F87EDD3
:1045C00092E00E94291E84E6F82E10E0C0E8D6E0B2
:1045D00000E085ED92E00E94291E802F8F0D0E9441
:1045E0007B1E83ED92E00E94291E123071F0133081
:1045F000B9F0113029F0688179818A819B8117C0D7
:104600006C857D858E859F8512C020E030E041E677
:1046100055E4688D798D8A8D9B8D0E949C3607C0EC
:104620008CA19DA1AEA1BFA1BC01CD0190580E945B
:104630004E1F80ED92E00E94291E013029F00230C9
:1046400031F08EEC92E005C08CEC92E002C08AEC76
:1046500092E00E94291E123051F0133059F01130AF
:1046600019F080EC92E008C08EEA92E005C08DE976
:1046700092E002C08DE892E00E94291E89E892E053
:104680000E94291E0F5F2496033009F0A2CF8AE012
:10469000F80E1F5F8CE8F81299CFDF91CF911F9130
:1046A0000F91FF900895CF9383E892E00E94291E16
:1046B000C0E06C2F82EB95E00E944C350E94301FC9
:1046C000C23021F081E892E00E94291ECF5FC33002
:1046D00081F78FE792E00E94291E8091BE050E941B
:1046E0007B1E8BE792E0CF910C94291EEF92FF92F4
:1046F0000F931F93CF93DF93CDB7DEB72C970FB6F1
:10470000F894DEBF0FBECDBFF12CBE016F5F7F4FAF
:104710008F2D0E942528811104C087E00E9443212B
:1047200069C088E792E00E94291E86E0F81631F001
:10473000E7E0FE1208C082E792E002C085E792E05F
:104740000E94291E04C086E38F0D0E947B1E80E715
:1047500092E00E94291E8E010F5F1F4FE12CF8018D
:1047600061917191819191918F010E94301FF2E0CE
:10477000EF1619F08EE692E002C08AE692E00E94FF
:10478000291EE39483E0E812EACFF394E8E0FE12F6
:10479000BCCF84E692E00E94291E06E515E0F12CCC
:1047A000F80161917191819191918F010E94301F67
:1047B000F2E0FF1619F082E692E002C08EE592E088
:1047C0000E94291EF39483E0F812EACF88E592E074
:1047D0000E94291E609162057091630580916405B5
:1047E000909165050E94301F84E592E00E94291E89
:1047F0000E9453232C960FB6F894DEBF0FBECDBF98
:10480000DF91CF911F910F91FF90EF90089582E576
:1048100092E00E94291E80912705823091F038F4A1
:10482000882361F08130A9F48CE492E00CC08330DD
:1048300069F0883071F482E492E005C08FE492E080
:1048400002C089E492E00E94291E0CC086E492E036
:10485000FACF8DE392E00E94291E809127058650B1
:104860000E947B1E8AE392E00E94291E80912D0502
:104870008A5C0E947B1E80912B05813049F028F0D4
:10488000823051F48BE292E005C085E392E002C0F1
:1048900080E392E00E94291E80912905811103C0C6
:1048A00086E292E002C081E292E00E94291E80919D
:1048B0002A05811103C08CE192E002C087E192E0F9
:1048C0000E94291E80912805813019F482E192E02E
:1048D00002C08DE092E00E94291E80912E05813059
:1048E00049F028F0823051F481E092E005C089E07F
:1048F00092E002C085E092E00E94291E809130057E
:10490000813031F040F0823051F489EF91E005C000
:104910008DEF91E002C085EF91E00E94291E809109
:104920002F05882329F0823039F48DEE91E002C002
:1049300081EF91E00E94291E8AEE91E00E94291EDB
:10494000809139050E947B1E87EE91E00E94291E0E
:104950006091350570913605809137059091380545
:104960000E943F1F84EE91E00E94291E6091310554
:104970007091320580913305909134050E943F1F5C
:1049800080EE91E00C94291E1F93CF93DF93182F94
:10499000EB018DED91E00E94291E812F0E947B1E6C
:1049A0008BED91E00E94291ECE010E941D1E88ED14
:1049B00091E0DF91CF911F910C94291ECF93DF934B
:1049C000EC0188EC91E00E94291ECE010E941D1E80
:1049D00084EC91E0DF91CF910C94291EBF92CF928D
:1049E000DF92EF92FF920F931F93CF93DF93CDB798
:1049F000DEB768970FB6F894DEBF0FBECDBF8CE070
:104A0000E4EAF5E0DE011D9601900D928A95E1F74A
:104A10008091A0058430E9F040F48130E9F080F025
:104A2000823009F58FE991E01CC0803179F018F4EB
:104A3000883049F018C0803291F0803421F013C0E2
:104A40008EEB91E00EC089EB91E00BC083EB91E01F
:104A500008C08DEA91E005C086EA91E002C089E9CC
:104A600091E00E94291E8091B406837039F0BE0146
:104A7000635F7F4FCE0101960E94A1358091B406FD
:104A800080FD05C08091B40681FF6DC01FC082E922
:104A900091E00E94291E69817A818B819C810E940C
:104AA000301F80E991E00E94291E6D817E818F81F7
:104AB00098850E94301F80E991E00E94291E698537
:104AC0007A858B859C850E94301FDCCF89E891E038
:104AD0000E94291E9AE4E92E95E0F92E8E010F5FBF
:104AE0001F4FB12C6801F7016191719181919191F2
:104AF0007F0120853185428553850E94BC359B010D
:104B0000AC01F80160817181828193810E94BB3583
:104B1000F8016083718382839383F2E0BF120FC038
:104B200020916205309163054091640550916505BF
:104B30000E94BB35F80160837183828393830C5F8D
:104B40001F4FF60160817181828193810E94301F25
:104B5000F2E0BF1621F087E891E00E94291EB3948D
:104B600023E0B212BFCF8091B40682FF08C081E873
:104B700091E00E94291E0E940C1E0E947B1E8091C3
:104B8000B40683FF08C08CE791E00E94291E0E94B2
:104B9000ED250E947B1E8091B40684FF0AC086E743
:104BA00091E00E94291E0E94770F43E062E00E947C
:104BB000381E82E791E00E94291E68960FB6F8948D
:104BC000DEBF0FBECDBFDF91CF911F910F91FF9040
:104BD000EF90DF90CF90BF90089590915404809112
:104BE0005504891708F48058891B0895E0ECF0E01B
:104BF0008081826080831092C50080E18093C40030
:104C0000E1ECF0E080818061808380818860808336
:104C10008081806880830895E091530491E09E0F25
:104C2000903409F490E020915204921305C0209131
:104C3000A20524FFF8CF0895F0E0E054FA4F8083F6
:104C4000909353048091C10080628093C1000895C5
:104C50001F920F920FB60F9211248F939F93EF9391
:104C6000FF9380915204E82FF0E0E054FA4F9081D6
:104C70009093C6008F5F803409F480E080935204E3
:104C800090915304891305C08091C1008F7D80935A
:104C9000C100FF91EF919F918F910F900FBE0F90E8
:104CA0001F9018959091540480915504891761F0D4
:104CB000E92FF0E0E050FA4F80819F5F903809F4CF
:104CC00090E09093540408958FEF08951F920F92EF
:104CD0000FB60F9211242F933F934F935F936F93CF
:104CE0007F938F939F93AF93BF93EF93FF938091A5
:104CF000C6008F33A9F050F4883109F1813211F5E3
:104D00009FB7F8948091A205886015C0803471F037
:104D10008E37C1F49FB7F8948091A20582600BC0D2
:104D20009FB7F8948091A205816005C09FB7F89461
:104D30008091A20580628093A2059FBF14C00E944B
:104D4000371711C0E091550491E09E0F903809F497
:104D500090E020915404921731F0F0E0E050FA4FC7
:104D6000808390935504FF91EF91BF91AF919F91F4
:104D70008F917F916F915F914F913F912F910F9004
:104D80000FBE0F901F901895809155048093540486
:104D9000089521E5829FC001112440E550E09D5F08
:104DA0000C94850440E550E0BC018EEA93E00C943D
:104DB00085042DE0829FC00111244CE050E09E5FED
:104DC0000C94850469E080E090E00E9463044DE467
:104DD00050E060E876E081E090E00C948504EF928A
:104DE000FF920F931F93CF93DF93CDB7DEB72C972E
:104DF0000FB6F894DEBF0FBECDBF182F80FFC1C025
:104E00008AE08093B00689E18093B3061092B106E0
:104E10001092B20683E08093B4068AE097EDA3E295
:104E2000BCE38093B5069093B606A093B706B09303
:104E3000B8068FE692E1A3E0BBE38093B9069093B6
:104E4000BA06A093BB06B093BC061092BE0680E0E3
:104E500090E0A8ECB1E48093BF069093C006A093C5
:104E6000C106B093C20640E050E06AEF73E440939D
:104E7000C3065093C4066093C5067093C6068AEFB6
:104E800090E09093C8068093C70680E090E0A0E889
:104E9000BFE38093C9069093CA06A093CB06B09354
:104EA000CC061092BD0680E090E0AAE7B3E48093C0
:104EB000800690938106A0938206B0938306809328
:104EC000840690938506A0938606B0938706809308
:104ED000880690938906A0938A06B0938B06409328
:104EE0008C0650938D0660938E0670938F064093C8
:104EF00090065093910660939206709393064093A8
:104F0000940650939506609396067093970640E03A
:104F100050EA6CE077E440939806509399066093CA
:104F20009A0670939B0640939C0650939D0660934F
:104F30009E0670939F064093A0065093A10660932F
:104F4000A2067093A30640E050E068E473EC40933F
:104F5000A4065093A5066093A6067093A7064093F7
:104F6000A8065093A9066093AA067093AB064093D7
:104F7000AC065093AD066093AE067093AF060E94E8
:104F8000E22611FF10C0CE0101967C018CE0F701F2
:104F900011928A95E9F700E0B701802F0E94D92687
:104FA0000F5F0830C9F712FF0AC060E080E093E0AD
:104FB0000E94630460E081E593E00E94630413FFB4
:104FC00005C060E08EEA93E00E9463042C960FB661
:104FD000F894DEBF0FBECDBFDF91CF911F910F912F
:104FE000FF90EF9008951F93CF93DF93182FEB015D
:104FF00081E5189FB00111247D5F40E550E0CE01AE
:105000000E94C304892B39F41882BE01812F0E94AB
:10501000C92680E001C081E0DF91CF911F91089502
:10502000CF93DF93EC0140E550E06EEA73E00E941D
:10503000C304892B31F41882CE010E94D22680E06D
:1050400001C081E0DF91CF9108951F93CF93DF934B
:10505000182FEB018DE0189FB00111247E5F4CE00A
:1050600050E0CE010E94C304892B59F48CE0FE016C
:1050700011928A95E9F7BE01812F0E94D92680E01E
:1050800001C081E0DF91CF911F91089580E090E011
:105090000E945B04893059F44DE450E061E070E017
:1050A00080E896E00E94C30421E0892B09F420E007
:1050B000822F0895CF92DF92EF92FF92CF93DF93EA
:1050C000C82F6A017B0120E030E0A901C701B601C9
:1050D0000E94953687FDE6C0C43608F445C02CE929
:1050E0002C0F80E02330B8F530E0823079F0F90100
:1050F000EE0FFF1FEE0FFF1F833011F1813019F00B
:10510000E058F94F23C0E457F94F20C0E901CC0F14
:10511000DD1FCC0FDD1FC856D94F20E030E040E73F
:1051200052E4C701B6010E94D33820E030E040E7E6
:1051300052E40E94D338688379838A839B83AEC00C
:10514000EC55F94FF7FAF094F7F8F094C082D18259
:10515000E282F382A3C08F5F2A3008F4A5C08430B6
:1051600009F4A2C02A50BECFC701B6010E94A139DE
:105170000E9409378C2F90E08C31910508F094C083
:10518000FC01E958FF4F0C940D3A633008F48EC0CF
:105190006093B00683C06093B30680C06093B1068D
:1051A00002C06093B2060E94722C78C08091BD0646
:1051B000662311F0846007C08B7F05C08091BD0617
:1051C000662321F080648093BD0668C08F7BFBCF8F
:1051D0008091BD06662311F08068F5CF8F77F3CFFD
:1051E0006093B4065BC0C092B506D092B606E0925A
:1051F000B706F092B80652C0C092B906D092BA066D
:10520000E092BB06F092BC0649C08091BD066623C1
:1052100011F08160D8CF8E7FD6CF8091BD066623F6
:1052200021F084FF45C08062CECF8F7DCCCF8091AE
:10523000BD06662311F0886001C0877F8093BD069C
:105240000E94600F2BC08091BD06662311F0806123
:10525000BACF8F7CB8CF6093BE0620C0C092BF0685
:10526000D092C006E092C106F092C20617C0C0926A
:10527000C306D092C406E092C506F092C6060EC0E0
:1052800070E07093C8066093C70608C0C092C90654
:10529000D092CA06E092CB06F092CC060E94E2269B
:1052A00080E007C084E005C083E003C086E001C061
:1052B0008AE0DF91CF91FF90EF90DF90CF9008953B
:1052C0000E944628811108C087E00E9443218FEF89
:1052D0000E94EF260C94F2210895882321F081305A
:1052E00021F488E0089584E0089580E108958823FA
:1052F00021F0813021F480E4089580E2089580E86F
:105300000895882321F0813021F484E0089582E01B
:10531000089580E10895239A259A84E18093B3004B
:10532000089584E18093B3000895CF92DF92EF92C5
:10533000FF92CF93DF931F92CDB7DEB76A017B0157
:105340009091A005923009F44AC089830E94A72059
:105350000E9432218981811104C084E18093B300CD
:105360003EC0813011F42D9801C02D9A83E88093BE
:10537000B0008091B10087608093B10020E030E000
:10538000A901C701B6010E94953687FD11C020E032
:1053900030E044EB52E4C701B6010E949838181679
:1053A00054F4C12CD12C84EBE82E82E4F82E03C0F7
:1053B000C12CD12C760129E33EE843E65DE3C70129
:1053C000B6010E94D33820E030E040EA51E40E9468
:1053D000BC350E9472370E9409376093B3000F906A
:1053E000DF91CF91FF90EF90DF90CF9008950895D7
:1053F0008091BD0682FF02C0289A01C02898809142
:10540000A0058C70A1F08091860480939A0480910D
:105410008704809399048091B006880F8450819509
:105420008093980480916F00826080936F0008954C
:1054300080916F008D7F80936F0080918100887FC5
:10544000816080938100109285048091B3068F3F24
:1054500021F49091A305992349F09091A0059430EF
:1054600029F090E00E94141881E001C080E0909142
:10547000BD0692FF02C091E08927882311F0289A87
:105480000895289808951F920F920FB60F92112435
:105490002F933F934F935F936F937F938F939F933C
:1054A000AF93BF93CF93DF93EF93FF9380918504E6
:1054B0008111EFC19BB180919A04807E9F71892BED
:1054C0008BB98BB1837E90919904892B8BB9809194
:1054D000980486BD82E085BD81E080938504789440
:1054E0008091AC049091AD04892B09F0A4C0809107
:1054F0008A0490918904981709F492C0E0918A0473
:1055000086E0E89FF0011124E255FB4FF093AD04D3
:10551000E093AC0483819481909389008093880008
:10552000808191819093A8048093A704A2818091A7
:10553000A9048A1771F1A093A90481E1A89FD00161
:105540001124AE52BB4FB093AB04A093AA041D9696
:105550008D919D910D90BC91A02DB695A795979595
:1055600087958093930490939404A0939504B093AB
:10557000960480938F0490939004A0939104B09329
:10558000920480938B0490938C04A0938D04B09329
:105590008E04C091AA04D091AB04809186049881B6
:1055A000892780939A04258189819A81AB81BC8166
:1055B000022E04C0B695A795979587950A94D2F7C1
:1055C00080939B0490939C04A0939D04B0939E04AD
:1055D0008D819E81AF81B885022E04C0B695A795B6
:1055E000979587950A94D2F780939F049093A0048F
:1055F000A093A104B093A20489859A85AB85BC854C
:1056000004C0B695A795979587952A95D2F780936C
:10561000A3049093A404A093A504B093A6040BC084
:105620000E94182A9FB7F8948091A2058460809305
:10563000A2059FBF2EC10E946C1F109299048091F9
:105640009B0490919C04A0919D04B0919E04409174
:105650008B0450918C0460918D0470918E04840FA2
:10566000951FA61FB71F80938B0490938C04A09363
:105670008D04B0938E04E091AA04F091AB044585AB
:10568000568567857089481759076A077B0768F54B
:1056900024E0209399044585568567857089841B8D
:1056A000950BA60BB70B80938B0490938C04A0935F
:1056B0008D04B0938E0420818091A4059091A5055E
:1056C000A091A605B091A70525FF04C00197A109E7
:1056D000B10903C00196A11DB11D8093A40590934B
:1056E000A505A093A605B093A70580919F0490916E
:1056F000A004A091A104B091A20440918F04509104
:1057000090046091910470919204840F951FA61FDC
:10571000B71F80938F0490939004A0939104B0934B
:1057200092044585568567857089481759076A0729
:105730007B0778F52091990428602093990445858A
:10574000568567857089841B950BA60BB70B8093D4
:105750008F0490939004A0939104B09392042081BD
:105760008091A8059091A905A091AA05B091AB05DB
:1057700026FF04C00197A109B10903C00196A11D2C
:10578000B11D8093A8059093A905A093AA05B09395
:10579000AB058091A3049091A404A091A504B091BD
:1057A000A6044091930450919404609195047091E3
:1057B0009604840F951FA61FB71F809393049093A0
:1057C0009404A0939504B093960445855685678507
:1057D0007089481759076A077B0778F52091990463
:1057E0002061209399044585568567857089841BBF
:1057F000950BA60BB70B8093930490939404A093FE
:105800009504B093960420818091AC059091AD05EC
:10581000A091AE05B091AF0527FF04C00197A10983
:10582000B10903C00196A11DB11D8093AC059093F1
:10583000AD05A093AE05B093AF058091A00584306F
:1058400039F48091B005909199048923809399044B
:105850008091A7049091A80401979093A804809345
:10586000A704892B69F41092AD041092AC048091C6
:105870008A048F5F80938A04863011F410928A0420
:1058800080918704909199048927809399041092BC
:105890008504FF91EF91DF91CF91BF91AF919F91DF
:1058A0008F917F916F915F914F913F912F910F90C9
:1058B0000FBE0F901F9018951F920F920FB60F9268
:1058C00011248F939F939BB1809187048C71937E59
:1058D000892B8BB915BC9F918F910F900FBE0F90A4
:1058E0001F901895FF920F931F93CF93DF93109201
:1058F000870410928604C0E0D0E00C2F1C2F20916A
:10590000B10630E08C2F0C2E02C0359527950A94F5
:10591000E2F720FF07C0F09087040E946D298F29CD
:10592000809387042091B20630E002C03595279518
:105930001A95E2F720FF08C010918604802F0E947C
:105940007729812B809386042196C330D105A9F64F
:10595000DF91CF911F910F91FF9008950E94182A17
:105960008BE2E6E5F4E0DF011D928A95E9F783E238
:10597000EBE8F4E0DF011D928A95E9F710928404C8
:105980001092830410928A041092890481E080931B
:105990008804109285040E94722C8BB1837E9091B2
:1059A0008704892B8BB98BB18F7190918604892BD9
:1059B0008BB908958AB18C618AB9209A8AB1806EB8
:1059C0008AB9E1E8F0E080818F7E80838081886001
:1059D0008083E0E8F0E080818C7F808380818F701D
:1059E0008083EEE6F0E08081887F808314BC15BC64
:1059F0008081816080830895CF93DF93C091830479
:105A0000D09184042097B9F081E08093570460918D
:105A10006D0470916E0480916F04909170049B01ED
:105A2000AC010E94D338698B7A8B8B8B9C8B109244
:105A3000840410928304DF91CF9108952F923F92B6
:105A40004F925F926F927F928F929F92AF92BF928E
:105A5000CF92DF92EF92FF920F931F93CF93DF933A
:105A6000CDB7DEB7E5970FB6F894DEBF0FBECDBF5A
:105A70008091A005807709F40AC220E030E0A901F6
:105A800060916D0470916E0480916F049091700428
:105A90000E9495368111FBC103C6809183049091C9
:105AA0008404892B09F4FAC180918904F6E0F89FF7
:105AB000F0011124E255FB4FFE83ED8380915604E3
:105AC000828320918304309184043E872D87D901FD
:105AD0009596BC91BCA7F901F6A1FDA7D9019796AF
